{
  "contractName": "EverDragonsPlayer",
  "abi": [
    {
      "constant": false,
      "inputs": [
        {
          "name": "player",
          "type": "address"
        },
        {
          "name": "item",
          "type": "bytes32"
        },
        {
          "name": "value",
          "type": "uint32"
        }
      ],
      "name": "setItem",
      "outputs": [],
      "payable": false,
      "stateMutability": "nonpayable",
      "type": "function",
      "signature": "0x1511a377"
    },
    {
      "constant": false,
      "inputs": [
        {
          "name": "player",
          "type": "address"
        },
        {
          "name": "item",
          "type": "bytes32"
        },
        {
          "name": "value",
          "type": "int32"
        }
      ],
      "name": "modifyItem",
      "outputs": [],
      "payable": false,
      "stateMutability": "nonpayable",
      "type": "function",
      "signature": "0x1fad7e07"
    },
    {
      "constant": false,
      "inputs": [],
      "name": "payoutSurplus",
      "outputs": [],
      "payable": false,
      "stateMutability": "nonpayable",
      "type": "function",
      "signature": "0x20cd6b0f"
    },
    {
      "constant": true,
      "inputs": [
        {
          "name": "player",
          "type": "address"
        },
        {
          "name": "item",
          "type": "bytes32"
        }
      ],
      "name": "getItemForUser",
      "outputs": [
        {
          "name": "",
          "type": "uint32"
        }
      ],
      "payable": false,
      "stateMutability": "view",
      "type": "function",
      "signature": "0x28f9933a"
    },
    {
      "constant": false,
      "inputs": [
        {
          "name": "_goldPrice",
          "type": "uint256"
        }
      ],
      "name": "setGoldPrice",
      "outputs": [],
      "payable": false,
      "stateMutability": "nonpayable",
      "type": "function",
      "signature": "0x2d02a5b2"
    },
    {
      "constant": false,
      "inputs": [],
      "name": "buyGold",
      "outputs": [],
      "payable": true,
      "stateMutability": "payable",
      "type": "function",
      "signature": "0x2f7b8af4"
    },
    {
      "constant": false,
      "inputs": [],
      "name": "claimRewards",
      "outputs": [],
      "payable": false,
      "stateMutability": "nonpayable",
      "type": "function",
      "signature": "0x372500ab"
    },
    {
      "constant": false,
      "inputs": [],
      "name": "unpause",
      "outputs": [],
      "payable": false,
      "stateMutability": "nonpayable",
      "type": "function",
      "signature": "0x3f4ba83a"
    },
    {
      "constant": true,
      "inputs": [
        {
          "name": "player",
          "type": "address"
        },
        {
          "name": "chain",
          "type": "bytes32"
        }
      ],
      "name": "getLinkedAccountForUser",
      "outputs": [
        {
          "name": "",
          "type": "address"
        }
      ],
      "payable": false,
      "stateMutability": "view",
      "type": "function",
      "signature": "0x40463daa"
    },
    {
      "constant": true,
      "inputs": [],
      "name": "goldPrice",
      "outputs": [
        {
          "name": "",
          "type": "uint256"
        }
      ],
      "payable": false,
      "stateMutability": "view",
      "type": "function",
      "signature": "0x44501404"
    },
    {
      "constant": false,
      "inputs": [
        {
          "name": "chain",
          "type": "bytes32"
        },
        {
          "name": "account",
          "type": "address"
        }
      ],
      "name": "linkAccount",
      "outputs": [],
      "payable": false,
      "stateMutability": "nonpayable",
      "type": "function",
      "signature": "0x4f980638"
    },
    {
      "constant": true,
      "inputs": [],
      "name": "paused",
      "outputs": [
        {
          "name": "",
          "type": "bool"
        }
      ],
      "payable": false,
      "stateMutability": "view",
      "type": "function",
      "signature": "0x5c975abb"
    },
    {
      "constant": false,
      "inputs": [
        {
          "name": "_ownersCut",
          "type": "uint256"
        },
        {
          "name": "_dividendCut",
          "type": "uint256"
        }
      ],
      "name": "setCutAndBonus",
      "outputs": [],
      "payable": false,
      "stateMutability": "nonpayable",
      "type": "function",
      "signature": "0x61b3d07b"
    },
    {
      "constant": false,
      "inputs": [],
      "name": "payout",
      "outputs": [],
      "payable": false,
      "stateMutability": "nonpayable",
      "type": "function",
      "signature": "0x63bd1d4a"
    },
    {
      "constant": false,
      "inputs": [
        {
          "name": "player",
          "type": "address"
        },
        {
          "name": "chain",
          "type": "bytes32"
        },
        {
          "name": "account",
          "type": "address"
        }
      ],
      "name": "linkAccountForUser",
      "outputs": [],
      "payable": false,
      "stateMutability": "nonpayable",
      "type": "function",
      "signature": "0x69485b3d"
    },
    {
      "constant": false,
      "inputs": [],
      "name": "renounceOwnership",
      "outputs": [],
      "payable": false,
      "stateMutability": "nonpayable",
      "type": "function",
      "signature": "0x715018a6"
    },
    {
      "constant": true,
      "inputs": [],
      "name": "getCut",
      "outputs": [
        {
          "name": "",
          "type": "uint256"
        }
      ],
      "payable": false,
      "stateMutability": "view",
      "type": "function",
      "signature": "0x77f59966"
    },
    {
      "constant": false,
      "inputs": [],
      "name": "pause",
      "outputs": [],
      "payable": false,
      "stateMutability": "nonpayable",
      "type": "function",
      "signature": "0x8456cb59"
    },
    {
      "constant": false,
      "inputs": [
        {
          "name": "value",
          "type": "uint32"
        }
      ],
      "name": "sellGold",
      "outputs": [],
      "payable": false,
      "stateMutability": "nonpayable",
      "type": "function",
      "signature": "0x86378d54"
    },
    {
      "constant": true,
      "inputs": [],
      "name": "owner",
      "outputs": [
        {
          "name": "",
          "type": "address"
        }
      ],
      "payable": false,
      "stateMutability": "view",
      "type": "function",
      "signature": "0x8da5cb5b"
    },
    {
      "constant": false,
      "inputs": [
        {
          "name": "value",
          "type": "uint32"
        },
        {
          "name": "player",
          "type": "address"
        }
      ],
      "name": "payGoldToContract",
      "outputs": [],
      "payable": false,
      "stateMutability": "nonpayable",
      "type": "function",
      "signature": "0x941320ce"
    },
    {
      "constant": true,
      "inputs": [
        {
          "name": "goldSpent",
          "type": "uint256"
        }
      ],
      "name": "getCutGoldValue",
      "outputs": [
        {
          "name": "",
          "type": "uint256"
        }
      ],
      "payable": false,
      "stateMutability": "view",
      "type": "function",
      "signature": "0x9de23807"
    },
    {
      "constant": true,
      "inputs": [],
      "name": "playersCount",
      "outputs": [
        {
          "name": "",
          "type": "uint256"
        }
      ],
      "payable": false,
      "stateMutability": "view",
      "type": "function",
      "signature": "0xa3f67d6d"
    },
    {
      "constant": true,
      "inputs": [
        {
          "name": "item",
          "type": "bytes32"
        }
      ],
      "name": "getItem",
      "outputs": [
        {
          "name": "",
          "type": "uint32"
        }
      ],
      "payable": false,
      "stateMutability": "view",
      "type": "function",
      "signature": "0xaa0372e7"
    },
    {
      "constant": true,
      "inputs": [
        {
          "name": "chain",
          "type": "bytes32"
        }
      ],
      "name": "getLinkedAccount",
      "outputs": [
        {
          "name": "",
          "type": "address"
        }
      ],
      "payable": false,
      "stateMutability": "view",
      "type": "function",
      "signature": "0xb91c2708"
    },
    {
      "constant": true,
      "inputs": [],
      "name": "totalValue",
      "outputs": [
        {
          "name": "value",
          "type": "uint256"
        }
      ],
      "payable": false,
      "stateMutability": "view",
      "type": "function",
      "signature": "0xd4c3eea0"
    },
    {
      "constant": false,
      "inputs": [
        {
          "name": "goldSpent",
          "type": "uint256"
        }
      ],
      "name": "payoutCutAndBonus",
      "outputs": [],
      "payable": false,
      "stateMutability": "nonpayable",
      "type": "function",
      "signature": "0xd732f788"
    },
    {
      "constant": true,
      "inputs": [],
      "name": "dividendCut",
      "outputs": [
        {
          "name": "",
          "type": "uint256"
        }
      ],
      "payable": false,
      "stateMutability": "view",
      "type": "function",
      "signature": "0xe3a896d3"
    },
    {
      "constant": true,
      "inputs": [],
      "name": "ownersCut",
      "outputs": [
        {
          "name": "",
          "type": "uint256"
        }
      ],
      "payable": false,
      "stateMutability": "view",
      "type": "function",
      "signature": "0xe8fcf27a"
    },
    {
      "constant": false,
      "inputs": [
        {
          "name": "newOwner",
          "type": "address"
        }
      ],
      "name": "transferOwnership",
      "outputs": [],
      "payable": false,
      "stateMutability": "nonpayable",
      "type": "function",
      "signature": "0xf2fde38b"
    },
    {
      "constant": true,
      "inputs": [
        {
          "name": "index",
          "type": "uint256"
        }
      ],
      "name": "getPlayerByIndex",
      "outputs": [
        {
          "name": "",
          "type": "address"
        }
      ],
      "payable": false,
      "stateMutability": "view",
      "type": "function",
      "signature": "0xf48f0d8d"
    },
    {
      "inputs": [
        {
          "name": "registrarAddress",
          "type": "address"
        },
        {
          "name": "_goldPrice",
          "type": "uint256"
        }
      ],
      "payable": false,
      "stateMutability": "nonpayable",
      "type": "constructor",
      "signature": "constructor"
    },
    {
      "payable": true,
      "stateMutability": "payable",
      "type": "fallback"
    },
    {
      "anonymous": false,
      "inputs": [
        {
          "indexed": false,
          "name": "player",
          "type": "address"
        },
        {
          "indexed": false,
          "name": "item",
          "type": "bytes32"
        },
        {
          "indexed": false,
          "name": "value",
          "type": "uint32"
        }
      ],
      "name": "ItemChanged",
      "type": "event",
      "signature": "0x454f4982278417fab99ccac563fad94844041b1bcabae0e5fbf52870a18c4537"
    },
    {
      "anonymous": false,
      "inputs": [],
      "name": "Pause",
      "type": "event",
      "signature": "0x6985a02210a168e66602d3235cb6db0e70f92b3ba4d376a33c0f3d9434bff625"
    },
    {
      "anonymous": false,
      "inputs": [],
      "name": "Unpause",
      "type": "event",
      "signature": "0x7805862f689e2f13df9f062ff482ad3ad112aca9e0847911ed832e158c525b33"
    },
    {
      "anonymous": false,
      "inputs": [
        {
          "indexed": true,
          "name": "previousOwner",
          "type": "address"
        }
      ],
      "name": "OwnershipRenounced",
      "type": "event",
      "signature": "0xf8df31144d9c2f0f6b59d69b8b98abd5459d07f2742c4df920b25aae33c64820"
    },
    {
      "anonymous": false,
      "inputs": [
        {
          "indexed": true,
          "name": "previousOwner",
          "type": "address"
        },
        {
          "indexed": true,
          "name": "newOwner",
          "type": "address"
        }
      ],
      "name": "OwnershipTransferred",
      "type": "event",
      "signature": "0x8be0079c531659141344cd1fd0a4f28419497f9722a3daafe3b4186f6b6457e0"
    },
    {
      "constant": false,
      "inputs": [
        {
          "name": "player",
          "type": "address"
        },
        {
          "name": "name",
          "type": "bytes32"
        }
      ],
      "name": "setNameForUser",
      "outputs": [],
      "payable": false,
      "stateMutability": "nonpayable",
      "type": "function",
      "signature": "0x39af4e56"
    },
    {
      "constant": false,
      "inputs": [
        {
          "name": "name",
          "type": "bytes32"
        }
      ],
      "name": "setName",
      "outputs": [],
      "payable": false,
      "stateMutability": "nonpayable",
      "type": "function",
      "signature": "0x5ac801fe"
    },
    {
      "constant": true,
      "inputs": [
        {
          "name": "player",
          "type": "address"
        }
      ],
      "name": "getNameForUser",
      "outputs": [
        {
          "name": "",
          "type": "bytes32"
        }
      ],
      "payable": false,
      "stateMutability": "view",
      "type": "function",
      "signature": "0x48579054"
    },
    {
      "constant": true,
      "inputs": [],
      "name": "getName",
      "outputs": [
        {
          "name": "",
          "type": "bytes32"
        }
      ],
      "payable": false,
      "stateMutability": "view",
      "type": "function",
      "signature": "0x17d7de7c"
    }
  ],
  "bytecode": "0x60806040526001805460a060020a60ff02191690556101f4600581905560065534801561002b57600080fd5b506040516040806122c883398101604052805160209091015160008054600160a060020a031916331790558082600160a060020a03811615156100cf57604080517f08c379a000000000000000000000000000000000000000000000000000000000815260206004820152601f60248201527f7265676973747261722061646472657373206e6f7420617661696c61626c6500604482015290519081900360640190fd5b60018054600160a060020a031916600160a060020a03929092169190911790556000811161015e57604080517f08c379a000000000000000000000000000000000000000000000000000000000815260206004820152601660248201527f676f6c64207072696365206d757374206265203e203000000000000000000000604482015290519081900360640190fd5b6004555050612156806101726000396000f3006080604052600436106101b65763ffffffff7c01000000000000000000000000000000000000000000000000000000006000350416631511a37781146101b857806317d7de7c146101e55780631fad7e071461020c57806320cd6b0f1461023657806328f9933a1461024b5780632d02a5b2146102885780632f7b8af4146102a0578063372500ab146102a857806339af4e56146102bd5780633f4ba83a146102e157806340463daa146102f65780634450140414610336578063485790541461034b5780634f9806381461036c5780635ac801fe146103905780635c975abb146103a857806361b3d07b146103d157806363bd1d4a146103ec57806369485b3d14610401578063715018a61461042c57806377f59966146104415780638456cb591461045657806386378d541461046b5780638da5cb5b14610489578063941320ce1461049e5780639de23807146104c8578063a3f67d6d146104e0578063aa0372e7146104f5578063b91c27081461050d578063d4c3eea014610525578063d732f7881461053a578063e3a896d314610552578063e8fcf27a14610567578063f2fde38b1461057c578063f48f0d8d1461059d575b005b3480156101c457600080fd5b506101b6600160a060020a036004351660243563ffffffff604435166105b5565b3480156101f157600080fd5b506101fa610725565b60408051918252519081900360200190f35b34801561021857600080fd5b506101b6600160a060020a036004351660243560443560030b610735565b34801561024257600080fd5b506101b661095a565b34801561025757600080fd5b5061026f600160a060020a0360043516602435610b21565b6040805163ffffffff9092168252519081900360200190f35b34801561029457600080fd5b506101b6600435610b4f565b6101b6610c28565b3480156102b457600080fd5b506101b6610df2565b3480156102c957600080fd5b506101b6600160a060020a0360043516602435610ef5565b3480156102ed57600080fd5b506101b661103a565b34801561030257600080fd5b5061031a600160a060020a03600435166024356110eb565b60408051600160a060020a039092168252519081900360200190f35b34801561034257600080fd5b506101fa611117565b34801561035757600080fd5b506101fa600160a060020a036004351661111d565b34801561037857600080fd5b506101b6600435600160a060020a036024351661113c565b34801561039c57600080fd5b506101b6600435611194565b3480156103b457600080fd5b506103bd6111a1565b604080519115158252519081900360200190f35b3480156103dd57600080fd5b506101b66004356024356111b1565b3480156103f857600080fd5b506101b6611290565b34801561040d57600080fd5b506101b6600160a060020a03600435811690602435906044351661143a565b34801561043857600080fd5b506101b6611563565b34801561044d57600080fd5b506101fa611608565b34801561046257600080fd5b506101b6611612565b34801561047757600080fd5b506101b663ffffffff600435166116c8565b34801561049557600080fd5b5061031a61187b565b3480156104aa57600080fd5b506101b663ffffffff60043516600160a060020a036024351661188a565b3480156104d457600080fd5b506101fa600435611abd565b3480156104ec57600080fd5b506101fa611ad0565b34801561050157600080fd5b5061026f600435611ad6565b34801561051957600080fd5b5061031a600435611ae8565b34801561053157600080fd5b506101fa611af4565b34801561054657600080fd5b506101b6600435611bd5565b34801561055e57600080fd5b506101fa611e80565b34801561057357600080fd5b506101fa611e86565b34801561058857600080fd5b506101b6600160a060020a0360043516611e8c565b3480156105a957600080fd5b5061031a600435611fa4565b6001546040805160e060020a6312d9a6ad0281527f6d6f6469666965720000000000000000000000000000000000000000000000006004820181905233602483015291519192600160a060020a0316916312d9a6ad916044808201926020929091908290030181600087803b15801561062d57600080fd5b505af1158015610641573d6000803e3d6000fd5b505050506040513d602081101561065757600080fd5b5051151561069d576040805160e560020a62461bcd02815260206004820152600d60248201526000805160206120eb833981519152604482015290519081900360640190fd5b6106a63361202d565b600160a060020a0384166000818152600260209081526040808320878452825291829020805463ffffffff191663ffffffff878116919091179182905583519485529184018790521682820152517f454f4982278417fab99ccac563fad94844041b1bcabae0e5fbf52870a18c4537916060908290030190a150505050565b60006107303361111d565b905090565b6001546040805160e060020a6312d9a6ad0281527f6d6f646966696572000000000000000000000000000000000000000000000000600482018190523360248301529151600093600160a060020a0316916312d9a6ad91604480830192602092919082900301818887803b1580156107ac57600080fd5b505af11580156107c0573d6000803e3d6000fd5b505050506040513d60208110156107d657600080fd5b5051151561081c576040805160e560020a62461bcd02815260206004820152600d60248201526000805160206120eb833981519152604482015290519081900360640190fd5b6108253361202d565b600160a060020a038516600090815260026020908152604080832087845290915281205463ffffffff16600385900b019250600783900b121561089557600160a060020a03851660009081526002602090815260408083208784529091529020805463ffffffff191690556108da565b63ffffffff600783900b13156108da57600160a060020a03851660009081526002602090815260408083208784529091529020805463ffffffff191663ffffffff1790555b600160a060020a0385166000818152600260209081526040808320888452825291829020805463ffffffff191663ffffffff878116919091179182905583519485529184018890521682820152517f454f4982278417fab99ccac563fad94844041b1bcabae0e5fbf52870a18c4537916060908290030190a15050505050565b6001546040805160e060020a6312d9a6ad02815260d960020a6430b236b4b702600482018190523360248301529151600093849392600160a060020a03909116916312d9a6ad9160448082019260209290919082900301818887803b1580156109c257600080fd5b505af11580156109d6573d6000803e3d6000fd5b505050506040513d60208110156109ec57600080fd5b50511515610a32576040805160e560020a62461bcd02815260206004820152600d60248201526000805160206120eb833981519152604482015290519081900360640190fd5b610a3a611af4565b600480546001546040805160e060020a6321f8a7210281527f63757457616c6c6574000000000000000000000000000000000000000000000094810194909452519396509086023031039450600160a060020a0316916321f8a721916024808201926020929091908290030181600087803b158015610ab857600080fd5b505af1158015610acc573d6000803e3d6000fd5b505050506040513d6020811015610ae257600080fd5b5051604051600160a060020a039091169083156108fc029084906000818181858888f19350505050158015610b1b573d6000803e3d6000fd5b50505050565b600160a060020a03919091166000908152600260209081526040808320938352929052205463ffffffff1690565b6001546040805160e060020a6312d9a6ad02815260d960020a6430b236b4b7026004820181905233602483015291519192600160a060020a0316916312d9a6ad916044808201926020929091908290030181600087803b158015610bb257600080fd5b505af1158015610bc6573d6000803e3d6000fd5b505050506040513d6020811015610bdc57600080fd5b50511515610c22576040805160e560020a62461bcd02815260206004820152600d60248201526000805160206120eb833981519152604482015290519081900360640190fd5b50600455565b600154600090819060a060020a900460ff1615610c4457600080fd5b33915060045434811515610c5457fe5b049050610c608261202d565b60003411610cb8576040805160e560020a62461bcd02815260206004820152601360248201527f76616c75652068617320746f206265203e203000000000000000000000000000604482015290519081900360640190fd5b600063ffffffff821611610d16576040805160e560020a62461bcd02815260206004820152600d60248201527f76616c756520746f6f206c6f7700000000000000000000000000000000000000604482015290519081900360640190fd5b600160a060020a038216600090815260026020908152604080832060e260020a6319dbdb1902845290915290205463ffffffff9081168201811610610da5576040805160e560020a62461bcd02815260206004820152601360248201527f676f6c642076616c756520746f6f206869676800000000000000000000000000604482015290519081900360640190fd5b600160a060020a0391909116600090815260026020908152604080832060e260020a6319dbdb190284529091529020805463ffffffff19811663ffffffff91821690930116919091179055565b60015460009060a060020a900460ff1615610e0c57600080fd5b503360009081526002602090815260408083207f676f6c64546f436c61696d0000000000000000000000000000000000000000008452909152808220805460e260020a6319dbdb19028452828420805463ffffffff1980821663ffffffff94851692851692909201841691909117909155825481169092557f636f70706572546f436c61696d0000000000000000000000000000000000000080855283852080547f636f70706572000000000000000000000000000000000000000000000000000087529486208054808616968516908516019093169490941790915590925280549091169055565b33600160a060020a0383161480610f9557506001546040805160e060020a6312d9a6ad02815260d960020a6430b236b4b70260048201523360248201529051600160a060020a03909216916312d9a6ad916044808201926020929091908290030181600087803b158015610f6857600080fd5b505af1158015610f7c573d6000803e3d6000fd5b505050506040513d6020811015610f9257600080fd5b50515b1515611011576040805160e560020a62461bcd02815260206004820152602360248201527f6f6e6c79206d73672e73656e646572206f722061646d696e2063616e2070617960448201527f6f75740000000000000000000000000000000000000000000000000000000000606482015290519081900360840190fd5b61101a3361202d565b600160a060020a0390911660009081526002602081905260409091200155565b600054600160a060020a0316331461108a576040805160e560020a62461bcd028152602060048201526011602482015260008051602061210b833981519152604482015290519081900360640190fd5b60015460a060020a900460ff1615156110a257600080fd5b6001805474ff0000000000000000000000000000000000000000191690556040517f7805862f689e2f13df9f062ff482ad3ad112aca9e0847911ed832e158c525b3390600090a1565b600160a060020a0391821660009081526002602090815260408083209383526001909301905220541690565b60045481565b600160a060020a03166000908152600260208190526040909120015490565b60006111473361202d565b503360009081526002602090815260408083209483526001909401905291909120805473ffffffffffffffffffffffffffffffffffffffff1916600160a060020a03909216919091179055565b61119e3382610ef5565b50565b60015460a060020a900460ff1681565b6001546040805160e060020a6312d9a6ad02815260d960020a6430b236b4b7026004820181905233602483015291519192600160a060020a0316916312d9a6ad916044808201926020929091908290030181600087803b15801561121457600080fd5b505af1158015611228573d6000803e3d6000fd5b505050506040513d602081101561123e57600080fd5b50511515611284576040805160e560020a62461bcd02815260206004820152600d60248201526000805160206120eb833981519152604482015290519081900360640190fd5b50600591909155600655565b6001546040805160e060020a6312d9a6ad02815260d960020a6430b236b4b7026004820181905233602483015291519192600160a060020a0316916312d9a6ad916044808201926020929091908290030181600087803b1580156112f357600080fd5b505af1158015611307573d6000803e3d6000fd5b505050506040513d602081101561131d57600080fd5b50511515611363576040805160e560020a62461bcd02815260206004820152600d60248201526000805160206120eb833981519152604482015290519081900360640190fd5b6001546040805160e060020a6321f8a7210281527f63757457616c6c6574000000000000000000000000000000000000000000000060048201529051600160a060020a03909216916321f8a721916024808201926020929091908290030181600087803b1580156113d357600080fd5b505af11580156113e7573d6000803e3d6000fd5b505050506040513d60208110156113fd57600080fd5b5051604051600160a060020a0390911690303180156108fc02916000818181858888f19350505050158015611436573d6000803e3d6000fd5b5050565b6001546040805160e060020a6312d9a6ad02815260d960020a6430b236b4b7026004820181905233602483015291519192600160a060020a0316916312d9a6ad916044808201926020929091908290030181600087803b15801561149d57600080fd5b505af11580156114b1573d6000803e3d6000fd5b505050506040513d60208110156114c757600080fd5b5051151561150d576040805160e560020a62461bcd02815260206004820152600d60248201526000805160206120eb833981519152604482015290519081900360640190fd5b6115168461202d565b50600160a060020a0392831660009081526002602090815260408083209483526001909401905291909120805473ffffffffffffffffffffffffffffffffffffffff191691909216179055565b600054600160a060020a031633146115b3576040805160e560020a62461bcd028152602060048201526011602482015260008051602061210b833981519152604482015290519081900360640190fd5b60008054604051600160a060020a03909116917ff8df31144d9c2f0f6b59d69b8b98abd5459d07f2742c4df920b25aae33c6482091a26000805473ffffffffffffffffffffffffffffffffffffffff19169055565b6006546005540190565b600054600160a060020a03163314611662576040805160e560020a62461bcd028152602060048201526011602482015260008051602061210b833981519152604482015290519081900360640190fd5b60015460a060020a900460ff161561167957600080fd5b6001805474ff0000000000000000000000000000000000000000191660a060020a1790556040517f6985a02210a168e66602d3235cb6db0e70f92b3ba4d376a33c0f3d9434bff62590600090a1565b60015460009060a060020a900460ff16156116e257600080fd5b5033600063ffffffff831611611742576040805160e560020a62461bcd02815260206004820152601360248201527f76616c75652068617320746f206265203e203000000000000000000000000000604482015290519081900360640190fd5b600160a060020a03811660009081526002602052604090206003015460ff1680156117a35750600160a060020a038116600090815260026020908152604080832060e260020a6319dbdb1902845290915290205463ffffffff808416911610155b15156117f9576040805160e560020a62461bcd02815260206004820152600f60248201527f6e6f7420656e6f75676820676f6c640000000000000000000000000000000000604482015290519081900360640190fd5b600160a060020a038116600090815260026020908152604080832060e260020a6319dbdb19028452909152808220805463ffffffff19811663ffffffff918216879003821617909155600454915133936108fc92871690930280159290920292818181858888f19350505050158015611876573d6000803e3d6000fd5b505050565b600054600160a060020a031681565b60015460a060020a900460ff16156118a157600080fd5b6001546040805160e060020a6312d9a6ad0281527f70617961626c65000000000000000000000000000000000000000000000000006004820181905233602483015291519192600160a060020a0316916312d9a6ad916044808201926020929091908290030181600087803b15801561191957600080fd5b505af115801561192d573d6000803e3d6000fd5b505050506040513d602081101561194357600080fd5b50511515611989576040805160e560020a62461bcd02815260206004820152600d60248201526000805160206120eb833981519152604482015290519081900360640190fd5b600160a060020a03821660009081526002602052604090206003015460ff1680156119ea5750600160a060020a038216600090815260026020908152604080832060e260020a6319dbdb1902845290915290205463ffffffff808516911610155b1515611a40576040805160e560020a62461bcd02815260206004820152600f60248201527f6e6f7420656e6f75676820676f6c640000000000000000000000000000000000604482015290519081900360640190fd5b600160a060020a038216600090815260026020908152604080832060e260020a6319dbdb19028452909152808220805463ffffffff19811663ffffffff918216889003821617909155600454915133936108fc92881690930280159290920292818181858888f19350505050158015610b1b573d6000803e3d6000fd5b6006546005546127109101919091020490565b60035490565b6000611ae23383610b21565b92915050565b6000611ae233836110eb565b6000805b600354811015611bd15760026000600383815481101515611b1557fe5b6000918252602080832090910154600160a060020a03168352828101939093526040918201812060e260020a6319dbdb190282529092528120546003805463ffffffff90921694909401936002929184908110611b6e57fe5b6000918252602080832090910154600160a060020a0316835282810193909352604091820181207f676f6c64546f436c61696d000000000000000000000000000000000000000000825290925290205463ffffffff169190910190600101611af8565b5090565b6001546040805160e060020a6312d9a6ad0281527f67616d65000000000000000000000000000000000000000000000000000000006004820181905233602483015291519192600160a060020a0316916312d9a6ad916044808201926020929091908290030181600087803b158015611c4d57600080fd5b505af1158015611c61573d6000803e3d6000fd5b505050506040513d6020811015611c7757600080fd5b50511515611cbd576040805160e560020a62461bcd02815260206004820152600d60248201526000805160206120eb833981519152604482015290519081900360640190fd5b6001546040805160e060020a6321f8a7210281527f63757457616c6c6574000000000000000000000000000000000000000000000060048201529051600160a060020a03909216916321f8a721916024808201926020929091908290030181600087803b158015611d2d57600080fd5b505af1158015611d41573d6000803e3d6000fd5b505050506040513d6020811015611d5757600080fd5b5051600454600554604051600160a060020a03909316926127109186029092020480156108fc02916000818181858888f19350505050158015611d9e573d6000803e3d6000fd5b506001546040805160e060020a6321f8a7210281527f626f6e757357616c6c657400000000000000000000000000000000000000000060048201529051600160a060020a03909216916321f8a721916024808201926020929091908290030181600087803b158015611e0f57600080fd5b505af1158015611e23573d6000803e3d6000fd5b505050506040513d6020811015611e3957600080fd5b5051600454600654604051600160a060020a03909316926127109186029092020480156108fc02916000818181858888f19350505050158015611876573d6000803e3d6000fd5b60065481565b60055481565b600054600160a060020a03163314611edc576040805160e560020a62461bcd028152602060048201526011602482015260008051602061210b833981519152604482015290519081900360640190fd5b600160a060020a0381161515611f3c576040805160e560020a62461bcd02815260206004820152601760248201527f6e6577206f776e6572206d7573742062652076616c6964000000000000000000604482015290519081900360640190fd5b60008054604051600160a060020a03808516939216917f8be0079c531659141344cd1fd0a4f28419497f9722a3daafe3b4186f6b6457e091a36000805473ffffffffffffffffffffffffffffffffffffffff1916600160a060020a0392909216919091179055565b6000611fae611ad0565b8210612004576040805160e560020a62461bcd02815260206004820152600f60248201527f696e64657820746f6f206c617267650000000000000000000000000000000000604482015290519081900360640190fd5b600380548390811061201257fe5b600091825260209091200154600160a060020a031692915050565b600160a060020a03811660009081526002602052604090206003015460ff16151561119e57604080518082018252600080825260016020808401828152600160a060020a039690961680845260029182905294832093519084015593516003928301805460ff191691151591909117905581549384018255527fc2575a0e9e593c00f959f8c92f12db2869c3395a3b0502d05e2516446f71f85b909101805473ffffffffffffffffffffffffffffffffffffffff1916909117905556006e6f74207065726d6974746564000000000000000000000000000000000000006e6565647320746f206265206f776e6572000000000000000000000000000000a165627a7a72305820b2fc20df744ac46ee67f8166e670e0e43862756e74de4538fb52fd8b2aba75770029",
  "source": "pragma solidity ^0.4.0;\r\n\r\nimport \"./EverDragonsPlayerPayment.sol\";\r\n\r\ncontract EverDragonsPlayer is EverDragonsPlayerPayment {\r\n    constructor(address registrarAddress, uint256 _goldPrice)\r\n        public\r\n        EverDragonsPlayerPayment(_goldPrice)\r\n        HasRegistrar(registrarAddress)\r\n    {}\r\n\r\n    function setNameForUser(address player, bytes32 name) public {\r\n        require(\r\n            msg.sender == player || registrar.checkRole(\"admin\", msg.sender),\r\n            \"only msg.sender or admin can payout\"\r\n        );\r\n        addPlayerIfNotExists(msg.sender);\r\n        players[player].name = name;\r\n    }\r\n\r\n    function setName(bytes32 name) external {\r\n        setNameForUser(msg.sender, name);\r\n    }\r\n\r\n    function getNameForUser(address player) public view returns (bytes32) {\r\n        return players[player].name;\r\n    }\r\n\r\n    function getName() public view returns (bytes32) {\r\n        return getNameForUser(msg.sender);\r\n    }\r\n}\r\n",
  "sourcePath": "C:\\Projects\\everdragons\\everdragons-contract\\contracts\\player\\EverDragonsPlayer.sol",
  "compiler": {
    "name": "solc",
    "version": "0.4.25+commit.59dbf8f1.Emscripten.clang"
  },
  "schemaVersion": "3.0.8",
  "updatedAt": "2019-04-27T17:05:41.871Z",
  "devdoc": {
    "methods": {
      "pause()": {
        "details": "called by the owner to pause, triggers stopped state\r"
      },
      "renounceOwnership()": {
        "details": "Allows the current owner to relinquish control of the contract.\r"
      },
      "transferOwnership(address)": {
        "details": "Allows the current owner to transfer control of the contract to a newOwner.\r",
        "params": {
          "newOwner": "The address to transfer ownership to.\r"
        }
      },
      "unpause()": {
        "details": "called by the owner to unpause, returns to normal state\r"
      }
    }
  },
  "userdoc": {
    "methods": {}
  }
}