{
  "contractName": "EverdragonsBridge",
  "abi": [
    {
      "inputs": [
        {
          "name": "registrarAddress",
          "type": "address"
        }
      ],
      "payable": false,
      "stateMutability": "nonpayable",
      "type": "constructor",
      "signature": "constructor"
    },
    {
      "constant": false,
      "inputs": [
        {
          "name": "eventHash",
          "type": "uint256"
        }
      ],
      "name": "markedAsProcessed",
      "outputs": [],
      "payable": false,
      "stateMutability": "nonpayable",
      "type": "function",
      "signature": "0x1c76a35a"
    },
    {
      "constant": true,
      "inputs": [
        {
          "name": "eventHash",
          "type": "uint256"
        }
      ],
      "name": "hasEventProcessed",
      "outputs": [
        {
          "name": "",
          "type": "bool"
        }
      ],
      "payable": false,
      "stateMutability": "view",
      "type": "function",
      "signature": "0x90dc8d45"
    },
    {
      "constant": false,
      "inputs": [
        {
          "name": "eventHash",
          "type": "uint256"
        },
        {
          "name": "owner",
          "type": "address"
        },
        {
          "name": "dna",
          "type": "uint64"
        },
        {
          "name": "attributes",
          "type": "uint24"
        },
        {
          "name": "experience",
          "type": "uint32"
        },
        {
          "name": "prestige",
          "type": "uint32"
        },
        {
          "name": "name",
          "type": "bytes32"
        }
      ],
      "name": "transferToken",
      "outputs": [],
      "payable": false,
      "stateMutability": "nonpayable",
      "type": "function",
      "signature": "0xa77eacb0"
    },
    {
      "constant": false,
      "inputs": [
        {
          "name": "owner",
          "type": "address"
        },
        {
          "name": "dna",
          "type": "uint64"
        },
        {
          "name": "attributes",
          "type": "uint24"
        },
        {
          "name": "experience",
          "type": "uint32"
        },
        {
          "name": "prestige",
          "type": "uint32"
        },
        {
          "name": "name",
          "type": "bytes32"
        }
      ],
      "name": "transferTokenWithoutHash",
      "outputs": [],
      "payable": false,
      "stateMutability": "nonpayable",
      "type": "function",
      "signature": "0x71ca400d"
    }
  ],
  "bytecode": "0x608060405234801561001057600080fd5b50604051602080610d66833981016040525180600160a060020a038116151561009a57604080517f08c379a000000000000000000000000000000000000000000000000000000000815260206004820152601f60248201527f7265676973747261722061646472657373206e6f7420617661696c61626c6500604482015290519081900360640190fd5b60008054600160a060020a03909216600160a060020a031990921691909117905550610c9b806100cb6000396000f3006080604052600436106100615763ffffffff7c01000000000000000000000000000000000000000000000000000000006000350416631c76a35a811461006657806371ca400d1461008057806390dc8d45146100c8578063a77eacb0146100f4575b600080fd5b34801561007257600080fd5b5061007e60043561013f565b005b34801561008c57600080fd5b5061007e600160a060020a036004351667ffffffffffffffff6024351662ffffff6044351663ffffffff6064358116906084351660a435610271565b3480156100d457600080fd5b506100e06004356106ce565b604080519115158252519081900360200190f35b34801561010057600080fd5b5061007e600435600160a060020a036024351667ffffffffffffffff6044351662ffffff6064351663ffffffff60843581169060a4351660c4356106e3565b60008054604080517f12d9a6ad0000000000000000000000000000000000000000000000000000000081527f61646d696e0000000000000000000000000000000000000000000000000000006004820181905233602483015291519193600160a060020a03909316926312d9a6ad926044808401936020939083900390910190829087803b1580156101d057600080fd5b505af11580156101e4573d6000803e3d6000fd5b505050506040513d60208110156101fa57600080fd5b50511515610252576040805160e560020a62461bcd02815260206004820152600d60248201527f6e6f74207065726d697474656400000000000000000000000000000000000000604482015290519081900360640190fd5b506000908152600160208190526040909120805460ff19169091179055565b60008054604080517f12d9a6ad0000000000000000000000000000000000000000000000000000000081527f62726964676500000000000000000000000000000000000000000000000000006004820181905233602483015291519192600160a060020a0316916312d9a6ad9160448082019260209290919082900301818887803b1580156102ff57600080fd5b505af1158015610313573d6000803e3d6000fd5b505050506040513d602081101561032957600080fd5b50511515610381576040805160e560020a62461bcd02815260206004820152600d60248201527f6e6f74207065726d697474656400000000000000000000000000000000000000604482015290519081900360640190fd5b600160a060020a03881615156103e1576040805160e560020a62461bcd02815260206004820152601660248201527f6f776e6572206d757374206e6f74206265206e756c6c00000000000000000000604482015290519081900360640190fd5b67ffffffffffffffff87161515610442576040805160e560020a62461bcd02815260206004820152601460248201527f646e61206d757374206e6f74206265206e756c6c000000000000000000000000604482015290519081900360640190fd5b62ffffff8616151561049e576040805160e560020a62461bcd02815260206004820152601b60248201527f61747472696275746573206d757374206e6f74206265206e756c6c0000000000604482015290519081900360640190fd5b60008054604080517f21f8a7210000000000000000000000000000000000000000000000000000000081527f45766572447261676f6e7300000000000000000000000000000000000000000060048201529051600160a060020a03909216926321f8a721926024808401936020939083900390910190829087803b15801561052557600080fd5b505af1158015610539573d6000803e3d6000fd5b505050506040513d602081101561054f57600080fd5b5051604080517f4f558e7900000000000000000000000000000000000000000000000000000000815267ffffffffffffffff8a1660048201529051919350600160a060020a03841691634f558e79916024808201926020929091908290030181600087803b1580156105c057600080fd5b505af11580156105d4573d6000803e3d6000fd5b505050506040513d60208110156105ea57600080fd5b505115610604576105ff87878787878d610887565b6106c4565b604080517f3a7dccb600000000000000000000000000000000000000000000000000000000815267ffffffffffffffff8916600482015262ffffff8816602482015263ffffffff80881660448301528616606482015260006084820181905260a48201869052600160a060020a038b811660c484015260e48301829052925192851692633a7dccb69261010480820193929182900301818387803b1580156106ab57600080fd5b505af11580156106bf573d6000803e3d6000fd5b505050505b5050505050505050565b60009081526001602052604090205460ff1690565b60008054604080517f12d9a6ad0000000000000000000000000000000000000000000000000000000081527f62726964676500000000000000000000000000000000000000000000000000006004820181905233602483015291519193600160a060020a03909316926312d9a6ad926044808401936020939083900390910190829087803b15801561077457600080fd5b505af1158015610788573d6000803e3d6000fd5b505050506040513d602081101561079e57600080fd5b505115156107f6576040805160e560020a62461bcd02815260206004820152600d60248201527f6e6f74207065726d697474656400000000000000000000000000000000000000604482015290519081900360640190fd5b60008881526001602052604090205460ff161561085d576040805160e560020a62461bcd02815260206004820152601760248201527f6576656e7420616c72656164792070726f636573736564000000000000000000604482015290519081900360640190fd5b6000888152600160208190526040909120805460ff191690911790556106c4878787878787610271565b60008054604080517f21f8a7210000000000000000000000000000000000000000000000000000000081527f45766572447261676f6e73000000000000000000000000000000000000000000600482015290518392839283928392600160a060020a0316916321f8a72191602480830192602092919082900301818787803b15801561091257600080fd5b505af1158015610926573d6000803e3d6000fd5b505050506040513d602081101561093c57600080fd5b5051604080517f1960253700000000000000000000000000000000000000000000000000000000815267ffffffffffffffff8e1660048201529051919650600160a060020a0387169163196025379160248082019260a0929091908290030181600087803b1580156109ad57600080fd5b505af11580156109c1573d6000803e3d6000fd5b505050506040513d60a08110156109d757600080fd5b50805160208201516040830151608090930151919650919450909250905063ffffffff88811690841614610a9757604080517f968efc3c00000000000000000000000000000000000000000000000000000000815267ffffffffffffffff8d166004820152848a03600390810b900b60248201529051600160a060020a0387169163968efc3c91604480830192600092919082900301818387803b158015610a7e57600080fd5b505af1158015610a92573d6000803e3d6000fd5b505050505b63ffffffff89811690831614610b3957604080517fdfc02d9000000000000000000000000000000000000000000000000000000000815267ffffffffffffffff8d166004820152838b03600390810b900b60248201529051600160a060020a0387169163dfc02d9091604480830192600092919082900301818387803b158015610b2057600080fd5b505af1158015610b34573d6000803e3d6000fd5b505050505b62ffffff8a811690851614610bd657604080517f044f6a7300000000000000000000000000000000000000000000000000000000815267ffffffffffffffff8d16600482015262ffffff8c1660248201529051600160a060020a0387169163044f6a7391604480830192600092919082900301818387803b158015610bbd57600080fd5b505af1158015610bd1573d6000803e3d6000fd5b505050505b604080517fa9059cbb000000000000000000000000000000000000000000000000000000008152600160a060020a03888116600483015267ffffffffffffffff8e16602483015291519187169163a9059cbb9160448082019260009290919082900301818387803b158015610c4a57600080fd5b505af1158015610c5e573d6000803e3d6000fd5b5050505050505050505050505050505600a165627a7a72305820f6bf7059df697b4aee3aed12fe7668b5d1010f8fbd018008e6ba01e1ccb201e50029",
  "source": "pragma solidity ^0.4.0;\r\n\r\nimport \"../../node_modules/everdragons-shared/solidity/libs/HasRegistrar.sol\";\r\nimport \"../../node_modules/everdragons-shared/solidity/interfaces/IEverDragons.sol\";\r\n\r\ncontract EverdragonsBridge is HasRegistrar {\r\n    mapping(uint256 => bool) private processedEvents;\r\n\r\n    constructor(address registrarAddress) public HasRegistrar(registrarAddress) {}\r\n\r\n    function markedAsProcessed(uint256 eventHash) external hasRole(\"admin\") {\r\n        processedEvents[eventHash] = true;\r\n    }\r\n\r\n    function hasEventProcessed(uint256 eventHash) external view returns (bool) {\r\n        return processedEvents[eventHash];\r\n    }\r\n\r\n    function transferToken(\r\n        uint256 eventHash,\r\n        address owner,\r\n        uint64 dna,\r\n        uint24 attributes,\r\n        uint32 experience,\r\n        uint32 prestige,\r\n        bytes32 name\r\n    ) external hasRole(\"bridge\") {\r\n        require(!processedEvents[eventHash], \"event already processed\");\r\n        processedEvents[eventHash] = true;\r\n        transferTokenWithoutHash(owner, dna, attributes, experience, prestige, name);\r\n    }\r\n\r\n    function transferTokenWithoutHash(\r\n        address owner,\r\n        uint64 dna,\r\n        uint24 attributes,\r\n        uint32 experience,\r\n        uint32 prestige,\r\n        bytes32 name\r\n    ) public hasRole(\"bridge\") {\r\n        require(owner != 0, \"owner must not be null\");\r\n        require(dna != 0, \"dna must not be null\");\r\n        require(attributes != 0, \"attributes must not be null\");\r\n\r\n        IEverDragons dragonContract = IEverDragons(registrar.getAddress(\"EverDragons\"));\r\n        if (dragonContract.exists(dna)) {\r\n            updateDragon(dna, attributes, experience, prestige, name, owner);\r\n        } else {\r\n            dragonContract.impDragon(dna, attributes, experience, prestige, 0, name, owner, 0);\r\n        }\r\n    }\r\n\r\n    function updateDragon(\r\n        uint64 dna,\r\n        uint24 attributes,\r\n        uint32 experience,\r\n        uint32 prestige,\r\n        bytes32 name,\r\n        address owner\r\n    ) internal {\r\n        IEverDragons dragonContract = IEverDragons(registrar.getAddress(\"EverDragons\"));\r\n\r\n        uint24 _attributes;\r\n        uint32 _prestige;\r\n        uint32 _experience;\r\n        bytes32 _name;\r\n\r\n        (_attributes, _experience, _prestige, , _name) = dragonContract.getDragon(dna);\r\n\r\n        if (prestige != _prestige) {\r\n            dragonContract.modifyDragonPrestige(dna, int32(prestige - _prestige));\r\n        }\r\n        if (experience != _experience) {\r\n            dragonContract.modifyDragonExperience(dna, int32(experience - _experience));\r\n        }\r\n        if (attributes != _attributes) {\r\n            dragonContract.modifyDragonAttributes(dna, attributes);\r\n        }\r\n        if (name != name) {\r\n            dragonContract.modifyDragonName(dna, name);\r\n        }\r\n\r\n        dragonContract.transfer(owner, dna);\r\n    }\r\n\r\n}\r\n",
  "sourcePath": "C:/Projects/everdragons/everdragons-contract/contracts/bridge/EverDragonsBridge.sol",
  "compiler": {
    "name": "solc",
    "version": "0.4.25+commit.59dbf8f1.Emscripten.clang"
  },
  "schemaVersion": "3.0.8",
  "updatedAt": "2019-04-27T17:05:41.882Z",
  "devdoc": {
    "methods": {}
  },
  "userdoc": {
    "methods": {}
  }
}