{
  "contractName": "EverDragons",
  "abi": [
    {
      "constant": false,
      "inputs": [
        {
          "name": "dna",
          "type": "uint64"
        },
        {
          "name": "name",
          "type": "bytes32"
        }
      ],
      "name": "modifyDragonName",
      "outputs": [],
      "payable": false,
      "stateMutability": "nonpayable",
      "type": "function",
      "signature": "0x00b7e1c4"
    },
    {
      "constant": true,
      "inputs": [
        {
          "name": "interfaceId",
          "type": "bytes4"
        }
      ],
      "name": "supportsInterface",
      "outputs": [
        {
          "name": "",
          "type": "bool"
        }
      ],
      "payable": false,
      "stateMutability": "view",
      "type": "function",
      "signature": "0x01ffc9a7"
    },
    {
      "constant": false,
      "inputs": [
        {
          "name": "dna",
          "type": "uint64"
        },
        {
          "name": "attributes",
          "type": "uint24"
        }
      ],
      "name": "modifyDragonAttributes",
      "outputs": [],
      "payable": false,
      "stateMutability": "nonpayable",
      "type": "function",
      "signature": "0x044f6a73"
    },
    {
      "constant": true,
      "inputs": [],
      "name": "name",
      "outputs": [
        {
          "name": "",
          "type": "string"
        }
      ],
      "payable": false,
      "stateMutability": "view",
      "type": "function",
      "signature": "0x06fdde03"
    },
    {
      "constant": true,
      "inputs": [
        {
          "name": "tokenId",
          "type": "uint256"
        }
      ],
      "name": "getApproved",
      "outputs": [
        {
          "name": "",
          "type": "address"
        }
      ],
      "payable": false,
      "stateMutability": "view",
      "type": "function",
      "signature": "0x081812fc"
    },
    {
      "constant": false,
      "inputs": [
        {
          "name": "to",
          "type": "address"
        },
        {
          "name": "tokenId",
          "type": "uint256"
        }
      ],
      "name": "approve",
      "outputs": [],
      "payable": false,
      "stateMutability": "nonpayable",
      "type": "function",
      "signature": "0x095ea7b3"
    },
    {
      "constant": true,
      "inputs": [],
      "name": "totalSupply",
      "outputs": [
        {
          "name": "",
          "type": "uint256"
        }
      ],
      "payable": false,
      "stateMutability": "view",
      "type": "function",
      "signature": "0x18160ddd"
    },
    {
      "constant": false,
      "inputs": [
        {
          "name": "dna",
          "type": "uint64"
        },
        {
          "name": "state",
          "type": "uint16"
        }
      ],
      "name": "modifyDragonState",
      "outputs": [],
      "payable": false,
      "stateMutability": "nonpayable",
      "type": "function",
      "signature": "0x1bf956f5"
    },
    {
      "constant": false,
      "inputs": [
        {
          "name": "from",
          "type": "address"
        },
        {
          "name": "to",
          "type": "address"
        },
        {
          "name": "tokenId",
          "type": "uint256"
        }
      ],
      "name": "transferFrom",
      "outputs": [],
      "payable": false,
      "stateMutability": "nonpayable",
      "type": "function",
      "signature": "0x23b872dd"
    },
    {
      "constant": true,
      "inputs": [
        {
          "name": "tokenId",
          "type": "uint256"
        }
      ],
      "name": "approvedFor",
      "outputs": [
        {
          "name": "",
          "type": "address"
        }
      ],
      "payable": false,
      "stateMutability": "view",
      "type": "function",
      "signature": "0x2a6dd48f"
    },
    {
      "constant": false,
      "inputs": [
        {
          "name": "dna",
          "type": "uint64"
        }
      ],
      "name": "impBlockedDNA",
      "outputs": [],
      "payable": false,
      "stateMutability": "nonpayable",
      "type": "function",
      "signature": "0x2c6b5b16"
    },
    {
      "constant": true,
      "inputs": [
        {
          "name": "owner",
          "type": "address"
        },
        {
          "name": "index",
          "type": "uint256"
        }
      ],
      "name": "tokenOfOwnerByIndex",
      "outputs": [
        {
          "name": "",
          "type": "uint256"
        }
      ],
      "payable": false,
      "stateMutability": "view",
      "type": "function",
      "signature": "0x2f745c59"
    },
    {
      "constant": false,
      "inputs": [
        {
          "name": "dna",
          "type": "uint64"
        },
        {
          "name": "attributes",
          "type": "uint24"
        },
        {
          "name": "experience",
          "type": "uint32"
        },
        {
          "name": "prestige",
          "type": "uint32"
        },
        {
          "name": "state",
          "type": "uint16"
        },
        {
          "name": "name",
          "type": "bytes32"
        },
        {
          "name": "owner",
          "type": "address"
        },
        {
          "name": "approvedFor",
          "type": "address"
        }
      ],
      "name": "impDragon",
      "outputs": [],
      "payable": false,
      "stateMutability": "nonpayable",
      "type": "function",
      "signature": "0x3a7dccb6"
    },
    {
      "constant": false,
      "inputs": [],
      "name": "unpause",
      "outputs": [],
      "payable": false,
      "stateMutability": "nonpayable",
      "type": "function",
      "signature": "0x3f4ba83a"
    },
    {
      "constant": false,
      "inputs": [
        {
          "name": "from",
          "type": "address"
        },
        {
          "name": "to",
          "type": "address"
        },
        {
          "name": "tokenId",
          "type": "uint256"
        }
      ],
      "name": "safeTransferFrom",
      "outputs": [],
      "payable": false,
      "stateMutability": "nonpayable",
      "type": "function",
      "signature": "0x42842e0e"
    },
    {
      "constant": true,
      "inputs": [
        {
          "name": "tokenId",
          "type": "uint256"
        }
      ],
      "name": "exists",
      "outputs": [
        {
          "name": "",
          "type": "bool"
        }
      ],
      "payable": false,
      "stateMutability": "view",
      "type": "function",
      "signature": "0x4f558e79"
    },
    {
      "constant": true,
      "inputs": [],
      "name": "paused",
      "outputs": [
        {
          "name": "",
          "type": "bool"
        }
      ],
      "payable": false,
      "stateMutability": "view",
      "type": "function",
      "signature": "0x5c975abb"
    },
    {
      "constant": true,
      "inputs": [
        {
          "name": "tokenId",
          "type": "uint256"
        }
      ],
      "name": "ownerOf",
      "outputs": [
        {
          "name": "",
          "type": "address"
        }
      ],
      "payable": false,
      "stateMutability": "view",
      "type": "function",
      "signature": "0x6352211e"
    },
    {
      "constant": false,
      "inputs": [],
      "name": "payout",
      "outputs": [],
      "payable": false,
      "stateMutability": "nonpayable",
      "type": "function",
      "signature": "0x63bd1d4a"
    },
    {
      "constant": false,
      "inputs": [
        {
          "name": "_startPriceNES",
          "type": "uint128"
        },
        {
          "name": "_endPriceNES",
          "type": "uint128"
        },
        {
          "name": "_durrationNES",
          "type": "uint32"
        }
      ],
      "name": "setNSEAuctionValues",
      "outputs": [],
      "payable": false,
      "stateMutability": "nonpayable",
      "type": "function",
      "signature": "0x646fccd8"
    },
    {
      "constant": true,
      "inputs": [
        {
          "name": "owner",
          "type": "address"
        }
      ],
      "name": "balanceOf",
      "outputs": [
        {
          "name": "",
          "type": "uint256"
        }
      ],
      "payable": false,
      "stateMutability": "view",
      "type": "function",
      "signature": "0x70a08231"
    },
    {
      "constant": false,
      "inputs": [],
      "name": "renounceOwnership",
      "outputs": [],
      "payable": false,
      "stateMutability": "nonpayable",
      "type": "function",
      "signature": "0x715018a6"
    },
    {
      "constant": false,
      "inputs": [],
      "name": "pause",
      "outputs": [],
      "payable": false,
      "stateMutability": "nonpayable",
      "type": "function",
      "signature": "0x8456cb59"
    },
    {
      "constant": true,
      "inputs": [],
      "name": "owner",
      "outputs": [
        {
          "name": "",
          "type": "address"
        }
      ],
      "payable": false,
      "stateMutability": "view",
      "type": "function",
      "signature": "0x8da5cb5b"
    },
    {
      "constant": true,
      "inputs": [],
      "name": "symbol",
      "outputs": [
        {
          "name": "",
          "type": "string"
        }
      ],
      "payable": false,
      "stateMutability": "view",
      "type": "function",
      "signature": "0x95d89b41"
    },
    {
      "constant": false,
      "inputs": [
        {
          "name": "dna",
          "type": "uint64"
        },
        {
          "name": "prestige",
          "type": "int32"
        }
      ],
      "name": "modifyDragonPrestige",
      "outputs": [],
      "payable": false,
      "stateMutability": "nonpayable",
      "type": "function",
      "signature": "0x968efc3c"
    },
    {
      "constant": false,
      "inputs": [
        {
          "name": "to",
          "type": "address"
        },
        {
          "name": "approved",
          "type": "bool"
        }
      ],
      "name": "setApprovalForAll",
      "outputs": [],
      "payable": false,
      "stateMutability": "nonpayable",
      "type": "function",
      "signature": "0xa22cb465"
    },
    {
      "constant": false,
      "inputs": [
        {
          "name": "dna",
          "type": "uint64"
        },
        {
          "name": "item",
          "type": "bytes32"
        },
        {
          "name": "value",
          "type": "int32"
        }
      ],
      "name": "modifyDragonItem",
      "outputs": [],
      "payable": false,
      "stateMutability": "nonpayable",
      "type": "function",
      "signature": "0xa3435209"
    },
    {
      "constant": false,
      "inputs": [
        {
          "name": "to",
          "type": "address"
        },
        {
          "name": "tokenId",
          "type": "uint256"
        }
      ],
      "name": "transfer",
      "outputs": [],
      "payable": false,
      "stateMutability": "nonpayable",
      "type": "function",
      "signature": "0xa9059cbb"
    },
    {
      "constant": false,
      "inputs": [
        {
          "name": "tokenId",
          "type": "uint256"
        }
      ],
      "name": "takeOwnership",
      "outputs": [],
      "payable": false,
      "stateMutability": "nonpayable",
      "type": "function",
      "signature": "0xb2e6ceeb"
    },
    {
      "constant": false,
      "inputs": [
        {
          "name": "from",
          "type": "address"
        },
        {
          "name": "to",
          "type": "address"
        },
        {
          "name": "tokenId",
          "type": "uint256"
        },
        {
          "name": "data",
          "type": "bytes"
        }
      ],
      "name": "safeTransferFrom",
      "outputs": [],
      "payable": false,
      "stateMutability": "nonpayable",
      "type": "function",
      "signature": "0xb88d4fde"
    },
    {
      "constant": true,
      "inputs": [
        {
          "name": "tokenId",
          "type": "uint256"
        }
      ],
      "name": "canBeTransferred",
      "outputs": [
        {
          "name": "",
          "type": "bool"
        }
      ],
      "payable": false,
      "stateMutability": "view",
      "type": "function",
      "signature": "0xc89999d0"
    },
    {
      "constant": false,
      "inputs": [
        {
          "name": "dragonType",
          "type": "uint8"
        }
      ],
      "name": "createNewDragons",
      "outputs": [],
      "payable": false,
      "stateMutability": "nonpayable",
      "type": "function",
      "signature": "0xd67cab5a"
    },
    {
      "constant": true,
      "inputs": [
        {
          "name": "dragonType",
          "type": "uint8"
        }
      ],
      "name": "getNumOfRequiredDragons",
      "outputs": [
        {
          "name": "",
          "type": "uint256"
        }
      ],
      "payable": false,
      "stateMutability": "view",
      "type": "function",
      "signature": "0xdc0f15be"
    },
    {
      "constant": false,
      "inputs": [
        {
          "name": "dna",
          "type": "uint64"
        },
        {
          "name": "experience",
          "type": "int32"
        }
      ],
      "name": "modifyDragonExperience",
      "outputs": [],
      "payable": false,
      "stateMutability": "nonpayable",
      "type": "function",
      "signature": "0xdfc02d90"
    },
    {
      "constant": true,
      "inputs": [
        {
          "name": "owner",
          "type": "address"
        },
        {
          "name": "operator",
          "type": "address"
        }
      ],
      "name": "isApprovedForAll",
      "outputs": [
        {
          "name": "",
          "type": "bool"
        }
      ],
      "payable": false,
      "stateMutability": "view",
      "type": "function",
      "signature": "0xe985e9c5"
    },
    {
      "constant": false,
      "inputs": [
        {
          "name": "dna",
          "type": "uint64"
        },
        {
          "name": "startingPrice",
          "type": "uint128"
        },
        {
          "name": "endingPrice",
          "type": "uint128"
        },
        {
          "name": "duration",
          "type": "uint32"
        }
      ],
      "name": "createAuction",
      "outputs": [],
      "payable": false,
      "stateMutability": "nonpayable",
      "type": "function",
      "signature": "0xf064e6d0"
    },
    {
      "constant": false,
      "inputs": [
        {
          "name": "newOwner",
          "type": "address"
        }
      ],
      "name": "transferOwnership",
      "outputs": [],
      "payable": false,
      "stateMutability": "nonpayable",
      "type": "function",
      "signature": "0xf2fde38b"
    },
    {
      "inputs": [
        {
          "name": "registrarAddress",
          "type": "address"
        }
      ],
      "payable": false,
      "stateMutability": "nonpayable",
      "type": "constructor",
      "signature": "constructor"
    },
    {
      "payable": true,
      "stateMutability": "payable",
      "type": "fallback"
    },
    {
      "anonymous": false,
      "inputs": [
        {
          "indexed": false,
          "name": "dna",
          "type": "uint64"
        }
      ],
      "name": "PropertiesChanged",
      "type": "event",
      "signature": "0x8faa7279f7c80c2da062536be5be196f54f55cc25fd82bc194a43edc47e99cd5"
    },
    {
      "anonymous": false,
      "inputs": [
        {
          "indexed": true,
          "name": "from",
          "type": "address"
        },
        {
          "indexed": true,
          "name": "to",
          "type": "address"
        },
        {
          "indexed": true,
          "name": "tokenId",
          "type": "uint256"
        }
      ],
      "name": "Transfer",
      "type": "event",
      "signature": "0xddf252ad1be2c89b69c2b068fc378daa952ba7f163c4a11628f55a4df523b3ef"
    },
    {
      "anonymous": false,
      "inputs": [
        {
          "indexed": true,
          "name": "owner",
          "type": "address"
        },
        {
          "indexed": true,
          "name": "approved",
          "type": "address"
        },
        {
          "indexed": true,
          "name": "tokenId",
          "type": "uint256"
        }
      ],
      "name": "Approval",
      "type": "event",
      "signature": "0x8c5be1e5ebec7d5bd14f71427d1e84f3dd0314c0f7b2291e5b200ac8c7c3b925"
    },
    {
      "anonymous": false,
      "inputs": [
        {
          "indexed": true,
          "name": "owner",
          "type": "address"
        },
        {
          "indexed": true,
          "name": "operator",
          "type": "address"
        },
        {
          "indexed": false,
          "name": "approved",
          "type": "bool"
        }
      ],
      "name": "ApprovalForAll",
      "type": "event",
      "signature": "0x17307eab39ab6107e8899845ad3d59bd9653f200f220920489ca2b5937696c31"
    },
    {
      "anonymous": false,
      "inputs": [
        {
          "indexed": false,
          "name": "dna",
          "type": "uint64"
        }
      ],
      "name": "Create",
      "type": "event",
      "signature": "0x9363f3eb6a090bae53c5052f95c03f9cfdaf2d9a07c072dbdb805dc9a643ce80"
    },
    {
      "anonymous": false,
      "inputs": [
        {
          "indexed": false,
          "name": "dna",
          "type": "uint64"
        }
      ],
      "name": "DuplicatedDNA",
      "type": "event",
      "signature": "0x4cc3702a2cbe4f4556dfb2a568f8bf639b552dff8458617d3259c68011ede5c0"
    },
    {
      "anonymous": false,
      "inputs": [],
      "name": "Pause",
      "type": "event",
      "signature": "0x6985a02210a168e66602d3235cb6db0e70f92b3ba4d376a33c0f3d9434bff625"
    },
    {
      "anonymous": false,
      "inputs": [],
      "name": "Unpause",
      "type": "event",
      "signature": "0x7805862f689e2f13df9f062ff482ad3ad112aca9e0847911ed832e158c525b33"
    },
    {
      "anonymous": false,
      "inputs": [
        {
          "indexed": true,
          "name": "previousOwner",
          "type": "address"
        }
      ],
      "name": "OwnershipRenounced",
      "type": "event",
      "signature": "0xf8df31144d9c2f0f6b59d69b8b98abd5459d07f2742c4df920b25aae33c64820"
    },
    {
      "anonymous": false,
      "inputs": [
        {
          "indexed": true,
          "name": "previousOwner",
          "type": "address"
        },
        {
          "indexed": true,
          "name": "newOwner",
          "type": "address"
        }
      ],
      "name": "OwnershipTransferred",
      "type": "event",
      "signature": "0x8be0079c531659141344cd1fd0a4f28419497f9722a3daafe3b4186f6b6457e0"
    },
    {
      "constant": true,
      "inputs": [
        {
          "name": "dna",
          "type": "uint64"
        }
      ],
      "name": "getDragon",
      "outputs": [
        {
          "name": "attributes",
          "type": "uint24"
        },
        {
          "name": "experience",
          "type": "uint32"
        },
        {
          "name": "prestige",
          "type": "uint32"
        },
        {
          "name": "state",
          "type": "uint16"
        },
        {
          "name": "name",
          "type": "bytes32"
        }
      ],
      "payable": false,
      "stateMutability": "view",
      "type": "function",
      "signature": "0x19602537"
    },
    {
      "constant": true,
      "inputs": [
        {
          "name": "dna",
          "type": "uint64"
        },
        {
          "name": "item",
          "type": "bytes32"
        }
      ],
      "name": "getDragonItem",
      "outputs": [
        {
          "name": "",
          "type": "uint256"
        }
      ],
      "payable": false,
      "stateMutability": "view",
      "type": "function",
      "signature": "0xab5c6c42"
    },
    {
      "constant": true,
      "inputs": [
        {
          "name": "index",
          "type": "uint256"
        }
      ],
      "name": "getDragonByIndex",
      "outputs": [
        {
          "name": "attributes",
          "type": "uint24"
        },
        {
          "name": "experience",
          "type": "uint32"
        },
        {
          "name": "prestige",
          "type": "uint32"
        },
        {
          "name": "state",
          "type": "uint16"
        },
        {
          "name": "name",
          "type": "bytes32"
        },
        {
          "name": "dna",
          "type": "uint64"
        }
      ],
      "payable": false,
      "stateMutability": "view",
      "type": "function",
      "signature": "0x1fe2a2b4"
    },
    {
      "constant": false,
      "inputs": [
        {
          "name": "dna",
          "type": "uint64"
        },
        {
          "name": "name",
          "type": "bytes32"
        }
      ],
      "name": "changeDragonName",
      "outputs": [],
      "payable": false,
      "stateMutability": "nonpayable",
      "type": "function",
      "signature": "0x42382750"
    },
    {
      "constant": false,
      "inputs": [
        {
          "name": "receiver",
          "type": "address"
        },
        {
          "name": "dna",
          "type": "uint64"
        },
        {
          "name": "attributes",
          "type": "uint24"
        }
      ],
      "name": "createDragonForUser",
      "outputs": [],
      "payable": false,
      "stateMutability": "nonpayable",
      "type": "function",
      "signature": "0x3b13ce2b"
    },
    {
      "constant": false,
      "inputs": [
        {
          "name": "receiver",
          "type": "address"
        },
        {
          "name": "dragonType",
          "type": "uint8"
        },
        {
          "name": "version",
          "type": "uint8"
        }
      ],
      "name": "createRandomDragonForUser",
      "outputs": [],
      "payable": false,
      "stateMutability": "nonpayable",
      "type": "function",
      "signature": "0x34364526"
    },
    {
      "constant": false,
      "inputs": [
        {
          "name": "dragonType",
          "type": "uint8"
        },
        {
          "name": "version",
          "type": "uint8"
        }
      ],
      "name": "createNSEDragon",
      "outputs": [],
      "payable": false,
      "stateMutability": "nonpayable",
      "type": "function",
      "signature": "0x75aadd48"
    }
  ],
  "bytecode": "0x60806040526000805460a060020a60ff0219169055600b805477016345785d8a0000000000000000000000000000000000006001608060020a03199091166706f05b59d3b20000176001608060020a0316179055600c805463ffffffff19166202a3001790553480156200007257600080fd5b5060405160208062004377833981016040525160008054600160a060020a0319163317905580600160a060020a03811615156200011057604080517f08c379a000000000000000000000000000000000000000000000000000000000815260206004820152601f60248201527f7265676973747261722061646472657373206e6f7420617661696c61626c6500604482015290519081900360640190fd5b60018054600160a060020a031916600160a060020a0392909216919091179055620001647f01ffc9a7000000000000000000000000000000000000000000000000000000006401000000006200019f810204565b620001987f80ac58cd000000000000000000000000000000000000000000000000000000006401000000006200019f810204565b506200020c565b7fffffffff000000000000000000000000000000000000000000000000000000008082161415620001cf57600080fd5b7fffffffff00000000000000000000000000000000000000000000000000000000166000908152600560205260409020805460ff19166001179055565b61415b806200021c6000396000f3006080604052600436106102235763ffffffff7c0100000000000000000000000000000000000000000000000000000000600035041662b7e1c4811461022557806301ffc9a71461024a578063044f6a731461029557806306fdde03146102bf578063081812fc14610349578063095ea7b31461037d57806318160ddd146103a157806319602537146103c85780631bf956f5146104285780631fe2a2b41461045157806323b872dd146104b75780632a6dd48f146104e15780632c6b5b16146104f95780632f745c591461051b578063343645261461053f5780633a7dccb61461056c5780633b13ce2b146105c15780633f4ba83a146105f7578063423827501461060c57806342842e0e146106315780634f558e791461065b5780635c975abb146106735780636352211e1461068857806363bd1d4a146106a0578063646fccd8146106b557806370a08231146106ee578063715018a61461070f57806375aadd48146107245780638456cb59146107455780638da5cb5b1461075a57806395d89b411461076f578063968efc3c14610784578063a22cb465146107ac578063a3435209146107d2578063a9059cbb146107fd578063ab5c6c4214610821578063b2e6ceeb14610846578063b88d4fde1461085e578063c89999d0146108cd578063d67cab5a146108e5578063dc0f15be14610900578063dfc02d901461091b578063e985e9c514610943578063f064e6d01461096a578063f2fde38b146109b0575b005b34801561023157600080fd5b5061022367ffffffffffffffff600435166024356109d1565b34801561025657600080fd5b506102817bffffffffffffffffffffffffffffffffffffffffffffffffffffffff1960043516610aeb565b604080519115158252519081900360200190f35b3480156102a157600080fd5b5061022367ffffffffffffffff6004351662ffffff60243516610b1f565b3480156102cb57600080fd5b506102d4610c4a565b6040805160208082528351818301528351919283929083019185019080838360005b8381101561030e5781810151838201526020016102f6565b50505050905090810190601f16801561033b5780820380516001836020036101000a031916815260200191505b509250505060405180910390f35b34801561035557600080fd5b50610361600435610c82565b60408051600160a060020a039092168252519081900360200190f35b34801561038957600080fd5b50610223600160a060020a0360043516602435610c93565b3480156103ad57600080fd5b506103b6610e9c565b60408051918252519081900360200190f35b3480156103d457600080fd5b506103ea67ffffffffffffffff60043516610ea2565b6040805162ffffff909616865263ffffffff9485166020870152929093168483015261ffff1660608401526080830191909152519081900360a00190f35b34801561043457600080fd5b5061022367ffffffffffffffff6004351661ffff60243516610efe565b34801561045d57600080fd5b50610469600435611040565b6040805162ffffff909716875263ffffffff9586166020880152939094168584015261ffff9091166060850152608084015267ffffffffffffffff90911660a0830152519081900360c00190f35b3480156104c357600080fd5b50610223600160a060020a0360043581169060243516604435611138565b3480156104ed57600080fd5b5061036160043561133a565b34801561050557600080fd5b5061022367ffffffffffffffff6004351661136c565b34801561052757600080fd5b506103b6600160a060020a036004351660243561147a565b34801561054b57600080fd5b50610223600160a060020a036004351660ff602435811690604435166114c7565b34801561057857600080fd5b5061022367ffffffffffffffff6004351662ffffff6024351663ffffffff6044358116906064351661ffff6084351660a435600160a060020a0360c43581169060e43516611624565b3480156105cd57600080fd5b50610223600160a060020a036004351667ffffffffffffffff6024351662ffffff60443516611a0e565b34801561060357600080fd5b50610223611bf1565b34801561061857600080fd5b5061022367ffffffffffffffff60043516602435611ca0565b34801561063d57600080fd5b50610223600160a060020a0360043581169060243516604435611d13565b34801561066757600080fd5b50610281600435611d2f565b34801561067f57600080fd5b50610281611d4c565b34801561069457600080fd5b50610361600435611d5c565b3480156106ac57600080fd5b50610223611dcb565b3480156106c157600080fd5b506102236fffffffffffffffffffffffffffffffff6004358116906024351663ffffffff60443516611f8a565b3480156106fa57600080fd5b506103b6600160a060020a03600435166120dc565b34801561071b57600080fd5b5061022361215a565b34801561073057600080fd5b5061022360ff600435811690602435166121f2565b34801561075157600080fd5b506102236122d2565b34801561076657600080fd5b50610361612386565b34801561077b57600080fd5b506102d4612395565b34801561079057600080fd5b5061022367ffffffffffffffff6004351660243560030b6123cc565b3480156107b857600080fd5b50610223600160a060020a036004351660243515156125cc565b3480156107de57600080fd5b5061022367ffffffffffffffff6004351660243560443560030b612650565b34801561080957600080fd5b50610223600160a060020a0360043516602435612846565b34801561082d57600080fd5b506103b667ffffffffffffffff600435166024356128d1565b34801561085257600080fd5b50610223600435612904565b34801561086a57600080fd5b50604080516020601f60643560048181013592830184900484028501840190955281845261022394600160a060020a0381358116956024803590921695604435953695608494019181908401838280828437509497506129319650505050505050565b3480156108d957600080fd5b50610281600435612953565b3480156108f157600080fd5b5061022360ff60043516612b09565b34801561090c57600080fd5b506103b660ff60043516612c12565b34801561092757600080fd5b5061022367ffffffffffffffff6004351660243560030b612e59565b34801561094f57600080fd5b50610281600160a060020a0360043581169060243516613041565b34801561097657600080fd5b5061022367ffffffffffffffff600435166fffffffffffffffffffffffffffffffff6024358116906044351663ffffffff6064351661306f565b3480156109bc57600080fd5b50610223600160a060020a03600435166132d2565b6001546040805160e060020a6312d9a6ad0281526000805160206140f08339815191526004820181905233602483015291519192600160a060020a0316916312d9a6ad916044808201926020929091908290030181600087803b158015610a3757600080fd5b505af1158015610a4b573d6000803e3d6000fd5b505050506040513d6020811015610a6157600080fd5b50511515610aa7576040805160e560020a62461bcd02815260206004820152600d6024820152600080516020614090833981519152604482015290519081900360640190fd5b67ffffffffffffffff8316600081815260036020908152604091829020859055815192835290516000805160206140d08339815191529281900390910190a1505050565b7bffffffffffffffffffffffffffffffffffffffffffffffffffffffff191660009081526005602052604090205460ff1690565b6001546040805160e060020a6312d9a6ad0281526000805160206140f08339815191526004820181905233602483015291519192600160a060020a0316916312d9a6ad916044808201926020929091908290030181600087803b158015610b8557600080fd5b505af1158015610b99573d6000803e3d6000fd5b505050506040513d6020811015610baf57600080fd5b50511515610bf5576040805160e560020a62461bcd02815260206004820152600d6024820152600080516020614090833981519152604482015290519081900360640190fd5b67ffffffffffffffff8316600081815260036020908152604091829020600101805462ffffff191662ffffff8716179055815192835290516000805160206140d08339815191529281900390910190a1505050565b60408051808201909152600b81527f45766572447261676f6e7300000000000000000000000000000000000000000060208201525b90565b6000610c8d8261133a565b92915050565b6000805460a060020a900460ff1615610cab57600080fd5b610cb482611d5c565b9050600160a060020a038381169082161415610d1a576040805160e560020a62461bcd02815260206004820152601660248201527f646f6e277420617070726f766520796f757273656c6600000000000000000000604482015290519081900360640190fd5b610d2382612953565b1515610d79576040805160e560020a62461bcd02815260206004820152601b60248201527f647261676f6e2063616e2774206265207472616e736665727265640000000000604482015290519081900360640190fd5b33600160a060020a0382161480610d955750610d958133613041565b1515610e11576040805160e560020a62461bcd02815260206004820152602260248201527f6f6e6c79206f776e6572206f72206f70657261746f722063616e20617070726f60448201527f7665000000000000000000000000000000000000000000000000000000000000606482015290519081900360840190fd5b6000610e1c8361133a565b600160a060020a0316141580610e3a5750600160a060020a03831615155b15610e97576000828152600760205260408082208054600160a060020a031916600160a060020a0387811691821790925591518593918516917f8c5be1e5ebec7d5bd14f71427d1e84f3dd0314c0f7b2291e5b200ac8c7c3b92591a45b505050565b60025490565b67ffffffffffffffff1660009081526003602052604090206001810154905462ffffff8216926301000000830463ffffffff908116936701000000000000008104909116926b01000000000000000000000090910461ffff1691565b6001546040805160e060020a6312d9a6ad0281526000805160206140f08339815191526004820181905233602483015291519192600160a060020a0316916312d9a6ad916044808201926020929091908290030181600087803b158015610f6457600080fd5b505af1158015610f78573d6000803e3d6000fd5b505050506040513d6020811015610f8e57600080fd5b50511515610fd4576040805160e560020a62461bcd02815260206004820152600d6024820152600080516020614090833981519152604482015290519081900360640190fd5b67ffffffffffffffff831660008181526003602090815260409182902060010180546cffff000000000000000000000019166b01000000000000000000000061ffff881602179055815192835290516000805160206140d08339815191529281900390910190a1505050565b6000806000806000806000611053610e9c565b88106110a9576040805160e560020a62461bcd02815260206004820152600f60248201527f696e64657820746f6f206c617267650000000000000000000000000000000000604482015290519081900360640190fd5b60028054899081106110b757fe5b6000918252602080832060048304015460039283166008026101000a900467ffffffffffffffff1680845291905260409091206001810154905462ffffff82169b6301000000830463ffffffff9081169c506701000000000000008404169a506b01000000000000000000000090920461ffff169850965090945092505050565b60005460a060020a900460ff161561114f57600080fd5b600160a060020a03831615156111af576040805160e560020a62461bcd02815260206004820152601260248201527f66726f6d206d7573742062652076616c69640000000000000000000000000000604482015290519081900360640190fd5b600160a060020a038216151561120f576040805160e560020a62461bcd02815260206004820152601060248201527f746f206d7573742062652076616c696400000000000000000000000000000000604482015290519081900360640190fd5b600160a060020a038216301415611270576040805160e560020a62461bcd02815260206004820152601b60248201527f646f6e2774207472616e736665727420746f20636f6e74726163740000000000604482015290519081900360640190fd5b61127981612953565b15156112cf576040805160e560020a62461bcd02815260206004820152601b60248201527f647261676f6e2063616e2774206265207472616e736665727265640000000000604482015290519081900360640190fd5b6112d933826133dd565b151561132f576040805160e560020a62461bcd02815260206004820152601060248201527f6d75737420626520617070726f76656400000000000000000000000000000000604482015290519081900360640190fd5b610e9783838361343c565b600061134582611d2f565b151561135057600080fd5b50600090815260076020526040902054600160a060020a031690565b6001546040805160e060020a6312d9a6ad0281527f61646d696e0000000000000000000000000000000000000000000000000000006004820181905233602483015291519192600160a060020a0316916312d9a6ad916044808201926020929091908290030181600087803b1580156113e457600080fd5b505af11580156113f8573d6000803e3d6000fd5b505050506040513d602081101561140e57600080fd5b50511515611454576040805160e560020a62461bcd02815260206004820152600d6024820152600080516020614090833981519152604482015290519081900360640190fd5b5067ffffffffffffffff166000908152600460205260409020805460ff19166001179055565b6000611485836120dc565b821061149057600080fd5b600160a060020a03831660009081526008602052604090208054839081106114b457fe5b9060005260206000200154905092915050565b6001546040805160e060020a6312d9a6ad028152600080516020614110833981519152600482018190523360248301529151600093600160a060020a0316916312d9a6ad91604480830192602092919082900301818887803b15801561152c57600080fd5b505af1158015611540573d6000803e3d6000fd5b505050506040513d602081101561155657600080fd5b5051151561159c576040805160e560020a62461bcd02815260206004820152600d6024820152600080516020614090833981519152604482015290519081900360640190fd5b6115a684846134a0565b915067ffffffffffffffff82161515611609576040805160e560020a62461bcd02815260206004820152600e60248201527f6475706c69636174656420646e61000000000000000000000000000000000000604482015290519081900360640190fd5b61161d858367ffffffffffffffff166136a4565b5050505050565b6001546040805160e060020a6312d9a6ad0281526000805160206141108339815191526004820181905233602483015291519192600160a060020a0316916312d9a6ad916044808201926020929091908290030181600087803b15801561168a57600080fd5b505af115801561169e573d6000803e3d6000fd5b505050506040513d60208110156116b457600080fd5b505115156116fa576040805160e560020a62461bcd02815260206004820152600d6024820152600080516020614090833981519152604482015290519081900360640190fd5b67ffffffffffffffff891660009081526003602052604090206001015462ffffff1615611771576040805160e560020a62461bcd02815260206004820152601260248201527f646e6120616c7265616479206578697374730000000000000000000000000000604482015290519081900360640190fd5b60a060405190810160405280856000191681526020018962ffffff1681526020018863ffffffff1681526020018763ffffffff1681526020018661ffff16815250600360008b67ffffffffffffffff1667ffffffffffffffff1681526020019081526020016000206000820151816000019060001916905560208201518160010160006101000a81548162ffffff021916908362ffffff16021790555060408201518160010160036101000a81548163ffffffff021916908363ffffffff16021790555060608201518160010160076101000a81548163ffffffff021916908363ffffffff160217905550608082015181600101600b6101000a81548161ffff021916908361ffff16021790555090505082600660008b67ffffffffffffffff16815260200190815260200160002060006101000a815481600160a060020a030219169083600160a060020a0316021790555081600760008b67ffffffffffffffff16815260200190815260200160002060006101000a815481600160a060020a030219169083600160a060020a031602179055506008600084600160a060020a0316600160a060020a03168152602001908152602001600020899080600181540180825580915050906001820390600052602060002001600090919267ffffffffffffffff1690919091505550600289908060018154018082558091505090600182039060005260206000209060049182820401919006600802909192909190916101000a81548167ffffffffffffffff021916908367ffffffffffffffff160217905550507f9363f3eb6a090bae53c5052f95c03f9cfdaf2d9a07c072dbdb805dc9a643ce8089604051808267ffffffffffffffff1667ffffffffffffffff16815260200191505060405180910390a1505050505050505050565b6001546040805160e060020a6312d9a6ad0281526000805160206141108339815191526004820181905233602483015291519192600160a060020a0316916312d9a6ad916044808201926020929091908290030181600087803b158015611a7457600080fd5b505af1158015611a88573d6000803e3d6000fd5b505050506040513d6020811015611a9e57600080fd5b50511515611ae4576040805160e560020a62461bcd02815260206004820152600d6024820152600080516020614090833981519152604482015290519081900360640190fd5b67ffffffffffffffff831660009081526003602052604090206001015462ffffff1615611b5b576040805160e560020a62461bcd02815260206004820152601260248201527f646e6120616c7265616479206578697374730000000000000000000000000000604482015290519081900360640190fd5b67ffffffffffffffff831660009081526004602052604090205460ff1615611bcd576040805160e560020a62461bcd02815260206004820152600b60248201527f646e6120626c6f636b6564000000000000000000000000000000000000000000604482015290519081900360640190fd5b611bd7838361374a565b611beb848467ffffffffffffffff166136a4565b50505050565b600054600160a060020a03163314611c41576040805160e560020a62461bcd02815260206004820152601160248201526000805160206140b0833981519152604482015290519081900360640190fd5b60005460a060020a900460ff161515611c5957600080fd5b6000805474ff0000000000000000000000000000000000000000191681556040517f7805862f689e2f13df9f062ff482ad3ad112aca9e0847911ed832e158c525b339190a1565b67ffffffffffffffff821633611cb582611d5c565b600160a060020a031614610aa7576040805160e560020a62461bcd02815260206004820152601560248201527f73656e646572206d757374206f776e20746f6b656e0000000000000000000000604482015290519081900360640190fd5b610e978383836020604051908101604052806000815250612931565b600090815260066020526040902054600160a060020a0316151590565b60005460a060020a900460ff1681565b600081815260066020526040812054600160a060020a0316801515610c8d576040805160e560020a62461bcd02815260206004820152600d60248201527f6e6f206f776e6572206164647200000000000000000000000000000000000000604482015290519081900360640190fd5b6001546040805160e060020a6312d9a6ad0281527f61646d696e0000000000000000000000000000000000000000000000000000006004820181905233602483015291519192600160a060020a0316916312d9a6ad916044808201926020929091908290030181600087803b158015611e4357600080fd5b505af1158015611e57573d6000803e3d6000fd5b505050506040513d6020811015611e6d57600080fd5b50511515611eb3576040805160e560020a62461bcd02815260206004820152600d6024820152600080516020614090833981519152604482015290519081900360640190fd5b6001546040805160e060020a6321f8a7210281527f63757457616c6c6574000000000000000000000000000000000000000000000060048201529051600160a060020a03909216916321f8a721916024808201926020929091908290030181600087803b158015611f2357600080fd5b505af1158015611f37573d6000803e3d6000fd5b505050506040513d6020811015611f4d57600080fd5b5051604051600160a060020a0390911690303180156108fc02916000818181858888f19350505050158015611f86573d6000803e3d6000fd5b5050565b6001546040805160e060020a6312d9a6ad0281527f61646d696e0000000000000000000000000000000000000000000000000000006004820181905233602483015291519192600160a060020a0316916312d9a6ad916044808201926020929091908290030181600087803b15801561200257600080fd5b505af1158015612016573d6000803e3d6000fd5b505050506040513d602081101561202c57600080fd5b50511515612072576040805160e560020a62461bcd02815260206004820152600d6024820152600080516020614090833981519152604482015290519081900360640190fd5b50600b80546fffffffffffffffffffffffffffffffff19166fffffffffffffffffffffffffffffffff9485161784167001000000000000000000000000000000009390941692909202929092179055600c805463ffffffff191663ffffffff909216919091179055565b6000600160a060020a038216151561213e576040805160e560020a62461bcd02815260206004820152600d60248201527f6e6f206f776e6572206164647200000000000000000000000000000000000000604482015290519081900360640190fd5b50600160a060020a031660009081526008602052604090205490565b600054600160a060020a031633146121aa576040805160e560020a62461bcd02815260206004820152601160248201526000805160206140b0833981519152604482015290519081900360640190fd5b60008054604051600160a060020a03909116917ff8df31144d9c2f0f6b59d69b8b98abd5459d07f2742c4df920b25aae33c6482091a260008054600160a060020a0319169055565b6001546040805160e060020a6312d9a6ad0281526000805160206141108339815191526004820181905233602483015291519192600160a060020a0316916312d9a6ad916044808201926020929091908290030181600087803b15801561225857600080fd5b505af115801561226c573d6000803e3d6000fd5b505050506040513d602081101561228257600080fd5b505115156122c8576040805160e560020a62461bcd02815260206004820152600d6024820152600080516020614090833981519152604482015290519081900360640190fd5b610e978383613903565b600054600160a060020a03163314612322576040805160e560020a62461bcd02815260206004820152601160248201526000805160206140b0833981519152604482015290519081900360640190fd5b60005460a060020a900460ff161561233957600080fd5b6000805474ff0000000000000000000000000000000000000000191660a060020a1781556040517f6985a02210a168e66602d3235cb6db0e70f92b3ba4d376a33c0f3d9434bff6259190a1565b600054600160a060020a031681565b60408051808201909152600281527f4544000000000000000000000000000000000000000000000000000000000000602082015290565b6001546040805160e060020a6312d9a6ad0281526000805160206140f0833981519152600482018190523360248301529151600093600160a060020a0316916312d9a6ad91604480830192602092919082900301818887803b15801561243157600080fd5b505af1158015612445573d6000803e3d6000fd5b505050506040513d602081101561245b57600080fd5b505115156124a1576040805160e560020a62461bcd02815260206004820152600d6024820152600080516020614090833981519152604482015290519081900360640190fd5b67ffffffffffffffff8416600090815260036020819052604082206001015463ffffffff670100000000000000909104169085900b019250600783900b12156125175767ffffffffffffffff8416600090815260036020526040902060010180546affffffff0000000000000019169055612563565b63ffffffff600783900b13156125635767ffffffffffffffff8416600090815260036020526040902060010180546affffffff0000000000000019166affffffff000000000000001790555b67ffffffffffffffff841660008181526003602090815260409182902060010180546affffffff00000000000000191667010000000000000063ffffffff881602179055815192835290516000805160206140d08339815191529281900390910190a150505050565b600160a060020a0382163314156125e257600080fd5b336000818152600a60209081526040808320600160a060020a03871680855290835292819020805460ff1916861515908117909155815190815290519293927f17307eab39ab6107e8899845ad3d59bd9653f200f220920489ca2b5937696c31929181900390910190a35050565b6001546040805160e060020a6312d9a6ad0281526000805160206140f0833981519152600482018190523360248301529151600093600160a060020a0316916312d9a6ad91604480830192602092919082900301818887803b1580156126b557600080fd5b505af11580156126c9573d6000803e3d6000fd5b505050506040513d60208110156126df57600080fd5b50511515612725576040805160e560020a62461bcd02815260206004820152600d6024820152600080516020614090833981519152604482015290519081900360640190fd5b67ffffffffffffffff8516600090815260036020818152604080842088855260020190915282205463ffffffff169085900b019250600783900b121561279c5767ffffffffffffffff851660009081526003602090815260408083208784526002019091529020805463ffffffff191690556127e5565b63ffffffff600783900b13156127e55767ffffffffffffffff851660009081526003602090815260408083208784526002019091529020805463ffffffff191663ffffffff1790555b67ffffffffffffffff85166000818152600360209081526040808320888452600201825291829020805463ffffffff191663ffffffff8716179055815192835290516000805160206140d08339815191529281900390910190a15050505050565b803361285182611d5c565b600160a060020a0316146128af576040805160e560020a62461bcd02815260206004820152601560248201527f73656e646572206d757374206f776e20746f6b656e0000000000000000000000604482015290519081900360640190fd5b60005460a060020a900460ff16156128c657600080fd5b610e97338484611138565b67ffffffffffffffff91909116600090815260036020908152604080832093835260029093019052205463ffffffff1690565b60005460a060020a900460ff161561291b57600080fd5b61292e61292782611d5c565b3383611138565b50565b61293c848484611138565b61294884848484613a10565b1515611beb57600080fd5b67ffffffffffffffff8116600090815260036020526040812060018082015483916b010000000000000000000000909104161515612afd57600154604080517faa327f1e00000000000000000000000000000000000000000000000000000000815260ff871660048201529051600160a060020a039092169163aa327f1e916024808201926020929091908290030181600087803b1580156129f457600080fd5b505af1158015612a08573d6000803e3d6000fd5b505050506040513d6020811015612a1e57600080fd5b50516001830154604080517f020aefb70000000000000000000000000000000000000000000000000000000081526bffffffffffffffffffffffff8816600482015262ffffff8316602482015263ffffffff6301000000840481166044830152670100000000000000909304909216606483015251919250600160a060020a0383169163020aefb7916084808201926020929091908290030181600087803b158015612ac957600080fd5b505af1158015612add573d6000803e3d6000fd5b505050506040513d6020811015612af357600080fd5b5051159250612b02565b600092505b5050919050565b6001546040805160e060020a6312d9a6ad028152600080516020614110833981519152600482018190523360248301529151600093849392600160a060020a03909116916312d9a6ad9160448082019260209290919082900301818887803b158015612b7457600080fd5b505af1158015612b88573d6000803e3d6000fd5b505050506040513d6020811015612b9e57600080fd5b50511515612be4576040805160e560020a62461bcd02815260206004820152600d6024820152600080516020614090833981519152604482015290519081900360640190fd5b612bed84612c12565b9250600091505b82821015611beb57612c07846000613903565b600190910190612bf4565b600154604080517faa327f1e00000000000000000000000000000000000000000000000000000000815260ff84166004820152905160009283928392600160a060020a039092169163aa327f1e9160248082019260209290919082900301818787803b158015612c8157600080fd5b505af1158015612c95573d6000803e3d6000fd5b505050506040513d6020811015612cab57600080fd5b5051600154604080517f0c1ba17a0000000000000000000000000000000000000000000000000000000081529051929450600160a060020a03918216926321f8a72192861691630c1ba17a9160048083019260209291908290030181600087803b158015612d1857600080fd5b505af1158015612d2c573d6000803e3d6000fd5b505050506040513d6020811015612d4257600080fd5b5051604080517c010000000000000000000000000000000000000000000000000000000063ffffffff851602815260048101929092525160248083019260209291908290030181600087803b158015612d9a57600080fd5b505af1158015612dae573d6000803e3d6000fd5b505050506040513d6020811015612dc457600080fd5b5051604080517f4d19d5150000000000000000000000000000000000000000000000000000000081529051919250600160a060020a03831691634d19d515916004808201926020929091908290030181600087803b158015612e2557600080fd5b505af1158015612e39573d6000803e3d6000fd5b505050506040513d6020811015612e4f57600080fd5b5051949350505050565b6001546040805160e060020a6312d9a6ad0281526000805160206140f0833981519152600482018190523360248301529151600093600160a060020a0316916312d9a6ad91604480830192602092919082900301818887803b158015612ebe57600080fd5b505af1158015612ed2573d6000803e3d6000fd5b505050506040513d6020811015612ee857600080fd5b50511515612f2e576040805160e560020a62461bcd02815260206004820152600d6024820152600080516020614090833981519152604482015290519081900360640190fd5b67ffffffffffffffff8416600090815260036020819052604082206001015463ffffffff6301000000909104169085900b019250600783900b1215612f9c5767ffffffffffffffff84166000908152600360205260409020600101805466ffffffff00000019169055612fe0565b63ffffffff600783900b1315612fe05767ffffffffffffffff84166000908152600360205260409020600101805466ffffffff000000191666ffffffff0000001790555b67ffffffffffffffff8416600081815260036020908152604091829020600101805466ffffffff0000001916630100000063ffffffff881602179055815192835290516000805160206140d08339815191529281900390910190a150505050565b600160a060020a039182166000908152600a6020908152604080832093909416825291909152205460ff1690565b600067ffffffffffffffff85163361308682611d5c565b600160a060020a0316146130e4576040805160e560020a62461bcd02815260206004820152601560248201527f73656e646572206d757374206f776e20746f6b656e0000000000000000000000604482015290519081900360640190fd5b60005460a060020a900460ff16156130fb57600080fd5b61310e8667ffffffffffffffff16612953565b1515613164576040805160e560020a62461bcd02815260206004820152601a60248201527f746f6b656e2063616e2774206265207472616e73666572726564000000000000604482015290519081900360640190fd5b6001546040805160e060020a6321f8a7210281527f5265766572736541756374696f6e00000000000000000000000000000000000060048201529051600160a060020a03909216916321f8a721916024808201926020929091908290030181600087803b1580156131d457600080fd5b505af11580156131e8573d6000803e3d6000fd5b505050506040513d60208110156131fe57600080fd5b505191506132168267ffffffffffffffff8816610c93565b604080517fe599026200000000000000000000000000000000000000000000000000000000815267ffffffffffffffff881660048201526fffffffffffffffffffffffffffffffff80881660248301528616604482015263ffffffff851660648201523360848201529051600160a060020a0384169163e59902629160a480830192600092919082900301818387803b1580156132b257600080fd5b505af11580156132c6573d6000803e3d6000fd5b50505050505050505050565b600054600160a060020a03163314613322576040805160e560020a62461bcd02815260206004820152601160248201526000805160206140b0833981519152604482015290519081900360640190fd5b600160a060020a0381161515613382576040805160e560020a62461bcd02815260206004820152601760248201527f6e6577206f776e6572206d7573742062652076616c6964000000000000000000604482015290519081900360640190fd5b60008054604051600160a060020a03808516939216917f8be0079c531659141344cd1fd0a4f28419497f9722a3daafe3b4186f6b6457e091a360008054600160a060020a031916600160a060020a0392909216919091179055565b6000806133e983611d5c565b905080600160a060020a031684600160a060020a03161480613424575083600160a060020a03166134198461133a565b600160a060020a0316145b8061343457506134348185613041565b949350505050565b6134468382613b92565b6134508382613c75565b61345a8282613e10565b8082600160a060020a031684600160a060020a03167fddf252ad1be2c89b69c2b068fc378daa952ba7f163c4a11628f55a4df523b3ef60405160405180910390a4505050565b600154604080517faa327f1e00000000000000000000000000000000000000000000000000000000815260ff8516600482015290516000928392839283928392600160a060020a039091169163aa327f1e9160248082019260209290919082900301818787803b15801561351357600080fd5b505af1158015613527573d6000803e3d6000fd5b505050506040513d602081101561353d57600080fd5b50519150600090505b600a81101561365857604080517ff23c83d900000000000000000000000000000000000000000000000000000000815260ff88166004820152602481018390528151600160a060020a0385169263f23c83d992604480820193918290030181600087803b1580156135b657600080fd5b505af11580156135ca573d6000803e3d6000fd5b505050506040513d60408110156135e057600080fd5b50805160209182015167ffffffffffffffff82166000908152600390935260409092206001015490955090935062ffffff16158015613639575067ffffffffffffffff841660009081526004602052604090205460ff16155b1561365057613648848461374a565b83945061369a565b600101613546565b6040805167ffffffffffffffff8616815290517f4cc3702a2cbe4f4556dfb2a568f8bf639b552dff8458617d3259c68011ede5c09181900360200190a1600094505b5050505092915050565b600160a060020a0382161515613704576040805160e560020a62461bcd02815260206004820152601660248201527f61646472206d757374206e6f7420626520656d70747900000000000000000000604482015290519081900360640190fd5b61370e8282613e10565b6040518190600160a060020a038416906000907fddf252ad1be2c89b69c2b068fc378daa952ba7f163c4a11628f55a4df523b3ef908290a45050565b67ffffffffffffffff821615156137ab576040805160e560020a62461bcd02815260206004820152601460248201527f646e61206d7573742062652070726f7669646564000000000000000000000000604482015290519081900360640190fd5b6040805160a081018252600080825262ffffff8481166020808501918252848601848152606086018581526080870186815267ffffffffffffffff8b811680895260038087528b8a209a518b55965160019a8b01805496519551945162ffffff19909716919099161766ffffffff0000001916630100000063ffffffff95861602176affffffff0000000000000019166701000000000000009490931693909302919091176cffff000000000000000000000019166b01000000000000000000000061ffff90941693909302929092179094556002805496870181559094527f405787fa12a823e0f2b7631cc41b3ba8828b3321ca811111fa75cd3aa3bb5ace60048604018054959092166008026101000a9384021990941692820292909217909155825190815291517f9363f3eb6a090bae53c5052f95c03f9cfdaf2d9a07c072dbdb805dc9a643ce809281900390910190a15050565b600061390f83836134a0565b905067ffffffffffffffff811615610e9757613935308267ffffffffffffffff166136a4565b6001546040805160e060020a6321f8a7210281527f5265766572736541756374696f6e00000000000000000000000000000000000060048201529051600160a060020a03909216916321f8a721916024808201926020929091908290030181600087803b1580156139a557600080fd5b505af11580156139b9573d6000803e3d6000fd5b505050506040513d60208110156139cf57600080fd5b505167ffffffffffffffff821660009081526007602052604090208054600160a060020a031916600160a060020a03909216919091179055610e9781613ed7565b600080613a2585600160a060020a031661404a565b1515613a345760019150613b89565b6040517f150b7a020000000000000000000000000000000000000000000000000000000081523360048201818152600160a060020a03898116602485015260448401889052608060648501908152875160848601528751918a169463150b7a0294938c938b938b93909160a490910190602085019080838360005b83811015613ac7578181015183820152602001613aaf565b50505050905090810190601f168015613af45780820380516001836020036101000a031916815260200191505b5095505050505050602060405180830381600087803b158015613b1657600080fd5b505af1158015613b2a573d6000803e3d6000fd5b505050506040513d6020811015613b4057600080fd5b50517bffffffffffffffffffffffffffffffffffffffffffffffffffffffff1981167f150b7a020000000000000000000000000000000000000000000000000000000014925090505b50949350505050565b81600160a060020a0316613ba582611d5c565b600160a060020a031614613c03576040805160e560020a62461bcd02815260206004820152601a60248201527f746f6b656e206d7573742062656c6f6e6720746f206f776e6572000000000000604482015290519081900360640190fd5b600081815260076020526040902054600160a060020a031615611f86576000818152600760205260408082208054600160a060020a031916905551829190600160a060020a038516907f8c5be1e5ebec7d5bd14f71427d1e84f3dd0314c0f7b2291e5b200ac8c7c3b925908390a45050565b600080600084600160a060020a0316613c8d85611d5c565b600160a060020a031614613ceb576040805160e560020a62461bcd02815260206004820152601e60248201527f66726f6d2061646472206d75737420626520746f6b656e206f776e6465720000604482015290519081900360640190fd5b60008481526006602090815260408083208054600160a060020a03191690556009825280832054600160a060020a0389168452600890925282205490945011613d35576000613d53565b600160a060020a038516600090815260086020526040902054600019015b600160a060020a038616600090815260086020526040902080549193509083908110613d7b57fe5b90600052602060002001549050806008600087600160a060020a0316600160a060020a0316815260200190815260200160002084815481101515613dbb57fe5b6000918252602080832090910192909255600160a060020a0387168152600890915260409020805490613df2906000198301614052565b50600093845260096020526040808520859055908452909220555050565b600081815260066020526040812054600160a060020a031615613e7d576040805160e560020a62461bcd02815260206004820152601a60248201527f63757272656e742061646472206d75737420626520656d707479000000000000604482015290519081900360640190fd5b5060008181526006602090815260408083208054600160a060020a03909616600160a060020a0319909616861790559382526008815283822080546001810182559083528183208101849055928252600990529190912055565b6001546040805160e060020a6321f8a7210281527f5265766572736541756374696f6e00000000000000000000000000000000000060048201529051600092600160a060020a0316916321f8a72191602480830192602092919082900301818787803b158015613f4657600080fd5b505af1158015613f5a573d6000803e3d6000fd5b505050506040513d6020811015613f7057600080fd5b5051600b54600c54604080517fe599026200000000000000000000000000000000000000000000000000000000815267ffffffffffffffff871660048201526fffffffffffffffffffffffffffffffff8085166024830152700100000000000000000000000000000000909404909316604484015263ffffffff909116606483015230608483015251919250600160a060020a0383169163e59902629160a48082019260009290919082900301818387803b15801561402e57600080fd5b505af1158015614042573d6000803e3d6000fd5b505050505050565b6000903b1190565b815481835581811115610e9757600083815260209020610e97918101908301610c7f91905b8082111561408b5760008155600101614077565b509056006e6f74207065726d6974746564000000000000000000000000000000000000006e6565647320746f206265206f776e65720000000000000000000000000000008faa7279f7c80c2da062536be5be196f54f55cc25fd82bc194a43edc47e99cd56d6f6469666965720000000000000000000000000000000000000000000000006d696e7465720000000000000000000000000000000000000000000000000000a165627a7a72305820da383f8b41692a50566af836c219161e085928933b14e0a45945f1902c0a30000029",
  "source": "pragma solidity ^0.4.0;\r\n\r\nimport \"./EverDragonsImport.sol\";\r\n\r\ncontract EverDragons is EverDragonsImport {\r\n    constructor(address registrarAddress) public HasRegistrar(registrarAddress) {}\r\n\r\n    function getDragon(uint64 dna)\r\n        public\r\n        view\r\n        returns (uint24 attributes, uint32 experience, uint32 prestige, uint16 state, bytes32 name)\r\n    {\r\n        Dragon storage dragon = dnaToDragon[dna];\r\n        return (dragon.attributes, dragon.experience, dragon.prestige, dragon.state, dragon.name);\r\n    }\r\n\r\n    function getDragonItem(uint64 dna, bytes32 item) public view returns (uint256) {\r\n        return dnaToDragon[dna].items[item];\r\n    }\r\n\r\n    function getDragonByIndex(uint256 index)\r\n        public\r\n        view\r\n        returns (uint24 attributes, uint32 experience, uint32 prestige, uint16 state, bytes32 name, uint64 dna)\r\n    {\r\n        require(index < totalSupply(), \"index too large\");\r\n        dna = DNAs[index];\r\n        Dragon storage dragon = dnaToDragon[dna];\r\n        return (dragon.attributes, dragon.experience, dragon.prestige, dragon.state, dragon.name, dna);\r\n    }\r\n\r\n    function changeDragonName(uint64 dna, bytes32 name) external onlyOwnerOf(dna) {\r\n        dnaToDragon[dna].name = name;\r\n        emit PropertiesChanged(dna);\r\n    }\r\n\r\n    function createDragonForUser(address receiver, uint64 dna, uint24 attributes) external hasRole(\"minter\") {\r\n        require(dnaToDragon[dna].attributes == 0, \"dna already exists\");\r\n        require(blockedDNA[dna] == false, \"dna blocked\");\r\n        createDragon(dna, attributes);\r\n        mint(receiver, uint256(dna));\r\n    }\r\n\r\n    function createRandomDragonForUser(address receiver, uint8 dragonType, uint8 version) external hasRole(\"minter\") {\r\n        uint64 dna = generateDragon(dragonType, version);\r\n        require(dna != 0, \"duplicated dna\");\r\n        mint(receiver, uint256(dna));\r\n    }\r\n\r\n    function createNSEDragon(uint8 dragonType, uint8 version) external hasRole(\"minter\") {\r\n        createNSE(dragonType, version);\r\n    }\r\n}\r\n",
  "sourcePath": "C:/Projects/everdragons/everdragons-contract/contracts/EverDragons.sol",
  "compiler": {
    "name": "solc",
    "version": "0.4.25+commit.59dbf8f1.Emscripten.clang"
  },
  "schemaVersion": "3.0.8",
  "updatedAt": "2019-04-27T17:06:57.614Z",
  "devdoc": {
    "methods": {
      "approve(address,uint256)": {
        "details": "Approves another address to claim for the ownership of the given token ID\r",
        "params": {
          "to": "address to be approved for the given token ID\r",
          "tokenId": "uint256 ID of the token to be approved\r"
        }
      },
      "approvedFor(uint256)": {
        "details": "Gets the approved address to take ownership of a given token ID\r",
        "params": {
          "tokenId": "uint256 ID of the token to query the approval of\r"
        },
        "return": "address currently approved to take ownership of the given token ID\r"
      },
      "balanceOf(address)": {
        "details": "Gets the balance of the specified address\r",
        "params": {
          "owner": "address to query the balance of\r"
        },
        "return": "uint256 representing the amount owned by the passed address\r"
      },
      "exists(uint256)": {
        "details": "Returns whether the specified token exists\r",
        "params": {
          "tokenId": "uint256 ID of the token to query the existence of\r"
        },
        "return": "whether the token exists\r"
      },
      "getApproved(uint256)": {
        "details": "Gets the approved address for a token ID, or zero if no address set\r Reverts if the token ID does not exist.\r",
        "params": {
          "tokenId": "uint256 ID of the token to query the approval of\r"
        },
        "return": "address currently approved for the given token ID\r"
      },
      "isApprovedForAll(address,address)": {
        "details": "Tells whether an operator is approved by a given owner\r",
        "params": {
          "operator": "operator address which you want to query the approval of\r",
          "owner": "owner address which you want to query the approval of\r"
        },
        "return": "bool whether the given operator is approved by the given owner\r"
      },
      "ownerOf(uint256)": {
        "details": "Gets the owner of the specified token ID\r",
        "params": {
          "tokenId": "uint256 ID of the token to query the owner of\r"
        },
        "return": "owner address currently marked as the owner of the given token ID\r"
      },
      "pause()": {
        "details": "called by the owner to pause, triggers stopped state\r"
      },
      "renounceOwnership()": {
        "details": "Allows the current owner to relinquish control of the contract.\r"
      },
      "safeTransferFrom(address,address,uint256)": {
        "details": "Safely transfers the ownership of a given token ID to another address\rIf the target address is a contract, it must implement `onERC721Received`,\r which is called upon a safe transfer, and return the magic value\r `bytes4(keccak256(\"onERC721Received(address,uint256,bytes)\"))`; otherwise,\r the transfer is reverted.\rRequires the msg sender to be the owner, approved, or operator\r",
        "params": {
          "from": "current owner of the token\r",
          "to": "address to receive the ownership of the given token ID\r",
          "tokenId": "uint256 ID of the token to be transferred\r"
        }
      },
      "safeTransferFrom(address,address,uint256,bytes)": {
        "details": "Safely transfers the ownership of a given token ID to another address\rIf the target address is a contract, it must implement `onERC721Received`,\r which is called upon a safe transfer, and return the magic value\r `bytes4(keccak256(\"onERC721Received(address,uint256,bytes)\"))`; otherwise,\r the transfer is reverted.\rRequires the msg sender to be the owner, approved, or operator\r",
        "params": {
          "data": "bytes data to send along with a safe transfer check\r",
          "from": "current owner of the token\r",
          "to": "address to receive the ownership of the given token ID\r",
          "tokenId": "uint256 ID of the token to be transferred\r"
        }
      },
      "setApprovalForAll(address,bool)": {
        "details": "Sets or unsets the approval of a given operator\r An operator is allowed to transfer all tokens of the sender on their behalf\r",
        "params": {
          "approved": "representing the status of the approval to be set\r",
          "to": "operator address to set the approval\r"
        }
      },
      "supportsInterface(bytes4)": {
        "details": "implement supportsInterface(bytes4) using a lookup table\r"
      },
      "takeOwnership(uint256)": {
        "details": "Claims the ownership of a given token ID\r",
        "params": {
          "tokenId": "uint256 ID of the token being claimed by the msg.sender\r"
        }
      },
      "tokenOfOwnerByIndex(address,uint256)": {
        "details": "Gets the token ID at a given index of the tokens list of the requested owner\r",
        "params": {
          "index": "uint256 representing the index to be accessed of the requested tokens list\r",
          "owner": "address owning the tokens list to be accessed\r"
        },
        "return": "uint256 token ID at the given index of the tokens list owned by the requested address\r"
      },
      "totalSupply()": {
        "details": "Gets the total amount of tokens stored by the contract\r",
        "return": "uint256 representing the total amount of tokens\r"
      },
      "transfer(address,uint256)": {
        "details": "Transfers the ownership of a given token ID to another address\r",
        "params": {
          "to": "address to receive the ownership of the given token ID\r",
          "tokenId": "uint256 ID of the token to be transferred\r"
        }
      },
      "transferFrom(address,address,uint256)": {
        "details": "Required for ERC-721 compliance."
      },
      "transferOwnership(address)": {
        "details": "Allows the current owner to transfer control of the contract to a newOwner.\r",
        "params": {
          "newOwner": "The address to transfer ownership to.\r"
        }
      },
      "unpause()": {
        "details": "called by the owner to unpause, returns to normal state\r"
      }
    }
  },
  "userdoc": {
    "methods": {}
  }
}