{
  "contractName": "Race",
  "abi": [
    {
      "constant": true,
      "inputs": [
        {
          "name": "",
          "type": "address"
        }
      ],
      "name": "playerToGameId",
      "outputs": [
        {
          "name": "",
          "type": "uint256"
        }
      ],
      "payable": false,
      "stateMutability": "view",
      "type": "function"
    },
    {
      "constant": true,
      "inputs": [
        {
          "name": "gameId",
          "type": "uint256"
        }
      ],
      "name": "hasFinished",
      "outputs": [
        {
          "name": "",
          "type": "bool"
        }
      ],
      "payable": false,
      "stateMutability": "view",
      "type": "function"
    },
    {
      "constant": false,
      "inputs": [
        {
          "name": "gameId",
          "type": "uint256"
        },
        {
          "name": "dragonDNA",
          "type": "uint64"
        }
      ],
      "name": "joinGame",
      "outputs": [],
      "payable": false,
      "stateMutability": "nonpayable",
      "type": "function"
    },
    {
      "constant": true,
      "inputs": [
        {
          "name": "gameId",
          "type": "uint256"
        }
      ],
      "name": "isInProgress",
      "outputs": [
        {
          "name": "",
          "type": "bool"
        }
      ],
      "payable": false,
      "stateMutability": "view",
      "type": "function"
    },
    {
      "constant": false,
      "inputs": [
        {
          "name": "price",
          "type": "uint32"
        },
        {
          "name": "dragonDNA",
          "type": "uint64"
        },
        {
          "name": "numPlayers",
          "type": "uint8"
        }
      ],
      "name": "hostGame",
      "outputs": [],
      "payable": false,
      "stateMutability": "nonpayable",
      "type": "function"
    },
    {
      "constant": true,
      "inputs": [
        {
          "name": "gameId",
          "type": "uint256"
        }
      ],
      "name": "finishesAt",
      "outputs": [
        {
          "name": "",
          "type": "uint32"
        }
      ],
      "payable": false,
      "stateMutability": "view",
      "type": "function"
    },
    {
      "constant": true,
      "inputs": [],
      "name": "currentVendorGame",
      "outputs": [
        {
          "name": "",
          "type": "uint256"
        }
      ],
      "payable": false,
      "stateMutability": "view",
      "type": "function"
    },
    {
      "constant": true,
      "inputs": [],
      "name": "finishedUntil",
      "outputs": [
        {
          "name": "",
          "type": "uint256"
        }
      ],
      "payable": false,
      "stateMutability": "view",
      "type": "function"
    },
    {
      "constant": true,
      "inputs": [
        {
          "name": "gameId",
          "type": "uint256"
        }
      ],
      "name": "startedAt",
      "outputs": [
        {
          "name": "",
          "type": "uint32"
        }
      ],
      "payable": false,
      "stateMutability": "view",
      "type": "function"
    },
    {
      "constant": false,
      "inputs": [],
      "name": "unpause",
      "outputs": [],
      "payable": false,
      "stateMutability": "nonpayable",
      "type": "function"
    },
    {
      "constant": true,
      "inputs": [
        {
          "name": "offset",
          "type": "uint256"
        }
      ],
      "name": "getActiveGames",
      "outputs": [
        {
          "name": "gameIds",
          "type": "uint256[10]"
        }
      ],
      "payable": false,
      "stateMutability": "view",
      "type": "function"
    },
    {
      "constant": true,
      "inputs": [
        {
          "name": "gameId",
          "type": "uint256"
        }
      ],
      "name": "hasStarted",
      "outputs": [
        {
          "name": "",
          "type": "bool"
        }
      ],
      "payable": false,
      "stateMutability": "view",
      "type": "function"
    },
    {
      "constant": true,
      "inputs": [],
      "name": "paused",
      "outputs": [
        {
          "name": "",
          "type": "bool"
        }
      ],
      "payable": false,
      "stateMutability": "view",
      "type": "function"
    },
    {
      "constant": false,
      "inputs": [
        {
          "name": "startValues",
          "type": "uint32[]"
        },
        {
          "name": "timeDiffs",
          "type": "uint32[]"
        }
      ],
      "name": "_callback",
      "outputs": [],
      "payable": false,
      "stateMutability": "nonpayable",
      "type": "function"
    },
    {
      "constant": true,
      "inputs": [
        {
          "name": "gameId",
          "type": "uint256"
        }
      ],
      "name": "getWinners",
      "outputs": [
        {
          "name": "",
          "type": "uint64[]"
        }
      ],
      "payable": false,
      "stateMutability": "view",
      "type": "function"
    },
    {
      "constant": true,
      "inputs": [
        {
          "name": "player",
          "type": "address"
        },
        {
          "name": "offset",
          "type": "uint256"
        }
      ],
      "name": "getGamesForPlayer",
      "outputs": [
        {
          "name": "gameIds",
          "type": "uint256[5]"
        }
      ],
      "payable": false,
      "stateMutability": "view",
      "type": "function"
    },
    {
      "constant": false,
      "inputs": [],
      "name": "renounceOwnership",
      "outputs": [],
      "payable": false,
      "stateMutability": "nonpayable",
      "type": "function"
    },
    {
      "constant": true,
      "inputs": [],
      "name": "gameUID",
      "outputs": [
        {
          "name": "",
          "type": "uint16"
        }
      ],
      "payable": false,
      "stateMutability": "view",
      "type": "function"
    },
    {
      "constant": false,
      "inputs": [],
      "name": "pause",
      "outputs": [],
      "payable": false,
      "stateMutability": "nonpayable",
      "type": "function"
    },
    {
      "constant": true,
      "inputs": [],
      "name": "owner",
      "outputs": [
        {
          "name": "",
          "type": "address"
        }
      ],
      "payable": false,
      "stateMutability": "view",
      "type": "function"
    },
    {
      "constant": true,
      "inputs": [
        {
          "name": "offset",
          "type": "uint256"
        }
      ],
      "name": "getOpenGames",
      "outputs": [
        {
          "name": "gameIds",
          "type": "uint256[10]"
        }
      ],
      "payable": false,
      "stateMutability": "view",
      "type": "function"
    },
    {
      "constant": true,
      "inputs": [
        {
          "name": "gameId",
          "type": "uint256"
        }
      ],
      "name": "getGame",
      "outputs": [
        {
          "name": "price",
          "type": "uint32"
        },
        {
          "name": "maxPlayers",
          "type": "uint16"
        },
        {
          "name": "dragons",
          "type": "uint64[]"
        },
        {
          "name": "winners",
          "type": "uint64[]"
        },
        {
          "name": "status",
          "type": "uint8"
        }
      ],
      "payable": false,
      "stateMutability": "view",
      "type": "function"
    },
    {
      "constant": false,
      "inputs": [],
      "name": "checkForFinishedGames",
      "outputs": [],
      "payable": false,
      "stateMutability": "nonpayable",
      "type": "function"
    },
    {
      "constant": true,
      "inputs": [
        {
          "name": "gameId",
          "type": "uint256"
        }
      ],
      "name": "getPrizePot",
      "outputs": [
        {
          "name": "prizePot",
          "type": "uint256"
        }
      ],
      "payable": false,
      "stateMutability": "view",
      "type": "function"
    },
    {
      "constant": false,
      "inputs": [
        {
          "name": "newOwner",
          "type": "address"
        }
      ],
      "name": "transferOwnership",
      "outputs": [],
      "payable": false,
      "stateMutability": "nonpayable",
      "type": "function"
    },
    {
      "constant": true,
      "inputs": [],
      "name": "gamesCount",
      "outputs": [
        {
          "name": "",
          "type": "uint256"
        }
      ],
      "payable": false,
      "stateMutability": "view",
      "type": "function"
    },
    {
      "inputs": [
        {
          "name": "registrarAddress",
          "type": "address"
        }
      ],
      "payable": false,
      "stateMutability": "nonpayable",
      "type": "constructor"
    },
    {
      "anonymous": false,
      "inputs": [
        {
          "indexed": true,
          "name": "gameId",
          "type": "uint256"
        }
      ],
      "name": "NewGame",
      "type": "event"
    },
    {
      "anonymous": false,
      "inputs": [
        {
          "indexed": true,
          "name": "gameId",
          "type": "uint256"
        },
        {
          "indexed": false,
          "name": "player",
          "type": "address"
        },
        {
          "indexed": false,
          "name": "dna",
          "type": "uint64"
        }
      ],
      "name": "Joined",
      "type": "event"
    },
    {
      "anonymous": false,
      "inputs": [
        {
          "indexed": true,
          "name": "gameId",
          "type": "uint256"
        }
      ],
      "name": "Started",
      "type": "event"
    },
    {
      "anonymous": false,
      "inputs": [
        {
          "indexed": true,
          "name": "gameId",
          "type": "uint256"
        },
        {
          "indexed": false,
          "name": "winners",
          "type": "uint64[]"
        }
      ],
      "name": "Finished",
      "type": "event"
    },
    {
      "anonymous": false,
      "inputs": [],
      "name": "Pause",
      "type": "event"
    },
    {
      "anonymous": false,
      "inputs": [],
      "name": "Unpause",
      "type": "event"
    },
    {
      "anonymous": false,
      "inputs": [
        {
          "indexed": true,
          "name": "previousOwner",
          "type": "address"
        }
      ],
      "name": "OwnershipRenounced",
      "type": "event"
    },
    {
      "anonymous": false,
      "inputs": [
        {
          "indexed": true,
          "name": "previousOwner",
          "type": "address"
        },
        {
          "indexed": true,
          "name": "newOwner",
          "type": "address"
        }
      ],
      "name": "OwnershipTransferred",
      "type": "event"
    },
    {
      "constant": true,
      "inputs": [],
      "name": "getGameId",
      "outputs": [
        {
          "name": "gameId",
          "type": "uint256"
        }
      ],
      "payable": false,
      "stateMutability": "view",
      "type": "function"
    },
    {
      "constant": true,
      "inputs": [],
      "name": "getGameForUser",
      "outputs": [
        {
          "name": "gameId",
          "type": "uint256"
        },
        {
          "name": "price",
          "type": "uint32"
        },
        {
          "name": "maxPlayers",
          "type": "uint16"
        },
        {
          "name": "dragons",
          "type": "uint64[]"
        },
        {
          "name": "winners",
          "type": "uint64[]"
        },
        {
          "name": "status",
          "type": "uint8"
        }
      ],
      "payable": false,
      "stateMutability": "view",
      "type": "function"
    }
  ],
  "bytecode": "0x60806040526000805460a060020a60ff0219168155600255600160035534801561002857600080fd5b50d3801561003557600080fd5b50d2801561004257600080fd5b50604051602080620026c6833981016040525160008054600160a060020a031916331790556107d181600160a060020a03811615156100e257604080517f08c379a000000000000000000000000000000000000000000000000000000000815260206004820152601f60248201527f7265676973747261722061646472657373206e6f7420617661696c61626c6500604482015290519081900360640190fd5b60018054600160a060020a031916600160a060020a0392909216919091179055600061ffff82161161017557604080517f08c379a000000000000000000000000000000000000000000000000000000000815260206004820152601360248201527f67616d6555494420697320726571756972656400000000000000000000000000604482015290519081900360640190fd5b6001805461ffff909216740100000000000000000000000000000000000000000260a060020a61ffff02199092169190911790555061250c80620001ba6000396000f3006080604052600436106101505763ffffffff60e060020a600035041663038c20268114610155578063126f648c146101a25780631469bf7d146101e85780631728fad11461022957806320176cb11461025b57806323df2d4e146102a65780632bee0825146102f15780632fe76c9c1461032057806330047a3a1461041e5780633906d5941461044d5780633f4ba83a1461047f5780634fd0fb9e146104ae57806351f41c09146105195780635c975abb1461054b5780636001ba871461057a5780636b1426a4146106225780636f67f88e146106a4578063715018a6146106f75780638375f2e7146107265780638456cb591461076c5780638da5cb5b1461079b5780639d4c94da146107e6578063a2f77bcc14610818578063bf9d24ee14610912578063c0bd835114610941578063c75dce6214610970578063f2fde38b146109a2578063fb632b7c146109dd575b600080fd5b34801561016157600080fd5b50d3801561016e57600080fd5b50d2801561017b57600080fd5b50610190600160a060020a0360043516610a0c565b60408051918252519081900360200190f35b3480156101ae57600080fd5b50d380156101bb57600080fd5b50d280156101c857600080fd5b506101d4600435610a1e565b604080519115158252519081900360200190f35b3480156101f457600080fd5b50d3801561020157600080fd5b50d2801561020e57600080fd5b5061022760043567ffffffffffffffff60243516610a45565b005b34801561023557600080fd5b50d3801561024257600080fd5b50d2801561024f57600080fd5b506101d4600435610b02565b34801561026757600080fd5b50d3801561027457600080fd5b50d2801561028157600080fd5b5061022763ffffffff6004351667ffffffffffffffff6024351660ff60443516610b1d565b3480156102b257600080fd5b50d380156102bf57600080fd5b50d280156102cc57600080fd5b506102d8600435610ba9565b6040805163ffffffff9092168252519081900360200190f35b3480156102fd57600080fd5b50d3801561030a57600080fd5b50d2801561031757600080fd5b50610190610c75565b34801561032c57600080fd5b50d3801561033957600080fd5b50d2801561034657600080fd5b5061034f610c7b565b604051808781526020018663ffffffff1663ffffffff1681526020018561ffff1661ffff16815260200180602001806020018460ff1660ff168152602001838103835286818151815260200191508051906020019060200280838360005b838110156103c55781810151838201526020016103ad565b50505050905001838103825285818151815260200191508051906020019060200280838360005b838110156104045781810151838201526020016103ec565b505050509050019850505050505050505060405180910390f35b34801561042a57600080fd5b50d3801561043757600080fd5b50d2801561044457600080fd5b50610190610cac565b34801561045957600080fd5b50d3801561046657600080fd5b50d2801561047357600080fd5b506102d8600435610cb2565b34801561048b57600080fd5b50d3801561049857600080fd5b50d280156104a557600080fd5b50610227610d81565b3480156104ba57600080fd5b50d380156104c757600080fd5b50d280156104d457600080fd5b506104e0600435610e30565b604051808261014080838360005b838110156105065781810151838201526020016104ee565b5050505090500191505060405180910390f35b34801561052557600080fd5b50d3801561053257600080fd5b50d2801561053f57600080fd5b506101d4600435610ea4565b34801561055757600080fd5b50d3801561056457600080fd5b50d2801561057157600080fd5b506101d4610eb9565b34801561058657600080fd5b50d3801561059357600080fd5b50d280156105a057600080fd5b506040805160206004803580820135838102808601850190965280855261022795369593946024949385019291829185019084908082843750506040805187358901803560208181028481018201909552818452989b9a998901989297509082019550935083925085019084908082843750949750610ec99650505050505050565b34801561062e57600080fd5b50d3801561063b57600080fd5b50d2801561064857600080fd5b50610654600435610fd9565b60408051602080825283518183015283519192839290830191858101910280838360005b83811015610690578181015183820152602001610678565b505050509050019250505060405180910390f35b3480156106b057600080fd5b50d380156106bd57600080fd5b50d280156106ca57600080fd5b506106e2600160a060020a03600435166024356110db565b60405181518152808260a080838360206104ee565b34801561070357600080fd5b50d3801561071057600080fd5b50d2801561071d57600080fd5b506102276112e2565b34801561073257600080fd5b50d3801561073f57600080fd5b50d2801561074c57600080fd5b50610755611387565b6040805161ffff9092168252519081900360200190f35b34801561077857600080fd5b50d3801561078557600080fd5b50d2801561079257600080fd5b50610227611398565b3480156107a757600080fd5b50d380156107b457600080fd5b50d280156107c157600080fd5b506107ca61144c565b60408051600160a060020a039092168252519081900360200190f35b3480156107f257600080fd5b50d380156107ff57600080fd5b50d2801561080c57600080fd5b506104e060043561145b565b34801561082457600080fd5b50d3801561083157600080fd5b50d2801561083e57600080fd5b5061084a6004356114c7565b604051808663ffffffff1663ffffffff1681526020018561ffff1661ffff16815260200180602001806020018460ff1660ff168152602001838103835286818151815260200191508051906020019060200280838360005b838110156108ba5781810151838201526020016108a2565b50505050905001838103825285818151815260200191508051906020019060200280838360005b838110156108f95781810151838201526020016108e1565b5050505090500197505050505050505060405180910390f35b34801561091e57600080fd5b50d3801561092b57600080fd5b50d2801561093857600080fd5b50610227611628565b34801561094d57600080fd5b50d3801561095a57600080fd5b50d2801561096757600080fd5b50610190611667565b34801561097c57600080fd5b50d3801561098957600080fd5b50d2801561099657600080fd5b5061019060043561167a565b3480156109ae57600080fd5b50d380156109bb57600080fd5b50d280156109c857600080fd5b50610227600160a060020a03600435166117f7565b3480156109e957600080fd5b50d380156109f657600080fd5b50d28015610a0357600080fd5b5061019061190f565b60066020526000908152604090205481565b600081815260046020526040812060035b600382015460ff91821691161015915050919050565b33600090815260066020526040812054819015610aac576040805160e560020a62461bcd02815260206004820152601e60248201527f706c617965722063616e206f6e6c7920626520696e206f6e652067616d650000604482015290519081900360640190fd5b610ab68484611915565b505060008281526005602090815260408083206004909252909120610ada84611a19565b8054600182015464010000000090910461ffff161415610afc57610afc611ad5565b50505050565b60009081526004602052604090206003015460ff1660021490565b60028160ff1610158015610b355750600a8160ff1611155b1515610b8b576040805160e560020a62461bcd02815260206004820152601c60248201527f6d617820706c6179657273206265747765656e203020616e6420313000000000604482015290519081900360640190fd5b610b99838260ff1684611ae8565b610ba4600254611a19565b505050565b6000818152600460209081526040808320600590925282206003820154600260ff9091161015610c23576040805160e560020a62461bcd02815260206004820152601060248201527f67616d65206e6f74207374617274656400000000000000000000000000000000604482015290519081900360640190fd5b81546001820180549091640100000000900461ffff16908110610c4257fe5b90600052602060002090600891828204019190066004029054906101000a900463ffffffff16610e100192505050919050565b60075481565b33600090815260066020526040812054908060608082610c9a866114c7565b999a9399929850909650945092509050565b60035481565b6000818152600460209081526040808320600590925282206003820154600260ff9091161015610d2c576040805160e560020a62461bcd02815260206004820152601060248201527f67616d65206e6f74207374617274656400000000000000000000000000000000604482015290519081900360640190fd5b8154600182018054909160001961ffff64010000000090920482160116908110610d5257fe5b90600052602060002090600891828204019190066004029054906101000a900463ffffffff1692505050919050565b600054600160a060020a03163314610dd1576040805160e560020a62461bcd02815260206004820152601160248201526000805160206124c1833981519152604482015290519081900360640190fd5b60005460a060020a900460ff161515610de957600080fd5b6000805474ff0000000000000000000000000000000000000000191681556040517f7805862f689e2f13df9f062ff482ad3ad112aca9e0847911ed832e158c525b339190a1565b610e38612481565b6003546000908301815b6002548211158015610e545750600a83105b15610e9c57506000818152600460205260409020600381015460ff1660021415610e9157600183019282908590600a8110610e8b57fe5b60200201525b600190910190610e42565b505050919050565b60008181526004602052604081206002610a2f565b60005460a060020a900460ff1681565b600154604080517f12d9a6ad0000000000000000000000000000000000000000000000000000000081527f67616d65734150490000000000000000000000000000000000000000000000006004820181905233602483015291519192600160a060020a0316916312d9a6ad916044808201926020929091908290030181600087803b158015610f5757600080fd5b505af1158015610f6b573d6000803e3d6000fd5b505050506040513d6020811015610f8157600080fd5b50511515610ba4576040805160e560020a62461bcd02815260206004820152600d60248201527f6e6f74207065726d697474656400000000000000000000000000000000000000604482015290519081900360640190fd5b60008181526004602052604090206003808201546060929160ff909116101561104c576040805160e560020a62461bcd02815260206004820152601760248201527f67616d652068617320746f2062652066696e6973686564000000000000000000604482015290519081900360640190fd5b806002018054806020026020016040519081016040528092919081815260200182805480156110ce57602002820191906000526020600020906000905b82829054906101000a900467ffffffffffffffff1667ffffffffffffffff16815260200190600801906020826007010492830192600103820291508084116110895790505b5050505050915050919050565b6110e36124a1565b6000806000806000600160009054906101000a9004600160a060020a0316600160a060020a03166321f8a7216040518163ffffffff1660e060020a02815260040180807f45766572447261676f6e730000000000000000000000000000000000000000008152506020019050602060405180830381600087803b15801561116957600080fd5b505af115801561117d573d6000803e3d6000fd5b505050506040513d602081101561119357600080fd5b50516002549095506000945087900392505b6000831180156111b55750600584105b156112d75750506000818152600460205260408120905b60018201548110156112cb5787600160a060020a031685600160a060020a0316636352211e846001018481548110151561120257fe5b90600052602060002090600491828204019190066008029054906101000a900467ffffffffffffffff166040518263ffffffff1660e060020a028152600401808267ffffffffffffffff168152602001915050602060405180830381600087803b15801561126f57600080fd5b505af1158015611283573d6000803e3d6000fd5b505050506040513d602081101561129957600080fd5b5051600160a060020a031614156112c357600184019383908790600581106112bd57fe5b60200201525b6001016111cc565b600019909201916111a5565b505050505092915050565b600054600160a060020a03163314611332576040805160e560020a62461bcd02815260206004820152601160248201526000805160206124c1833981519152604482015290519081900360640190fd5b60008054604051600160a060020a03909116917ff8df31144d9c2f0f6b59d69b8b98abd5459d07f2742c4df920b25aae33c6482091a26000805473ffffffffffffffffffffffffffffffffffffffff19169055565b60015460a060020a900461ffff1681565b600054600160a060020a031633146113e8576040805160e560020a62461bcd02815260206004820152601160248201526000805160206124c1833981519152604482015290519081900360640190fd5b60005460a060020a900460ff16156113ff57600080fd5b6000805474ff0000000000000000000000000000000000000000191660a060020a1781556040517f6985a02210a168e66602d3235cb6db0e70f92b3ba4d376a33c0f3d9434bff6259190a1565b600054600160a060020a031681565b611463612481565b6003546000908301815b600254821115801561147f5750600a83105b15610e9c57506000818152600460205260409020600381015460ff16600114156114bc57600183019282908590600a81106114b657fe5b60200201525b60019091019061146d565b600081815260046020908152604080832080546003820154600183018054855181880281018801909652808652879660609687968996909563ffffffff82169564010000000090920461ffff16949193600288019360ff90921692859183018282801561158757602002820191906000526020600020906000905b82829054906101000a900467ffffffffffffffff1667ffffffffffffffff16815260200190600801906020826007010492830192600103820291508084116115425790505b505050505092508180548060200260200160405190810160405280929190818152602001828054801561160d57602002820191906000526020600020906000905b82829054906101000a900467ffffffffffffffff1667ffffffffffffffff16815260200190600801906020826007010492830192600103820291508084116115c85790505b50505050509150955095509550955095505091939590929450565b6003545b600254811161166457600081815260046020526040902060039081015460ff16101561165c576003819055611664565b60010161162c565b50565b3360009081526006602052604090205490565b600154604080517f21f8a7210000000000000000000000000000000000000000000000000000000081527f506c6179657200000000000000000000000000000000000000000000000000006004820152905160009283928392600160a060020a03909216916321f8a7219160248082019260209290919082900301818787803b15801561170657600080fd5b505af115801561171a573d6000803e3d6000fd5b505050506040513d602081101561173057600080fd5b50516000858152600460208181526040808420805482517f9de2380700000000000000000000000000000000000000000000000000000000815261ffff64010000000083041663ffffffff928316029091169481018590529151939850949650939450600160a060020a03861693639de2380793602480830194928390030190829087803b1580156117c157600080fd5b505af11580156117d5573d6000803e3d6000fd5b505050506040513d60208110156117eb57600080fd5b50519092039392505050565b600054600160a060020a03163314611847576040805160e560020a62461bcd02815260206004820152601160248201526000805160206124c1833981519152604482015290519081900360640190fd5b600160a060020a03811615156118a7576040805160e560020a62461bcd02815260206004820152601760248201527f6e6577206f776e6572206d7573742062652076616c6964000000000000000000604482015290519081900360640190fd5b60008054604051600160a060020a03808516939216917f8be0079c531659141344cd1fd0a4f28419497f9722a3daafe3b4186f6b6457e091a36000805473ffffffffffffffffffffffffffffffffffffffff1916600160a060020a0392909216919091179055565b60025481565b600082815260046020526040902061192c83611b56565b50805461194290839063ffffffff166000611dc4565b5060018082018054918201815560009081526020908190206004830401805467ffffffffffffffff80871660086003909616959095026101000a8581029102199091161790556040805133815291820192909252815185927fdcb8a487aa5e9590f9d0d2ad499ca491e193c04429caecbaf4b02355cb504c1a928290030190a260018101548154640100000000900461ffff161415610ba45760038101805460ff1916600217905560405183907e6e0c97de781a7389d44ba8fd35d1467cabb17ed04d038d166d34ab819213f390600090a2505050565b3360009081526006602052604081205415611a7e576040805160e560020a62461bcd02815260206004820152601d60248201527f706c617965722063616e206f6e6c7920686f7374206f6e652067616d65000000604482015290519081900360640190fd5b50600081815260056020908152604080832080546001810182559084528284206008820401805460079092166004026101000a63ffffffff8181021990931642909316029190911790553383526006909152902055565b611ae0600a8061238f565b600254600755565b611af481846001611dc4565b50611aff838361238f565b600254600090815260046020818152604083206001908101805491820181558452922090820401805460039092166008026101000a67ffffffffffffffff8181021990931693909216919091029190911790555050565b600154604080517f21f8a7210000000000000000000000000000000000000000000000000000000081527f45766572447261676f6e7300000000000000000000000000000000000000000060048201529051600092839283928392600160a060020a0316916321f8a72191602480830192602092919082900301818787803b158015611be157600080fd5b505af1158015611bf5573d6000803e3d6000fd5b505050506040513d6020811015611c0b57600080fd5b505160008681526004602052604090206001810154815492955090935064010000000090910461ffff1611611c8a576040805160e560020a62461bcd02815260206004820152601b60248201527f6d617820706c6179657220666f722067616d6520726561636865640000000000604482015290519081900360640190fd5b5060005b6001820154811015610e9c5733600160a060020a031683600160a060020a0316636352211e8460010184815481101515611cc457fe5b90600052602060002090600491828204019190066008029054906101000a900467ffffffffffffffff166040518263ffffffff1660e060020a028152600401808267ffffffffffffffff168152602001915050602060405180830381600087803b158015611d3157600080fd5b505af1158015611d45573d6000803e3d6000fd5b505050506040513d6020811015611d5b57600080fd5b5051600160a060020a03161415611dbc576040805160e560020a62461bcd02815260206004820152601960248201527f706c617965722063616e206f6e6c79206a6f696e206f6e636500000000000000604482015290519081900360640190fd5b600101611c8e565b600080600080600080600160009054906101000a9004600160a060020a0316600160a060020a03166321f8a7216040518163ffffffff1660e060020a02815260040180807f45766572447261676f6e730000000000000000000000000000000000000000008152506020019050602060405180830381600087803b158015611e4b57600080fd5b505af1158015611e5f573d6000803e3d6000fd5b505050506040513d6020811015611e7557600080fd5b5051600154604080517f21f8a7210000000000000000000000000000000000000000000000000000000081527f506c61796572000000000000000000000000000000000000000000000000000060048201529051929750600160a060020a03909116916321f8a721916024808201926020929091908290030181600087803b158015611f0057600080fd5b505af1158015611f14573d6000803e3d6000fd5b505050506040513d6020811015611f2a57600080fd5b5051604080517f6352211e00000000000000000000000000000000000000000000000000000000815267ffffffffffffffff8c16600482015290519195503391600160a060020a03881691636352211e9160248083019260209291908290030181600087803b158015611f9c57600080fd5b505af1158015611fb0573d6000803e3d6000fd5b505050506040513d6020811015611fc657600080fd5b5051600160a060020a031614612026576040805160e560020a62461bcd02815260206004820152601660248201527f706c61796572206d757374206f776e20647261676f6e00000000000000000000604482015290519081900360640190fd5b604080517f1960253700000000000000000000000000000000000000000000000000000000815267ffffffffffffffff8b1660048201529051600160a060020a0387169163196025379160248083019260a09291908290030181600087803b15801561209157600080fd5b505af11580156120a5573d6000803e3d6000fd5b505050506040513d60a08110156120bb57600080fd5b50604081015160609091015190935091506120d78789856123f2565b151561212d576040805160e560020a62461bcd02815260206004820152601460248201527f6e6f7420656e676f756768207072657374696765000000000000000000000000604482015290519081900360640190fd5b604080517f28f9933a0000000000000000000000000000000000000000000000000000000081523360048201527f676f6c640000000000000000000000000000000000000000000000000000000060248201529051600160a060020a038616916328f9933a9160448083019260209291908290030181600087803b1580156121b457600080fd5b505af11580156121c8573d6000803e3d6000fd5b505050506040513d60208110156121de57600080fd5b5051905063ffffffff8089169082161015612243576040805160e560020a62461bcd02815260206004820152601160248201527f6e6f7420656e676f75676820636f696e73000000000000000000000000000000604482015290519081900360640190fd5b604080517f1fad7e070000000000000000000000000000000000000000000000000000000081523360048201527f676f6c6400000000000000000000000000000000000000000000000000000000602482015260008a8103600390810b900b60448301529151600160a060020a03871692631fad7e07926064808201939182900301818387803b1580156122d657600080fd5b505af11580156122ea573d6000803e3d6000fd5b5050600154604080517f1bf956f500000000000000000000000000000000000000000000000000000000815267ffffffffffffffff8e16600482015260a060020a90920461ffff16602483015251600160a060020a0389169350631bf956f59250604480830192600092919082900301818387803b15801561236b57600080fd5b505af115801561237f573d6000803e3d6000fd5b5050505050505050509392505050565b6000612399612443565b50506002546000908152600460205260409020805463ffffffff191663ffffffff84161765ffff00000000191664010000000061ffff8416021781556001600391909101805460ff191660ff9092169190911790555050565b600083158061243b57508263ffffffff16600a1480612420575081600a0263ffffffff168363ffffffff1611155b801561243b5750600a63ffffffff84160663ffffffff166000145b949350505050565b6002805460010190819055604051600091907fa0b7f6f22bb4f69adc52dd16ffe2a964ab8b577be274247fa9a1547b03ce3e55908390a25060025490565b61014060405190810160405280600a906020820280388339509192915050565b60a060405190810160405280600590602082028038833950919291505056006e6565647320746f206265206f776e6572000000000000000000000000000000a165627a7a723058205c7f6ab2cd75c3d7805fafd0c1e41db4be0174b86c6bef12a0320ee29c6be26a0029",
  "source": "pragma solidity ^0.4.0;\r\n\r\nimport \"./RaceBetting.sol\";\r\n\r\ncontract Race is RaceBetting {\r\n\r\n    constructor(address registrarAddress) public EDGBase(2001) HasRegistrar(registrarAddress) {}\r\n\r\n    function getGameId() public view returns (uint gameId) {\r\n        return playerToGameId[msg.sender];\r\n    }\r\n\r\n    function getGameForUser()\r\n    public\r\n    view\r\n    returns (uint gameId, uint32 price, uint16 maxPlayers, uint64[] dragons, uint64[] winners, uint8 status)\r\n    {\r\n        gameId = playerToGameId[msg.sender];\r\n        (price, maxPlayers, dragons, winners, status) = getGame(gameId);\r\n    }\r\n}\r\n",
  "sourcePath": "C:\\Projects\\everdragons\\everdragons-race\\contracts\\Race.sol",
  "compiler": {
    "name": "solc",
    "version": "0.4.25+commit.69a1e720.Emscripten.clang"
  },
  "schemaVersion": "2.0.1",
  "updatedAt": "2019-04-05T14:39:34.698Z"
}