{
  "contractName": "Registrar",
  "abi": [
    {
      "constant": false,
      "inputs": [],
      "name": "renounceOwnership",
      "outputs": [],
      "payable": false,
      "stateMutability": "nonpayable",
      "type": "function",
      "signature": "0x715018a6"
    },
    {
      "constant": true,
      "inputs": [],
      "name": "owner",
      "outputs": [
        {
          "name": "",
          "type": "address"
        }
      ],
      "payable": false,
      "stateMutability": "view",
      "type": "function",
      "signature": "0x8da5cb5b"
    },
    {
      "constant": false,
      "inputs": [
        {
          "name": "newOwner",
          "type": "address"
        }
      ],
      "name": "transferOwnership",
      "outputs": [],
      "payable": false,
      "stateMutability": "nonpayable",
      "type": "function",
      "signature": "0xf2fde38b"
    },
    {
      "anonymous": false,
      "inputs": [
        {
          "indexed": true,
          "name": "previousOwner",
          "type": "address"
        }
      ],
      "name": "OwnershipRenounced",
      "type": "event",
      "signature": "0xf8df31144d9c2f0f6b59d69b8b98abd5459d07f2742c4df920b25aae33c64820"
    },
    {
      "anonymous": false,
      "inputs": [
        {
          "indexed": true,
          "name": "previousOwner",
          "type": "address"
        },
        {
          "indexed": true,
          "name": "newOwner",
          "type": "address"
        }
      ],
      "name": "OwnershipTransferred",
      "type": "event",
      "signature": "0x8be0079c531659141344cd1fd0a4f28419497f9722a3daafe3b4186f6b6457e0"
    },
    {
      "constant": false,
      "inputs": [
        {
          "name": "name",
          "type": "bytes32"
        },
        {
          "name": "_address",
          "type": "address"
        }
      ],
      "name": "registerAddress",
      "outputs": [],
      "payable": false,
      "stateMutability": "nonpayable",
      "type": "function",
      "signature": "0x662de379"
    },
    {
      "constant": false,
      "inputs": [
        {
          "name": "name",
          "type": "bytes32"
        }
      ],
      "name": "removeAddress",
      "outputs": [],
      "payable": false,
      "stateMutability": "nonpayable",
      "type": "function",
      "signature": "0x9faf6fb6"
    },
    {
      "constant": true,
      "inputs": [
        {
          "name": "name",
          "type": "bytes32"
        }
      ],
      "name": "getAddress",
      "outputs": [
        {
          "name": "",
          "type": "address"
        }
      ],
      "payable": false,
      "stateMutability": "view",
      "type": "function",
      "signature": "0x21f8a721"
    },
    {
      "constant": false,
      "inputs": [
        {
          "name": "role",
          "type": "bytes32"
        },
        {
          "name": "account",
          "type": "address"
        }
      ],
      "name": "addRole",
      "outputs": [],
      "payable": false,
      "stateMutability": "nonpayable",
      "type": "function",
      "signature": "0xe959b38a"
    },
    {
      "constant": false,
      "inputs": [
        {
          "name": "role",
          "type": "bytes32"
        },
        {
          "name": "account",
          "type": "address"
        }
      ],
      "name": "removeRole",
      "outputs": [],
      "payable": false,
      "stateMutability": "nonpayable",
      "type": "function",
      "signature": "0xf6ba0007"
    },
    {
      "constant": true,
      "inputs": [
        {
          "name": "role",
          "type": "bytes32"
        },
        {
          "name": "account",
          "type": "address"
        }
      ],
      "name": "checkRole",
      "outputs": [
        {
          "name": "",
          "type": "bool"
        }
      ],
      "payable": false,
      "stateMutability": "view",
      "type": "function",
      "signature": "0x12d9a6ad"
    },
    {
      "constant": false,
      "inputs": [
        {
          "name": "index",
          "type": "uint8"
        },
        {
          "name": "generator",
          "type": "address"
        }
      ],
      "name": "setGenerator",
      "outputs": [],
      "payable": false,
      "stateMutability": "nonpayable",
      "type": "function",
      "signature": "0x144d7178"
    },
    {
      "constant": true,
      "inputs": [
        {
          "name": "index",
          "type": "uint8"
        }
      ],
      "name": "getGenerator",
      "outputs": [
        {
          "name": "",
          "type": "address"
        }
      ],
      "payable": false,
      "stateMutability": "view",
      "type": "function",
      "signature": "0xaa327f1e"
    }
  ],
  "bytecode": "0x608060405260008054600160a060020a031916331790556107b0806100256000396000f3006080604052600436106100ae5763ffffffff7c010000000000000000000000000000000000000000000000000000000060003504166312d9a6ad81146100b3578063144d7178146100eb57806321f8a72114610114578063662de37914610148578063715018a61461016c5780638da5cb5b146101815780639faf6fb614610196578063aa327f1e146101ae578063e959b38a146101c9578063f2fde38b146101ed578063f6ba00071461020e575b600080fd5b3480156100bf57600080fd5b506100d7600435600160a060020a0360243516610232565b604080519115158252519081900360200190f35b3480156100f757600080fd5b5061011260ff60043516600160a060020a036024351661025d565b005b34801561012057600080fd5b5061012c6004356102ed565b60408051600160a060020a039092168252519081900360200190f35b34801561015457600080fd5b50610112600435600160a060020a0360243516610377565b34801561017857600080fd5b50610112610402565b34801561018d57600080fd5b5061012c6104a7565b3480156101a257600080fd5b506101126004356104b6565b3480156101ba57600080fd5b5061012c60ff60043516610531565b3480156101d557600080fd5b50610112600435600160a060020a036024351661054f565b3480156101f957600080fd5b50610112600160a060020a03600435166105cf565b34801561021a57600080fd5b50610112600435600160a060020a03602435166106e7565b6000918252600360209081526040808420600160a060020a0393909316845291905290205460ff1690565b600054600160a060020a031633146102ad576040805160e560020a62461bcd0281526020600482015260116024820152600080516020610765833981519152604482015290519081900360640190fd5b60ff919091166000908152600160205260409020805473ffffffffffffffffffffffffffffffffffffffff1916600160a060020a03909216919091179055565b600081815260026020526040812054600160a060020a0316151561035b576040805160e560020a62461bcd02815260206004820152601160248201527f61646472657373206e6f7420666f756e64000000000000000000000000000000604482015290519081900360640190fd5b50600090815260026020526040902054600160a060020a031690565b600054600160a060020a031633146103c7576040805160e560020a62461bcd0281526020600482015260116024820152600080516020610765833981519152604482015290519081900360640190fd5b600091825260026020526040909120805473ffffffffffffffffffffffffffffffffffffffff1916600160a060020a03909216919091179055565b600054600160a060020a03163314610452576040805160e560020a62461bcd0281526020600482015260116024820152600080516020610765833981519152604482015290519081900360640190fd5b60008054604051600160a060020a03909116917ff8df31144d9c2f0f6b59d69b8b98abd5459d07f2742c4df920b25aae33c6482091a26000805473ffffffffffffffffffffffffffffffffffffffff19169055565b600054600160a060020a031681565b600054600160a060020a03163314610506576040805160e560020a62461bcd0281526020600482015260116024820152600080516020610765833981519152604482015290519081900360640190fd5b6000908152600260205260409020805473ffffffffffffffffffffffffffffffffffffffff19169055565b60ff16600090815260016020526040902054600160a060020a031690565b600054600160a060020a0316331461059f576040805160e560020a62461bcd0281526020600482015260116024820152600080516020610765833981519152604482015290519081900360640190fd5b6000918252600360209081526040808420600160a060020a0390931684529190529020805460ff19166001179055565b600054600160a060020a0316331461061f576040805160e560020a62461bcd0281526020600482015260116024820152600080516020610765833981519152604482015290519081900360640190fd5b600160a060020a038116151561067f576040805160e560020a62461bcd02815260206004820152601760248201527f6e6577206f776e6572206d7573742062652076616c6964000000000000000000604482015290519081900360640190fd5b60008054604051600160a060020a03808516939216917f8be0079c531659141344cd1fd0a4f28419497f9722a3daafe3b4186f6b6457e091a36000805473ffffffffffffffffffffffffffffffffffffffff1916600160a060020a0392909216919091179055565b600054600160a060020a03163314610737576040805160e560020a62461bcd0281526020600482015260116024820152600080516020610765833981519152604482015290519081900360640190fd5b6000918252600360209081526040808420600160a060020a0390931684529190529020805460ff1916905556006e6565647320746f206265206f776e6572000000000000000000000000000000a165627a7a723058208a2642e097d0d4c7c46523126656be8657bb4d8eb7f9e35a38e88dad117bc2cd0029",
  "source": "pragma solidity ^0.4.0;\r\n\r\nimport \"../../node_modules/everdragons-shared/solidity/libs/Ownable.sol\";\r\nimport \"../../node_modules/everdragons-shared/solidity/interfaces/IRegistrar.sol\";\r\n\r\ncontract Registrar is IRegistrar, Ownable {\r\n    mapping(uint8 => address) private generators;\r\n    mapping(bytes32 => address) private addresses;\r\n    mapping(bytes32 => mapping(address => bool)) private roles;\r\n\r\n    function registerAddress(bytes32 name, address _address) external onlyOwner {\r\n        addresses[name] = _address;\r\n    }\r\n\r\n    function removeAddress(bytes32 name) external onlyOwner {\r\n        addresses[name] = address(0);\r\n    }\r\n\r\n    function getAddress(bytes32 name) external view returns (address) {\r\n        require(addresses[name] != address(0), \"address not found\");\r\n        return addresses[name];\r\n    }\r\n\r\n    function addRole(bytes32 role, address account) external onlyOwner {\r\n        roles[role][account] = true;\r\n    }\r\n\r\n    function removeRole(bytes32 role, address account) external onlyOwner {\r\n        roles[role][account] = false;\r\n    }\r\n\r\n    function checkRole(bytes32 role, address account) external view returns (bool) {\r\n        return roles[role][account];\r\n    }\r\n\r\n    function setGenerator(uint8 index, address generator) external onlyOwner {\r\n        generators[index] = generator;\r\n    }\r\n\r\n    function getGenerator(uint8 index) external view returns (address) {\r\n        return generators[index];\r\n    }\r\n}\r\n",
  "sourcePath": "C:/Projects/everdragons/everdragons-contract/contracts/registrar/Registrar.sol",
  "compiler": {
    "name": "solc",
    "version": "0.4.25+commit.59dbf8f1.Emscripten.clang"
  },
  "schemaVersion": "3.0.8",
  "updatedAt": "2019-04-27T17:05:41.844Z",
  "devdoc": {
    "methods": {
      "renounceOwnership()": {
        "details": "Allows the current owner to relinquish control of the contract.\r"
      },
      "transferOwnership(address)": {
        "details": "Allows the current owner to transfer control of the contract to a newOwner.\r",
        "params": {
          "newOwner": "The address to transfer ownership to.\r"
        }
      }
    }
  },
  "userdoc": {
    "methods": {}
  }
}