{
  "contractName": "ReverseAuction",
  "abi": [
    {
      "constant": false,
      "inputs": [
        {
          "name": "tokenId",
          "type": "uint64"
        }
      ],
      "name": "cancelAuction",
      "outputs": [],
      "payable": false,
      "stateMutability": "nonpayable",
      "type": "function",
      "signature": "0x097b557f"
    },
    {
      "constant": true,
      "inputs": [
        {
          "name": "copper",
          "type": "uint256"
        },
        {
          "name": "regularPrice",
          "type": "uint256"
        }
      ],
      "name": "getCopperDiscount",
      "outputs": [
        {
          "name": "",
          "type": "uint256"
        }
      ],
      "payable": false,
      "stateMutability": "pure",
      "type": "function",
      "signature": "0x0dc82286"
    },
    {
      "constant": false,
      "inputs": [
        {
          "name": "tokenId",
          "type": "uint64"
        },
        {
          "name": "voucherCode",
          "type": "uint256"
        },
        {
          "name": "gold",
          "type": "uint256"
        },
        {
          "name": "copper",
          "type": "uint256"
        }
      ],
      "name": "bid",
      "outputs": [],
      "payable": true,
      "stateMutability": "payable",
      "type": "function",
      "signature": "0x0e0dfd9a"
    },
    {
      "constant": false,
      "inputs": [
        {
          "name": "minStart",
          "type": "uint256"
        },
        {
          "name": "maxStart",
          "type": "uint256"
        },
        {
          "name": "minEnd",
          "type": "uint256"
        },
        {
          "name": "maxEnd",
          "type": "uint256"
        },
        {
          "name": "_minDuration",
          "type": "uint256"
        },
        {
          "name": "_maxDuration",
          "type": "uint256"
        }
      ],
      "name": "setMinandMaxPrice",
      "outputs": [],
      "payable": false,
      "stateMutability": "nonpayable",
      "type": "function",
      "signature": "0x1e5c4d73"
    },
    {
      "constant": true,
      "inputs": [
        {
          "name": "voucherCode",
          "type": "uint256"
        },
        {
          "name": "regularPrice",
          "type": "uint256"
        }
      ],
      "name": "getVoucherDiscount",
      "outputs": [
        {
          "name": "price",
          "type": "uint256"
        }
      ],
      "payable": false,
      "stateMutability": "view",
      "type": "function",
      "signature": "0x37db8429"
    },
    {
      "constant": false,
      "inputs": [],
      "name": "unpause",
      "outputs": [],
      "payable": false,
      "stateMutability": "nonpayable",
      "type": "function",
      "signature": "0x3f4ba83a"
    },
    {
      "constant": true,
      "inputs": [],
      "name": "paused",
      "outputs": [
        {
          "name": "",
          "type": "bool"
        }
      ],
      "payable": false,
      "stateMutability": "view",
      "type": "function",
      "signature": "0x5c975abb"
    },
    {
      "constant": false,
      "inputs": [],
      "name": "payout",
      "outputs": [],
      "payable": false,
      "stateMutability": "nonpayable",
      "type": "function",
      "signature": "0x63bd1d4a"
    },
    {
      "constant": false,
      "inputs": [],
      "name": "renounceOwnership",
      "outputs": [],
      "payable": false,
      "stateMutability": "nonpayable",
      "type": "function",
      "signature": "0x715018a6"
    },
    {
      "constant": false,
      "inputs": [
        {
          "name": "cut",
          "type": "uint256"
        }
      ],
      "name": "setOwnerCut",
      "outputs": [],
      "payable": false,
      "stateMutability": "nonpayable",
      "type": "function",
      "signature": "0x757de573"
    },
    {
      "constant": false,
      "inputs": [],
      "name": "pause",
      "outputs": [],
      "payable": false,
      "stateMutability": "nonpayable",
      "type": "function",
      "signature": "0x8456cb59"
    },
    {
      "constant": false,
      "inputs": [
        {
          "name": "seller",
          "type": "address"
        },
        {
          "name": "tokenId",
          "type": "uint64"
        },
        {
          "name": "startingPrice",
          "type": "uint128"
        },
        {
          "name": "endingPrice",
          "type": "uint128"
        },
        {
          "name": "duration",
          "type": "uint32"
        },
        {
          "name": "startedAt",
          "type": "uint32"
        }
      ],
      "name": "impAuction",
      "outputs": [],
      "payable": false,
      "stateMutability": "nonpayable",
      "type": "function",
      "signature": "0x87ccf960"
    },
    {
      "constant": true,
      "inputs": [],
      "name": "owner",
      "outputs": [
        {
          "name": "",
          "type": "address"
        }
      ],
      "payable": false,
      "stateMutability": "view",
      "type": "function",
      "signature": "0x8da5cb5b"
    },
    {
      "constant": true,
      "inputs": [
        {
          "name": "gold",
          "type": "uint256"
        }
      ],
      "name": "getGoldDiscount",
      "outputs": [
        {
          "name": "",
          "type": "uint256"
        }
      ],
      "payable": false,
      "stateMutability": "view",
      "type": "function",
      "signature": "0xbbd23f3c"
    },
    {
      "constant": false,
      "inputs": [
        {
          "name": "enabled",
          "type": "bool"
        }
      ],
      "name": "setReveresOnly",
      "outputs": [],
      "payable": false,
      "stateMutability": "nonpayable",
      "type": "function",
      "signature": "0xd4176d75"
    },
    {
      "constant": false,
      "inputs": [
        {
          "name": "newOwner",
          "type": "address"
        }
      ],
      "name": "transferOwnership",
      "outputs": [],
      "payable": false,
      "stateMutability": "nonpayable",
      "type": "function",
      "signature": "0xf2fde38b"
    },
    {
      "inputs": [
        {
          "name": "registrarAddress",
          "type": "address"
        }
      ],
      "payable": false,
      "stateMutability": "nonpayable",
      "type": "constructor",
      "signature": "constructor"
    },
    {
      "payable": true,
      "stateMutability": "payable",
      "type": "fallback"
    },
    {
      "anonymous": false,
      "inputs": [
        {
          "indexed": false,
          "name": "tokenId",
          "type": "uint64"
        },
        {
          "indexed": false,
          "name": "startingPrice",
          "type": "uint128"
        },
        {
          "indexed": false,
          "name": "endingPrice",
          "type": "uint128"
        },
        {
          "indexed": false,
          "name": "duration",
          "type": "uint32"
        }
      ],
      "name": "AuctionCreated",
      "type": "event",
      "signature": "0xe1cce2d27f595ef69d584007de9f685b3bad42e02acb853109cf01e40538cc2e"
    },
    {
      "anonymous": false,
      "inputs": [
        {
          "indexed": false,
          "name": "tokenId",
          "type": "uint64"
        },
        {
          "indexed": false,
          "name": "totalPrice",
          "type": "uint128"
        },
        {
          "indexed": false,
          "name": "winner",
          "type": "address"
        },
        {
          "indexed": false,
          "name": "voucher",
          "type": "uint256"
        }
      ],
      "name": "AuctionSuccessful",
      "type": "event",
      "signature": "0xb85189fcc144a6bd1d2a98ec38cb0f67d44d44387e073161726650cdbf238703"
    },
    {
      "anonymous": false,
      "inputs": [
        {
          "indexed": false,
          "name": "tokenId",
          "type": "uint64"
        }
      ],
      "name": "AuctionCancelled",
      "type": "event",
      "signature": "0xb22ef3173aa03c7e38b3d30f001ce4642d15d2e499629218cfe407df7604768f"
    },
    {
      "anonymous": false,
      "inputs": [],
      "name": "Pause",
      "type": "event",
      "signature": "0x6985a02210a168e66602d3235cb6db0e70f92b3ba4d376a33c0f3d9434bff625"
    },
    {
      "anonymous": false,
      "inputs": [],
      "name": "Unpause",
      "type": "event",
      "signature": "0x7805862f689e2f13df9f062ff482ad3ad112aca9e0847911ed832e158c525b33"
    },
    {
      "anonymous": false,
      "inputs": [
        {
          "indexed": true,
          "name": "previousOwner",
          "type": "address"
        }
      ],
      "name": "OwnershipRenounced",
      "type": "event",
      "signature": "0xf8df31144d9c2f0f6b59d69b8b98abd5459d07f2742c4df920b25aae33c64820"
    },
    {
      "anonymous": false,
      "inputs": [
        {
          "indexed": true,
          "name": "previousOwner",
          "type": "address"
        },
        {
          "indexed": true,
          "name": "newOwner",
          "type": "address"
        }
      ],
      "name": "OwnershipTransferred",
      "type": "event",
      "signature": "0x8be0079c531659141344cd1fd0a4f28419497f9722a3daafe3b4186f6b6457e0"
    },
    {
      "constant": false,
      "inputs": [
        {
          "name": "tokenId",
          "type": "uint64"
        },
        {
          "name": "startingPrice",
          "type": "uint128"
        },
        {
          "name": "endingPrice",
          "type": "uint128"
        },
        {
          "name": "duration",
          "type": "uint32"
        },
        {
          "name": "seller",
          "type": "address"
        }
      ],
      "name": "createAuction",
      "outputs": [],
      "payable": false,
      "stateMutability": "nonpayable",
      "type": "function",
      "signature": "0xe5990262"
    },
    {
      "constant": true,
      "inputs": [
        {
          "name": "auctionId",
          "type": "uint256"
        }
      ],
      "name": "getAuction",
      "outputs": [
        {
          "name": "seller",
          "type": "address"
        },
        {
          "name": "tokenId",
          "type": "uint64"
        },
        {
          "name": "startingPrice",
          "type": "uint128"
        },
        {
          "name": "endingPrice",
          "type": "uint128"
        },
        {
          "name": "duration",
          "type": "uint32"
        },
        {
          "name": "startedAt",
          "type": "uint32"
        }
      ],
      "payable": false,
      "stateMutability": "view",
      "type": "function",
      "signature": "0x78bd7935"
    },
    {
      "constant": true,
      "inputs": [
        {
          "name": "auctionId",
          "type": "uint256"
        }
      ],
      "name": "isAuctionFinished",
      "outputs": [
        {
          "name": "",
          "type": "bool"
        }
      ],
      "payable": false,
      "stateMutability": "view",
      "type": "function",
      "signature": "0x974c28b2"
    },
    {
      "constant": true,
      "inputs": [],
      "name": "getAuctionCount",
      "outputs": [
        {
          "name": "",
          "type": "uint256"
        }
      ],
      "payable": false,
      "stateMutability": "view",
      "type": "function",
      "signature": "0xc44e6640"
    },
    {
      "constant": true,
      "inputs": [
        {
          "name": "_tokenId",
          "type": "uint64"
        }
      ],
      "name": "getAuctionByTokenId",
      "outputs": [
        {
          "name": "seller",
          "type": "address"
        },
        {
          "name": "tokenId",
          "type": "uint64"
        },
        {
          "name": "startingPrice",
          "type": "uint128"
        },
        {
          "name": "endingPrice",
          "type": "uint128"
        },
        {
          "name": "duration",
          "type": "uint32"
        },
        {
          "name": "startedAt",
          "type": "uint32"
        }
      ],
      "payable": false,
      "stateMutability": "view",
      "type": "function",
      "signature": "0x3d9a232d"
    },
    {
      "constant": true,
      "inputs": [
        {
          "name": "tokenId",
          "type": "uint64"
        }
      ],
      "name": "getAuctionIdByTokenId",
      "outputs": [
        {
          "name": "",
          "type": "uint256"
        }
      ],
      "payable": false,
      "stateMutability": "view",
      "type": "function",
      "signature": "0x4279604b"
    },
    {
      "constant": true,
      "inputs": [
        {
          "name": "user",
          "type": "address"
        }
      ],
      "name": "getAuctionCountForSeller",
      "outputs": [
        {
          "name": "",
          "type": "uint256"
        }
      ],
      "payable": false,
      "stateMutability": "view",
      "type": "function",
      "signature": "0xf5366a6f"
    },
    {
      "constant": true,
      "inputs": [
        {
          "name": "user",
          "type": "address"
        },
        {
          "name": "idx",
          "type": "uint256"
        }
      ],
      "name": "getAuctionIdForSeller",
      "outputs": [
        {
          "name": "",
          "type": "uint256"
        }
      ],
      "payable": false,
      "stateMutability": "view",
      "type": "function",
      "signature": "0x1c0c78bc"
    },
    {
      "constant": true,
      "inputs": [
        {
          "name": "seller",
          "type": "address"
        }
      ],
      "name": "getAuctionIdsForSeller",
      "outputs": [
        {
          "name": "",
          "type": "uint256[]"
        }
      ],
      "payable": false,
      "stateMutability": "view",
      "type": "function",
      "signature": "0xb5074f58"
    },
    {
      "constant": true,
      "inputs": [
        {
          "name": "user",
          "type": "address"
        },
        {
          "name": "idx",
          "type": "uint256"
        }
      ],
      "name": "getAuctionForSeller",
      "outputs": [
        {
          "name": "seller",
          "type": "address"
        },
        {
          "name": "tokenId",
          "type": "uint64"
        },
        {
          "name": "startingPrice",
          "type": "uint128"
        },
        {
          "name": "endingPrice",
          "type": "uint128"
        },
        {
          "name": "duration",
          "type": "uint32"
        },
        {
          "name": "startedAt",
          "type": "uint32"
        }
      ],
      "payable": false,
      "stateMutability": "view",
      "type": "function",
      "signature": "0x7ce98eff"
    },
    {
      "constant": true,
      "inputs": [
        {
          "name": "tokenId",
          "type": "uint64"
        },
        {
          "name": "voucherCode",
          "type": "uint256"
        },
        {
          "name": "gold",
          "type": "uint256"
        },
        {
          "name": "copper",
          "type": "uint256"
        }
      ],
      "name": "getCurrentPriceByTokenId",
      "outputs": [
        {
          "name": "price",
          "type": "uint256"
        },
        {
          "name": "regularPrice",
          "type": "uint256"
        },
        {
          "name": "goldDiscount",
          "type": "uint256"
        },
        {
          "name": "copperDiscount",
          "type": "uint256"
        },
        {
          "name": "voucherDiscount",
          "type": "uint256"
        },
        {
          "name": "secondsRemaining",
          "type": "uint256"
        }
      ],
      "payable": false,
      "stateMutability": "view",
      "type": "function",
      "signature": "0x50f1ba09"
    },
    {
      "constant": true,
      "inputs": [
        {
          "name": "auctionId",
          "type": "uint256"
        },
        {
          "name": "voucherCode",
          "type": "uint256"
        },
        {
          "name": "gold",
          "type": "uint256"
        },
        {
          "name": "copper",
          "type": "uint256"
        }
      ],
      "name": "getCurrentPrice",
      "outputs": [
        {
          "name": "price",
          "type": "uint256"
        },
        {
          "name": "regularPrice",
          "type": "uint256"
        },
        {
          "name": "goldDiscount",
          "type": "uint256"
        },
        {
          "name": "copperDiscount",
          "type": "uint256"
        },
        {
          "name": "voucherDiscount",
          "type": "uint256"
        },
        {
          "name": "secondsRemaining",
          "type": "uint256"
        }
      ],
      "payable": false,
      "stateMutability": "view",
      "type": "function",
      "signature": "0xd1b2a67c"
    }
  ],
  "bytecode": "0x60806040526000805460a060020a60ff02191681556006819055683635c9adc5dea000006007819055600891909155600955603c600a5562093a80600b55600c805460ff1916600117905534801561005657600080fd5b50604051602080613f0e833981016040525160008054600160a060020a0319163317905580600160a060020a03811615156100f257604080517f08c379a000000000000000000000000000000000000000000000000000000000815260206004820152601f60248201527f7265676973747261722061646472657373206e6f7420617661696c61626c6500604482015290519081900360640190fd5b60018054600160a060020a031916600160a060020a039290921691909117905550613dec806101226000396000f3006080604052600436106101505763ffffffff60e060020a600035041663097b557f81146101525780630dc82286146101745780630e0dfd9a146101a15780631c0c78bc146101bf5780631e5c4d73146101e357806337db84291461020a5780633d9a232d146102255780633f4ba83a1461029f5780634279604b146102b457806350f1ba09146102d65780635c975abb1461033457806363bd1d4a1461035d578063715018a614610372578063757de5731461038757806378bd79351461039f5780637ce98eff146103b75780638456cb59146103db57806387ccf960146103f05780638da5cb5b1461043f578063974c28b214610470578063b5074f5814610488578063bbd23f3c146104f9578063c44e664014610511578063d1b2a67c14610526578063d4176d7514610547578063e599026214610561578063f2fde38b146105aa578063f5366a6f146105cb575b005b34801561015e57600080fd5b5061015067ffffffffffffffff600435166105ec565b34801561018057600080fd5b5061018f600435602435610965565b60408051918252519081900360200190f35b61015067ffffffffffffffff600435166024356044356064356109cb565b3480156101cb57600080fd5b5061018f600160a060020a0360043516602435611185565b3480156101ef57600080fd5b5061015060043560243560443560643560843560a4356111bc565b34801561021657600080fd5b5061018f6004356024356112ad565b34801561023157600080fd5b5061024767ffffffffffffffff600435166113f1565b60408051600160a060020a03909716875267ffffffffffffffff90951660208701526001608060020a039384168686015291909216606085015263ffffffff91821660808501521660a0830152519081900360c00190f35b3480156102ab57600080fd5b5061015061143e565b3480156102c057600080fd5b5061018f67ffffffffffffffff600435166114ed565b3480156102e257600080fd5b5061030167ffffffffffffffff60043516602435604435606435611509565b604080519687526020870195909552858501939093526060850191909152608084015260a0830152519081900360c00190f35b34801561034057600080fd5b5061034961159c565b604080519115158252519081900360200190f35b34801561036957600080fd5b506101506115ac565b34801561037e57600080fd5b50610150611756565b34801561039357600080fd5b506101506004356117fb565b3480156103ab57600080fd5b50610247600435611987565b3480156103c357600080fd5b50610247600160a060020a0360043516602435611a15565b3480156103e757600080fd5b50610150611a6c565b3480156103fc57600080fd5b50610150600160a060020a036004351667ffffffffffffffff602435166001608060020a036044358116906064351663ffffffff60843581169060a43516611b20565b34801561044b57600080fd5b50610454611d89565b60408051600160a060020a039092168252519081900360200190f35b34801561047c57600080fd5b50610349600435611d98565b34801561049457600080fd5b506104a9600160a060020a0360043516611e74565b60408051602080825283518183015283519192839290830191858101910280838360005b838110156104e55781810151838201526020016104cd565b505050509050019250505060405180910390f35b34801561050557600080fd5b5061018f600435611ee0565b34801561051d57600080fd5b5061018f612015565b34801561053257600080fd5b5061030160043560243560443560643561201c565b34801561055357600080fd5b50610150600435151561249e565b34801561056d57600080fd5b5061015067ffffffffffffffff600435166001608060020a036024358116906044351663ffffffff60643516600160a060020a0360843516612585565b3480156105b657600080fd5b50610150600160a060020a0360043516612b96565b3480156105d757600080fd5b5061018f600160a060020a0360043516612cae565b67ffffffffffffffff811660009081526002602052604081205460048054919291829182918590811061061b57fe5b60009182526020918290206003919091020180546040805160c081018252600160a060020a03831680825260a060020a90930467ffffffffffffffff169481019490945260018301546001608060020a0380821692860192909252608060020a9004166060840152600282015463ffffffff80821660808601526401000000009091041660a084015290945092506106b290612cc9565b1515610708576040805160e560020a62461bcd02815260206004820152601260248201527f6d757374206265206f6e2061756374696f6e0000000000000000000000000000604482015290519081900360640190fd5b33600160a060020a03831614806107a857506001546040805160e060020a6312d9a6ad02815260d960020a6430b236b4b70260048201523360248201529051600160a060020a03909216916312d9a6ad916044808201926020929091908290030181600087803b15801561077b57600080fd5b505af115801561078f573d6000803e3d6000fd5b505050506040513d60208110156107a557600080fd5b50515b15156107fe576040805160e560020a62461bcd02815260206004820152601560248201527f73656e646572206d7573742062652073656c6c65720000000000000000000000604482015290519081900360640190fd5b61080784612cdb565b6001546040805160e060020a6321f8a721028152600080516020613da183398151915260048201529051600160a060020a03909216916321f8a721916024808201926020929091908290030181600087803b15801561086557600080fd5b505af1158015610879573d6000803e3d6000fd5b505050506040513d602081101561088f57600080fd5b5051604080517fa9059cbb000000000000000000000000000000000000000000000000000000008152600160a060020a03858116600483015267ffffffffffffffff8916602483015291519293509083169163a9059cbb9160448082019260009290919082900301818387803b15801561090857600080fd5b505af115801561091c573d6000803e3d6000fd5b50506040805167ffffffffffffffff8916815290517fb22ef3173aa03c7e38b3d30f001ce4642d15d2e499629218cfe407df7604768f9350908190036020019150a15050505050565b6000610bb88311156109c1576040805160e560020a62461bcd02815260206004820152600f60248201527f6d6178203330303020636f707065720000000000000000000000000000000000604482015290519081900360640190fd5b5061271091020490565b600080600080600080600080600060149054906101000a900460ff161515156109f357600080fd5b67ffffffffffffffff8c16600090815260026020526040902054600480549199509089908110610a1f57fe5b60009182526020918290206040805160c08101825260039093029091018054600160a060020a038116845267ffffffffffffffff60a060020a909104169383019390935260018301546001608060020a0380821692840192909252608060020a9004166060820152600282015463ffffffff80821660808401526401000000009091041660a0820152909750610ab490612cc9565b1515610b0a576040805160e560020a62461bcd02815260206004820152601260248201527f6d757374206265206f6e2061756374696f6e0000000000000000000000000000604482015290519081900360640190fd5b6040805160c0810182528854600160a060020a038116825260a060020a900467ffffffffffffffff16602082015260018901546001608060020a0380821693830193909352608060020a90049091166060820152600288015463ffffffff80821660808401526401000000009091041660a0820152610b8890612fe5565b955085945060008a11610b9c576000610ba5565b610ba58a61308e565b6040805160c0810182528954600160a060020a038116825260a060020a900467ffffffffffffffff16602082015260018a01546001608060020a0380821693830193909352608060020a90049091166060820152600289015463ffffffff80821660808401526401000000009091041660a0820152909450610c26906131f4565b15610d895760008b1115610c4157610c3e8b87613294565b94505b6000891115610c5757610c548987613507565b94505b348401851115610cb1576040805160e560020a62461bcd02815260206004820152601460248201527f62697420616d6f756e7420746f6f20736d616c6c000000000000000000000000604482015290519081900360640190fd5b6001546040805160e060020a6321f8a7210281527f63757457616c6c6574000000000000000000000000000000000000000000000060048201529051600160a060020a03909216916321f8a721916024808201926020929091908290030181600087803b158015610d2157600080fd5b505af1158015610d35573d6000803e3d6000fd5b505050506040513d6020811015610d4b57600080fd5b5051604051600160a060020a03909116903480156108fc02916000818181858888f19350505050158015610d83573d6000803e3d6000fd5b50610f66565b88158015610d9557508a155b1515610deb576040805160e560020a62461bcd02815260206004820152601e60248201527f646973636f756e74206f6e6c7920706f737369626c6520666f72204e53450000604482015290519081900360640190fd5b348401851115610e45576040805160e560020a62461bcd02815260206004820152601460248201527f62697420616d6f756e7420746f6f20736d616c6c000000000000000000000000604482015290519081900360640190fd5b60055461271090860288546040519290910494508487039350600160a060020a03169083156108fc029084906000818181858888f19350505050158015610e90573d6000803e3d6000fd5b506001546040805160e060020a6321f8a7210281527f63757457616c6c6574000000000000000000000000000000000000000000000060048201529051600160a060020a03909216916321f8a721916024808201926020929091908290030181600087803b158015610f0157600080fd5b505af1158015610f15573d6000803e3d6000fd5b505050506040513d6020811015610f2b57600080fd5b5051604051600160a060020a039091169084156108fc029085906000818181858888f19350505050158015610f64573d6000803e3d6000fd5b505b610f6f88612cdb565b6001546040805160e060020a6321f8a721028152600080516020613da183398151915260048201529051600160a060020a03909216916321f8a721916024808201926020929091908290030181600087803b158015610fcd57600080fd5b505af1158015610fe1573d6000803e3d6000fd5b505050506040513d6020811015610ff757600080fd5b5051604080517fa9059cbb00000000000000000000000000000000000000000000000000000000815233600482015267ffffffffffffffff8f1660248201529051919250600160a060020a0383169163a9059cbb9160448082019260009290919082900301818387803b15801561106d57600080fd5b505af1158015611081573d6000803e3d6000fd5b5050505080600160a060020a031663d67cab5a8d60ff166040518263ffffffff1660e060020a028152600401808260ff1660ff168152602001915050600060405180830381600087803b1580156110d757600080fd5b505af11580156110eb573d6000803e3d6000fd5b505050507fb85189fcc144a6bd1d2a98ec38cb0f67d44d44387e073161726650cdbf2387038c86338e604051808567ffffffffffffffff1667ffffffffffffffff1681526020018467ffffffffffffffff166001608060020a0316815260200183600160a060020a0316600160a060020a0316815260200182815260200194505050505060405180910390a1505050505050505050505050565b600160a060020a03821660009081526003602052604081208054839081106111a957fe5b9060005260206000200154905092915050565b6001546040805160e060020a6312d9a6ad02815260d960020a6430b236b4b7026004820181905233602483015291519192600160a060020a0316916312d9a6ad916044808201926020929091908290030181600087803b15801561121f57600080fd5b505af1158015611233573d6000803e3d6000fd5b505050506040513d602081101561124957600080fd5b5051151561128f576040805160e560020a62461bcd02815260206004820152600d6024820152600080516020613d61833981519152604482015290519081900360640190fd5b50600695909555600793909355600891909155600955600a55600b55565b6001546040805160e060020a6321f8a7210281527f566f75636865720000000000000000000000000000000000000000000000000060048201529051600092839283928392600160a060020a0316916321f8a72191602480830192602092919082900301818787803b15801561132257600080fd5b505af1158015611336573d6000803e3d6000fd5b505050506040513d602081101561134c57600080fd5b5051604080517f310be93900000000000000000000000000000000000000000000000000000000815260048101889052602481018990529051919250600160a060020a0383169163310be939916044808201926060929091908290030181600087803b1580156113bb57600080fd5b505af11580156113cf573d6000803e3d6000fd5b505050506040513d60608110156113e557600080fd5b50519695505050505050565b60008060008060008061142a600260008967ffffffffffffffff1667ffffffffffffffff16815260200190815260200160002054611987565b949c939b5091995097509550909350915050565b600054600160a060020a0316331461148e576040805160e560020a62461bcd0281526020600482015260116024820152600080516020613d81833981519152604482015290519081900360640190fd5b60005460a060020a900460ff1615156114a657600080fd5b6000805474ff0000000000000000000000000000000000000000191681556040517f7805862f689e2f13df9f062ff482ad3ad112aca9e0847911ed832e158c525b339190a1565b67ffffffffffffffff1660009081526002602052604090205490565b600080600080600080600061151d8b6114ed565b9050801515611576576040805160e560020a62461bcd02815260206004820152600f60248201527f746f6b656e206e6f7420666f756e640000000000000000000000000000000000604482015290519081900360640190fd5b611582818b8b8b61201c565b965096509650965096509650509499939850945094509450565b60005460a060020a900460ff1681565b6001546040805160e060020a6312d9a6ad02815260d960020a6430b236b4b7026004820181905233602483015291519192600160a060020a0316916312d9a6ad916044808201926020929091908290030181600087803b15801561160f57600080fd5b505af1158015611623573d6000803e3d6000fd5b505050506040513d602081101561163957600080fd5b5051151561167f576040805160e560020a62461bcd02815260206004820152600d6024820152600080516020613d61833981519152604482015290519081900360640190fd5b6001546040805160e060020a6321f8a7210281527f63757457616c6c6574000000000000000000000000000000000000000000000060048201529051600160a060020a03909216916321f8a721916024808201926020929091908290030181600087803b1580156116ef57600080fd5b505af1158015611703573d6000803e3d6000fd5b505050506040513d602081101561171957600080fd5b5051604051600160a060020a0390911690303180156108fc02916000818181858888f19350505050158015611752573d6000803e3d6000fd5b5050565b600054600160a060020a031633146117a6576040805160e560020a62461bcd0281526020600482015260116024820152600080516020613d81833981519152604482015290519081900360640190fd5b60008054604051600160a060020a03909116917ff8df31144d9c2f0f6b59d69b8b98abd5459d07f2742c4df920b25aae33c6482091a26000805473ffffffffffffffffffffffffffffffffffffffff19169055565b6001546040805160e060020a6312d9a6ad02815260d960020a6430b236b4b7026004820181905233602483015291519192600160a060020a0316916312d9a6ad916044808201926020929091908290030181600087803b15801561185e57600080fd5b505af1158015611872573d6000803e3d6000fd5b505050506040513d602081101561188857600080fd5b505115156118ce576040805160e560020a62461bcd02815260206004820152600d6024820152600080516020613d61833981519152604482015290519081900360640190fd5b612710821115611928576040805160e560020a62461bcd02815260206004820152600d60248201527f63757420746f6f206c6172676500000000000000000000000000000000000000604482015290519081900360640190fd5b6000821015611981576040805160e560020a62461bcd02815260206004820152600d60248201527f63757420746f6f20736d616c6c00000000000000000000000000000000000000604482015290519081900360640190fd5b50600555565b60008060008060008060006004888154811015156119a157fe5b6000918252602090912060039091020180546001820154600290920154600160a060020a0382169b60a060020a90920467ffffffffffffffff169a506001608060020a038084169a50608060020a909304909216975063ffffffff8083169750640100000000909204909116945092505050565b600160a060020a0382166000908152600360205260408120805482918291829182918291611a579189908110611a4757fe5b9060005260206000200154611987565b949d939c50919a509850965090945092505050565b600054600160a060020a03163314611abc576040805160e560020a62461bcd0281526020600482015260116024820152600080516020613d81833981519152604482015290519081900360640190fd5b60005460a060020a900460ff1615611ad357600080fd5b6000805474ff0000000000000000000000000000000000000000191660a060020a1781556040517f6985a02210a168e66602d3235cb6db0e70f92b3ba4d376a33c0f3d9434bff6259190a1565b60008054600160a060020a03163314611b71576040805160e560020a62461bcd0281526020600482015260116024820152600080516020613d81833981519152604482015290519081900360640190fd5b600460c06040519081016040528089600160a060020a031681526020018867ffffffffffffffff168152602001876001608060020a03168152602001866001608060020a031681526020018563ffffffff1681526020018463ffffffff168152509080600181540180825580915050906001820390600052602060002090600302016000909192909190915060008201518160000160006101000a815481600160a060020a030219169083600160a060020a0316021790555060208201518160000160146101000a81548167ffffffffffffffff021916908367ffffffffffffffff16021790555060408201518160010160006101000a8154816001608060020a0302191690836001608060020a0316021790555060608201518160010160106101000a8154816001608060020a0302191690836001608060020a0316021790555060808201518160020160006101000a81548163ffffffff021916908363ffffffff16021790555060a08201518160020160046101000a81548163ffffffff021916908363ffffffff1602179055505050905080600260008867ffffffffffffffff1667ffffffffffffffff168152602001908152602001600020819055506003600088600160a060020a0316600160a060020a0316815260200190815260200160002081908060018154018082558091505090600182039060005260206000200160009091929091909150555050505050505050565b600054600160a060020a031681565b600080600483815481101515611daa57fe5b6000918252602090912060039091020160020154640100000000900463ffffffff16118015611e0757506004805483908110611de257fe5b6000918252602090912060039091020160020154640100000000900463ffffffff1642115b8015611e6e57506004805483908110611e1c57fe5b60009182526020909120600260039092020101546004805463ffffffff9092169184908110611e4757fe5b6000918252602090912060039091020160020154640100000000900463ffffffff16420310155b92915050565b600160a060020a038116600090815260036020908152604091829020805483518184028101840190945280845260609392830182828015611ed457602002820191906000526020600020905b815481526020019060010190808311611ec0575b50505050509050919050565b6001546040805160e060020a6321f8a7210281527f506c617965720000000000000000000000000000000000000000000000000000600482015290516000928392600160a060020a03909116916321f8a7219160248082019260209290919082900301818787803b158015611f5457600080fd5b505af1158015611f68573d6000803e3d6000fd5b505050506040513d6020811015611f7e57600080fd5b5051604080517f445014040000000000000000000000000000000000000000000000000000000081529051919250600160a060020a038316916344501404916004808201926020929091908290030181600087803b158015611fdf57600080fd5b505af1158015611ff3573d6000803e3d6000fd5b505050506040513d602081101561200957600080fd5b50518302915050919050565b6004545b90565b60008060008060008060008060048c81548110151561203757fe5b60009182526020918290206040805160c08101825260039093029091018054600160a060020a038116845267ffffffffffffffff60a060020a909104169383019390935260018301546001608060020a0380821692840192909252608060020a9004166060820152600282015463ffffffff80821660808401526401000000009091041660a08201529092506120cc90612cc9565b1515612122576040805160e560020a62461bcd02815260206004820152601260248201527f6d757374206265206f6e2061756374696f6e0000000000000000000000000000604482015290519081900360640190fd5b6040805160c0810182528354600160a060020a038116825260a060020a900467ffffffffffffffff16602082015260018401546001608060020a0380821693830193909352608060020a90049091166060820152600283015463ffffffff80821660808401526401000000009091041660a08201526121a090612fe5565b6040805160c0810182528454600160a060020a038116825260a060020a900467ffffffffffffffff16602082015260018501546001608060020a0380821693830193909352608060020a90049091166060820152600284015463ffffffff80821660808401526401000000009091041660a0820152909850889750612224906137d1565b925060008a1115612240576122388a611ee0565b955085880397505b60008b1115612474576001546040805160e060020a6321f8a721028152600080516020613da183398151915260048201529051600160a060020a03909216916321f8a721916024808201926020929091908290030181600087803b1580156122a757600080fd5b505af11580156122bb573d6000803e3d6000fd5b505050506040513d60208110156122d157600080fd5b50518254600160a060020a03908116911614612337576040805160e560020a62461bcd02815260206004820181905260248201527f73656c6c65722068617320746f20626520647261676f6e20636f6e7472616374604482015290519081900360640190fd5b6001546040805160e060020a6321f8a7210281527f566f75636865720000000000000000000000000000000000000000000000000060048201529051600160a060020a03909216916321f8a721916024808201926020929091908290030181600087803b1580156123a757600080fd5b505af11580156123bb573d6000803e3d6000fd5b505050506040513d60208110156123d157600080fd5b5051604080517f310be939000000000000000000000000000000000000000000000000000000008152600481018a9052602481018e90529051919250600160a060020a0383169163310be939916044808201926060929091908290030181600087803b15801561244057600080fd5b505af1158015612454573d6000803e3d6000fd5b505050506040513d606081101561246a57600080fd5b5051978890039793505b600089111561248f576124878988610965565b945084880397505b50509499939850945094509450565b6001546040805160e060020a6312d9a6ad02815260d960020a6430b236b4b7026004820181905233602483015291519192600160a060020a0316916312d9a6ad916044808201926020929091908290030181600087803b15801561250157600080fd5b505af1158015612515573d6000803e3d6000fd5b505050506040513d602081101561252b57600080fd5b50511515612571576040805160e560020a62461bcd02815260206004820152600d6024820152600080516020613d61833981519152604482015290519081900360640190fd5b50600c805460ff1916911515919091179055565b600080612590613c65565b60005460a060020a900460ff16156125a757600080fd5b600654876001608060020a0316101580156125cd5750600754876001608060020a031611155b1515612623576040805160e560020a62461bcd02815260206004820152601660248201527f696e76616c6964207374617274696e6720707269636500000000000000000000604482015290519081900360640190fd5b600854866001608060020a0316101580156126495750600954866001608060020a031611155b151561269f576040805160e560020a62461bcd02815260206004820152601460248201527f696e76616c696420656e64696e67207072696365000000000000000000000000604482015290519081900360640190fd5b600a548563ffffffff16101580156126bf5750600b548563ffffffff1611155b1515612715576040805160e560020a62461bcd02815260206004820152601060248201527f696e76616c6964206475726174696f6e00000000000000000000000000000000604482015290519081900360640190fd5b600c5460ff1615806127395750856001608060020a0316876001608060020a031610155b151561278f576040805160e560020a62461bcd02815260206004820152601d60248201527f6f6e6c7920726576657273652061756374696f6e7320616c6c6f776564000000604482015290519081900360640190fd5b6001546040805160e060020a6321f8a721028152600080516020613da183398151915260048201529051600160a060020a03909216916321f8a721916024808201926020929091908290030181600087803b1580156127ed57600080fd5b505af1158015612801573d6000803e3d6000fd5b505050506040513d602081101561281757600080fd5b5051604080517fc89999d000000000000000000000000000000000000000000000000000000000815267ffffffffffffffff8b1660048201529051919450600160a060020a0385169163c89999d0916024808201926020929091908290030181600087803b15801561288857600080fd5b505af115801561289c573d6000803e3d6000fd5b505050506040513d60208110156128b257600080fd5b5051151561290a576040805160e560020a62461bcd02815260206004820152601960248201527f6974656d2063616e2774206265207472616e7366657272656400000000000000604482015290519081900360640190fd5b600154604080517faa327f1e00000000000000000000000000000000000000000000000000000000815260ff8b1660048201529051600160a060020a039092169163aa327f1e916024808201926020929091908290030181600087803b15801561297357600080fd5b505af1158015612987573d6000803e3d6000fd5b505050506040513d602081101561299d57600080fd5b5051604080517f3c92e32c00000000000000000000000000000000000000000000000000000000815267ffffffffffffffff8b1660048201529051919350600160a060020a03841691633c92e32c916024808201926020929091908290030181600087803b158015612a0e57600080fd5b505af1158015612a22573d6000803e3d6000fd5b505050506040513d6020811015612a3857600080fd5b50511515612a90576040805160e560020a62461bcd02815260206004820152601760248201527f6974656d20747970652063616e277420626520736f6c64000000000000000000604482015290519081900360640190fd5b604080517f23b872dd000000000000000000000000000000000000000000000000000000008152600160a060020a03868116600483015230602483015267ffffffffffffffff8b1660448301529151918516916323b872dd9160648082019260009290919082900301818387803b158015612b0a57600080fd5b505af1158015612b1e573d6000803e3d6000fd5b5050505060c06040519081016040528085600160a060020a031681526020018967ffffffffffffffff168152602001886001608060020a03168152602001876001608060020a031681526020018663ffffffff1681526020014263ffffffff168152509050612b8c8161382c565b5050505050505050565b600054600160a060020a03163314612be6576040805160e560020a62461bcd0281526020600482015260116024820152600080516020613d81833981519152604482015290519081900360640190fd5b600160a060020a0381161515612c46576040805160e560020a62461bcd02815260206004820152601760248201527f6e6577206f776e6572206d7573742062652076616c6964000000000000000000604482015290519081900360640190fd5b60008054604051600160a060020a03808516939216917f8be0079c531659141344cd1fd0a4f28419497f9722a3daafe3b4186f6b6457e091a36000805473ffffffffffffffffffffffffffffffffffffffff1916600160a060020a0392909216919091179055565b600160a060020a031660009081526003602052604090205490565b60a00151600063ffffffff9091161190565b6000806000806000600486815481101515612cf257fe5b600091825260208083206003909202909101805467ffffffffffffffff60a060020a90910416835260029091526040822091909155805460048054929750600160a060020a039091169550879450906000198101908110612d4f57fe5b6000918252602090912060039091020154600454600160a060020a03909116925060001901905085811415612de157600480546000198101908110612d9057fe5b60009182526020822060039091020180547bffffffffffffffffffffffffffffffffffffffffffffffffffffffff191681556001810191909155600201805467ffffffffffffffff19169055612fb4565b600480546000198101908110612df357fe5b9060005260206000209060030201600487815481101515612e1057fe5b600091825260209091208254600390920201805473ffffffffffffffffffffffffffffffffffffffff1916600160a060020a0390921691909117808255825467ffffffffffffffff60a060020a9182900416027fffffffff0000000000000000ffffffffffffffffffffffffffffffffffffffff9091161781556001808301805491830180546fffffffffffffffffffffffffffffffff19166001608060020a03938416178082559154608060020a90819004841602919092161790556002918201805492909101805463ffffffff191663ffffffff9384161780825591546401000000009081900490931690920267ffffffff0000000019909116179055600480546000198101908110612f2157fe5b60009182526020822060039091020180547bffffffffffffffffffffffffffffffffffffffffffffffffffffffff19168155600181018290556002908101805467ffffffffffffffff19169055600480548993919084908110612f8057fe5b6000918252602080832060039092029091015467ffffffffffffffff60a060020a9091041683528201929092526040019020555b612fbf828483613a91565b612fc98484613b33565b6004805490612fdc906000198301613c9a565b50505050505050565b6000806000808460a0015163ffffffff164211613003576000613011565b8460a0015163ffffffff1642035b608086015190935063ffffffff16831061303a5784606001516001608060020a03169350613086565b84604001516001608060020a031685606001516001608060020a0316039150846080015163ffffffff1683830281151561307057fe5b0590508085604001516001608060020a03160193505b505050919050565b6001546040805160e060020a6321f8a7210281527f506c617965720000000000000000000000000000000000000000000000000000600482015290516000928392600160a060020a03909116916321f8a7219160248082019260209290919082900301818787803b15801561310257600080fd5b505af1158015613116573d6000803e3d6000fd5b505050506040513d602081101561312c57600080fd5b5051604080517f941320ce00000000000000000000000000000000000000000000000000000000815263ffffffff861660048201523360248201529051919250600160a060020a0383169163941320ce9160448082019260009290919082900301818387803b15801561319e57600080fd5b505af11580156131b2573d6000803e3d6000fd5b5050505080600160a060020a031663445014046040518163ffffffff1660e060020a028152600401602060405180830381600087803b158015611fdf57600080fd5b6001546040805160e060020a6321f8a721028152600080516020613da183398151915260048201529051600092600160a060020a0316916321f8a72191602480830192602092919082900301818787803b15801561325157600080fd5b505af1158015613265573d6000803e3d6000fd5b505050506040513d602081101561327b57600080fd5b50518251600160a060020a039081169116149050919050565b6001546040805160e060020a6321f8a7210281527f566f75636865720000000000000000000000000000000000000000000000000060048201529051600092839283928392600160a060020a0316916321f8a72191602480830192602092919082900301818787803b15801561330957600080fd5b505af115801561331d573d6000803e3d6000fd5b505050506040513d602081101561333357600080fd5b5051604080517f310be93900000000000000000000000000000000000000000000000000000000815260048101889052602481018990529051919250600160a060020a0383169163310be939916044808201926060929091908290030181600087803b1580156133a257600080fd5b505af11580156133b6573d6000803e3d6000fd5b505050506040513d60608110156133cc57600080fd5b508051602082015160409092015190955093509150600160a060020a0383161515613441576040805160e560020a62461bcd02815260206004820152601e60248201527f766f7563686572206f776e6572206d757374206e6f7420626520307830300000604482015290519081900360640190fd5b600160a060020a0383163314156134c7576040805160e560020a62461bcd028152602060048201526024808201527f766f7563686572206f776e6572206d757374206e6f74206265206d73672e736560448201527f6e64657200000000000000000000000000000000000000000000000000000000606482015290519081900360840190fd5b604051600160a060020a0384169083156108fc029084906000818181858888f193505050501580156134fd573d6000803e3d6000fd5b5050505092915050565b600080610bb8841115613564576040805160e560020a62461bcd02815260206004820152600f60248201527f6d6178203330303020636f707065720000000000000000000000000000000000604482015290519081900360640190fd5b6001546040805160e060020a6321f8a7210281527f506c61796572000000000000000000000000000000000000000000000000000060048201529051600160a060020a03909216916321f8a721916024808201926020929091908290030181600087803b1580156135d457600080fd5b505af11580156135e8573d6000803e3d6000fd5b505050506040513d60208110156135fe57600080fd5b5051604080517f28f9933a0000000000000000000000000000000000000000000000000000000081523360048201527f636f707065720000000000000000000000000000000000000000000000000000602482015290519192508591600160a060020a038416916328f9933a9160448083019260209291908290030181600087803b15801561368c57600080fd5b505af11580156136a0573d6000803e3d6000fd5b505050506040513d60208110156136b657600080fd5b505163ffffffff161015613714576040805160e560020a62461bcd02815260206004820152601160248201527f6e6f7420656e6f75676820636f70706572000000000000000000000000000000604482015290519081900360640190fd5b604080517f1fad7e070000000000000000000000000000000000000000000000000000000081523360048201527f636f70706572000000000000000000000000000000000000000000000000000060248201526000868103600390810b900b60448301529151600160a060020a03841692631fad7e07926064808201939182900301818387803b1580156137a757600080fd5b505af11580156137bb573d6000803e3d6000fd5b5061271092505050838502049092039392505050565b60008060008360a0015163ffffffff1642116137ee5760006137fc565b8360a0015163ffffffff1642035b9150836080015163ffffffff168210613816576000613824565b81846080015163ffffffff16035b949350505050565b600060016004839080600181540180825580915050906001820390600052602060002090600302016000909192909190915060008201518160000160006101000a815481600160a060020a030219169083600160a060020a0316021790555060208201518160000160146101000a81548167ffffffffffffffff021916908367ffffffffffffffff16021790555060408201518160010160006101000a8154816001608060020a0302191690836001608060020a0316021790555060608201518160010160106101000a8154816001608060020a0302191690836001608060020a0316021790555060808201518160020160006101000a81548163ffffffff021916908363ffffffff16021790555060a08201518160020160046101000a81548163ffffffff021916908363ffffffff16021790555050500390508060026000846020015167ffffffffffffffff1667ffffffffffffffff16815260200190815260200160002081905550600360008360000151600160a060020a0316600160a060020a031681526020019081526020016000208190806001815401808255809150509060018203906000526020600020016000909192909190915055507fe1cce2d27f595ef69d584007de9f685b3bad42e02acb853109cf01e40538cc2e8260200151836040015184606001518560800151604051808567ffffffffffffffff1667ffffffffffffffff168152602001846001608060020a03166001608060020a03168152602001836001608060020a03166001608060020a031681526020018263ffffffff1663ffffffff16815260200194505050505060405180910390a15050565b600160a060020a038316600090815260036020526040812054905b81811015613b2c57600160a060020a0385166000908152600360205260409020805484919083908110613adb57fe5b90600052602060002001541415613b2457600160a060020a0385166000908152600360205260409020805485919083908110613b1357fe5b600091825260209091200155613b2c565b600101613aac565b5050505050565b600160a060020a038216600090815260036020526040812054905b81811015613c5f57600160a060020a0384166000908152600360205260409020805484919083908110613b7d57fe5b90600052602060002001541415613c5757600160a060020a038416600090815260036020526040902080546000198401908110613bb657fe5b6000918252602080832090910154600160a060020a038716835260039091526040909120805483908110613be657fe5b6000918252602080832090910192909255600160a060020a038616815260039091526040902080546000198401908110613c1c57fe5b60009182526020808320909101829055600160a060020a03861682526003905260409020805490613c51906000198301613ccb565b50613c5f565b600101613b4e565b50505050565b6040805160c081018252600080825260208201819052918101829052606081018290526080810182905260a081019190915290565b815481835581811115613cc657600302816003028360005260206000209182019101613cc69190613cef565b505050565b815481835581811115613cc657600083815260209020613cc6918101908301613d46565b61201991905b80821115613d425780547bffffffffffffffffffffffffffffffffffffffffffffffffffffffff191681556000600182015560028101805467ffffffffffffffff19169055600301613cf5565b5090565b61201991905b80821115613d425760008155600101613d4c56006e6f74207065726d6974746564000000000000000000000000000000000000006e6565647320746f206265206f776e657200000000000000000000000000000045766572447261676f6e73000000000000000000000000000000000000000000a165627a7a72305820930e7f99ac52f5969800c79f8cce4b67fc5a1e889e0985b75cfd77d3b6bbdcfe0029",
  "source": "pragma solidity ^0.4.0;\r\n\r\nimport \"./AuctionAdmin.sol\";\r\nimport \"../voucher/IVoucher.sol\";\r\nimport \"../generators/IGenerator.sol\";\r\n\r\ncontract ReverseAuction is AuctionAdmin {\r\n    constructor(address registrarAddress) public HasRegistrar(registrarAddress) {}\r\n\r\n    function createAuction(uint64 tokenId, uint128 startingPrice, uint128 endingPrice, uint32 duration, address seller)\r\n        external\r\n        whenNotPaused\r\n    {\r\n        require(startingPrice >= startPriceMin && startingPrice <= startPriceMax, \"invalid starting price\");\r\n        require(endingPrice >= endPriceMin && endingPrice <= endPriceMax, \"invalid ending price\");\r\n        require(duration >= minDuration && duration <= maxDuration, \"invalid duration\");\r\n        require(!reveresOnly || startingPrice >= endingPrice, \"only reverse auctions allowed\");\r\n\r\n        IEverDragons dragonsContract = IEverDragons(registrar.getAddress(\"EverDragons\"));\r\n        require(dragonsContract.canBeTransferred(tokenId), \"item can't be transferred\");\r\n\r\n        IGenerator generator = IGenerator(registrar.getGenerator(uint8(tokenId & 0xFF)));\r\n        require(generator.canBeSold(tokenId), \"item type can't be sold\");\r\n\r\n        dragonsContract.transferFrom(seller, this, tokenId);\r\n        Auction memory auction = Auction(seller, tokenId, startingPrice, endingPrice, duration, uint32(now));\r\n        addAuction(auction);\r\n    }\r\n\r\n    function getAuction(uint256 auctionId)\r\n        public\r\n        view\r\n        returns (\r\n        address seller,\r\n        uint64 tokenId,\r\n        uint128 startingPrice,\r\n        uint128 endingPrice,\r\n        uint32 duration,\r\n        uint32 startedAt\r\n    )\r\n    {\r\n        Auction storage auction = auctions[auctionId];\r\n        return (auction.seller, auction.tokenId, auction.startingPrice, auction.endingPrice, auction.duration, auction.startedAt);\r\n    }\r\n\r\n    function isAuctionFinished(uint256 auctionId) external view returns (bool) {\r\n        return auctions[auctionId].startedAt > 0 && now > auctions[auctionId].startedAt && now - auctions[auctionId].startedAt >= auctions[auctionId].duration;\r\n    }\r\n\r\n    function getAuctionCount() external view returns (uint256) {\r\n        return auctions.length;\r\n    }\r\n\r\n    function getAuctionByTokenId(uint64 _tokenId)\r\n        external\r\n        view\r\n        returns (\r\n        address seller,\r\n        uint64 tokenId,\r\n        uint128 startingPrice,\r\n        uint128 endingPrice,\r\n        uint32 duration,\r\n        uint32 startedAt\r\n    )\r\n    {\r\n        return getAuction(tokenIdToAuction[_tokenId]);\r\n    }\r\n\r\n    function getAuctionIdByTokenId(uint64 tokenId) public view returns (uint256) {\r\n        return tokenIdToAuction[tokenId];\r\n    }\r\n\r\n    function getAuctionCountForSeller(address user) external view returns (uint256) {\r\n        return sellerToAuctions[user].length;\r\n    }\r\n\r\n    function getAuctionIdForSeller(address user, uint256 idx) external view returns (uint256) {\r\n        return sellerToAuctions[user][idx];\r\n    }\r\n\r\n    function getAuctionIdsForSeller(address seller) external view returns (uint256[]) {\r\n        return sellerToAuctions[seller];\r\n    }\r\n\r\n    function getAuctionForSeller(address user, uint256 idx)\r\n        external\r\n        view\r\n        returns (\r\n        address seller,\r\n        uint64 tokenId,\r\n        uint128 startingPrice,\r\n        uint128 endingPrice,\r\n        uint32 duration,\r\n        uint32 startedAt\r\n    )\r\n    {\r\n        return getAuction(sellerToAuctions[user][idx]);\r\n    }\r\n\r\n    function getCurrentPriceByTokenId(uint64 tokenId, uint256 voucherCode, uint256 gold, uint256 copper)\r\n        external\r\n        view\r\n        returns (\r\n        uint256 price,\r\n        uint256 regularPrice,\r\n        uint256 goldDiscount,\r\n        uint256 copperDiscount,\r\n        uint256 voucherDiscount,\r\n        uint256 secondsRemaining\r\n    )\r\n    {\r\n        uint256 auctionId = getAuctionIdByTokenId(tokenId);\r\n        require(auctionId != 0, \"token not found\");\r\n        return getCurrentPrice(auctionId, voucherCode, gold, copper);\r\n    }\r\n\r\n    function getCurrentPrice(uint256 auctionId, uint256 voucherCode, uint256 gold, uint256 copper)\r\n        public\r\n        view\r\n        returns (\r\n        uint256 price,\r\n        uint256 regularPrice,\r\n        uint256 goldDiscount,\r\n        uint256 copperDiscount,\r\n        uint256 voucherDiscount,\r\n        uint256 secondsRemaining\r\n    )\r\n    {\r\n        Auction storage auction = auctions[auctionId];\r\n        require(isOnAuction(auction), \"must be on auction\");\r\n\r\n        regularPrice = price = calcRegularAuctionPrice(auction);\r\n        secondsRemaining = calcSecondsRemaining(auction);\r\n\r\n        if (gold > 0) {\r\n            goldDiscount = getGoldDiscount(gold);\r\n            price -= goldDiscount;\r\n        }\r\n\r\n        if (voucherCode > 0) {\r\n            require(auction.seller == registrar.getAddress(\"EverDragons\"), \"seller has to be dragon contract\");\r\n            IVoucher voucherContract = IVoucher(registrar.getAddress(\"Voucher\"));\r\n            (voucherDiscount, , ) = voucherContract.getDiscountedPrice(regularPrice, voucherCode);\r\n            price -= voucherDiscount;\r\n        }\r\n\r\n        if (copper > 0) {\r\n            copperDiscount = getCopperDiscount(copper, regularPrice);\r\n            price -= copperDiscount;\r\n        }\r\n    }\r\n}\r\n",
  "sourcePath": "C:\\Projects\\everdragons\\everdragons-contract\\contracts\\auction\\ReverseAuction.sol",
  "compiler": {
    "name": "solc",
    "version": "0.4.25+commit.59dbf8f1.Emscripten.clang"
  },
  "schemaVersion": "3.0.8",
  "updatedAt": "2019-04-27T17:06:57.639Z",
  "devdoc": {
    "methods": {
      "pause()": {
        "details": "called by the owner to pause, triggers stopped state\r"
      },
      "renounceOwnership()": {
        "details": "Allows the current owner to relinquish control of the contract.\r"
      },
      "transferOwnership(address)": {
        "details": "Allows the current owner to transfer control of the contract to a newOwner.\r",
        "params": {
          "newOwner": "The address to transfer ownership to.\r"
        }
      },
      "unpause()": {
        "details": "called by the owner to unpause, returns to normal state\r"
      }
    }
  },
  "userdoc": {
    "methods": {}
  }
}