{
  "contractName": "TicTacToe",
  "abi": [
    {
      "constant": true,
      "inputs": [
        {
          "name": "",
          "type": "address"
        }
      ],
      "name": "playerToGameId",
      "outputs": [
        {
          "name": "",
          "type": "uint256"
        }
      ],
      "payable": false,
      "stateMutability": "view",
      "type": "function",
      "signature": "0x038c2026"
    },
    {
      "constant": false,
      "inputs": [
        {
          "name": "price",
          "type": "uint32"
        },
        {
          "name": "dragonDNA",
          "type": "uint64"
        },
        {
          "name": "opponent",
          "type": "address"
        }
      ],
      "name": "hostGame",
      "outputs": [],
      "payable": false,
      "stateMutability": "nonpayable",
      "type": "function",
      "signature": "0x0813be38"
    },
    {
      "constant": false,
      "inputs": [
        {
          "name": "gameId",
          "type": "uint256"
        }
      ],
      "name": "reportInactiveOpponent",
      "outputs": [],
      "payable": false,
      "stateMutability": "nonpayable",
      "type": "function",
      "signature": "0x0de2f285"
    },
    {
      "constant": true,
      "inputs": [
        {
          "name": "gameId",
          "type": "uint256"
        }
      ],
      "name": "hasFinished",
      "outputs": [
        {
          "name": "",
          "type": "bool"
        }
      ],
      "payable": false,
      "stateMutability": "view",
      "type": "function",
      "signature": "0x126f648c"
    },
    {
      "constant": false,
      "inputs": [
        {
          "name": "gameId",
          "type": "uint256"
        },
        {
          "name": "dragonDNA",
          "type": "uint64"
        }
      ],
      "name": "joinGame",
      "outputs": [],
      "payable": false,
      "stateMutability": "nonpayable",
      "type": "function",
      "signature": "0x1469bf7d"
    },
    {
      "constant": true,
      "inputs": [
        {
          "name": "gameId",
          "type": "uint256"
        }
      ],
      "name": "isInProgress",
      "outputs": [
        {
          "name": "",
          "type": "bool"
        }
      ],
      "payable": false,
      "stateMutability": "view",
      "type": "function",
      "signature": "0x1728fad1"
    },
    {
      "constant": true,
      "inputs": [],
      "name": "finishedUntil",
      "outputs": [
        {
          "name": "",
          "type": "uint256"
        }
      ],
      "payable": false,
      "stateMutability": "view",
      "type": "function",
      "signature": "0x30047a3a"
    },
    {
      "constant": false,
      "inputs": [
        {
          "name": "gameId",
          "type": "uint256"
        }
      ],
      "name": "quit",
      "outputs": [],
      "payable": false,
      "stateMutability": "nonpayable",
      "type": "function",
      "signature": "0x344cbc68"
    },
    {
      "constant": false,
      "inputs": [
        {
          "name": "timeInSecs",
          "type": "uint32"
        }
      ],
      "name": "setPlayerMoveTime",
      "outputs": [],
      "payable": false,
      "stateMutability": "nonpayable",
      "type": "function",
      "signature": "0x39880dca"
    },
    {
      "constant": false,
      "inputs": [],
      "name": "unpause",
      "outputs": [],
      "payable": false,
      "stateMutability": "nonpayable",
      "type": "function",
      "signature": "0x3f4ba83a"
    },
    {
      "constant": true,
      "inputs": [
        {
          "name": "gameId",
          "type": "uint256"
        }
      ],
      "name": "getGameInfo",
      "outputs": [
        {
          "name": "playerTurn",
          "type": "uint8"
        },
        {
          "name": "lastMove",
          "type": "uint32"
        },
        {
          "name": "options",
          "type": "uint8"
        },
        {
          "name": "status",
          "type": "uint8"
        },
        {
          "name": "host",
          "type": "address"
        },
        {
          "name": "opponent",
          "type": "address"
        }
      ],
      "payable": false,
      "stateMutability": "view",
      "type": "function",
      "signature": "0x47e1d550"
    },
    {
      "constant": true,
      "inputs": [
        {
          "name": "offset",
          "type": "uint256"
        }
      ],
      "name": "getActiveGames",
      "outputs": [
        {
          "name": "gameIds",
          "type": "uint256[10]"
        }
      ],
      "payable": false,
      "stateMutability": "view",
      "type": "function",
      "signature": "0x4fd0fb9e"
    },
    {
      "constant": true,
      "inputs": [
        {
          "name": "gameId",
          "type": "uint256"
        }
      ],
      "name": "hasStarted",
      "outputs": [
        {
          "name": "",
          "type": "bool"
        }
      ],
      "payable": false,
      "stateMutability": "view",
      "type": "function",
      "signature": "0x51f41c09"
    },
    {
      "constant": true,
      "inputs": [],
      "name": "paused",
      "outputs": [
        {
          "name": "",
          "type": "bool"
        }
      ],
      "payable": false,
      "stateMutability": "view",
      "type": "function",
      "signature": "0x5c975abb"
    },
    {
      "constant": false,
      "inputs": [
        {
          "name": "gameId",
          "type": "uint256"
        },
        {
          "name": "move1Row",
          "type": "uint8"
        },
        {
          "name": "move1Col",
          "type": "uint8"
        },
        {
          "name": "move2Row",
          "type": "uint8"
        },
        {
          "name": "move2Col",
          "type": "uint8"
        }
      ],
      "name": "makeMove",
      "outputs": [],
      "payable": false,
      "stateMutability": "nonpayable",
      "type": "function",
      "signature": "0x601d4129"
    },
    {
      "constant": true,
      "inputs": [
        {
          "name": "gameId",
          "type": "uint256"
        }
      ],
      "name": "getWinners",
      "outputs": [
        {
          "name": "",
          "type": "uint64[]"
        }
      ],
      "payable": false,
      "stateMutability": "view",
      "type": "function",
      "signature": "0x6b1426a4"
    },
    {
      "constant": true,
      "inputs": [
        {
          "name": "player",
          "type": "address"
        },
        {
          "name": "offset",
          "type": "uint256"
        }
      ],
      "name": "getGamesForPlayer",
      "outputs": [
        {
          "name": "gameIds",
          "type": "uint256[5]"
        }
      ],
      "payable": false,
      "stateMutability": "view",
      "type": "function",
      "signature": "0x6f67f88e"
    },
    {
      "constant": false,
      "inputs": [],
      "name": "renounceOwnership",
      "outputs": [],
      "payable": false,
      "stateMutability": "nonpayable",
      "type": "function",
      "signature": "0x715018a6"
    },
    {
      "constant": true,
      "inputs": [],
      "name": "gameUID",
      "outputs": [
        {
          "name": "",
          "type": "uint16"
        }
      ],
      "payable": false,
      "stateMutability": "view",
      "type": "function",
      "signature": "0x8375f2e7"
    },
    {
      "constant": false,
      "inputs": [],
      "name": "pause",
      "outputs": [],
      "payable": false,
      "stateMutability": "nonpayable",
      "type": "function",
      "signature": "0x8456cb59"
    },
    {
      "constant": true,
      "inputs": [],
      "name": "owner",
      "outputs": [
        {
          "name": "",
          "type": "address"
        }
      ],
      "payable": false,
      "stateMutability": "view",
      "type": "function",
      "signature": "0x8da5cb5b"
    },
    {
      "constant": true,
      "inputs": [
        {
          "name": "offset",
          "type": "uint256"
        }
      ],
      "name": "getOpenGames",
      "outputs": [
        {
          "name": "gameIds",
          "type": "uint256[10]"
        }
      ],
      "payable": false,
      "stateMutability": "view",
      "type": "function",
      "signature": "0x9d4c94da"
    },
    {
      "constant": true,
      "inputs": [
        {
          "name": "gameId",
          "type": "uint256"
        }
      ],
      "name": "getGame",
      "outputs": [
        {
          "name": "price",
          "type": "uint32"
        },
        {
          "name": "maxPlayers",
          "type": "uint16"
        },
        {
          "name": "dragons",
          "type": "uint64[]"
        },
        {
          "name": "winners",
          "type": "uint64[]"
        },
        {
          "name": "status",
          "type": "uint8"
        }
      ],
      "payable": false,
      "stateMutability": "view",
      "type": "function",
      "signature": "0xa2f77bcc"
    },
    {
      "constant": false,
      "inputs": [],
      "name": "checkForFinishedGames",
      "outputs": [],
      "payable": false,
      "stateMutability": "nonpayable",
      "type": "function",
      "signature": "0xbf9d24ee"
    },
    {
      "constant": true,
      "inputs": [
        {
          "name": "gameId",
          "type": "uint256"
        }
      ],
      "name": "getPrizePot",
      "outputs": [
        {
          "name": "prizePot",
          "type": "uint256"
        }
      ],
      "payable": false,
      "stateMutability": "view",
      "type": "function",
      "signature": "0xc75dce62"
    },
    {
      "constant": false,
      "inputs": [
        {
          "name": "newOwner",
          "type": "address"
        }
      ],
      "name": "transferOwnership",
      "outputs": [],
      "payable": false,
      "stateMutability": "nonpayable",
      "type": "function",
      "signature": "0xf2fde38b"
    },
    {
      "constant": true,
      "inputs": [],
      "name": "gamesCount",
      "outputs": [
        {
          "name": "",
          "type": "uint256"
        }
      ],
      "payable": false,
      "stateMutability": "view",
      "type": "function",
      "signature": "0xfb632b7c"
    },
    {
      "constant": false,
      "inputs": [
        {
          "name": "gameId",
          "type": "uint256"
        }
      ],
      "name": "surrender",
      "outputs": [],
      "payable": false,
      "stateMutability": "nonpayable",
      "type": "function",
      "signature": "0xfd61d10b"
    },
    {
      "inputs": [
        {
          "name": "registrarAddress",
          "type": "address"
        }
      ],
      "payable": false,
      "stateMutability": "nonpayable",
      "type": "constructor",
      "signature": "constructor"
    },
    {
      "anonymous": false,
      "inputs": [
        {
          "indexed": false,
          "name": "playerAddress",
          "type": "address"
        },
        {
          "indexed": false,
          "name": "gameId",
          "type": "uint256"
        }
      ],
      "name": "PlayerMadeMove",
      "type": "event",
      "signature": "0xe066d72546d2fb75850c2a623de25c39ce74b4b6e8b23dd1deb015415da5517b"
    },
    {
      "anonymous": false,
      "inputs": [
        {
          "indexed": true,
          "name": "gameId",
          "type": "uint256"
        }
      ],
      "name": "NewGame",
      "type": "event",
      "signature": "0xa0b7f6f22bb4f69adc52dd16ffe2a964ab8b577be274247fa9a1547b03ce3e55"
    },
    {
      "anonymous": false,
      "inputs": [
        {
          "indexed": true,
          "name": "gameId",
          "type": "uint256"
        },
        {
          "indexed": false,
          "name": "player",
          "type": "address"
        },
        {
          "indexed": false,
          "name": "dna",
          "type": "uint64"
        }
      ],
      "name": "Joined",
      "type": "event",
      "signature": "0xdcb8a487aa5e9590f9d0d2ad499ca491e193c04429caecbaf4b02355cb504c1a"
    },
    {
      "anonymous": false,
      "inputs": [
        {
          "indexed": true,
          "name": "gameId",
          "type": "uint256"
        }
      ],
      "name": "Started",
      "type": "event",
      "signature": "0x006e0c97de781a7389d44ba8fd35d1467cabb17ed04d038d166d34ab819213f3"
    },
    {
      "anonymous": false,
      "inputs": [
        {
          "indexed": true,
          "name": "gameId",
          "type": "uint256"
        },
        {
          "indexed": false,
          "name": "winners",
          "type": "uint64[]"
        }
      ],
      "name": "Finished",
      "type": "event",
      "signature": "0xd19d858b3c30a099891a9b539c42846d6b876ba9d63626ffe187d6afa9d75d08"
    },
    {
      "anonymous": false,
      "inputs": [],
      "name": "Pause",
      "type": "event",
      "signature": "0x6985a02210a168e66602d3235cb6db0e70f92b3ba4d376a33c0f3d9434bff625"
    },
    {
      "anonymous": false,
      "inputs": [],
      "name": "Unpause",
      "type": "event",
      "signature": "0x7805862f689e2f13df9f062ff482ad3ad112aca9e0847911ed832e158c525b33"
    },
    {
      "anonymous": false,
      "inputs": [
        {
          "indexed": true,
          "name": "previousOwner",
          "type": "address"
        }
      ],
      "name": "OwnershipRenounced",
      "type": "event",
      "signature": "0xf8df31144d9c2f0f6b59d69b8b98abd5459d07f2742c4df920b25aae33c64820"
    },
    {
      "anonymous": false,
      "inputs": [
        {
          "indexed": true,
          "name": "previousOwner",
          "type": "address"
        },
        {
          "indexed": true,
          "name": "newOwner",
          "type": "address"
        }
      ],
      "name": "OwnershipTransferred",
      "type": "event",
      "signature": "0x8be0079c531659141344cd1fd0a4f28419497f9722a3daafe3b4186f6b6457e0"
    },
    {
      "constant": true,
      "inputs": [],
      "name": "getGameId",
      "outputs": [
        {
          "name": "gameId",
          "type": "uint256"
        }
      ],
      "payable": false,
      "stateMutability": "view",
      "type": "function",
      "signature": "0xc0bd8351"
    },
    {
      "constant": true,
      "inputs": [],
      "name": "getGameForUser",
      "outputs": [
        {
          "name": "gameId",
          "type": "uint256"
        },
        {
          "name": "price",
          "type": "uint32"
        },
        {
          "name": "maxPlayers",
          "type": "uint16"
        },
        {
          "name": "dragons",
          "type": "uint64[]"
        },
        {
          "name": "winners",
          "type": "uint64[]"
        },
        {
          "name": "status",
          "type": "uint8"
        }
      ],
      "payable": false,
      "stateMutability": "view",
      "type": "function",
      "signature": "0x2fe76c9c"
    },
    {
      "constant": true,
      "inputs": [
        {
          "name": "_gameId",
          "type": "uint256"
        },
        {
          "name": "row",
          "type": "uint8"
        },
        {
          "name": "col",
          "type": "uint8"
        }
      ],
      "name": "getCellValue",
      "outputs": [
        {
          "name": "",
          "type": "uint8"
        }
      ],
      "payable": false,
      "stateMutability": "view",
      "type": "function",
      "signature": "0xbbe51d81"
    },
    {
      "constant": true,
      "inputs": [
        {
          "name": "_gameId",
          "type": "uint256"
        }
      ],
      "name": "getPlayingField",
      "outputs": [
        {
          "name": "",
          "type": "uint8[6][6]"
        }
      ],
      "payable": false,
      "stateMutability": "view",
      "type": "function",
      "signature": "0xf8ec2d2d"
    }
  ],
  "bytecode": "0x60806040526000805460a060020a60ff021916815560025560016003556005805463ffffffff191660b41790553480156200003957600080fd5b5060405160208062004d1d833981016040525160008054600160a060020a031916331790556103e981600160a060020a0381161515620000da57604080517f08c379a000000000000000000000000000000000000000000000000000000000815260206004820152601f60248201527f7265676973747261722061646472657373206e6f7420617661696c61626c6500604482015290519081900360640190fd5b60018054600160a060020a031916600160a060020a0392909216919091179055600061ffff8216116200016e57604080517f08c379a000000000000000000000000000000000000000000000000000000000815260206004820152601360248201527f67616d6555494420697320726571756972656400000000000000000000000000604482015290519081900360640190fd5b6001805461ffff909216740100000000000000000000000000000000000000000260a060020a61ffff021990921691909117905550614b6a80620001b36000396000f30060806040526004361061017c5763ffffffff60e060020a600035041663038c202681146101815780630813be38146101b45780630de2f285146101ed578063126f648c146102055780631469bf7d146102315780631728fad1146102565780632fe76c9c1461026e57806330047a3a14610352578063344cbc681461036757806339880dca1461037f5780633f4ba83a1461039d57806347e1d550146103b25780634fd0fb9e1461044c57806351f41c091461049d5780635c975abb146104b5578063601d4129146104ca5780636b1426a4146104fa5780636f67f88e14610562578063715018a61461059b5780638375f2e7146105b05780638456cb59146105dc5780638da5cb5b146105f15780639d4c94da14610622578063a2f77bcc1461063a578063bbe51d811461071a578063bf9d24ee14610754578063c0bd835114610769578063c75dce621461077e578063f2fde38b14610796578063f8ec2d2d146107b7578063fb632b7c14610829578063fd61d10b1461083e575b600080fd5b34801561018d57600080fd5b506101a2600160a060020a0360043516610856565b60408051918252519081900360200190f35b3480156101c057600080fd5b506101eb63ffffffff6004351667ffffffffffffffff60243516600160a060020a0360443516610868565b005b3480156101f957600080fd5b506101eb600435610966565b34801561021157600080fd5b5061021d600435610c7a565b604080519115158252519081900360200190f35b34801561023d57600080fd5b506101eb60043567ffffffffffffffff60243516610ca1565b34801561026257600080fd5b5061021d600435611106565b34801561027a57600080fd5b50610283611121565b604051808781526020018663ffffffff1663ffffffff1681526020018561ffff1661ffff16815260200180602001806020018460ff1660ff168152602001838103835286818151815260200191508051906020019060200280838360005b838110156102f95781810151838201526020016102e1565b50505050905001838103825285818151815260200191508051906020019060200280838360005b83811015610338578181015183820152602001610320565b505050509050019850505050505050505060405180910390f35b34801561035e57600080fd5b506101a2611152565b34801561037357600080fd5b506101eb600435611158565b34801561038b57600080fd5b506101eb63ffffffff60043516611245565b3480156103a957600080fd5b506101eb611372565b3480156103be57600080fd5b506103ca600435611421565b6040805160ff8816815263ffffffff871660208201529081018560068111156103ef57fe5b60ff16815260200184600781111561040357fe5b60ff16815260200183600160a060020a0316600160a060020a0316815260200182600160a060020a0316600160a060020a03168152602001965050505050505060405180910390f35b34801561045857600080fd5b5061046460043561183f565b604051808261014080838360005b8381101561048a578181015183820152602001610472565b5050505090500191505060405180910390f35b3480156104a957600080fd5b5061021d6004356118b3565b3480156104c157600080fd5b5061021d6118c8565b3480156104d657600080fd5b506101eb60043560ff602435811690604435811690606435811690608435166118d8565b34801561050657600080fd5b506105126004356121a4565b60408051602080825283518183015283519192839290830191858101910280838360005b8381101561054e578181015183820152602001610536565b505050509050019250505060405180910390f35b34801561056e57600080fd5b50610586600160a060020a03600435166024356122a6565b60405181518152808260a08083836020610472565b3480156105a757600080fd5b506101eb61249b565b3480156105bc57600080fd5b506105c5612540565b6040805161ffff9092168252519081900360200190f35b3480156105e857600080fd5b506101eb612551565b3480156105fd57600080fd5b50610606612605565b60408051600160a060020a039092168252519081900360200190f35b34801561062e57600080fd5b50610464600435612614565b34801561064657600080fd5b50610652600435612680565b604051808663ffffffff1663ffffffff1681526020018561ffff1661ffff16815260200180602001806020018460ff1660ff168152602001838103835286818151815260200191508051906020019060200280838360005b838110156106c25781810151838201526020016106aa565b50505050905001838103825285818151815260200191508051906020019060200280838360005b838110156107015781810151838201526020016106e9565b5050505090500197505050505050505060405180910390f35b34801561072657600080fd5b5061073e60043560ff602435811690604435166127e1565b6040805160ff9092168252519081900360200190f35b34801561076057600080fd5b506101eb61282d565b34801561077557600080fd5b506101a261286c565b34801561078a57600080fd5b506101a260043561287f565b3480156107a257600080fd5b506101eb600160a060020a03600435166129d4565b3480156107c357600080fd5b506107cf600435612aec565b6040516000826006835b81841015610819576020840283015160c080838360005b838110156108085781810151838201526020016107f0565b5050505090500192600101926107d9565b9250505091505060405180910390f35b34801561083557600080fd5b506101a2612b83565b34801561084a57600080fd5b506101eb600435612b89565b60076020526000908152604090205481565b33600090815260076020526040812054156108cd576040805160e560020a62461bcd02815260206004820152601d60248201527f706c617965722063616e206f6e6c7920686f7374206f6e652067616d65000000604482015290519081900360640190fd5b6108d984600285612da3565b506002805460009081526006602081815260408084206007808201805473ffffffffffffffffffffffffffffffffffffffff1916600160a060020a039990991698909817909755909201805479ffffffffffffffffffffffffffffffffffffffff000000000000191633660100000000000081029190911790915593549383529390935291909120555050565b600080600061097484611106565b15156109f0576040805160e560020a62461bcd02815260206004820152602c60248201527f47616d65207761736e2774207374617274656420796574206f722066696e697360448201527f68656420616c72656164792e0000000000000000000000000000000000000000606482015290519081900360840190fd5b6109f984611421565b5050506000878152600460209081526040808320600692839052922090810154929750909550935066010000000000009004600160a060020a03163314159150610b1c9050576002836006811115610a4d57fe5b14610aa2576040805160e560020a62461bcd02815260206004820152600c60248201527f43616e2774207265706f72740000000000000000000000000000000000000000604482015290519081900360640190fd5b81600201826001016000815481101515610ab857fe5b6000918252602080832060048084049091015485546001810187559585529190932092840490920180546003948516600890810261010090810a67ffffffffffffffff9790951691909102900a909304841682029190930219909116179055610c20565b6007810154600160a060020a0316331415610baa576002836006811115610b3f57fe5b14610b94576040805160e560020a62461bcd02815260206004820152600c60248201527f43616e2774207265706f72740000000000000000000000000000000000000000604482015290519081900360640190fd5b81600201826001016001815481101515610ab857fe5b6040805160e560020a62461bcd02815260206004820152602260248201527f596f7520617265206e6f74206120706c6179657220696e20746869732067616d60448201527f652e000000000000000000000000000000000000000000000000000000000000606482015290519081900360840190fd5b60038201805460ff19166005179055610c3a846000612e11565b600781810154600160a060020a03908116600090815260209290925260408083208390556006909301546601000000000000900416815290812055505050565b600081815260046020526040812060035b600382015460ff91821691161015915050919050565b3360009081526007602052604081205481908190819015610d0c576040805160e560020a62461bcd02815260206004820152601e60248201527f706c617965722063616e206f6e6c7920626520696e206f6e652067616d650000604482015290519081900360640190fd5b610d1686866135b4565b60008681526006602052604090206007810154909450600160a060020a031615610de1576007840154600160a060020a03161580610d6057506007840154600160a060020a031633145b1515610ddc576040805160e560020a62461bcd02815260206004820152602660248201527f6f6e6c79206368616c6c656e67656420706c6179657220616c6c6f776564207460448201527f6f206a6f696e0000000000000000000000000000000000000000000000000000606482015290519081900360840190fd5b610e03565b60078401805473ffffffffffffffffffffffffffffffffffffffff1916331790555b6001546040805160e060020a6321f8a721028152600080516020614aff83398151915260048201529051600160a060020a03909216916321f8a721916024808201926020929091908290030181600087803b158015610e6157600080fd5b505af1158015610e75573d6000803e3d6000fd5b505050506040513d6020811015610e8b57600080fd5b5051604080517f1960253700000000000000000000000000000000000000000000000000000000815267ffffffffffffffff881660048201529051919450600160a060020a0385169163196025379160248082019260a0929091908290030181600087803b158015610efc57600080fd5b505af1158015610f10573d6000803e3d6000fd5b505050506040513d60a0811015610f2657600080fd5b505160008781526004602052604081206001018054929450600160a060020a03861692631960253792908110610f5857fe5b90600052602060002090600491828204019190066008029054906101000a900467ffffffffffffffff166040518263ffffffff1660e060020a028152600401808267ffffffffffffffff1667ffffffffffffffff16815260200191505060a060405180830381600087803b158015610fcf57600080fd5b505af1158015610fe3573d6000803e3d6000fd5b505050506040513d60a0811015610ff957600080fd5b5051905061080062ffffff838116829004600390811691841692909204919091161415611096576040805160e560020a62461bcd02815260206004820152602560248201527f647261676f6e732068617320746f206861766520646966666572656e7420646f60448201527f6d61696e73000000000000000000000000000000000000000000000000000000606482015290519081900360840190fd5b6110a060036136b9565b15156110c25760068401805464ff0000000019166402000000001790556110da565b60068401805464ff0000000019166401000000001790555b505050600601805463ffffffff19164263ffffffff161790555033600090815260076020526040902055565b60009081526004602052604090206003015460ff1660021490565b3360009081526007602052604081205490806060808261114086612680565b999a9399929850909650945092509050565b60035481565b600081815260066020908152604080832060049092528220909161117b84611421565b509194506001935061118c92505050565b81600681111561119857fe5b146111ed576040805160e560020a62461bcd02815260206004820152601260248201527f63616e2774207175697420616e796d6f72650000000000000000000000000000604482015290519081900360640190fd5b6111f684613750565b506003908101805460ff19169091179055600781810154600160a060020a0390811660009081526020929092526040808320839055600690930154660100000000000090041681529081205550565b600154604080517f12d9a6ad0000000000000000000000000000000000000000000000000000000081527f61646d696e0000000000000000000000000000000000000000000000000000006004820181905233602483015291519192600160a060020a0316916312d9a6ad916044808201926020929091908290030181600087803b1580156112d357600080fd5b505af11580156112e7573d6000803e3d6000fd5b505050506040513d60208110156112fd57600080fd5b50511515611355576040805160e560020a62461bcd02815260206004820152600d60248201527f6e6f74207065726d697474656400000000000000000000000000000000000000604482015290519081900360640190fd5b506005805463ffffffff191663ffffffff92909216919091179055565b600054600160a060020a031633146113c2576040805160e560020a62461bcd0281526020600482015260116024820152600080516020614adf833981519152604482015290519081900360640190fd5b60005460a060020a900460ff1615156113da57600080fd5b6000805474ff0000000000000000000000000000000000000000191681556040517f7805862f689e2f13df9f062ff482ad3ad112aca9e0847911ed832e158c525b339190a1565b600081815260046020908152604080832060069092528220600382015483928392839283928392909183908190819060ff16600781111561145e57fe5b6006850154600786015460ff6401000000008304169d5063ffffffff82169c50919950600160a060020a0366010000000000009091048116985016955060008a116114aa5760006114b8565b600684015463ffffffff1642035b600685015490935066010000000000009004600160a060020a0316331480156114f057506006840154640100000000900460ff166001145b8061152157506007840154600160a060020a03163314801561152157506006840154640100000000900460ff166002145b600685015490925066010000000000009004600160a060020a03163314905080158161155a57506007840154600160a060020a03163314155b156115685760069850611831565b600388600781111561157657fe5b14156115855760049850611831565b600688600781111561159357fe5b14806115aa575060048860078111156115a857fe5b145b806115c0575060058860078111156115be57fe5b145b156117945780801561164e575060018501805460009081106115de57fe5b90600052602060002090600491828204019190066008029054906101000a900467ffffffffffffffff1667ffffffffffffffff1685600201600081548110151561162457fe5b6000918252602090912060048204015460039091166008026101000a900467ffffffffffffffff16145b1561165c576004985061178f565b8015801561177c575084600101600181548110151561167757fe5b90600052602060002090600491828204019190066008029054906101000a900467ffffffffffffffff1667ffffffffffffffff168560020160008154811015156116bd57fe5b6000918252602090912060048204015460039091166008026101000a900467ffffffffffffffff16148061177c575060028086015414801561177c575084600101600181548110151561170c57fe5b90600052602060002090600491828204019190066008029054906101000a900467ffffffffffffffff1667ffffffffffffffff1685600201600181548110151561175257fe5b6000918252602090912060048204015460039091166008026101000a900467ffffffffffffffff16145b1561178a576004985061178f565b600098505b611831565b600684015466010000000000009004600160a060020a0316331480156117c5575060018860078111156117c357fe5b145b806117f75750600684015460026501000000000090910460ff161080156117f7575060028860078111156117f557fe5b145b156118055760019850611831565b8115801561181e575060055463ffffffff908116908416115b1561182c5760029850611831565b600398505b505050505091939550919395565b611847614a51565b6003546000908301815b60025482111580156118635750600a83105b156118ab57506000818152600460205260409020600381015460ff16600214156118a057600183019282908590600a811061189a57fe5b60200201525b600190910190611851565b505050919050565b60008181526004602052604081206002610c8b565b60005460a060020a900460ff1681565b60008060008060008860ff16101580156118f65750600560ff891611155b8015611906575060008760ff1610155b80156119165750600560ff881611155b1515611992576040805160e560020a62461bcd02815260206004820152602160248201527f436f6f7264696e6174657320666f72206d6f76652031206172652077726f6e6760448201527f2e00000000000000000000000000000000000000000000000000000000000000606482015290519081900360840190fd5b60008660ff16101580156119aa5750600560ff871611155b80156119ba575060008560ff1610155b80156119ca5750600560ff861611155b1515611a46576040805160e560020a62461bcd02815260206004820152602160248201527f436f6f7264696e6174657320666f72206d6f76652032206172652077726f6e6760448201527f2e00000000000000000000000000000000000000000000000000000000000000606482015290519081900360840190fd5b8760ff168660ff16141580611a6157508660ff168560ff1614155b1515611add576040805160e560020a62461bcd02815260206004820152602960248201527f43616e2774206d616b652032206d6f76657320776974682073616d6520736f6f60448201527f7264696e617465732e0000000000000000000000000000000000000000000000606482015290519081900360840190fd5b600089815260066020908152604080832060049092529091209094509250611b0489611106565b1515611b5a576040805160e560020a62461bcd02815260206004820152601560248201527f47616d65206e6f7420696e2070726f67726573732e0000000000000000000000604482015290519081900360640190fd5b8360ff881660068110611b6957fe5b0160ff891660068110611b7857fe5b602081049091015460ff601f9092166101000a90041615611c09576040805160e560020a62461bcd02815260206004820152603060248201527f4d6f76652031206973206e6f7420706f737369626c65202d2063656c6c20697360448201527f2066696c6c656420616c72656164792e00000000000000000000000000000000606482015290519081900360840190fd5b8360ff861660068110611c1857fe5b0160ff871660068110611c2757fe5b602081049091015460ff601f9092166101000a90041615611cb8576040805160e560020a62461bcd02815260206004820152603060248201527f4d6f76652032206973206e6f7420706f737369626c65202d2063656c6c20697360448201527f2066696c6c656420616c72656164792e00000000000000000000000000000000606482015290519081900360840190fd5b600684015466010000000000009004600160a060020a0316331415611d47576006840154640100000000900460ff16600114611d3e576040805160e560020a62461bcd02815260206004820152601960248201527f5761697420666f7220706c617965722032277320737465702e00000000000000604482015290519081900360640190fd5b60019150611dc8565b6007840154600160a060020a0316331415610baa576006840154640100000000900460ff16600214611dc3576040805160e560020a62461bcd02815260206004820152601960248201527f5761697420666f7220706c617965722031277320737465702e00000000000000604482015290519081900360640190fd5b600291505b6006848101805463ffffffff19164263ffffffff161790558290859060ff8a16908110611df157fe5b0160ff8a1660068110611e0057fe5b602091828204019190066101000a81548160ff021916908360ff16021790555081846000018660ff16600681101515611e3557fe5b0160ff881660068110611e4457fe5b60208104909101805460ff938416601f9093166101000a928302928402191691909117905560068501805465010000000000808204841660020184160265ff000000000019909116179081905564010000000090041660011415611ebe5760068401805464ff000000001916640200000000179055611ed6565b60068401805464ff0000000019166401000000001790555b600684015465010000000000900460ff166024141561215d576040805160c08101909152611f71908560066000835b82821015611f68576040805160c08101918290529085840190600690826000855b825461010083900a900460ff16815260206001928301818104948501949093039092029101808411611f26579050505050505081526020019060010190611f05565b50505050613b70565b90508060ff1660011415611ff95782600201836001016000815481101515611f9557fe5b6000918252602080832060048084049091015485546001810187559585529190932092840490920180546003948516600890810261010090810a67ffffffffffffffff9790951691909102900a909304841682029190930219909116179055612102565b8060ff166002141561201b5782600201836001016001815481101515611f9557fe5b8260020183600101600081548110151561203157fe5b60009182526020808320600480840490910154855460018181018855968652929094209082040180546003928316600890810261010090810a67ffffffffffffffff9590961691909102900a909404821683029290910219909216179055838101805460028601929081106120a257fe5b6000918252602080832060048084049091015485546001810187559585529190932092840490920180546003948516600890810261010090810a67ffffffffffffffff9790951691909102900a9093048416820291909302199091161790555b60038301805460ff19166006908117909155600785810154600160a060020a0390811660009081526020929092526040808320839055928701546601000000000000900416815290812055612158896001612e11565b612199565b60408051338152602081018b905281517fe066d72546d2fb75850c2a623de25c39ce74b4b6e8b23dd1deb015415da5517b929181900390910190a15b505050505050505050565b60008181526004602052604090206003808201546060929160ff9091161015612217576040805160e560020a62461bcd02815260206004820152601760248201527f67616d652068617320746f2062652066696e6973686564000000000000000000604482015290519081900360640190fd5b8060020180548060200260200160405190810160405280929190818152602001828054801561229957602002820191906000526020600020906000905b82829054906101000a900467ffffffffffffffff1667ffffffffffffffff16815260200190600801906020826007010492830192600103820291508084116122545790505b5050505050915050919050565b6122ae614a71565b6000806000806000600160009054906101000a9004600160a060020a0316600160a060020a03166321f8a7216040518163ffffffff1660e060020a0281526004018080600080516020614aff8339815191528152506020019050602060405180830381600087803b15801561232257600080fd5b505af1158015612336573d6000803e3d6000fd5b505050506040513d602081101561234c57600080fd5b50516002549095506000945087900392505b60008311801561236e5750600584105b156124905750506000818152600460205260408120905b60018201548110156124845787600160a060020a031685600160a060020a0316636352211e84600101848154811015156123bb57fe5b90600052602060002090600491828204019190066008029054906101000a900467ffffffffffffffff166040518263ffffffff1660e060020a028152600401808267ffffffffffffffff168152602001915050602060405180830381600087803b15801561242857600080fd5b505af115801561243c573d6000803e3d6000fd5b505050506040513d602081101561245257600080fd5b5051600160a060020a0316141561247c576001840193839087906005811061247657fe5b60200201525b600101612385565b6000199092019161235e565b505050505092915050565b600054600160a060020a031633146124eb576040805160e560020a62461bcd0281526020600482015260116024820152600080516020614adf833981519152604482015290519081900360640190fd5b60008054604051600160a060020a03909116917ff8df31144d9c2f0f6b59d69b8b98abd5459d07f2742c4df920b25aae33c6482091a26000805473ffffffffffffffffffffffffffffffffffffffff19169055565b60015460a060020a900461ffff1681565b600054600160a060020a031633146125a1576040805160e560020a62461bcd0281526020600482015260116024820152600080516020614adf833981519152604482015290519081900360640190fd5b60005460a060020a900460ff16156125b857600080fd5b6000805474ff0000000000000000000000000000000000000000191660a060020a1781556040517f6985a02210a168e66602d3235cb6db0e70f92b3ba4d376a33c0f3d9434bff6259190a1565b600054600160a060020a031681565b61261c614a51565b6003546000908301815b60025482111580156126385750600a83105b156118ab57506000818152600460205260409020600381015460ff166001141561267557600183019282908590600a811061266f57fe5b60200201525b600190910190612626565b600081815260046020908152604080832080546003820154600183018054855181880281018801909652808652879660609687968996909563ffffffff82169564010000000090920461ffff16949193600288019360ff90921692859183018282801561274057602002820191906000526020600020906000905b82829054906101000a900467ffffffffffffffff1667ffffffffffffffff16815260200190600801906020826007010492830192600103820291508084116126fb5790505b50505050509250818054806020026020016040519081016040528092919081815260200182805480156127c657602002820191906000526020600020906000905b82829054906101000a900467ffffffffffffffff1667ffffffffffffffff16815260200190600801906020826007010492830192600103820291508084116127815790505b50505050509150955095509550955095505091939590929450565b600083815260066020819052604082209060ff84169081106127ff57fe5b0160ff84166006811061280e57fe5b602081049091015460ff601f9092166101000a90041690509392505050565b6003545b600254811161286957600081815260046020526040902060039081015460ff161015612861576003819055612869565b600101612831565b50565b3360009081526007602052604090205490565b6001546040805160e060020a6321f8a721028152600080516020614b1f8339815191526004820152905160009283928392600160a060020a03909216916321f8a7219160248082019260209290919082900301818787803b1580156128e357600080fd5b505af11580156128f7573d6000803e3d6000fd5b505050506040513d602081101561290d57600080fd5b50516000858152600460208181526040808420805482517f9de2380700000000000000000000000000000000000000000000000000000000815261ffff64010000000083041663ffffffff928316029091169481018590529151939850949650939450600160a060020a03861693639de2380793602480830194928390030190829087803b15801561299e57600080fd5b505af11580156129b2573d6000803e3d6000fd5b505050506040513d60208110156129c857600080fd5b50519092039392505050565b600054600160a060020a03163314612a24576040805160e560020a62461bcd0281526020600482015260116024820152600080516020614adf833981519152604482015290519081900360640190fd5b600160a060020a0381161515612a84576040805160e560020a62461bcd02815260206004820152601760248201527f6e6577206f776e6572206d7573742062652076616c6964000000000000000000604482015290519081900360640190fd5b60008054604051600160a060020a03808516939216917f8be0079c531659141344cd1fd0a4f28419497f9722a3daafe3b4186f6b6457e091a36000805473ffffffffffffffffffffffffffffffffffffffff1916600160a060020a0392909216919091179055565b612af4614a90565b6000828152600660208190526040808320815160c081019092529092909190835b82821015612b78576040805160c08101918290529085840190600690826000855b825461010083900a900460ff16815260206001928301818104948501949093039092029101808411612b36579050505050505081526020019060010190612b15565b505050509050919050565b60025481565b6000806000612b9784611106565b1515612bed576040805160e560020a62461bcd02815260206004820152601560248201527f47616d65206e6f7420696e2070726f67726573732e0000000000000000000000604482015290519081900360640190fd5b612bf684611421565b5091965060039350612c0792505050565b836006811115612c1357fe5b14612c68576040805160e560020a62461bcd02815260206004820152600f60248201527f63616e27742073757272656e6465720000000000000000000000000000000000604482015290519081900360640190fd5b5050600082815260046020908152604080832060069283905292209081015466010000000000009004600160a060020a0316331415612d1b5781600201826001016001815481101515612cb757fe5b6000918252602080832060048084049091015485546001810187559585529190932092840490920180546003948516600890810261010090810a67ffffffffffffffff9790951691909102900a909304841682029190930219909116179055612d46565b6007810154600160a060020a0316331415610baa5781600201826001016000815481101515612cb757fe5b60038201805460ff19166004179055600781810154600160a060020a039081166000908152602092909252604080832083905560068401546601000000000000900490911682528120819055612d9d908590612e11565b50505050565b612daf81846001614188565b50612dba8383614719565b600254600090815260046020818152604083206001908101805491820181558452922090820401805460039092166008026101000a67ffffffffffffffff8181021990931693909216919091029190911790555050565b6000806000806000600160009054906101000a9004600160a060020a0316600160a060020a03166321f8a7216040518163ffffffff1660e060020a0281526004018080600080516020614aff8339815191528152506020019050602060405180830381600087803b158015612e8557600080fd5b505af1158015612e99573d6000803e3d6000fd5b505050506040513d6020811015612eaf57600080fd5b50516001546040805160e060020a6321f8a721028152600080516020614b1f83398151915260048201529051929750600160a060020a03909116916321f8a721916024808201926020929091908290030181600087803b158015612f1257600080fd5b505af1158015612f26573d6000803e3d6000fd5b505050506040513d6020811015612f3c57600080fd5b50516000888152600460208190526040808320805482517fd732f78800000000000000000000000000000000000000000000000000000000815261ffff64010000000083041663ffffffff9283160290911693810184905291519498509650909450600160a060020a0387169263d732f7889260248084019391929182900301818387803b158015612fcd57600080fd5b505af1158015612fe1573d6000803e3d6000fd5b5050505083600160a060020a0316639de23807836040518263ffffffff1660e060020a02815260040180828152602001915050602060405180830381600087803b15801561302e57600080fd5b505af1158015613042573d6000803e3d6000fd5b505050506040513d602081101561305857600080fd5b505160028401549203918281151561306c57fe5b049150600090505b600283015481101561335c5784600160a060020a031663968efc3c84600201838154811015156130a057fe5b90600052602060002090600491828204019190066008029054906101000a900467ffffffffffffffff1660016040518363ffffffff1660e060020a028152600401808367ffffffffffffffff1667ffffffffffffffff1681526020018260030b815260200192505050600060405180830381600087803b15801561312357600080fd5b505af1158015613137573d6000803e3d6000fd5b5050505083600160a060020a0316631fad7e0786600160a060020a0316636352211e866002018581548110151561316a57fe5b90600052602060002090600491828204019190066008029054906101000a900467ffffffffffffffff166040518263ffffffff1660e060020a028152600401808267ffffffffffffffff168152602001915050602060405180830381600087803b1580156131d757600080fd5b505af11580156131eb573d6000803e3d6000fd5b505050506040513d602081101561320157600080fd5b50516040805160e060020a63ffffffff8516028152600160a060020a0390921660048301527f676f6c64546f436c61696d0000000000000000000000000000000000000000006024830152600386810b900b604483015251606480830192600092919082900301818387803b15801561327957600080fd5b505af115801561328d573d6000803e3d6000fd5b505050508515156133545784600160a060020a031663dfc02d9084600201838154811015156132b857fe5b90600052602060002090600491828204019190066008029054906101000a900467ffffffffffffffff1660016040518363ffffffff1660e060020a028152600401808367ffffffffffffffff1667ffffffffffffffff1681526020018260030b815260200192505050600060405180830381600087803b15801561333b57600080fd5b505af115801561334f573d6000803e3d6000fd5b505050505b600101613074565b5060005b60018301548110156134f657851561342e5784600160a060020a031663dfc02d90846001018381548110151561339257fe5b90600052602060002090600491828204019190066008029054906101000a900467ffffffffffffffff1660016040518363ffffffff1660e060020a028152600401808367ffffffffffffffff1667ffffffffffffffff1681526020018260030b815260200192505050600060405180830381600087803b15801561341557600080fd5b505af1158015613429573d6000803e3d6000fd5b505050505b84600160a060020a0316631bf956f5846001018381548110151561344e57fe5b90600052602060002090600491828204019190066008029054906101000a900467ffffffffffffffff1660006040518363ffffffff1660e060020a028152600401808367ffffffffffffffff1667ffffffffffffffff1681526020018261ffff16815260200192505050600060405180830381600087803b1580156134d257600080fd5b505af11580156134e6573d6000803e3d6000fd5b5050600190920191506133609050565b6134fe61282d565b867fd19d858b3c30a099891a9b539c42846d6b876ba9d63626ffe187d6afa9d75d08846002016040518080602001828103825283818154815260200191508054801561359d57602002820191906000526020600020906000905b82829054906101000a900467ffffffffffffffff1667ffffffffffffffff16815260200190600801906020826007010492830192600103820291508084116135585790505b50509250505060405180910390a250505050505050565b60008281526004602052604090206135cb8361477c565b5080546135e190839063ffffffff166000614188565b5060018082018054918201815560009081526020908190206004830401805467ffffffffffffffff80871660086003909616959095026101000a8581029102199091161790556040805133815291820192909252815185927fdcb8a487aa5e9590f9d0d2ad499ca491e193c04429caecbaf4b02355cb504c1a928290030190a260018101548154640100000000900461ffff1614156136b45760038101805460ff1916600217905560405183907e6e0c97de781a7389d44ba8fd35d1467cabb17ed04d038d166d34ab819213f390600090a25b505050565b600081424460405160200180838152602001828152602001925050506040516020818303038152906040526040518082805190602001908083835b602083106137135780518252601f1990920191602091820191016136f4565b5181516020939093036101000a600019018019909116921691909117905260405192018290039091209250505081151561374957fe5b0692915050565b6001546040805160e060020a6321f8a721028152600080516020614b1f83398151915260048201529051600092839283928392600160a060020a0316916321f8a72191602480830192602092919082900301818787803b1580156137b357600080fd5b505af11580156137c7573d6000803e3d6000fd5b505050506040513d60208110156137dd57600080fd5b50516001546040805160e060020a6321f8a721028152600080516020614aff83398151915260048201529051929650600160a060020a03909116916321f8a721916024808201926020929091908290030181600087803b15801561384057600080fd5b505af1158015613854573d6000803e3d6000fd5b505050506040513d602081101561386a57600080fd5b5051600086815260046020526040812091945090925090505b6001820154811015613ab45783600160a060020a0316631fad7e0784600160a060020a0316636352211e85600101858154811015156138be57fe5b90600052602060002090600491828204019190066008029054906101000a900467ffffffffffffffff166040518263ffffffff1660e060020a028152600401808267ffffffffffffffff168152602001915050602060405180830381600087803b15801561392b57600080fd5b505af115801561393f573d6000803e3d6000fd5b505050506040513d602081101561395557600080fd5b505184546040805163ffffffff85811660e060020a028252600160a060020a0390941660048201527f676f6c6400000000000000000000000000000000000000000000000000000000602482015292909116600390810b900b604483015251606480830192600092919082900301818387803b1580156139d457600080fd5b505af11580156139e8573d6000803e3d6000fd5b5050505082600160a060020a0316631bf956f58360010183815481101515613a0c57fe5b90600052602060002090600491828204019190066008029054906101000a900467ffffffffffffffff1660006040518363ffffffff1660e060020a028152600401808367ffffffffffffffff1667ffffffffffffffff1681526020018261ffff16815260200192505050600060405180830381600087803b158015613a9057600080fd5b505af1158015613aa4573d6000803e3d6000fd5b5050600190920191506138839050565b613abc61282d565b847fd19d858b3c30a099891a9b539c42846d6b876ba9d63626ffe187d6afa9d75d088360020160405180806020018281038252838181548152602001915080548015613b5b57602002820191906000526020600020906000905b82829054906101000a900467ffffffffffffffff1667ffffffffffffffff1681526020019060080190602082600701049283019260010382029150808411613b165790505b50509250505060405180910390a25050505050565b600080808080808080808080808080805b600560ff871611613ca85760009b5060009a506000995060009850600094505b600560ff861611613c70578f60ff861660068110613bbb57fe5b602002015160ff871660068110613bce57fe5b602002015160ff1660011415613c0b57891515613bec5760018c019b505b600460ff8c161015613c015760009a50613c06565b600198505b613c65565b8f60ff861660068110613c1a57fe5b602002015160ff871660068110613c2d57fe5b602002015160ff1660021415613c6557881515613c4b5760018b019a505b600460ff8d161015613c605760009b50613c65565b600199505b600190940193613ba1565b600219808d0198508b019650600088810b1315613c8c579c87019c5b60008760000b1315613c9d579b86019b5b600190950194613b81565b60009550600094505b600560ff861611613dd85760009b5060009a506000995060009850600095505b600560ff871611613da0578f60ff861660068110613ceb57fe5b602002015160ff871660068110613cfe57fe5b602002015160ff1660011415613d3b57891515613d1c5760018c019b505b600460ff8c161015613d315760009a50613d36565b600198505b613d95565b8f60ff861660068110613d4a57fe5b602002015160ff871660068110613d5d57fe5b602002015160ff1660021415613d9557881515613d7b5760018b019a505b600460ff8d161015613d905760009b50613d95565b600199505b600190950194613cd1565b600219808d0198508b019650600088810b1315613dbc579c87019c5b60008760000b1315613dcd579b86019b5b600190940193613cb1565b600093505b600460ff851611613f88576000925082915060ff84161515613e06576002925060009150613e66565b8360ff1660011415613e1f576001925060009150613e66565b8360ff1660021415613e38576000925060009150613e66565b8360ff1660031415613e51576000925060019150613e66565b8360ff1660041415613e665760009250600291505b5060009a508a9950899850889750875b600583900382900360ff821611613f50578f60ff8216840160068110613e9857fe5b602002015160ff8216830160068110613ead57fe5b602002015160ff1660011415613eea57891515613ecb5760018c019b505b600460ff8c161015613ee05760009a50613ee5565b600198505b613f48565b8f60ff8216840160068110613efb57fe5b602002015160ff8216830160068110613f1057fe5b602002015160ff1660021415613f4857881515613f2e5760018b019a505b600460ff8d161015613f435760009b50613f48565b600199505b600101613e76565b600219808d0198508b019650600088810b1315613f6c579c87019c5b60008760000b1315613f7d579b86019b5b600190930192613ddd565b600093505b600460ff851611614142576000925082915060ff84161515613fb6576002925060009150614016565b8360ff1660011415613fcf576001925060009150614016565b8360ff1660021415613fe8576000925060009150614016565b8360ff1660031415614001576000925060019150614016565b8360ff16600414156140165760009250600291505b5060009a508a9950899850889750875b600583900382900360ff82161161410a578f838260050360ff160360068110151561404d57fe5b602002015160ff821683016006811061406257fe5b602002015160ff166001141561409f578915156140805760018c019b505b600460ff8c1610156140955760009a5061409a565b600198505b614102565b8f838260050360ff16036006811015156140b557fe5b602002015160ff82168301600681106140ca57fe5b602002015160ff1660021415614102578815156140e85760018b019a505b600460ff8d1610156140fd5760009b50614102565b600199505b600101614026565b600219808d0198508b019650600088810b1315614126579c87019c5b60008760000b1315614137579b86019b5b600190930192613f8d565b8c60ff168e60ff1611156141595760019e50614175565b8d60ff168d60ff1611156141705760029e50614175565b60009e505b5050505050505050505050505050919050565b600080600080600080600160009054906101000a9004600160a060020a0316600160a060020a03166321f8a7216040518163ffffffff1660e060020a0281526004018080600080516020614aff8339815191528152506020019050602060405180830381600087803b1580156141fd57600080fd5b505af1158015614211573d6000803e3d6000fd5b505050506040513d602081101561422757600080fd5b50516001546040805160e060020a6321f8a721028152600080516020614b1f83398151915260048201529051929750600160a060020a03909116916321f8a721916024808201926020929091908290030181600087803b15801561428a57600080fd5b505af115801561429e573d6000803e3d6000fd5b505050506040513d60208110156142b457600080fd5b5051604080517f6352211e00000000000000000000000000000000000000000000000000000000815267ffffffffffffffff8c16600482015290519195503391600160a060020a03881691636352211e9160248083019260209291908290030181600087803b15801561432657600080fd5b505af115801561433a573d6000803e3d6000fd5b505050506040513d602081101561435057600080fd5b5051600160a060020a0316146143b0576040805160e560020a62461bcd02815260206004820152601660248201527f706c61796572206d757374206f776e20647261676f6e00000000000000000000604482015290519081900360640190fd5b604080517f1960253700000000000000000000000000000000000000000000000000000000815267ffffffffffffffff8b1660048201529051600160a060020a0387169163196025379160248083019260a09291908290030181600087803b15801561441b57600080fd5b505af115801561442f573d6000803e3d6000fd5b505050506040513d60a081101561444557600080fd5b50604081015160609091015190935091506144618789856149c2565b15156144b7576040805160e560020a62461bcd02815260206004820152601460248201527f6e6f7420656e676f756768207072657374696765000000000000000000000000604482015290519081900360640190fd5b604080517f28f9933a0000000000000000000000000000000000000000000000000000000081523360048201527f676f6c640000000000000000000000000000000000000000000000000000000060248201529051600160a060020a038616916328f9933a9160448083019260209291908290030181600087803b15801561453e57600080fd5b505af1158015614552573d6000803e3d6000fd5b505050506040513d602081101561456857600080fd5b5051905063ffffffff80891690821610156145cd576040805160e560020a62461bcd02815260206004820152601160248201527f6e6f7420656e676f75676820636f696e73000000000000000000000000000000604482015290519081900360640190fd5b604080517f1fad7e070000000000000000000000000000000000000000000000000000000081523360048201527f676f6c6400000000000000000000000000000000000000000000000000000000602482015260008a8103600390810b900b60448301529151600160a060020a03871692631fad7e07926064808201939182900301818387803b15801561466057600080fd5b505af1158015614674573d6000803e3d6000fd5b5050600154604080517f1bf956f500000000000000000000000000000000000000000000000000000000815267ffffffffffffffff8e16600482015260a060020a90920461ffff16602483015251600160a060020a0389169350631bf956f59250604480830192600092919082900301818387803b1580156146f557600080fd5b505af1158015614709573d6000803e3d6000fd5b5050505050505050509392505050565b6000614723614a13565b50506002546000908152600460205260409020805463ffffffff191663ffffffff84161765ffff00000000191664010000000061ffff8416021781556001600391909101805460ff191660ff9092169190911790555050565b6001546040805160e060020a6321f8a721028152600080516020614aff83398151915260048201529051600092839283928392600160a060020a0316916321f8a72191602480830192602092919082900301818787803b1580156147df57600080fd5b505af11580156147f3573d6000803e3d6000fd5b505050506040513d602081101561480957600080fd5b505160008681526004602052604090206001810154815492955090935064010000000090910461ffff1611614888576040805160e560020a62461bcd02815260206004820152601b60248201527f6d617820706c6179657220666f722067616d6520726561636865640000000000604482015290519081900360640190fd5b5060005b60018201548110156118ab5733600160a060020a031683600160a060020a0316636352211e84600101848154811015156148c257fe5b90600052602060002090600491828204019190066008029054906101000a900467ffffffffffffffff166040518263ffffffff1660e060020a028152600401808267ffffffffffffffff168152602001915050602060405180830381600087803b15801561492f57600080fd5b505af1158015614943573d6000803e3d6000fd5b505050506040513d602081101561495957600080fd5b5051600160a060020a031614156149ba576040805160e560020a62461bcd02815260206004820152601960248201527f706c617965722063616e206f6e6c79206a6f696e206f6e636500000000000000604482015290519081900360640190fd5b60010161488c565b6000831580614a0b57508263ffffffff16600a14806149f0575081600a0263ffffffff168363ffffffff1611155b8015614a0b5750600a63ffffffff84160663ffffffff166000145b949350505050565b6002805460010190819055604051600091907fa0b7f6f22bb4f69adc52dd16ffe2a964ab8b577be274247fa9a1547b03ce3e55908390a25060025490565b61014060405190810160405280600a906020820280388339509192915050565b60a0604051908101604052806005906020820280388339509192915050565b610480604051908101604052806006905b614aa9614abf565b815260200190600190039081614aa15790505090565b60c060405190810160405280600690602082028038833950919291505056006e6565647320746f206265206f776e657200000000000000000000000000000045766572447261676f6e73000000000000000000000000000000000000000000506c617965720000000000000000000000000000000000000000000000000000a165627a7a723058208c5a7a7dd6f7b6ec48a42219e1859176a7d184861fb754457ea8fe44ffd1ed040029",
  "source": "pragma solidity ^0.4.0;\r\n\r\nimport \"./TicTacToeLogic.sol\";\r\n\r\ncontract TicTacToe is TicTacToeLogic {\r\n  constructor(address registrarAddress) public EDGBase(1001) HasRegistrar(registrarAddress) {}\r\n\r\n  function getGameId() public view returns (uint gameId) {\r\n    return playerToGameId[msg.sender];\r\n  }\r\n\r\n  function getGameForUser()\r\n    public\r\n    view\r\n    returns (uint gameId, uint32 price, uint16 maxPlayers, uint64[] dragons, uint64[] winners, uint8 status)\r\n  {\r\n    gameId = playerToGameId[msg.sender];\r\n    (price, maxPlayers, dragons, winners, status) = getGame(gameId);\r\n  }\r\n\r\n  function getCellValue(uint256 _gameId, uint8 row, uint8 col) public view returns (uint8) {\r\n    return gameInfos[_gameId].cells[col][row];\r\n  }\r\n\r\n  function getPlayingField(uint256 _gameId) public view returns (uint8[SIZE][SIZE]) {\r\n    return gameInfos[_gameId].cells;\r\n  }\r\n}\r\n",
  "sourcePath": "C:/Projects/everdragons/everdragons-tictactoe/contracts/TicTacToe.sol",
  "compiler": {
    "name": "solc",
    "version": "0.4.25+commit.59dbf8f1.Emscripten.clang"
  },
  "schemaVersion": "3.0.6",
  "updatedAt": "2019-04-04T09:35:11.795Z",
  "devdoc": {
    "methods": {
      "pause()": {
        "details": "called by the owner to pause, triggers stopped state\r"
      },
      "renounceOwnership()": {
        "details": "Allows the current owner to relinquish control of the contract.\r"
      },
      "transferOwnership(address)": {
        "details": "Allows the current owner to transfer control of the contract to a newOwner.\r",
        "params": {
          "newOwner": "The address to transfer ownership to.\r"
        }
      },
      "unpause()": {
        "details": "called by the owner to unpause, returns to normal state\r"
      }
    }
  },
  "userdoc": {
    "methods": {}
  }
}