{
  "contractName": "EverDragons",
  "abi": [
    {
      "constant": true,
      "inputs": [
        {
          "name": "interfaceId",
          "type": "bytes4"
        }
      ],
      "name": "supportsInterface",
      "outputs": [
        {
          "name": "",
          "type": "bool"
        }
      ],
      "payable": false,
      "stateMutability": "view",
      "type": "function"
    },
    {
      "constant": true,
      "inputs": [],
      "name": "getWalletAddress",
      "outputs": [
        {
          "name": "",
          "type": "address"
        }
      ],
      "payable": false,
      "stateMutability": "view",
      "type": "function"
    },
    {
      "constant": true,
      "inputs": [],
      "name": "name",
      "outputs": [
        {
          "name": "",
          "type": "string"
        }
      ],
      "payable": false,
      "stateMutability": "view",
      "type": "function"
    },
    {
      "constant": true,
      "inputs": [
        {
          "name": "tokenId",
          "type": "uint256"
        }
      ],
      "name": "getApproved",
      "outputs": [
        {
          "name": "",
          "type": "address"
        }
      ],
      "payable": false,
      "stateMutability": "view",
      "type": "function"
    },
    {
      "constant": false,
      "inputs": [
        {
          "name": "_to",
          "type": "address"
        },
        {
          "name": "_tokenId",
          "type": "uint256"
        }
      ],
      "name": "approve",
      "outputs": [],
      "payable": false,
      "stateMutability": "nonpayable",
      "type": "function"
    },
    {
      "constant": true,
      "inputs": [],
      "name": "implementsERC721",
      "outputs": [
        {
          "name": "",
          "type": "bool"
        }
      ],
      "payable": false,
      "stateMutability": "pure",
      "type": "function"
    },
    {
      "constant": true,
      "inputs": [],
      "name": "totalSupply",
      "outputs": [
        {
          "name": "",
          "type": "uint256"
        }
      ],
      "payable": false,
      "stateMutability": "view",
      "type": "function"
    },
    {
      "constant": true,
      "inputs": [],
      "name": "getNumDragonsToClaim",
      "outputs": [
        {
          "name": "",
          "type": "uint256"
        }
      ],
      "payable": false,
      "stateMutability": "view",
      "type": "function"
    },
    {
      "constant": false,
      "inputs": [
        {
          "name": "_from",
          "type": "address"
        },
        {
          "name": "_to",
          "type": "address"
        },
        {
          "name": "_tokenId",
          "type": "uint256"
        }
      ],
      "name": "transferFrom",
      "outputs": [],
      "payable": false,
      "stateMutability": "nonpayable",
      "type": "function"
    },
    {
      "constant": false,
      "inputs": [
        {
          "name": "eggSaleContract",
          "type": "address"
        },
        {
          "name": "dnaVersion",
          "type": "uint8"
        }
      ],
      "name": "addEggSaleContract",
      "outputs": [],
      "payable": false,
      "stateMutability": "nonpayable",
      "type": "function"
    },
    {
      "constant": true,
      "inputs": [
        {
          "name": "tokenId",
          "type": "uint256"
        }
      ],
      "name": "expDragonMapping",
      "outputs": [
        {
          "name": "owner",
          "type": "address"
        },
        {
          "name": "approvedFor",
          "type": "address"
        }
      ],
      "payable": false,
      "stateMutability": "view",
      "type": "function"
    },
    {
      "constant": true,
      "inputs": [
        {
          "name": "_tokenId",
          "type": "uint256"
        }
      ],
      "name": "approvedFor",
      "outputs": [
        {
          "name": "",
          "type": "address"
        }
      ],
      "payable": false,
      "stateMutability": "view",
      "type": "function"
    },
    {
      "constant": true,
      "inputs": [],
      "name": "scarcity",
      "outputs": [
        {
          "name": "",
          "type": "address"
        }
      ],
      "payable": false,
      "stateMutability": "view",
      "type": "function"
    },
    {
      "constant": false,
      "inputs": [
        {
          "name": "receiver",
          "type": "address"
        },
        {
          "name": "forcedDNAVersion",
          "type": "int16"
        }
      ],
      "name": "createRandomDragonForUser",
      "outputs": [],
      "payable": false,
      "stateMutability": "nonpayable",
      "type": "function"
    },
    {
      "constant": true,
      "inputs": [
        {
          "name": "owner",
          "type": "address"
        },
        {
          "name": "index",
          "type": "uint256"
        }
      ],
      "name": "tokenOfOwnerByIndex",
      "outputs": [
        {
          "name": "",
          "type": "uint256"
        }
      ],
      "payable": false,
      "stateMutability": "view",
      "type": "function"
    },
    {
      "constant": false,
      "inputs": [
        {
          "name": "numEggs",
          "type": "uint256"
        },
        {
          "name": "eggSaleIdx",
          "type": "uint256"
        }
      ],
      "name": "hatchEggs",
      "outputs": [],
      "payable": false,
      "stateMutability": "nonpayable",
      "type": "function"
    },
    {
      "constant": false,
      "inputs": [
        {
          "name": "dna",
          "type": "uint256"
        }
      ],
      "name": "impETHDragonDNA",
      "outputs": [],
      "payable": false,
      "stateMutability": "nonpayable",
      "type": "function"
    },
    {
      "constant": true,
      "inputs": [],
      "name": "getNumOfRequiredDragons",
      "outputs": [
        {
          "name": "",
          "type": "uint256"
        }
      ],
      "payable": false,
      "stateMutability": "view",
      "type": "function"
    },
    {
      "constant": false,
      "inputs": [
        {
          "name": "tokenId",
          "type": "uint256"
        },
        {
          "name": "aspects",
          "type": "uint256"
        }
      ],
      "name": "modifyDragonAspect",
      "outputs": [],
      "payable": false,
      "stateMutability": "nonpayable",
      "type": "function"
    },
    {
      "constant": false,
      "inputs": [],
      "name": "unpause",
      "outputs": [],
      "payable": false,
      "stateMutability": "nonpayable",
      "type": "function"
    },
    {
      "constant": false,
      "inputs": [
        {
          "name": "_from",
          "type": "address"
        },
        {
          "name": "_to",
          "type": "address"
        },
        {
          "name": "_tokenId",
          "type": "uint256"
        }
      ],
      "name": "safeTransferFrom",
      "outputs": [],
      "payable": false,
      "stateMutability": "nonpayable",
      "type": "function"
    },
    {
      "constant": false,
      "inputs": [
        {
          "name": "_tokenId",
          "type": "uint256"
        },
        {
          "name": "_startingPrice",
          "type": "uint256"
        },
        {
          "name": "_endingPrice",
          "type": "uint256"
        },
        {
          "name": "_duration",
          "type": "uint256"
        }
      ],
      "name": "createAuction",
      "outputs": [],
      "payable": false,
      "stateMutability": "nonpayable",
      "type": "function"
    },
    {
      "constant": true,
      "inputs": [
        {
          "name": "user",
          "type": "address"
        },
        {
          "name": "eggSaleIdx",
          "type": "uint256"
        }
      ],
      "name": "getNumEggsForUser",
      "outputs": [
        {
          "name": "",
          "type": "uint256"
        },
        {
          "name": "",
          "type": "uint256"
        }
      ],
      "payable": false,
      "stateMutability": "view",
      "type": "function"
    },
    {
      "constant": false,
      "inputs": [
        {
          "name": "modIdx",
          "type": "uint256"
        },
        {
          "name": "enabled",
          "type": "bool"
        }
      ],
      "name": "enableModifierContract",
      "outputs": [],
      "payable": false,
      "stateMutability": "nonpayable",
      "type": "function"
    },
    {
      "constant": true,
      "inputs": [
        {
          "name": "_tokenId",
          "type": "uint256"
        }
      ],
      "name": "exists",
      "outputs": [
        {
          "name": "",
          "type": "bool"
        }
      ],
      "payable": false,
      "stateMutability": "view",
      "type": "function"
    },
    {
      "constant": true,
      "inputs": [
        {
          "name": "idx",
          "type": "uint256"
        }
      ],
      "name": "getDragonToClaim",
      "outputs": [
        {
          "name": "",
          "type": "uint256"
        }
      ],
      "payable": false,
      "stateMutability": "view",
      "type": "function"
    },
    {
      "constant": false,
      "inputs": [
        {
          "name": "user",
          "type": "address"
        },
        {
          "name": "numEggs",
          "type": "uint256"
        },
        {
          "name": "claim",
          "type": "bool"
        },
        {
          "name": "eggSaleIdx",
          "type": "uint256"
        }
      ],
      "name": "hatchEggsForUser",
      "outputs": [],
      "payable": false,
      "stateMutability": "nonpayable",
      "type": "function"
    },
    {
      "constant": true,
      "inputs": [],
      "name": "paused",
      "outputs": [
        {
          "name": "",
          "type": "bool"
        }
      ],
      "payable": false,
      "stateMutability": "view",
      "type": "function"
    },
    {
      "constant": true,
      "inputs": [
        {
          "name": "_tokenId",
          "type": "uint256"
        }
      ],
      "name": "ownerOf",
      "outputs": [
        {
          "name": "",
          "type": "address"
        }
      ],
      "payable": false,
      "stateMutability": "view",
      "type": "function"
    },
    {
      "constant": false,
      "inputs": [],
      "name": "createNSEDragon",
      "outputs": [],
      "payable": false,
      "stateMutability": "nonpayable",
      "type": "function"
    },
    {
      "constant": false,
      "inputs": [],
      "name": "payout",
      "outputs": [],
      "payable": false,
      "stateMutability": "nonpayable",
      "type": "function"
    },
    {
      "constant": true,
      "inputs": [
        {
          "name": "eggSaleIdx",
          "type": "uint256"
        }
      ],
      "name": "getEggSaleContract",
      "outputs": [
        {
          "name": "",
          "type": "address"
        }
      ],
      "payable": false,
      "stateMutability": "view",
      "type": "function"
    },
    {
      "constant": false,
      "inputs": [
        {
          "name": "_address",
          "type": "address"
        }
      ],
      "name": "setSaleAuctionAddress",
      "outputs": [],
      "payable": false,
      "stateMutability": "nonpayable",
      "type": "function"
    },
    {
      "constant": false,
      "inputs": [
        {
          "name": "newAdmin",
          "type": "address"
        }
      ],
      "name": "setAdmin",
      "outputs": [],
      "payable": false,
      "stateMutability": "nonpayable",
      "type": "function"
    },
    {
      "constant": true,
      "inputs": [
        {
          "name": "_owner",
          "type": "address"
        }
      ],
      "name": "balanceOf",
      "outputs": [
        {
          "name": "",
          "type": "uint256"
        }
      ],
      "payable": false,
      "stateMutability": "view",
      "type": "function"
    },
    {
      "constant": false,
      "inputs": [],
      "name": "renounceOwnership",
      "outputs": [],
      "payable": false,
      "stateMutability": "nonpayable",
      "type": "function"
    },
    {
      "constant": false,
      "inputs": [],
      "name": "createNewDragons",
      "outputs": [],
      "payable": false,
      "stateMutability": "nonpayable",
      "type": "function"
    },
    {
      "constant": false,
      "inputs": [
        {
          "name": "_dnaVersion",
          "type": "uint8"
        }
      ],
      "name": "setDNAVersion",
      "outputs": [],
      "payable": false,
      "stateMutability": "nonpayable",
      "type": "function"
    },
    {
      "constant": false,
      "inputs": [
        {
          "name": "tokenId",
          "type": "uint256"
        },
        {
          "name": "experience",
          "type": "int32"
        }
      ],
      "name": "modifyDragonExperience",
      "outputs": [],
      "payable": false,
      "stateMutability": "nonpayable",
      "type": "function"
    },
    {
      "constant": true,
      "inputs": [],
      "name": "auction",
      "outputs": [
        {
          "name": "",
          "type": "address"
        }
      ],
      "payable": false,
      "stateMutability": "view",
      "type": "function"
    },
    {
      "constant": false,
      "inputs": [
        {
          "name": "eggSaleIdx",
          "type": "uint256"
        },
        {
          "name": "enabled",
          "type": "bool"
        }
      ],
      "name": "enableEggSaleContract",
      "outputs": [],
      "payable": false,
      "stateMutability": "nonpayable",
      "type": "function"
    },
    {
      "constant": false,
      "inputs": [],
      "name": "destroy",
      "outputs": [],
      "payable": false,
      "stateMutability": "nonpayable",
      "type": "function"
    },
    {
      "constant": false,
      "inputs": [],
      "name": "pause",
      "outputs": [],
      "payable": false,
      "stateMutability": "nonpayable",
      "type": "function"
    },
    {
      "constant": true,
      "inputs": [
        {
          "name": "tokenId",
          "type": "uint256"
        }
      ],
      "name": "expDragon",
      "outputs": [
        {
          "name": "dna",
          "type": "uint256"
        },
        {
          "name": "experience",
          "type": "uint32"
        },
        {
          "name": "prestige",
          "type": "uint32"
        },
        {
          "name": "fullness",
          "type": "uint16"
        },
        {
          "name": "maxFullness",
          "type": "uint16"
        },
        {
          "name": "name",
          "type": "string"
        }
      ],
      "payable": false,
      "stateMutability": "view",
      "type": "function"
    },
    {
      "constant": true,
      "inputs": [],
      "name": "owner",
      "outputs": [
        {
          "name": "",
          "type": "address"
        }
      ],
      "payable": false,
      "stateMutability": "view",
      "type": "function"
    },
    {
      "constant": false,
      "inputs": [
        {
          "name": "newBridge",
          "type": "address"
        }
      ],
      "name": "setBridge",
      "outputs": [],
      "payable": false,
      "stateMutability": "nonpayable",
      "type": "function"
    },
    {
      "constant": true,
      "inputs": [
        {
          "name": "tokenId",
          "type": "uint256"
        }
      ],
      "name": "isSoulbound",
      "outputs": [
        {
          "name": "",
          "type": "bool"
        }
      ],
      "payable": false,
      "stateMutability": "view",
      "type": "function"
    },
    {
      "constant": true,
      "inputs": [],
      "name": "symbol",
      "outputs": [
        {
          "name": "",
          "type": "string"
        }
      ],
      "payable": false,
      "stateMutability": "view",
      "type": "function"
    },
    {
      "constant": true,
      "inputs": [
        {
          "name": "eggSaleIdx",
          "type": "uint256"
        }
      ],
      "name": "getNumEggs",
      "outputs": [
        {
          "name": "",
          "type": "uint256"
        },
        {
          "name": "",
          "type": "uint256"
        }
      ],
      "payable": false,
      "stateMutability": "view",
      "type": "function"
    },
    {
      "constant": false,
      "inputs": [
        {
          "name": "tokenId",
          "type": "uint256"
        },
        {
          "name": "fullness",
          "type": "int16"
        },
        {
          "name": "maxFullness",
          "type": "int16"
        }
      ],
      "name": "modifyFullness",
      "outputs": [],
      "payable": false,
      "stateMutability": "nonpayable",
      "type": "function"
    },
    {
      "constant": false,
      "inputs": [
        {
          "name": "to",
          "type": "address"
        },
        {
          "name": "approved",
          "type": "bool"
        }
      ],
      "name": "setApprovalForAll",
      "outputs": [],
      "payable": false,
      "stateMutability": "nonpayable",
      "type": "function"
    },
    {
      "constant": false,
      "inputs": [],
      "name": "claimHatchedDragons",
      "outputs": [],
      "payable": false,
      "stateMutability": "nonpayable",
      "type": "function"
    },
    {
      "constant": true,
      "inputs": [],
      "name": "expNumDragons",
      "outputs": [
        {
          "name": "",
          "type": "uint256"
        }
      ],
      "payable": false,
      "stateMutability": "view",
      "type": "function"
    },
    {
      "constant": false,
      "inputs": [
        {
          "name": "_to",
          "type": "address"
        },
        {
          "name": "_tokenId",
          "type": "uint256"
        }
      ],
      "name": "transfer",
      "outputs": [],
      "payable": false,
      "stateMutability": "nonpayable",
      "type": "function"
    },
    {
      "constant": false,
      "inputs": [
        {
          "name": "newWallet",
          "type": "address"
        }
      ],
      "name": "setWalletAddress",
      "outputs": [],
      "payable": false,
      "stateMutability": "nonpayable",
      "type": "function"
    },
    {
      "constant": false,
      "inputs": [
        {
          "name": "_tokenId",
          "type": "uint256"
        }
      ],
      "name": "takeOwnership",
      "outputs": [],
      "payable": false,
      "stateMutability": "nonpayable",
      "type": "function"
    },
    {
      "constant": false,
      "inputs": [
        {
          "name": "tokenId",
          "type": "uint256"
        },
        {
          "name": "name",
          "type": "string"
        }
      ],
      "name": "modifyDragonName",
      "outputs": [],
      "payable": false,
      "stateMutability": "nonpayable",
      "type": "function"
    },
    {
      "constant": false,
      "inputs": [
        {
          "name": "_from",
          "type": "address"
        },
        {
          "name": "_to",
          "type": "address"
        },
        {
          "name": "_tokenId",
          "type": "uint256"
        },
        {
          "name": "_data",
          "type": "bytes"
        }
      ],
      "name": "safeTransferFrom",
      "outputs": [],
      "payable": false,
      "stateMutability": "nonpayable",
      "type": "function"
    },
    {
      "constant": false,
      "inputs": [
        {
          "name": "eggSaleIdx",
          "type": "uint256"
        },
        {
          "name": "eggSaleContract",
          "type": "address"
        },
        {
          "name": "dnaVersion",
          "type": "uint8"
        }
      ],
      "name": "setEggSaleContract",
      "outputs": [],
      "payable": false,
      "stateMutability": "nonpayable",
      "type": "function"
    },
    {
      "constant": false,
      "inputs": [
        {
          "name": "_startPriceNES",
          "type": "uint256"
        },
        {
          "name": "_endPriceNES",
          "type": "uint256"
        },
        {
          "name": "_durrationNES",
          "type": "uint256"
        }
      ],
      "name": "setNSEAuctionValues",
      "outputs": [],
      "payable": false,
      "stateMutability": "nonpayable",
      "type": "function"
    },
    {
      "constant": true,
      "inputs": [
        {
          "name": "tokenId",
          "type": "uint256"
        }
      ],
      "name": "canBeTransferred",
      "outputs": [
        {
          "name": "",
          "type": "bool"
        }
      ],
      "payable": false,
      "stateMutability": "view",
      "type": "function"
    },
    {
      "constant": false,
      "inputs": [
        {
          "name": "modIdx",
          "type": "uint256"
        },
        {
          "name": "contractAddress",
          "type": "address"
        }
      ],
      "name": "setModifierContract",
      "outputs": [],
      "payable": false,
      "stateMutability": "nonpayable",
      "type": "function"
    },
    {
      "constant": false,
      "inputs": [
        {
          "name": "contractAddress",
          "type": "address"
        }
      ],
      "name": "addModifierContract",
      "outputs": [],
      "payable": false,
      "stateMutability": "nonpayable",
      "type": "function"
    },
    {
      "constant": false,
      "inputs": [
        {
          "name": "_layersLimit",
          "type": "uint8[]"
        },
        {
          "name": "_colorLimit",
          "type": "uint8"
        },
        {
          "name": "_originLimit",
          "type": "uint16"
        },
        {
          "name": "_domainLimit",
          "type": "uint8"
        },
        {
          "name": "_powerSourceLimit",
          "type": "uint8"
        }
      ],
      "name": "setDNALimits",
      "outputs": [],
      "payable": false,
      "stateMutability": "nonpayable",
      "type": "function"
    },
    {
      "constant": false,
      "inputs": [
        {
          "name": "receiver",
          "type": "address"
        },
        {
          "name": "_dna",
          "type": "uint256"
        }
      ],
      "name": "createDragonForUser",
      "outputs": [],
      "payable": false,
      "stateMutability": "nonpayable",
      "type": "function"
    },
    {
      "constant": true,
      "inputs": [],
      "name": "getDragonsToClaim",
      "outputs": [
        {
          "name": "",
          "type": "uint256[]"
        }
      ],
      "payable": false,
      "stateMutability": "view",
      "type": "function"
    },
    {
      "constant": false,
      "inputs": [
        {
          "name": "dna",
          "type": "uint256"
        },
        {
          "name": "experience",
          "type": "uint32"
        },
        {
          "name": "prestige",
          "type": "uint32"
        },
        {
          "name": "fullness",
          "type": "uint16"
        },
        {
          "name": "maxFullness",
          "type": "uint16"
        },
        {
          "name": "name",
          "type": "string"
        },
        {
          "name": "owner",
          "type": "address"
        },
        {
          "name": "approvedFor",
          "type": "address"
        }
      ],
      "name": "impDragon",
      "outputs": [],
      "payable": false,
      "stateMutability": "nonpayable",
      "type": "function"
    },
    {
      "constant": true,
      "inputs": [],
      "name": "bridge",
      "outputs": [
        {
          "name": "",
          "type": "address"
        }
      ],
      "payable": false,
      "stateMutability": "view",
      "type": "function"
    },
    {
      "constant": true,
      "inputs": [
        {
          "name": "owner",
          "type": "address"
        },
        {
          "name": "operator",
          "type": "address"
        }
      ],
      "name": "isApprovedForAll",
      "outputs": [
        {
          "name": "",
          "type": "bool"
        }
      ],
      "payable": false,
      "stateMutability": "view",
      "type": "function"
    },
    {
      "constant": false,
      "inputs": [
        {
          "name": "newOwner",
          "type": "address"
        }
      ],
      "name": "transferOwnership",
      "outputs": [],
      "payable": false,
      "stateMutability": "nonpayable",
      "type": "function"
    },
    {
      "constant": false,
      "inputs": [
        {
          "name": "_recipient",
          "type": "address"
        }
      ],
      "name": "destroyAndSend",
      "outputs": [],
      "payable": false,
      "stateMutability": "nonpayable",
      "type": "function"
    },
    {
      "constant": true,
      "inputs": [
        {
          "name": "modIdx",
          "type": "uint256"
        }
      ],
      "name": "getModifierContract",
      "outputs": [
        {
          "name": "",
          "type": "address"
        }
      ],
      "payable": false,
      "stateMutability": "view",
      "type": "function"
    },
    {
      "constant": true,
      "inputs": [],
      "name": "admin",
      "outputs": [
        {
          "name": "",
          "type": "address"
        }
      ],
      "payable": false,
      "stateMutability": "view",
      "type": "function"
    },
    {
      "constant": false,
      "inputs": [
        {
          "name": "_address",
          "type": "address"
        }
      ],
      "name": "setScarcityAddress",
      "outputs": [],
      "payable": false,
      "stateMutability": "nonpayable",
      "type": "function"
    },
    {
      "constant": false,
      "inputs": [
        {
          "name": "tokenId",
          "type": "uint256"
        },
        {
          "name": "prestige",
          "type": "int32"
        }
      ],
      "name": "modifyDragonPrestige",
      "outputs": [],
      "payable": false,
      "stateMutability": "nonpayable",
      "type": "function"
    },
    {
      "inputs": [],
      "payable": false,
      "stateMutability": "nonpayable",
      "type": "constructor"
    },
    {
      "payable": true,
      "stateMutability": "payable",
      "type": "fallback"
    },
    {
      "anonymous": false,
      "inputs": [
        {
          "indexed": false,
          "name": "tokenId",
          "type": "uint256"
        },
        {
          "indexed": false,
          "name": "newState",
          "type": "uint32"
        }
      ],
      "name": "StateChanged",
      "type": "event"
    },
    {
      "anonymous": false,
      "inputs": [
        {
          "indexed": false,
          "name": "tokenId",
          "type": "uint256"
        }
      ],
      "name": "PropertiesChanged",
      "type": "event"
    },
    {
      "anonymous": false,
      "inputs": [],
      "name": "CreationFailed",
      "type": "event"
    },
    {
      "anonymous": false,
      "inputs": [],
      "name": "DuplicatedDNA",
      "type": "event"
    },
    {
      "anonymous": false,
      "inputs": [
        {
          "indexed": false,
          "name": "tokenId",
          "type": "uint256"
        },
        {
          "indexed": false,
          "name": "startingPrice",
          "type": "uint256"
        },
        {
          "indexed": false,
          "name": "endingPrice",
          "type": "uint256"
        },
        {
          "indexed": false,
          "name": "duration",
          "type": "uint256"
        }
      ],
      "name": "AuctionCreated",
      "type": "event"
    },
    {
      "anonymous": false,
      "inputs": [
        {
          "indexed": true,
          "name": "_owner",
          "type": "address"
        },
        {
          "indexed": true,
          "name": "_approved",
          "type": "address"
        },
        {
          "indexed": true,
          "name": "_tokenId",
          "type": "uint256"
        }
      ],
      "name": "Approval",
      "type": "event"
    },
    {
      "anonymous": false,
      "inputs": [
        {
          "indexed": true,
          "name": "_from",
          "type": "address"
        },
        {
          "indexed": true,
          "name": "_to",
          "type": "address"
        },
        {
          "indexed": true,
          "name": "_tokenId",
          "type": "uint256"
        }
      ],
      "name": "Transfer",
      "type": "event"
    },
    {
      "anonymous": false,
      "inputs": [
        {
          "indexed": true,
          "name": "owner",
          "type": "address"
        },
        {
          "indexed": true,
          "name": "operator",
          "type": "address"
        },
        {
          "indexed": false,
          "name": "approved",
          "type": "bool"
        }
      ],
      "name": "ApprovalForAll",
      "type": "event"
    },
    {
      "anonymous": false,
      "inputs": [
        {
          "indexed": false,
          "name": "id",
          "type": "uint256"
        },
        {
          "indexed": false,
          "name": "dna",
          "type": "uint256"
        }
      ],
      "name": "Create",
      "type": "event"
    },
    {
      "anonymous": false,
      "inputs": [
        {
          "indexed": true,
          "name": "previousBridge",
          "type": "address"
        },
        {
          "indexed": true,
          "name": "newBridge",
          "type": "address"
        }
      ],
      "name": "BridgeChanged",
      "type": "event"
    },
    {
      "anonymous": false,
      "inputs": [
        {
          "indexed": true,
          "name": "previousAdmin",
          "type": "address"
        },
        {
          "indexed": true,
          "name": "newAdmin",
          "type": "address"
        }
      ],
      "name": "AdminChanged",
      "type": "event"
    },
    {
      "anonymous": false,
      "inputs": [],
      "name": "Pause",
      "type": "event"
    },
    {
      "anonymous": false,
      "inputs": [],
      "name": "Unpause",
      "type": "event"
    },
    {
      "anonymous": false,
      "inputs": [
        {
          "indexed": true,
          "name": "previousOwner",
          "type": "address"
        }
      ],
      "name": "OwnershipRenounced",
      "type": "event"
    },
    {
      "anonymous": false,
      "inputs": [
        {
          "indexed": true,
          "name": "previousOwner",
          "type": "address"
        },
        {
          "indexed": true,
          "name": "newOwner",
          "type": "address"
        }
      ],
      "name": "OwnershipTransferred",
      "type": "event"
    },
    {
      "constant": true,
      "inputs": [
        {
          "name": "_tokenId",
          "type": "uint256"
        }
      ],
      "name": "getDragon",
      "outputs": [
        {
          "name": "dna",
          "type": "uint256"
        },
        {
          "name": "prestige",
          "type": "uint32"
        },
        {
          "name": "experience",
          "type": "uint32"
        },
        {
          "name": "fullness",
          "type": "uint16"
        },
        {
          "name": "maxFullness",
          "type": "uint16"
        },
        {
          "name": "name",
          "type": "string"
        }
      ],
      "payable": false,
      "stateMutability": "view",
      "type": "function"
    },
    {
      "constant": true,
      "inputs": [
        {
          "name": "_owner",
          "type": "address"
        },
        {
          "name": "_index",
          "type": "uint256"
        }
      ],
      "name": "getTokenIdForUser",
      "outputs": [
        {
          "name": "tokenId",
          "type": "uint256"
        }
      ],
      "payable": false,
      "stateMutability": "view",
      "type": "function"
    },
    {
      "constant": false,
      "inputs": [
        {
          "name": "tokenId",
          "type": "uint256"
        },
        {
          "name": "state",
          "type": "uint32"
        }
      ],
      "name": "setDragonState",
      "outputs": [],
      "payable": false,
      "stateMutability": "nonpayable",
      "type": "function"
    },
    {
      "constant": true,
      "inputs": [
        {
          "name": "tokenId",
          "type": "uint256"
        }
      ],
      "name": "getDragonState",
      "outputs": [
        {
          "name": "",
          "type": "uint32"
        }
      ],
      "payable": false,
      "stateMutability": "view",
      "type": "function"
    }
  ],
  "bytecode": "0x6000805460a060020a60ff02191690556008805467ffffffffffffffff191667ffffffffffffff0017905560c0604052600b60808190527f45766572447261676f6e7300000000000000000000000000000000000000000060a09081526200006b91600a919062000473565b506040805180820190915260028082527f45440000000000000000000000000000000000000000000000000000000000006020909201918252620000b291600b9162000473565b506011805460a060020a60ff021916740100000000000000000000000000000000000000001790556040805161010081018252601780825260208201819052918101829052606081018290526080810182905260a0810182905260c0810191909152600a60e08201526200012b906012906008620004f8565b50600a601360006101000a81548160ff021916908360ff1602179055506064601360016101000a81548161ffff021916908361ffff1602179055506004601360036101000a81548160ff021916908360ff1602179055506020601360046101000a81548160ff021916908360ff1602179055506008601360056101000a81548160ff021916908360ff1602179055506048601360066101000a81548160ff021916908360ff1602179055506050601360076101000a81548160ff021916908360ff1602179055506060601360086101000a81548160ff021916908360ff1602179055506068601360096101000a81548160ff021916908360ff1602179055506706f05b59d3b2000060145567016345785d8a00006015556202a3006016553480156200025657600080fd5b5062000261620005a1565b60008054600160a060020a03191633179055620002a77f01ffc9a70000000000000000000000000000000000000000000000000000000064010000000062000406810204565b506040805160c081018252600080825260208083018281528385018381526060850184815260808601858152875180860190985285885260a0870197885260048054600181018083559190975287517f8a35acfbc15ff81a39ae7d344fd709f28e8600b4aa8c65c6b64bfe7fe36bd19b600390980297880190815594517f8a35acfbc15ff81a39ae7d344fd709f28e8600b4aa8c65c6b64bfe7fe36bd19c8801805495519451935163ffffffff1990961663ffffffff9283161767ffffffff000000001916640100000000929095169190910293909317604060020a61ffff0219166801000000000000000061ffff9384160217605060020a61ffff0219166a010000000000000000000092909416919091029290921790559451805194959486949293620003fb937f8a35acfbc15ff81a39ae7d344fd709f28e8600b4aa8c65c6b64bfe7fe36bd19d0192019062000473565b505050505062000619565b7fffffffff0000000000000000000000000000000000000000000000000000000080821614156200043657600080fd5b7fffffffff00000000000000000000000000000000000000000000000000000000166000908152600960205260409020805460ff19166001179055565b828054600181600116156101000203166002900490600052602060002090601f016020900481019282601f10620004b657805160ff1916838001178555620004e6565b82800160010185558215620004e6579182015b82811115620004e6578251825591602001919060010190620004c9565b50620004f4929150620005d8565b5090565b82805482825590600052602060002090601f01602090048101928215620005935791602002820160005b838211156200056257835183826101000a81548160ff021916908360ff160217905550926020019260010160208160000104928301926001030262000522565b8015620005915782816101000a81549060ff021916905560010160208160000104928301926001030262000562565b505b50620004f4929150620005f8565b6040805160c0810182526000808252602082018190529181018290526060808201839052608082019290925260a081019190915290565b620005f591905b80821115620004f45760008155600101620005df565b90565b620005f591905b80821115620004f457805460ff19168155600101620005ff565b615b0580620006296000396000f3006080604052600436106103815763ffffffff60e060020a60003504166301ffc9a7811461038357806304d2dec6146103ce57806306fdde03146103ff578063081812fc14610489578063095ea7b3146104a15780631051db34146104c557806318160ddd146104da57806320062f8f1461050157806323b872dd146105165780632434bc2c1461054057806325da15ab146105675780632a6dd48f146105a55780632e0d7cbc146105bd5780632f605aae146105d25780632f745c59146105f95780632fcb8c581461061d57806331a06c96146106385780633c4ac13e146106505780633edf37da146106655780633f4ba83a1461068057806342842e0e14610695578063431f21da146106bf578063446a595e146106e0578063477a63e61461071d5780634f558e791461073a57806352799bf4146107525780635771ef901461076a5780635c975abb146107965780636352211e146107ab57806363ba17ce146107c357806363bd1d4a146107d85780636f9c858f146107ed5780636fbde40d14610805578063704b6c021461082657806370a0823114610847578063715018a614610868578063753141721461087d57806375d81c991461089257806378b71255146108ad5780637d9f6db5146108cb57806381be921c146108e057806383197ef0146108fd5780638456cb59146109125780638bffd7c3146109275780638da5cb5b14610a025780638dd1480214610a17578063911ec47014610a3857806395d89b4114610a5057806398b86e1214610a65578063a071700b14610a7d578063a22cb46514610aa3578063a2ebd24414610ac9578063a3ffae9114610ade578063a9059cbb14610af3578063ac1a386a14610b17578063acf8128614610b38578063b2e6ceeb14610b69578063b44546b114610b81578063b654cb6114610ba5578063b88d4fde14610bc6578063c2eed8cf14610c35578063c7b9ffb714610c5f578063c89999d014610c7d578063cd1287c914610c95578063ce73312014610cb9578063d19d031314610cdd578063d38d246e14610cfe578063d45ca48a14610d3a578063d9af5e5314610d5e578063e0bb933b14610dc3578063e345536314610ddb578063e78cea9214610e33578063e985e9c514610e48578063f2fde38b14610e6f578063f5074f4114610e90578063f62156ac14610eb1578063f851a44014610ec9578063fa803c5214610ede578063fab76fe414610eff575b005b34801561038f57600080fd5b506103ba7bffffffffffffffffffffffffffffffffffffffffffffffffffffffff1960043516610f1d565b604080519115158252519081900360200190f35b3480156103da57600080fd5b506103e3610f51565b60408051600160a060020a039092168252519081900360200190f35b34801561040b57600080fd5b50610414610fcc565b6040805160208082528351818301528351919283929083019185019080838360005b8381101561044e578181015183820152602001610436565b50505050905090810190601f16801561047b5780820380516001836020036101000a031916815260200191505b509250505060405180910390f35b34801561049557600080fd5b506103e360043561105a565b3480156104ad57600080fd5b50610381600160a060020a036004351660243561106b565b3480156104d157600080fd5b506103ba611274565b3480156104e657600080fd5b506104ef611279565b60408051918252519081900360200190f35b34801561050d57600080fd5b506104ef61127f565b34801561052257600080fd5b50610381600160a060020a0360043581169060243516604435611292565b34801561054c57600080fd5b50610381600160a060020a036004351660ff60243516611494565b34801561057357600080fd5b5061057f6004356115a6565b60408051600160a060020a03938416815291909216602082015281519081900390910190f35b3480156105b157600080fd5b506103e3600435611627565b3480156105c957600080fd5b506103e3611659565b3480156105de57600080fd5b50610381600160a060020a036004351660243560010b611676565b34801561060557600080fd5b506104ef600160a060020a03600435166024356116d0565b34801561062957600080fd5b5061038160043560243561171d565b34801561064457600080fd5b506103816004356117e5565b34801561065c57600080fd5b506104ef611875565b34801561067157600080fd5b506103816004356024356118fb565b34801561068c57600080fd5b50610381611a8d565b3480156106a157600080fd5b50610381600160a060020a0360043581169060243516604435611b2e565b3480156106cb57600080fd5b50610381600435602435604435606435611b4a565b3480156106ec57600080fd5b50610704600160a060020a0360043516602435611d27565b6040805192835260208301919091528051918290030190f35b34801561072957600080fd5b506103816004356024351515611e4d565b34801561074657600080fd5b506103ba600435611ed9565b34801561075e57600080fd5b506104ef600435611ef6565b34801561077657600080fd5b50610381600160a060020a03600435166024356044351515606435611f23565b3480156107a257600080fd5b506103ba612041565b3480156107b757600080fd5b506103e3600435612051565b3480156107cf57600080fd5b506103816120c0565b3480156107e457600080fd5b5061038161211a565b3480156107f957600080fd5b506103e36004356121be565b34801561081157600080fd5b50610381600160a060020a036004351661223d565b34801561083257600080fd5b50610381600160a060020a0360043516612374565b34801561085357600080fd5b506104ef600160a060020a0360043516612435565b34801561087457600080fd5b506103816124b3565b34801561088957600080fd5b5061038161254b565b34801561089e57600080fd5b5061038160ff60043516612579565b3480156108b957600080fd5b5061038160043560243560030b6125ec565b3480156108d757600080fd5b506103e3612893565b3480156108ec57600080fd5b5061038160043560243515156128a2565b34801561090957600080fd5b5061038161292e565b34801561091e57600080fd5b5061038161298c565b34801561093357600080fd5b5061093f600435612a32565b604051808781526020018663ffffffff1663ffffffff1681526020018563ffffffff1663ffffffff1681526020018461ffff1661ffff1681526020018361ffff1661ffff16815260200180602001828103825283818151815260200191508051906020019080838360005b838110156109c25781810151838201526020016109aa565b50505050905090810190601f1680156109ef5780820380516001836020036101000a031916815260200191505b5097505050505050505060405180910390f35b348015610a0e57600080fd5b506103e3612b9d565b348015610a2357600080fd5b50610381600160a060020a0360043516612bac565b348015610a4457600080fd5b506103ba600435612cb8565b348015610a5c57600080fd5b50610414612d1a565b348015610a7157600080fd5b50610704600435612d75565b348015610a8957600080fd5b50610381600435602435600190810b90604435900b612e49565b348015610aaf57600080fd5b50610381600160a060020a03600435166024351515613334565b348015610ad557600080fd5b506103816133b8565b348015610aea57600080fd5b506104ef6133d0565b348015610aff57600080fd5b50610381600160a060020a0360043516602435613428565b348015610b2357600080fd5b50610381600160a060020a03600435166134b3565b348015610b4457600080fd5b50610b5060043561353a565b6040805163ffffffff9092168252519081900360200190f35b348015610b7557600080fd5b50610381600435613552565b348015610b8d57600080fd5b5061038160048035906024803590810191013561357c565b348015610bb157600080fd5b5061038160043563ffffffff60243516613716565b348015610bd257600080fd5b50604080516020601f60643560048181013592830184900484028501840190955281845261038194600160a060020a0381358116956024803590921695604435953695608494019181908401838280828437509497506138bc9650505050505050565b348015610c4157600080fd5b50610381600435600160a060020a036024351660ff604435166138e4565b348015610c6b57600080fd5b506103816004356024356044356139d5565b348015610c8957600080fd5b506103ba600435613a4a565b348015610ca157600080fd5b50610381600435600160a060020a0360243516613a74565b348015610cc557600080fd5b506104ef600160a060020a0360043516602435613b3c565b348015610ce957600080fd5b50610381600160a060020a0360043516613b4f565b348015610d0a57600080fd5b50610381602460048035828101929101359060ff903581169061ffff604435169060643581169060843516613c21565b348015610d4657600080fd5b50610381600160a060020a0360043516602435613cd8565b348015610d6a57600080fd5b50610d73613e29565b60408051602080825283518183015283519192839290830191858101910280838360005b83811015610daf578181015183820152602001610d97565b505050509050019250505060405180910390f35b348015610dcf57600080fd5b5061093f600435613e8a565b348015610de757600080fd5b50610381600480359063ffffffff602480358216926044359092169161ffff6064358116926084359091169160a435918201910135600160a060020a0360c43581169060e43516613f5b565b348015610e3f57600080fd5b506103e36142a9565b348015610e5457600080fd5b506103ba600160a060020a03600435811690602435166142b8565b348015610e7b57600080fd5b50610381600160a060020a03600435166142e6565b348015610e9c57600080fd5b50610381600160a060020a03600435166143f1565b348015610ebd57600080fd5b506103e360043561444d565b348015610ed557600080fd5b506103e36144c7565b348015610eea57600080fd5b50610381600160a060020a03600435166144d6565b348015610f0b57600080fd5b5061038160043560243560030b61456e565b7bffffffffffffffffffffffffffffffffffffffffffffffffffffffff191660009081526009602052604090205460ff1690565b600154600090600160a060020a0316331480610f775750600054600160a060020a031633145b1515610fbb576040805160e560020a62461bcd02815260206004820152601a6024820152600080516020615a9a833981519152604482015290519081900360640190fd5b50600254600160a060020a03165b90565b600a805460408051602060026001851615610100026000190190941693909304601f810184900484028201840190925281815292918301828280156110525780601f1061102757610100808354040283529160200191611052565b820191906000526020600020905b81548152906001019060200180831161103557829003601f168201915b505050505081565b600061106582611627565b92915050565b6000805460a060020a900460ff161561108357600080fd5b61108c82612051565b9050600160a060020a0383811690821614156110f2576040805160e560020a62461bcd02815260206004820152601660248201527f646f6e277420617070726f766520796f757273656c6600000000000000000000604482015290519081900360640190fd5b6110fb82613a4a565b1515611151576040805160e560020a62461bcd02815260206004820152601b60248201527f647261676f6e2063616e2774206265207472616e736665727265640000000000604482015290519081900360640190fd5b33600160a060020a038216148061116d575061116d81336142b8565b15156111e9576040805160e560020a62461bcd02815260206004820152602260248201527f6f6e6c79206f776e6572206f72206f70657261746f722063616e20617070726f60448201527f7665000000000000000000000000000000000000000000000000000000000000606482015290519081900360840190fd5b60006111f483611627565b600160a060020a03161415806112125750600160a060020a03831615155b1561126f576000828152600d60205260408082208054600160a060020a031916600160a060020a0387811691821790925591518593918516917f8c5be1e5ebec7d5bd14f71427d1e84f3dd0314c0f7b2291e5b200ac8c7c3b92591a45b505050565b600190565b60045490565b3360009081526018602052604090205490565b60005460a060020a900460ff16156112a957600080fd5b600160a060020a0383161515611309576040805160e560020a62461bcd02815260206004820152601260248201527f66726f6d206d7573742062652076616c69640000000000000000000000000000604482015290519081900360640190fd5b600160a060020a0382161515611369576040805160e560020a62461bcd02815260206004820152601060248201527f746f206d7573742062652076616c696400000000000000000000000000000000604482015290519081900360640190fd5b600160a060020a0382163014156113ca576040805160e560020a62461bcd02815260206004820152601b60248201527f646f6e2774207472616e736665727420746f20636f6e74726163740000000000604482015290519081900360640190fd5b6113d381613a4a565b1515611429576040805160e560020a62461bcd02815260206004820152601b60248201527f647261676f6e2063616e2774206265207472616e736665727265640000000000604482015290519081900360640190fd5b611433338261482b565b1515611489576040805160e560020a62461bcd02815260206004820152601060248201527f6d75737420626520617070726f76656400000000000000000000000000000000604482015290519081900360640190fd5b61126f83838361488a565b600054600160a060020a031633146114e4576040805160e560020a62461bcd02815260206004820152601160248201526000805160206159fa833981519152604482015290519081900360640190fd5b60408051606081018252600160a060020a03938416815260ff928316602082019081526001928201838152601780549485018155600052915160039093027fc624b66cc0138b8fabc209247f72d758e1cf3343756d543badbf24212bed8c158101805494909616600160a060020a03199094169390931790945592517fc624b66cc0138b8fabc209247f72d758e1cf3343756d543badbf24212bed8c179091018054935115156101000261ff00199290931660ff199094169390931716179055565b600080548190600160a060020a031633146115f9576040805160e560020a62461bcd02815260206004820152601160248201526000805160206159fa833981519152604482015290519081900360640190fd5b50506000908152600c6020908152604080832054600d90925290912054600160a060020a0391821692911690565b600061163282611ed9565b151561163d57600080fd5b506000908152600d6020526040902054600160a060020a031690565b6013546a01000000000000000000009004600160a060020a031681565b600154600160a060020a031633146116c6576040805160e560020a62461bcd02815260206004820152601160248201526000805160206159ba833981519152604482015290519081900360640190fd5b61126f82826148ee565b60006116db83612435565b82106116e657600080fd5b600160a060020a0383166000908152600e6020526040902080548390811061170a57fe5b9060005260206000200154905092915050565b60175481908110611766576040805160e560020a62461bcd0281526020600482015260176024820152600080516020615a7a833981519152604482015290519081900360640190fd5b601780548290811061177457fe5b600091825260209091206002600390920201015460ff6101009091041615156001146117d8576040805160e560020a62461bcd0281526020600482015260146024820152600080516020615a1a833981519152604482015290519081900360640190fd5b61126f338460008561490c565b600154600160a060020a03163314806118085750600054600160a060020a031633145b151561184c576040805160e560020a62461bcd02815260206004820152601a6024820152600080516020615a9a833981519152604482015290519081900360640190fd5b6008541667ffffffffffffffff166000908152600760205260409020805460ff19166001179055565b60006013600a9054906101000a9004600160a060020a0316600160a060020a0316634d19d5156040518163ffffffff1660e060020a028152600401602060405180830381600087803b1580156118ca57600080fd5b505af11580156118de573d6000803e3d6000fd5b505050506040513d60208110156118f457600080fd5b5051905090565b6019546000908110611945576040805160e560020a62461bcd02815260206004820152600b6024820152600080516020615a5a833981519152604482015290519081900360640190fd5b5060005b60195481101561198c57601980543391908390811061196457fe5b600091825260209091200154600160a060020a031614156119845761198c565b600101611949565b60195481106119d3576040805160e560020a62461bcd02815260206004820152600f6024820152600080516020615a3a833981519152604482015290519081900360640190fd5b60198054829081106119e157fe5b60009182526020909120015460a060020a900460ff161515600114611a3e576040805160e560020a62461bcd02815260206004820152600f60248201526000805160206159da833981519152604482015290519081900360640190fd5b81600484815481101515611a4e57fe5b906000526020600020906003020160000181905550600080516020615aba833981519152836040518082815260200191505060405180910390a1505050565b600054600160a060020a03163314611add576040805160e560020a62461bcd02815260206004820152601160248201526000805160206159fa833981519152604482015290519081900360640190fd5b60005460a060020a900460ff161515611af557600080fd5b6000805460a060020a60ff02191681556040517f7805862f689e2f13df9f062ff482ad3ad112aca9e0847911ed832e158c525b339190a1565b61126f83838360206040519081016040528060008152506138bc565b8333611b5582612051565b600160a060020a031614611bb3576040805160e560020a62461bcd02815260206004820152601560248201527f73656e646572206d757374206f776e20746f6b656e0000000000000000000000604482015290519081900360640190fd5b60005460a060020a900460ff1615611bca57600080fd5b611bd385613a4a565b1515611c29576040805160e560020a62461bcd02815260206004820152601a60248201527f746f6b656e2063616e2774206265207472616e73666572726564000000000000604482015290519081900360640190fd5b601154611c3f90600160a060020a03168661106b565b601154604080517f27ebe40a000000000000000000000000000000000000000000000000000000008152600481018890526024810187905260448101869052606481018590523360848201529051600160a060020a03909216916327ebe40a9160a48082019260009290919082900301818387803b158015611cc057600080fd5b505af1158015611cd4573d6000803e3d6000fd5b505060408051888152602081018890528082018790526060810186905290517fa9c8dfcda5664a5a124c713e386da27de87432d5b668e79458501eb296389ba79350908190036080019150a15050505050565b6001546000908190600160a060020a03163314611d7c576040805160e560020a62461bcd02815260206004820152601160248201526000805160206159ba833981519152604482015290519081900360640190fd5b60175483908110611dc5576040805160e560020a62461bcd0281526020600482015260176024820152600080516020615a7a833981519152604482015290519081900360640190fd5b6017805482908110611dd357fe5b600091825260209091206002600390920201015460ff610100909104161515600114611e37576040805160e560020a62461bcd0281526020600482015260146024820152600080516020615a1a833981519152604482015290519081900360640190fd5b611e418585614a84565b92509250509250929050565b600054600160a060020a03163314611e9d576040805160e560020a62461bcd02815260206004820152601160248201526000805160206159fa833981519152604482015290519081900360640190fd5b80601983815481101515611ead57fe5b6000918252602090912001805491151560a060020a0260a060020a60ff02199092169190911790555050565b6000908152600c6020526040902054600160a060020a0316151590565b336000908152601860205260408120805483908110611f1157fe5b90600052602060002001549050919050565b600154600160a060020a03163314611f73576040805160e560020a62461bcd02815260206004820152601160248201526000805160206159ba833981519152604482015290519081900360640190fd5b60175481908110611fbc576040805160e560020a62461bcd0281526020600482015260176024820152600080516020615a7a833981519152604482015290519081900360640190fd5b6017805482908110611fca57fe5b600091825260209091206002600390920201015460ff61010090910416151560011461202e576040805160e560020a62461bcd0281526020600482015260146024820152600080516020615a1a833981519152604482015290519081900360640190fd5b61203a8585858561490c565b5050505050565b60005460a060020a900460ff1681565b6000818152600c6020526040812054600160a060020a0316801515611065576040805160e560020a62461bcd02815260206004820152600d60248201527f6e6f206f776e6572206164647200000000000000000000000000000000000000604482015290519081900360640190fd5b600154600160a060020a03163314612110576040805160e560020a62461bcd02815260206004820152601160248201526000805160206159ba833981519152604482015290519081900360640190fd5b612118614b89565b565b600154600160a060020a031633148061213d5750600054600160a060020a031633145b1515612181576040805160e560020a62461bcd02815260206004820152601a6024820152600080516020615a9a833981519152604482015290519081900360640190fd5b600254604051600160a060020a0390911690303180156108fc02916000818181858888f193505050501580156121bb573d6000803e3d6000fd5b50565b60008054600160a060020a0316331461220f576040805160e560020a62461bcd02815260206004820152601160248201526000805160206159fa833981519152604482015290519081900360640190fd5b601780548390811061221d57fe5b6000918252602090912060039091020154600160a060020a031692915050565b60008054600160a060020a0316331461228e576040805160e560020a62461bcd02815260206004820152601160248201526000805160206159fa833981519152604482015290519081900360640190fd5b81905080600160a060020a031663d76489496040518163ffffffff1660e060020a028152600401602060405180830381600087803b1580156122cf57600080fd5b505af11580156122e3573d6000803e3d6000fd5b505050506040513d60208110156122f957600080fd5b50511515612351576040805160e560020a62461bcd02815260206004820181905260248201527f63616e646964617465206d757374206265204552433732312061756374696f6e604482015290519081900360640190fd5b60118054600160a060020a031916600160a060020a039290921691909117905550565b600054600160a060020a031633146123c4576040805160e560020a62461bcd02815260206004820152601160248201526000805160206159fa833981519152604482015290519081900360640190fd5b600160a060020a03811615156123d957600080fd5b600154604051600160a060020a038084169216907f7e644d79422f17c01e4894b5f4f588d331ebfa28653d42ae832dc59e38c9798f90600090a360018054600160a060020a031916600160a060020a0392909216919091179055565b6000600160a060020a0382161515612497576040805160e560020a62461bcd02815260206004820152600d60248201527f6e6f206f776e6572206164647200000000000000000000000000000000000000604482015290519081900360640190fd5b50600160a060020a03166000908152600e602052604090205490565b600054600160a060020a03163314612503576040805160e560020a62461bcd02815260206004820152601160248201526000805160206159fa833981519152604482015290519081900360640190fd5b60008054604051600160a060020a03909116917ff8df31144d9c2f0f6b59d69b8b98abd5459d07f2742c4df920b25aae33c6482091a260008054600160a060020a0319169055565b600080612556611875565b9150600090505b818110156125755761256d614b89565b60010161255d565b5050565b600054600160a060020a031633146125c9576040805160e560020a62461bcd02815260206004820152601160248201526000805160206159fa833981519152604482015290519081900360640190fd5b6011805460ff90921660a060020a0260a060020a60ff0219909216919091179055565b6019546000908110612636576040805160e560020a62461bcd02815260206004820152600b6024820152600080516020615a5a833981519152604482015290519081900360640190fd5b5060005b60195481101561267d57601980543391908390811061265557fe5b600091825260209091200154600160a060020a031614156126755761267d565b60010161263a565b60195481106126c4576040805160e560020a62461bcd02815260206004820152600f6024820152600080516020615a3a833981519152604482015290519081900360640190fd5b60198054829081106126d257fe5b60009182526020909120015460a060020a900460ff16151560011461272f576040805160e560020a62461bcd02815260206004820152600f60248201526000805160206159da833981519152604482015290519081900360640190fd5b60008260030b121561282c578160030b60048481548110151561274e57fe5b600091825260209091206003918202016001015463ffffffff16900b13156127e6578160048481548110151561278057fe5b906000526020600020906003020160010160009054906101000a900463ffffffff16016004848154811015156127b257fe5b906000526020600020906003020160010160006101000a81548163ffffffff021916908363ffffffff160217905550612827565b60006004848154811015156127f757fe5b906000526020600020906003020160010160006101000a81548163ffffffff021916908363ffffffff1602179055505b61286d565b8160048481548110151561283c57fe5b60009182526020909120600390910201600101805463ffffffff19811663ffffffff91821693909301169190911790555b604080518481529051600080516020615aba8339815191529181900360200190a1505050565b601154600160a060020a031681565b600054600160a060020a031633146128f2576040805160e560020a62461bcd02815260206004820152601160248201526000805160206159fa833981519152604482015290519081900360640190fd5b8060178381548110151561290257fe5b906000526020600020906003020160020160016101000a81548160ff0219169083151502179055505050565b600054600160a060020a0316331461297e576040805160e560020a62461bcd02815260206004820152601160248201526000805160206159fa833981519152604482015290519081900360640190fd5b600054600160a060020a0316ff5b600054600160a060020a031633146129dc576040805160e560020a62461bcd02815260206004820152601160248201526000805160206159fa833981519152604482015290519081900360640190fd5b60005460a060020a900460ff16156129f357600080fd5b6000805460a060020a60ff02191660a060020a1781556040517f6985a02210a168e66602d3235cb6db0e70f92b3ba4d376a33c0f3d9434bff6259190a1565b6000805481908190819081906060908290600160a060020a03163314612a90576040805160e560020a62461bcd02815260206004820152601160248201526000805160206159fa833981519152604482015290519081900360640190fd5b6004805489908110612a9e57fe5b600091825260209182902060039091020180546001808301546002808501805460408051601f60001997841615610100029790970190921693909304948501889004880281018801909252838252949650929463ffffffff8083169564010000000084049091169461ffff6801000000000000000085048116956a01000000000000000000009095041693919290918391830182828015612b805780601f10612b5557610100808354040283529160200191612b80565b820191906000526020600020905b815481529060010190602001808311612b6357829003601f168201915b505050505090509650965096509650965096505091939550919395565b600054600160a060020a031681565b600054600160a060020a03163314612bfc576040805160e560020a62461bcd02815260206004820152601160248201526000805160206159fa833981519152604482015290519081900360640190fd5b600160a060020a0381161515612c5c576040805160e560020a62461bcd02815260206004820152601660248201527f70726f7669646520616e20627269646765206164647200000000000000000000604482015290519081900360640190fd5b600354604051600160a060020a038084169216907fd565484d693f5157abcceb853139678038bc740991b0a4dc3baa2426325bb3c090600090a360038054600160a060020a031916600160a060020a0392909216919091179055565b6000600482815481101515612cc957fe5b90600052602060002090600302016000015460ff1660021480156110655750600a600483815481101515612cf957fe5b600091825260209091206003909102016001015463ffffffff161092915050565b600b805460408051602060026001851615610100026000190190941693909304601f810184900484028201840190925281815292918301828280156110525780601f1061102757610100808354040283529160200191611052565b601754600090819083908110612dc3576040805160e560020a62461bcd0281526020600482015260176024820152600080516020615a7a833981519152604482015290519081900360640190fd5b6017805482908110612dd157fe5b600091825260209091206002600390920201015460ff610100909104161515600114612e35576040805160e560020a62461bcd0281526020600482015260146024820152600080516020615a1a833981519152604482015290519081900360640190fd5b612e3f3385614a84565b9250925050915091565b6019546000908110612e93576040805160e560020a62461bcd02815260206004820152600b6024820152600080516020615a5a833981519152604482015290519081900360640190fd5b5060005b601954811015612eda576019805433919083908110612eb257fe5b600091825260209091200154600160a060020a03161415612ed257612eda565b600101612e97565b6019548110612f21576040805160e560020a62461bcd02815260206004820152600f6024820152600080516020615a3a833981519152604482015290519081900360640190fd5b6019805482908110612f2f57fe5b60009182526020909120015460a060020a900460ff161515600114612f8c576040805160e560020a62461bcd02815260206004820152600f60248201526000805160206159da833981519152604482015290519081900360640190fd5b60008360010b1215613086578260010b600485815481101515612fab57fe5b906000526020600020906003020160010160089054906101000a900461ffff1660010b13156130445782600485815481101515612fe457fe5b906000526020600020906003020160010160089054906101000a900461ffff160160048581548110151561301457fe5b906000526020600020906003020160010160086101000a81548161ffff021916908361ffff160217905550613081565b600060048581548110151561305557fe5b906000526020600020906003020160010160086101000a81548161ffff021916908361ffff1602179055505b6130da565b8260048581548110151561309657fe5b60009182526020909120600160039092020101805461ffff6801000000000000000080830482169094011690920269ffff0000000000000000199092169190911790555b60008260010b12156131d4578160010b6004858154811015156130f957fe5b9060005260206000209060030201600101600a9054906101000a900461ffff1660010b1315613192578160048581548110151561313257fe5b9060005260206000209060030201600101600a9054906101000a900461ffff160160048581548110151561316257fe5b9060005260206000209060030201600101600a6101000a81548161ffff021916908361ffff1602179055506131cf565b60006004858154811015156131a357fe5b9060005260206000209060030201600101600a6101000a81548161ffff021916908361ffff1602179055505b61322c565b816004858154811015156131e457fe5b60009182526020909120600160039092020101805461ffff6a01000000000000000000008083048216909401169092026bffff00000000000000000000199092169190911790555b600480548590811061323a57fe5b9060005260206000209060030201600101600a9054906101000a900461ffff1661ffff1660048581548110151561326d57fe5b600091825260209091206003909102016001015468010000000000000000900461ffff16111561330d576040805160e560020a62461bcd02815260206004820152602760248201527f66756c6c6e657373206d757374206265206c6f776572207468616e206d61784660448201527f756c6c6e65737300000000000000000000000000000000000000000000000000606482015290519081900360840190fd5b604080518581529051600080516020615aba8339815191529181900360200190a150505050565b600160a060020a03821633141561334a57600080fd5b336000818152601060209081526040808320600160a060020a03871680855290835292819020805460ff1916861515908117909155815190815290519293927f17307eab39ab6107e8899845ad3d59bd9653f200f220920489ca2b5937696c31929181900390910190a35050565b3360009081526018602052604081206121189161577b565b60008054600160a060020a03163314613421576040805160e560020a62461bcd02815260206004820152601160248201526000805160206159fa833981519152604482015290519081900360640190fd5b5060045490565b803361343382612051565b600160a060020a031614613491576040805160e560020a62461bcd02815260206004820152601560248201527f73656e646572206d757374206f776e20746f6b656e0000000000000000000000604482015290519081900360640190fd5b60005460a060020a900460ff16156134a857600080fd5b61126f338484611292565b600054600160a060020a03163314613503576040805160e560020a62461bcd02815260206004820152601160248201526000805160206159fa833981519152604482015290519081900360640190fd5b600160a060020a038116151561351857600080fd5b60028054600160a060020a031916600160a060020a0392909216919091179055565b60009081526006602052604090205463ffffffff1690565b60005460a060020a900460ff161561356957600080fd5b6121bb61357582612051565b3383611292565b60195460009081106135c6576040805160e560020a62461bcd02815260206004820152600b6024820152600080516020615a5a833981519152604482015290519081900360640190fd5b5060005b60195481101561360d5760198054339190839081106135e557fe5b600091825260209091200154600160a060020a031614156136055761360d565b6001016135ca565b6019548110613654576040805160e560020a62461bcd02815260206004820152600f6024820152600080516020615a3a833981519152604482015290519081900360640190fd5b601980548290811061366257fe5b60009182526020909120015460a060020a900460ff1615156001146136bf576040805160e560020a62461bcd02815260206004820152600f60248201526000805160206159da833981519152604482015290519081900360640190fd5b82826004868154811015156136d057fe5b906000526020600020906003020160020191906136ee929190615799565b50604080518581529051600080516020615aba8339815191529181900360200190a150505050565b6019546000908110613760576040805160e560020a62461bcd02815260206004820152600b6024820152600080516020615a5a833981519152604482015290519081900360640190fd5b5060005b6019548110156137a757601980543391908390811061377f57fe5b600091825260209091200154600160a060020a0316141561379f576137a7565b600101613764565b60195481106137ee576040805160e560020a62461bcd02815260206004820152600f6024820152600080516020615a3a833981519152604482015290519081900360640190fd5b60198054829081106137fc57fe5b60009182526020909120015460a060020a900460ff161515600114613859576040805160e560020a62461bcd02815260206004820152600f60248201526000805160206159da833981519152604482015290519081900360640190fd5b600083815260066020908152604091829020805463ffffffff191663ffffffff861690811790915582518681529182015281517f3d1aaa5f341eae0fb761c86dd58cdd663478ee47b91487c3ba955ff39e19a252929181900390910190a1505050565b6138c7848484611292565b6138d384848484614cb0565b15156138de57600080fd5b50505050565b600054600160a060020a03163314613934576040805160e560020a62461bcd02815260206004820152601160248201526000805160206159fa833981519152604482015290519081900360640190fd5b60408051606081018252600160a060020a038416815260ff83166020820152600191810191909152601780548590811061396a57fe5b600091825260209182902083516003909202018054600160a060020a03909216600160a060020a0319909216919091178155908201516002909101805460409093015115156101000261ff001960ff90931660ff199094169390931791909116919091179055505050565b600154600160a060020a03163314806139f85750600054600160a060020a031633145b1515613a3c576040805160e560020a62461bcd02815260206004820152601a6024820152600080516020615a9a833981519152604482015290519081900360640190fd5b601492909255601555601655565b6000613a5582612cb8565b1580156110655750506000908152600660205260409020546001161590565b600054600160a060020a03163314613ac4576040805160e560020a62461bcd02815260206004820152601160248201526000805160206159fa833981519152604482015290519081900360640190fd5b60408051808201909152600160a060020a0382168152600160208201526019805484908110613aef57fe5b60009182526020918290208351910180549390920151151560a060020a0260a060020a60ff0219600160a060020a03909216600160a060020a031990941693909317169190911790555050565b6000613b4883836116d0565b9392505050565b600054600160a060020a03163314613b9f576040805160e560020a62461bcd02815260206004820152601160248201526000805160206159fa833981519152604482015290519081900360640190fd5b60408051808201909152600160a060020a03918216815260016020820181815260198054928301815560005291517f944998273e477b495144fb8794c914197f3ccb46be2900f4698fd0ef743c969590910180549251600160a060020a0319909316919093161760a060020a60ff02191660a060020a91151591909102179055565b600054600160a060020a03163314613c71576040805160e560020a62461bcd02815260206004820152601160248201526000805160206159fa833981519152604482015290519081900360640190fd5b613c7d60128787615817565b506013805460ff191660ff9586161762ffff00191661010061ffff95909516949094029390931763ff00000019166301000000928516929092029190911764ff00000000191664010000000091909316029190911790555050565b600154600090600160a060020a03163314613d2b576040805160e560020a62461bcd02815260206004820152601160248201526000805160206159ba833981519152604482015290519081900360640190fd5b600854821667ffffffffffffffff1660009081526005602052604090205415613d9e576040805160e560020a62461bcd02815260206004820152601260248201527f646e6120616c7265616479206578697374730000000000000000000000000000604482015290519081900360640190fd5b600854821667ffffffffffffffff1660009081526007602052604090205460ff1615613e14576040805160e560020a62461bcd02815260206004820152601960248201527f646e6120616c726561647920657869737473206f6e2045544800000000000000604482015290519081900360640190fd5b613e1d82614e1d565b905061126f838261504e565b33600090815260186020908152604091829020805483518184028101840190945280845260609392830182828015613e8057602002820191906000526020600020905b815481526020019060010190808311613e6c575b5050505050905090565b600080600080600060606000600488815481101515613ea557fe5b600091825260209182902060039091020180546001808301546002808501805460408051601f60001997841615610100029790970190921693909304948501889004880281018801909252838252949650929463ffffffff64010000000083048116959083169461ffff6801000000000000000085048116956a01000000000000000000009095041693919290918391830182828015612b805780601f10612b5557610100808354040283529160200191612b80565b600033600160a060020a0384161480613f7e5750600354600160a060020a031633145b1515613fd4576040805160e560020a62461bcd02815260206004820152601860248201527f6f776e6572206f72206272696467652072657175697265640000000000000000604482015290519081900360640190fd5b89151561402b576040805160e560020a62461bcd02815260206004820152601460248201527f646e61206d7573742062652070726f7669646564000000000000000000000000604482015290519081900360640190fd5b6008548a1667ffffffffffffffff166000908152600560205260409020541561409e576040805160e560020a62461bcd02815260206004820152601260248201527f646e6120616c7265616479206578697374730000000000000000000000000000604482015290519081900360640190fd5b6001600460c0604051908101604052808d81526020018c63ffffffff1681526020018b63ffffffff1681526020018a61ffff1681526020018961ffff16815260200188888080601f016020809104026020016040519081016040528093929190818152602001838380828437505050929093525050825460018082018086556000958652602095869020855160039094020192835584860151918301805460408701516060880151608089015163ffffffff1990931663ffffffff9687161767ffffffff00000000191664010000000096909216959095021769ffff000000000000000019166801000000000000000061ffff95861602176bffff0000000000000000000019166a010000000000000000000094909116939093029290921790915560a0840151805191959293506141dd9260028501929101906158bc565b50506008548d1667ffffffffffffffff1660009081526005602090815260408083209590940394859055848252600c81528382208054600160a060020a03808b16600160a060020a03199283168117909355600d84528685208054918b16919092161790558252600e815283822080546001810182559083529181902090910184905582518481529081018e905282519394507f42ec2e0bdfc50680a77511c1785be2a2c2bfb3ee1159a2e6de27192eb12ec3b19390819003909201919050a150505050505050505050565b600354600160a060020a031681565b600160a060020a03918216600090815260106020908152604080832093909416825291909152205460ff1690565b600054600160a060020a03163314614336576040805160e560020a62461bcd02815260206004820152601160248201526000805160206159fa833981519152604482015290519081900360640190fd5b600160a060020a0381161515614396576040805160e560020a62461bcd02815260206004820152601760248201527f6e6577206f776e6572206d7573742062652076616c6964000000000000000000604482015290519081900360640190fd5b60008054604051600160a060020a03808516939216917f8be0079c531659141344cd1fd0a4f28419497f9722a3daafe3b4186f6b6457e091a360008054600160a060020a031916600160a060020a0392909216919091179055565b600054600160a060020a03163314614441576040805160e560020a62461bcd02815260206004820152601160248201526000805160206159fa833981519152604482015290519081900360640190fd5b80600160a060020a0316ff5b60008054600160a060020a0316331461449e576040805160e560020a62461bcd02815260206004820152601160248201526000805160206159fa833981519152604482015290519081900360640190fd5b60198054839081106144ac57fe5b600091825260209091200154600160a060020a031692915050565b600154600160a060020a031681565b600054600160a060020a03163314614526576040805160e560020a62461bcd02815260206004820152601160248201526000805160206159fa833981519152604482015290519081900360640190fd5b60138054600160a060020a039092166a0100000000000000000000027fffff0000000000000000000000000000000000000000ffffffffffffffffffff909216919091179055565b60195460009081106145b8576040805160e560020a62461bcd02815260206004820152600b6024820152600080516020615a5a833981519152604482015290519081900360640190fd5b5060005b6019548110156145ff5760198054339190839081106145d757fe5b600091825260209091200154600160a060020a031614156145f7576145ff565b6001016145bc565b6019548110614646576040805160e560020a62461bcd02815260206004820152600f6024820152600080516020615a3a833981519152604482015290519081900360640190fd5b601980548290811061465457fe5b60009182526020909120015460a060020a900460ff1615156001146146b1576040805160e560020a62461bcd02815260206004820152600f60248201526000805160206159da833981519152604482015290519081900360640190fd5b60008260030b12156147b6578160030b6004848154811015156146d057fe5b906000526020600020906003020160010160049054906101000a900463ffffffff1660030b1315614771578160048481548110151561470b57fe5b906000526020600020906003020160010160049054906101000a900463ffffffff160160048481548110151561473d57fe5b906000526020600020906003020160010160046101000a81548163ffffffff021916908363ffffffff160217905550612827565b600060048481548110151561478257fe5b906000526020600020906003020160010160046101000a81548163ffffffff021916908363ffffffff16021790555061286d565b816004848154811015156147c657fe5b60009182526020909120600160039092020101805463ffffffff64010000000080830482169094011690920267ffffffff0000000019909216919091179055604080518481529051600080516020615aba8339815191529181900360200190a1505050565b60008061483783612051565b905080600160a060020a031684600160a060020a03161480614872575083600160a060020a031661486784611627565b600160a060020a0316145b80614882575061488281856142b8565b949350505050565b61489483826150f4565b61489e83826151d7565b6148a8828261535a565b8082600160a060020a031684600160a060020a03167fddf252ad1be2c89b69c2b068fc378daa952ba7f163c4a11628f55a4df523b3ef60405160405180910390a4505050565b6000806148fa83615421565b90508015613b4857613b48848261504e565b60008060008061491c8886614a84565b909450925082871115614979576040805160e560020a62461bcd02815260206004820152601160248201527f6e756d4567677320746f6f206c61726765000000000000000000000000000000604482015290519081900360640190fd5b600091505b86821015614a7a576149b58860178781548110151561499957fe5b600091825260209091206002600390920201015460ff166148ee565b90508015614a6f57614a0660016017878154811015156149d157fe5b60009182526020808320600160a060020a038e168452600160039093020191909101905260409020549063ffffffff61550316565b6017805487908110614a1457fe5b60009182526020808320600160a060020a038d168452600160039093020191909101905260409020558515614a6f57600160a060020a0388166000908152601860209081526040822080546001810182559083529120018190555b60019091019061497e565b5050505050505050565b6000806000601784815481101515614a9857fe5b60009182526020808320600390920290910154604080517fd1ee168f000000000000000000000000000000000000000000000000000000008152600160a060020a038a811660048301529151919092169363d1ee168f93602480850194919392918390030190829087803b158015614b0f57600080fd5b505af1158015614b23573d6000803e3d6000fd5b505050506040513d6020811015614b3957600080fd5b5051601780549192508291611e41919087908110614b5357fe5b60009182526020808320600160a060020a038b16845260016003909302019190910190526040902054839063ffffffff61551016565b6000614b97306000196148ee565b905080156121bb57601180546000838152600d60205260408082208054600160a060020a031916600160a060020a03948516179055925460145460155460165486517f27ebe40a0000000000000000000000000000000000000000000000000000000081526004810189905260248101939093526044830191909152606482015230608482015293519216926327ebe40a9260a4808301939282900301818387803b158015614c4557600080fd5b505af1158015614c59573d6000803e3d6000fd5b5050601454601554601654604080518781526020810194909452838101929092526060830152517fa9c8dfcda5664a5a124c713e386da27de87432d5b668e79458501eb296389ba79350908190036080019150a150565b600080614cc585600160a060020a0316615522565b1515614cd45760019150614e14565b84600160a060020a031663f0b9e5ba8786866040518463ffffffff1660e060020a0281526004018084600160a060020a0316600160a060020a0316815260200183815260200180602001828103825283818151815260200191508051906020019080838360005b83811015614d53578181015183820152602001614d3b565b50505050905090810190601f168015614d805780820380516001836020036101000a031916815260200191505b50945050505050602060405180830381600087803b158015614da157600080fd5b505af1158015614db5573d6000803e3d6000fd5b505050506040513d6020811015614dcb57600080fd5b50517bffffffffffffffffffffffffffffffffffffffffffffffffffffffff1981167ff0b9e5ba0000000000000000000000000000000000000000000000000000000014925090505b50949350505050565b6000614e2761592a565b6000831515614e80576040805160e560020a62461bcd02815260206004820152601460248201527f646e61206d7573742062652070726f7669646564000000000000000000000000604482015290519081900360640190fd5b6040805160c0810182528581526000602080830182815283850183815260608501848152606460808701908152875180860190985285885260a087019788526004805460018082018084559290985288517f8a35acfbc15ff81a39ae7d344fd709f28e8600b4aa8c65c6b64bfe7fe36bd19b600390920291820190815595517f8a35acfbc15ff81a39ae7d344fd709f28e8600b4aa8c65c6b64bfe7fe36bd19c8201805496519551945163ffffffff1990971663ffffffff9283161767ffffffff00000000191664010000000092909616919091029490941769ffff000000000000000019166801000000000000000061ffff94851602176bffff0000000000000000000019166a0100000000000000000000939095169290920293909317909155955180519598509395909488949293614fe1937f8a35acfbc15ff81a39ae7d344fd709f28e8600b4aa8c65c6b64bfe7fe36bd19d9093019201906158bc565b5050600854871667ffffffffffffffff166000908152600560209081526040918290209490930393849055855181518581529384015280519394507f42ec2e0bdfc50680a77511c1785be2a2c2bfb3ee1159a2e6de27192eb12ec3b1939283900301919050a19392505050565b600160a060020a03821615156150ae576040805160e560020a62461bcd02815260206004820152601660248201527f61646472206d757374206e6f7420626520656d70747900000000000000000000604482015290519081900360640190fd5b6150b8828261535a565b6040518190600160a060020a038416906000907fddf252ad1be2c89b69c2b068fc378daa952ba7f163c4a11628f55a4df523b3ef908290a45050565b81600160a060020a031661510782612051565b600160a060020a031614615165576040805160e560020a62461bcd02815260206004820152601a60248201527f746f6b656e206d7573742062656c6f6e6720746f206f776e6572000000000000604482015290519081900360640190fd5b6000818152600d6020526040902054600160a060020a031615612575576000818152600d60205260408082208054600160a060020a031916905551829190600160a060020a038516907f8c5be1e5ebec7d5bd14f71427d1e84f3dd0314c0f7b2291e5b200ac8c7c3b925908390a45050565b600080600084600160a060020a03166151ef85612051565b600160a060020a03161461524d576040805160e560020a62461bcd02815260206004820152601e60248201527f66726f6d2061646472206d75737420626520746f6b656e206f776e6465720000604482015290519081900360640190fd5b6000848152600c602090815260408083208054600160a060020a0319169055600f825280832054600160a060020a0389168452600e9092529091205490935061529d90600163ffffffff61551016565b600160a060020a0386166000908152600e60205260409020805491935090839081106152c557fe5b9060005260206000200154905080600e600087600160a060020a0316600160a060020a031681526020019081526020016000208481548110151561530557fe5b6000918252602080832090910192909255600160a060020a0387168152600e9091526040902080549061533c906000198301615961565b506000938452600f6020526040808520859055908452909220555050565b6000818152600c6020526040812054600160a060020a0316156153c7576040805160e560020a62461bcd02815260206004820152601a60248201527f63757272656e742061646472206d75737420626520656d707479000000000000604482015290519081900360640190fd5b506000818152600c602090815260408083208054600160a060020a03909616600160a060020a031990961686179055938252600e815283822080546001810182559083528183208101849055928252600f90529190912055565b6000806000806000198560010b136154455760115460a060020a900460ff16615447565b845b9250600091505b600a8210156154cd57615461838361552a565b600854811667ffffffffffffffff166000908152600560205260409020549091501580156154ad5750600854811667ffffffffffffffff1660009081526007602052604090205460ff16155b156154c2576154bb81614e1d565b93506154fb565b60019091019061544e565b6040517f8dd2fa38883a8d1e2154c2e4e90ea32a9a9f413816ff5111f93a87c07fd4919c90600090a1600093505b505050919050565b8181018281101561106557fe5b60008282111561551c57fe5b50900390565b6000903b1190565b60008060008060008061553c876156cd565b945060ff88169350600092505b60088360ff1610156155cf57601354601280546008860260ff650100000000009094048416018316600281900a89048416955092861690811061558857fe5b90600052602060002090602091828204019190069054906101000a900460ff1660ff168360ff168115156155b857fe5b069060020a02841793508280600101935050615549565b60135460ff660100000000000082048116600281900a8804821694509116838115156155f757fe5b601354919006600292830a029590951794670100000000000000810460ff169182900a870461ffff9081169350610100909104168281151561563557fe5b601354919006600292830a02959095179468010000000000000000810460ff9081169283900a8804811694506301000000909104168381151561567457fe5b601354919006600292830a0295909517946901000000000000000000810460ff9081169283900a88048116945064010000000090910416838115156156b557fe5b069060020a0284179350839550505050505092915050565b600454604080514260208083019190915244828401526000194301804060608401819052608084019590955260a08084018790528451808503909101815260c090930193849052825160009591949193928291908401908083835b602083106157475780518252601f199092019160209182019101615728565b5181516020939093036101000a60001901801990911692169190911790526040519201829003909120979650505050505050565b50805460008255906000526020600020908101906121bb9190615981565b828054600181600116156101000203166002900490600052602060002090601f016020900481019282601f106157da5782800160ff19823516178555615807565b82800160010185558215615807579182015b828111156158075782358255916020019190600101906157ec565b50615813929150615981565b5090565b82805482825590600052602060002090601f016020900481019282156158b05791602002820160005b8382111561588157833560ff1683826101000a81548160ff021916908360ff1602179055509260200192600101602081600001049283019260010302615840565b80156158ae5782816101000a81549060ff0219169055600101602081600001049283019260010302615881565b505b5061581392915061599b565b828054600181600116156101000203166002900490600052602060002090601f016020900481019282601f106158fd57805160ff1916838001178555615807565b82800160010185558215615807579182015b8281111561580757825182559160200191906001019061590f565b6040805160c0810182526000808252602082018190529181018290526060808201839052608082019290925260a081019190915290565b81548183558181111561126f5760008381526020902061126f9181019083015b610fc991905b808211156158135760008155600101615987565b610fc991905b8082111561581357805460ff191681556001016159a156006e6565647320746f2062652061646d696e0000000000000000000000000000006d6f64206e6f7420656e61626c656400000000000000000000000000000000006e6565647320746f206265206f776e657200000000000000000000000000000065676753616c6573206e6f7420656e61626c65640000000000000000000000006e6f7420696e206d6f64206c69737400000000000000000000000000000000006e6f206d6469666965727300000000000000000000000000000000000000000065676753616c6573206964206e6f7420696e206c6973740000000000000000006e6565647320746f2062652061646d696e206f72206f776e6572000000000000459cf575abf0e03e98f209571ace7d9c214a87add2bc0ea4f9d7b84910c71111a165627a7a7230582017ee6d409cb19ac3e35f6096dc2f822949cd4441aeafe5cd8669d53699c8f0eb0029",
  "source": "pragma solidity ^0.4.0;\r\n\r\nimport \"./EverDragonsExport.sol\";\r\n\r\ncontract EverDragons is EverDragonsExport {\r\n\r\n    event StateChanged(uint256 tokenId, uint32 newState);\r\n\r\n    constructor() public {\r\n        Dragon memory _dragon = Dragon({\r\n            dna : 0,\r\n            experience : 0,\r\n            prestige : 0,\r\n            fullness : 0,\r\n            maxFullness : 0,\r\n            name : \"\"\r\n            });\r\n        dragons.push(_dragon);\r\n    }\r\n\r\n    function getDragon(uint _tokenId) public view returns\r\n    (uint256 dna, uint32 prestige, uint32 experience, uint16 fullness, uint16 maxFullness, string name) {\r\n        Dragon storage dragon = dragons[_tokenId];\r\n        return (dragon.dna, dragon.prestige, dragon.experience, dragon.fullness, dragon.maxFullness, dragon.name);\r\n    }\r\n\r\n    function getTokenIdForUser(address _owner, uint256 _index) external view returns (uint256 tokenId) {\r\n        return tokenOfOwnerByIndex(_owner, _index);\r\n    }\r\n\r\n    // ===================================================================\r\n    function setDragonState(uint256 tokenId, uint32 state) external modifierEnabled {\r\n        dragonState[tokenId] = state;\r\n        emit StateChanged(tokenId, state);\r\n    }\r\n\r\n    function getDragonState(uint256 tokenId) external view returns(uint32)   {\r\n        return dragonState[tokenId];\r\n    }\r\n}\r\n",
  "sourcePath": "C:\\Projects\\everdragons\\everdragons-contract\\contracts\\EverDragons.sol",
  "compiler": {
    "name": "solc",
    "version": "0.4.25+commit.59dbf8f1.Emscripten.clang"
  },
  "schemaVersion": "2.0.2",
  "updatedAt": "2018-12-27T17:56:56.997Z"
}