{
  "contractName": "EverDragons",
  "abi": [
    {
      "constant": false,
      "inputs": [
        {
          "name": "dna",
          "type": "uint64"
        },
        {
          "name": "name",
          "type": "bytes32"
        }
      ],
      "name": "modifyDragonName",
      "outputs": [],
      "payable": false,
      "stateMutability": "nonpayable",
      "type": "function"
    },
    {
      "constant": true,
      "inputs": [
        {
          "name": "interfaceId",
          "type": "bytes4"
        }
      ],
      "name": "supportsInterface",
      "outputs": [
        {
          "name": "",
          "type": "bool"
        }
      ],
      "payable": false,
      "stateMutability": "view",
      "type": "function"
    },
    {
      "constant": false,
      "inputs": [
        {
          "name": "dna",
          "type": "uint64"
        },
        {
          "name": "attributes",
          "type": "uint24"
        }
      ],
      "name": "modifyDragonAttributes",
      "outputs": [],
      "payable": false,
      "stateMutability": "nonpayable",
      "type": "function"
    },
    {
      "constant": true,
      "inputs": [],
      "name": "name",
      "outputs": [
        {
          "name": "",
          "type": "string"
        }
      ],
      "payable": false,
      "stateMutability": "view",
      "type": "function"
    },
    {
      "constant": true,
      "inputs": [
        {
          "name": "tokenId",
          "type": "uint256"
        }
      ],
      "name": "getApproved",
      "outputs": [
        {
          "name": "",
          "type": "address"
        }
      ],
      "payable": false,
      "stateMutability": "view",
      "type": "function"
    },
    {
      "constant": false,
      "inputs": [
        {
          "name": "to",
          "type": "address"
        },
        {
          "name": "tokenId",
          "type": "uint256"
        }
      ],
      "name": "approve",
      "outputs": [],
      "payable": false,
      "stateMutability": "nonpayable",
      "type": "function"
    },
    {
      "constant": true,
      "inputs": [],
      "name": "totalSupply",
      "outputs": [
        {
          "name": "",
          "type": "uint256"
        }
      ],
      "payable": false,
      "stateMutability": "view",
      "type": "function"
    },
    {
      "constant": false,
      "inputs": [
        {
          "name": "dna",
          "type": "uint64"
        },
        {
          "name": "state",
          "type": "uint16"
        }
      ],
      "name": "modifyDragonState",
      "outputs": [],
      "payable": false,
      "stateMutability": "nonpayable",
      "type": "function"
    },
    {
      "constant": false,
      "inputs": [
        {
          "name": "from",
          "type": "address"
        },
        {
          "name": "to",
          "type": "address"
        },
        {
          "name": "tokenId",
          "type": "uint256"
        }
      ],
      "name": "transferFrom",
      "outputs": [],
      "payable": false,
      "stateMutability": "nonpayable",
      "type": "function"
    },
    {
      "constant": true,
      "inputs": [
        {
          "name": "tokenId",
          "type": "uint256"
        }
      ],
      "name": "approvedFor",
      "outputs": [
        {
          "name": "",
          "type": "address"
        }
      ],
      "payable": false,
      "stateMutability": "view",
      "type": "function"
    },
    {
      "constant": false,
      "inputs": [
        {
          "name": "dna",
          "type": "uint64"
        }
      ],
      "name": "impBlockedDNA",
      "outputs": [],
      "payable": false,
      "stateMutability": "nonpayable",
      "type": "function"
    },
    {
      "constant": true,
      "inputs": [
        {
          "name": "owner",
          "type": "address"
        },
        {
          "name": "index",
          "type": "uint256"
        }
      ],
      "name": "tokenOfOwnerByIndex",
      "outputs": [
        {
          "name": "",
          "type": "uint256"
        }
      ],
      "payable": false,
      "stateMutability": "view",
      "type": "function"
    },
    {
      "constant": false,
      "inputs": [
        {
          "name": "dna",
          "type": "uint64"
        },
        {
          "name": "attributes",
          "type": "uint24"
        },
        {
          "name": "experience",
          "type": "uint32"
        },
        {
          "name": "prestige",
          "type": "uint32"
        },
        {
          "name": "state",
          "type": "uint16"
        },
        {
          "name": "name",
          "type": "bytes32"
        },
        {
          "name": "owner",
          "type": "address"
        },
        {
          "name": "approvedFor",
          "type": "address"
        }
      ],
      "name": "impDragon",
      "outputs": [],
      "payable": false,
      "stateMutability": "nonpayable",
      "type": "function"
    },
    {
      "constant": false,
      "inputs": [],
      "name": "unpause",
      "outputs": [],
      "payable": false,
      "stateMutability": "nonpayable",
      "type": "function"
    },
    {
      "constant": false,
      "inputs": [
        {
          "name": "from",
          "type": "address"
        },
        {
          "name": "to",
          "type": "address"
        },
        {
          "name": "tokenId",
          "type": "uint256"
        }
      ],
      "name": "safeTransferFrom",
      "outputs": [],
      "payable": false,
      "stateMutability": "nonpayable",
      "type": "function"
    },
    {
      "constant": true,
      "inputs": [
        {
          "name": "tokenId",
          "type": "uint256"
        }
      ],
      "name": "exists",
      "outputs": [
        {
          "name": "",
          "type": "bool"
        }
      ],
      "payable": false,
      "stateMutability": "view",
      "type": "function"
    },
    {
      "constant": true,
      "inputs": [],
      "name": "paused",
      "outputs": [
        {
          "name": "",
          "type": "bool"
        }
      ],
      "payable": false,
      "stateMutability": "view",
      "type": "function"
    },
    {
      "constant": true,
      "inputs": [
        {
          "name": "tokenId",
          "type": "uint256"
        }
      ],
      "name": "ownerOf",
      "outputs": [
        {
          "name": "",
          "type": "address"
        }
      ],
      "payable": false,
      "stateMutability": "view",
      "type": "function"
    },
    {
      "constant": false,
      "inputs": [],
      "name": "payout",
      "outputs": [],
      "payable": false,
      "stateMutability": "nonpayable",
      "type": "function"
    },
    {
      "constant": false,
      "inputs": [
        {
          "name": "_startPriceNES",
          "type": "uint128"
        },
        {
          "name": "_endPriceNES",
          "type": "uint128"
        },
        {
          "name": "_durrationNES",
          "type": "uint32"
        }
      ],
      "name": "setNSEAuctionValues",
      "outputs": [],
      "payable": false,
      "stateMutability": "nonpayable",
      "type": "function"
    },
    {
      "constant": true,
      "inputs": [
        {
          "name": "owner",
          "type": "address"
        }
      ],
      "name": "balanceOf",
      "outputs": [
        {
          "name": "",
          "type": "uint256"
        }
      ],
      "payable": false,
      "stateMutability": "view",
      "type": "function"
    },
    {
      "constant": false,
      "inputs": [],
      "name": "renounceOwnership",
      "outputs": [],
      "payable": false,
      "stateMutability": "nonpayable",
      "type": "function"
    },
    {
      "constant": false,
      "inputs": [],
      "name": "pause",
      "outputs": [],
      "payable": false,
      "stateMutability": "nonpayable",
      "type": "function"
    },
    {
      "constant": true,
      "inputs": [],
      "name": "owner",
      "outputs": [
        {
          "name": "",
          "type": "address"
        }
      ],
      "payable": false,
      "stateMutability": "view",
      "type": "function"
    },
    {
      "constant": true,
      "inputs": [],
      "name": "symbol",
      "outputs": [
        {
          "name": "",
          "type": "string"
        }
      ],
      "payable": false,
      "stateMutability": "view",
      "type": "function"
    },
    {
      "constant": false,
      "inputs": [
        {
          "name": "dna",
          "type": "uint64"
        },
        {
          "name": "prestige",
          "type": "int32"
        }
      ],
      "name": "modifyDragonPrestige",
      "outputs": [],
      "payable": false,
      "stateMutability": "nonpayable",
      "type": "function"
    },
    {
      "constant": false,
      "inputs": [
        {
          "name": "to",
          "type": "address"
        },
        {
          "name": "approved",
          "type": "bool"
        }
      ],
      "name": "setApprovalForAll",
      "outputs": [],
      "payable": false,
      "stateMutability": "nonpayable",
      "type": "function"
    },
    {
      "constant": false,
      "inputs": [
        {
          "name": "dna",
          "type": "uint64"
        },
        {
          "name": "item",
          "type": "bytes32"
        },
        {
          "name": "value",
          "type": "int32"
        }
      ],
      "name": "modifyDragonItem",
      "outputs": [],
      "payable": false,
      "stateMutability": "nonpayable",
      "type": "function"
    },
    {
      "constant": false,
      "inputs": [
        {
          "name": "to",
          "type": "address"
        },
        {
          "name": "tokenId",
          "type": "uint256"
        }
      ],
      "name": "transfer",
      "outputs": [],
      "payable": false,
      "stateMutability": "nonpayable",
      "type": "function"
    },
    {
      "constant": false,
      "inputs": [
        {
          "name": "tokenId",
          "type": "uint256"
        }
      ],
      "name": "takeOwnership",
      "outputs": [],
      "payable": false,
      "stateMutability": "nonpayable",
      "type": "function"
    },
    {
      "constant": false,
      "inputs": [
        {
          "name": "from",
          "type": "address"
        },
        {
          "name": "to",
          "type": "address"
        },
        {
          "name": "tokenId",
          "type": "uint256"
        },
        {
          "name": "data",
          "type": "bytes"
        }
      ],
      "name": "safeTransferFrom",
      "outputs": [],
      "payable": false,
      "stateMutability": "nonpayable",
      "type": "function"
    },
    {
      "constant": true,
      "inputs": [
        {
          "name": "tokenId",
          "type": "uint256"
        }
      ],
      "name": "canBeTransferred",
      "outputs": [
        {
          "name": "",
          "type": "bool"
        }
      ],
      "payable": false,
      "stateMutability": "view",
      "type": "function"
    },
    {
      "constant": false,
      "inputs": [
        {
          "name": "dragonType",
          "type": "uint8"
        }
      ],
      "name": "createNewDragons",
      "outputs": [],
      "payable": false,
      "stateMutability": "nonpayable",
      "type": "function"
    },
    {
      "constant": true,
      "inputs": [
        {
          "name": "dragonType",
          "type": "uint8"
        }
      ],
      "name": "getNumOfRequiredDragons",
      "outputs": [
        {
          "name": "",
          "type": "uint256"
        }
      ],
      "payable": false,
      "stateMutability": "view",
      "type": "function"
    },
    {
      "constant": false,
      "inputs": [
        {
          "name": "dna",
          "type": "uint64"
        },
        {
          "name": "experience",
          "type": "int32"
        }
      ],
      "name": "modifyDragonExperience",
      "outputs": [],
      "payable": false,
      "stateMutability": "nonpayable",
      "type": "function"
    },
    {
      "constant": true,
      "inputs": [
        {
          "name": "owner",
          "type": "address"
        },
        {
          "name": "operator",
          "type": "address"
        }
      ],
      "name": "isApprovedForAll",
      "outputs": [
        {
          "name": "",
          "type": "bool"
        }
      ],
      "payable": false,
      "stateMutability": "view",
      "type": "function"
    },
    {
      "constant": false,
      "inputs": [
        {
          "name": "dna",
          "type": "uint64"
        },
        {
          "name": "startingPrice",
          "type": "uint128"
        },
        {
          "name": "endingPrice",
          "type": "uint128"
        },
        {
          "name": "duration",
          "type": "uint32"
        }
      ],
      "name": "createAuction",
      "outputs": [],
      "payable": false,
      "stateMutability": "nonpayable",
      "type": "function"
    },
    {
      "constant": false,
      "inputs": [
        {
          "name": "newOwner",
          "type": "address"
        }
      ],
      "name": "transferOwnership",
      "outputs": [],
      "payable": false,
      "stateMutability": "nonpayable",
      "type": "function"
    },
    {
      "inputs": [
        {
          "name": "registrarAddress",
          "type": "address"
        }
      ],
      "payable": false,
      "stateMutability": "nonpayable",
      "type": "constructor"
    },
    {
      "payable": true,
      "stateMutability": "payable",
      "type": "fallback",
      "name": "fallback"
    },
    {
      "anonymous": false,
      "inputs": [
        {
          "indexed": false,
          "name": "dna",
          "type": "uint64"
        }
      ],
      "name": "PropertiesChanged",
      "type": "event"
    },
    {
      "anonymous": false,
      "inputs": [
        {
          "indexed": true,
          "name": "from",
          "type": "address"
        },
        {
          "indexed": true,
          "name": "to",
          "type": "address"
        },
        {
          "indexed": true,
          "name": "tokenId",
          "type": "uint256"
        }
      ],
      "name": "Transfer",
      "type": "event"
    },
    {
      "anonymous": false,
      "inputs": [
        {
          "indexed": true,
          "name": "owner",
          "type": "address"
        },
        {
          "indexed": true,
          "name": "approved",
          "type": "address"
        },
        {
          "indexed": true,
          "name": "tokenId",
          "type": "uint256"
        }
      ],
      "name": "Approval",
      "type": "event"
    },
    {
      "anonymous": false,
      "inputs": [
        {
          "indexed": true,
          "name": "owner",
          "type": "address"
        },
        {
          "indexed": true,
          "name": "operator",
          "type": "address"
        },
        {
          "indexed": false,
          "name": "approved",
          "type": "bool"
        }
      ],
      "name": "ApprovalForAll",
      "type": "event"
    },
    {
      "anonymous": false,
      "inputs": [
        {
          "indexed": false,
          "name": "dna",
          "type": "uint64"
        }
      ],
      "name": "Create",
      "type": "event"
    },
    {
      "anonymous": false,
      "inputs": [
        {
          "indexed": false,
          "name": "dna",
          "type": "uint64"
        }
      ],
      "name": "DuplicatedDNA",
      "type": "event"
    },
    {
      "anonymous": false,
      "inputs": [],
      "name": "Pause",
      "type": "event"
    },
    {
      "anonymous": false,
      "inputs": [],
      "name": "Unpause",
      "type": "event"
    },
    {
      "anonymous": false,
      "inputs": [
        {
          "indexed": true,
          "name": "previousOwner",
          "type": "address"
        }
      ],
      "name": "OwnershipRenounced",
      "type": "event"
    },
    {
      "anonymous": false,
      "inputs": [
        {
          "indexed": true,
          "name": "previousOwner",
          "type": "address"
        },
        {
          "indexed": true,
          "name": "newOwner",
          "type": "address"
        }
      ],
      "name": "OwnershipTransferred",
      "type": "event"
    },
    {
      "constant": true,
      "inputs": [
        {
          "name": "dna",
          "type": "uint64"
        }
      ],
      "name": "getDragon",
      "outputs": [
        {
          "name": "attributes",
          "type": "uint24"
        },
        {
          "name": "experience",
          "type": "uint32"
        },
        {
          "name": "prestige",
          "type": "uint32"
        },
        {
          "name": "state",
          "type": "uint16"
        },
        {
          "name": "name",
          "type": "bytes32"
        }
      ],
      "payable": false,
      "stateMutability": "view",
      "type": "function"
    },
    {
      "constant": true,
      "inputs": [
        {
          "name": "dna",
          "type": "uint64"
        },
        {
          "name": "item",
          "type": "bytes32"
        }
      ],
      "name": "getDragonItem",
      "outputs": [
        {
          "name": "",
          "type": "uint256"
        }
      ],
      "payable": false,
      "stateMutability": "view",
      "type": "function"
    },
    {
      "constant": true,
      "inputs": [
        {
          "name": "index",
          "type": "uint256"
        }
      ],
      "name": "getDragonByIndex",
      "outputs": [
        {
          "name": "attributes",
          "type": "uint24"
        },
        {
          "name": "experience",
          "type": "uint32"
        },
        {
          "name": "prestige",
          "type": "uint32"
        },
        {
          "name": "state",
          "type": "uint16"
        },
        {
          "name": "name",
          "type": "bytes32"
        },
        {
          "name": "dna",
          "type": "uint64"
        }
      ],
      "payable": false,
      "stateMutability": "view",
      "type": "function"
    },
    {
      "constant": false,
      "inputs": [
        {
          "name": "dna",
          "type": "uint64"
        },
        {
          "name": "name",
          "type": "bytes32"
        }
      ],
      "name": "changeDragonName",
      "outputs": [],
      "payable": false,
      "stateMutability": "nonpayable",
      "type": "function"
    },
    {
      "constant": false,
      "inputs": [
        {
          "name": "receiver",
          "type": "address"
        },
        {
          "name": "dna",
          "type": "uint64"
        },
        {
          "name": "attributes",
          "type": "uint24"
        }
      ],
      "name": "createDragonForUser",
      "outputs": [],
      "payable": false,
      "stateMutability": "nonpayable",
      "type": "function"
    },
    {
      "constant": false,
      "inputs": [
        {
          "name": "receiver",
          "type": "address"
        },
        {
          "name": "dragonType",
          "type": "uint8"
        },
        {
          "name": "version",
          "type": "uint8"
        }
      ],
      "name": "createRandomDragonForUser",
      "outputs": [],
      "payable": false,
      "stateMutability": "nonpayable",
      "type": "function"
    },
    {
      "constant": false,
      "inputs": [
        {
          "name": "dragonType",
          "type": "uint8"
        },
        {
          "name": "version",
          "type": "uint8"
        }
      ],
      "name": "createNSEDragon",
      "outputs": [],
      "payable": false,
      "stateMutability": "nonpayable",
      "type": "function"
    }
  ],
  "bytecode": "0x60806040526000805460a060020a60ff0219169055600b805477016345785d8a0000000000000000000000000000000000006001608060020a03199091166706f05b59d3b20000176001608060020a0316179055600c805463ffffffff19166202a3001790553480156200007257600080fd5b50d380156200008057600080fd5b50d280156200008e57600080fd5b5060405160208062004825833981016040525160008054600160a060020a0319163317905580600160a060020a03811615156200012c57604080517f08c379a000000000000000000000000000000000000000000000000000000000815260206004820152601f60248201527f7265676973747261722061646472657373206e6f7420617661696c61626c6500604482015290519081900360640190fd5b60018054600160a060020a031916600160a060020a0392909216919091179055620001807f01ffc9a700000000000000000000000000000000000000000000000000000000640100000000620001bb810204565b620001b47f80ac58cd00000000000000000000000000000000000000000000000000000000640100000000620001bb810204565b5062000228565b7fffffffff000000000000000000000000000000000000000000000000000000008082161415620001eb57600080fd5b7fffffffff00000000000000000000000000000000000000000000000000000000166000908152600560205260409020805460ff19166001179055565b6145ed80620002386000396000f3006080604052600436106102235763ffffffff7c0100000000000000000000000000000000000000000000000000000000600035041662b7e1c4811461022557806301ffc9a714610264578063044f6a73146102c957806306fdde031461030d578063081812fc146103b1578063095ea7b3146103ff57806318160ddd1461043d578063196025371461047e5780631bf956f5146104f85780631fe2a2b41461053b57806323b872dd146105bb5780632a6dd48f146105ff5780632c6b5b16146106315780632f745c591461066d57806334364526146106ab5780633a7dccb6146106f25780633b13ce2b146107615780633f4ba83a146107b157806342382750146107e057806342842e0e1461081f5780634f558e79146108635780635c975abb146108955780636352211e146108c457806363bd1d4a146108f6578063646fccd81461092557806370a0823114610978578063715018a6146109b357806375aadd48146109e25780638456cb5914610a1d5780638da5cb5b14610a4c57806395d89b4114610a7b578063968efc3c14610aaa578063a22cb46514610aec578063a343520914610b2c578063a9059cbb14610b71578063ab5c6c4214610baf578063b2e6ceeb14610bee578063b88d4fde14610c20578063c89999d014610ca9578063d67cab5a14610cdb578063dc0f15be14610d10578063dfc02d9014610d45578063e985e9c514610d87578063f064e6d014610dc8578063f2fde38b14610e28575b005b34801561023157600080fd5b50d3801561023e57600080fd5b50d2801561024b57600080fd5b5061022367ffffffffffffffff60043516602435610e63565b34801561027057600080fd5b50d3801561027d57600080fd5b50d2801561028a57600080fd5b506102b57bffffffffffffffffffffffffffffffffffffffffffffffffffffffff1960043516610f7d565b604080519115158252519081900360200190f35b3480156102d557600080fd5b50d380156102e257600080fd5b50d280156102ef57600080fd5b5061022367ffffffffffffffff6004351662ffffff60243516610fb1565b34801561031957600080fd5b50d3801561032657600080fd5b50d2801561033357600080fd5b5061033c6110dc565b6040805160208082528351818301528351919283929083019185019080838360005b8381101561037657818101518382015260200161035e565b50505050905090810190601f1680156103a35780820380516001836020036101000a031916815260200191505b509250505060405180910390f35b3480156103bd57600080fd5b50d380156103ca57600080fd5b50d280156103d757600080fd5b506103e3600435611114565b60408051600160a060020a039092168252519081900360200190f35b34801561040b57600080fd5b50d3801561041857600080fd5b50d2801561042557600080fd5b50610223600160a060020a0360043516602435611125565b34801561044957600080fd5b50d3801561045657600080fd5b50d2801561046357600080fd5b5061046c61132e565b60408051918252519081900360200190f35b34801561048a57600080fd5b50d3801561049757600080fd5b50d280156104a457600080fd5b506104ba67ffffffffffffffff60043516611334565b6040805162ffffff909616865263ffffffff9485166020870152929093168483015261ffff1660608401526080830191909152519081900360a00190f35b34801561050457600080fd5b50d3801561051157600080fd5b50d2801561051e57600080fd5b5061022367ffffffffffffffff6004351661ffff60243516611390565b34801561054757600080fd5b50d3801561055457600080fd5b50d2801561056157600080fd5b5061056d6004356114d2565b6040805162ffffff909716875263ffffffff9586166020880152939094168584015261ffff9091166060850152608084015267ffffffffffffffff90911660a0830152519081900360c00190f35b3480156105c757600080fd5b50d380156105d457600080fd5b50d280156105e157600080fd5b50610223600160a060020a03600435811690602435166044356115ca565b34801561060b57600080fd5b50d3801561061857600080fd5b50d2801561062557600080fd5b506103e36004356117cc565b34801561063d57600080fd5b50d3801561064a57600080fd5b50d2801561065757600080fd5b5061022367ffffffffffffffff600435166117fe565b34801561067957600080fd5b50d3801561068657600080fd5b50d2801561069357600080fd5b5061046c600160a060020a036004351660243561190c565b3480156106b757600080fd5b50d380156106c457600080fd5b50d280156106d157600080fd5b50610223600160a060020a036004351660ff60243581169060443516611959565b3480156106fe57600080fd5b50d3801561070b57600080fd5b50d2801561071857600080fd5b5061022367ffffffffffffffff6004351662ffffff6024351663ffffffff6044358116906064351661ffff6084351660a435600160a060020a0360c43581169060e43516611ab6565b34801561076d57600080fd5b50d3801561077a57600080fd5b50d2801561078757600080fd5b50610223600160a060020a036004351667ffffffffffffffff6024351662ffffff60443516611ea0565b3480156107bd57600080fd5b50d380156107ca57600080fd5b50d280156107d757600080fd5b50610223612083565b3480156107ec57600080fd5b50d380156107f957600080fd5b50d2801561080657600080fd5b5061022367ffffffffffffffff60043516602435612132565b34801561082b57600080fd5b50d3801561083857600080fd5b50d2801561084557600080fd5b50610223600160a060020a03600435811690602435166044356121a5565b34801561086f57600080fd5b50d3801561087c57600080fd5b50d2801561088957600080fd5b506102b56004356121c1565b3480156108a157600080fd5b50d380156108ae57600080fd5b50d280156108bb57600080fd5b506102b56121de565b3480156108d057600080fd5b50d380156108dd57600080fd5b50d280156108ea57600080fd5b506103e36004356121ee565b34801561090257600080fd5b50d3801561090f57600080fd5b50d2801561091c57600080fd5b5061022361225d565b34801561093157600080fd5b50d3801561093e57600080fd5b50d2801561094b57600080fd5b506102236fffffffffffffffffffffffffffffffff6004358116906024351663ffffffff6044351661241c565b34801561098457600080fd5b50d3801561099157600080fd5b50d2801561099e57600080fd5b5061046c600160a060020a036004351661256e565b3480156109bf57600080fd5b50d380156109cc57600080fd5b50d280156109d957600080fd5b506102236125ec565b3480156109ee57600080fd5b50d380156109fb57600080fd5b50d28015610a0857600080fd5b5061022360ff60043581169060243516612684565b348015610a2957600080fd5b50d38015610a3657600080fd5b50d28015610a4357600080fd5b50610223612764565b348015610a5857600080fd5b50d38015610a6557600080fd5b50d28015610a7257600080fd5b506103e3612818565b348015610a8757600080fd5b50d38015610a9457600080fd5b50d28015610aa157600080fd5b5061033c612827565b348015610ab657600080fd5b50d38015610ac357600080fd5b50d28015610ad057600080fd5b5061022367ffffffffffffffff6004351660243560030b61285e565b348015610af857600080fd5b50d38015610b0557600080fd5b50d28015610b1257600080fd5b50610223600160a060020a03600435166024351515612a5e565b348015610b3857600080fd5b50d38015610b4557600080fd5b50d28015610b5257600080fd5b5061022367ffffffffffffffff6004351660243560443560030b612ae2565b348015610b7d57600080fd5b50d38015610b8a57600080fd5b50d28015610b9757600080fd5b50610223600160a060020a0360043516602435612cd8565b348015610bbb57600080fd5b50d38015610bc857600080fd5b50d28015610bd557600080fd5b5061046c67ffffffffffffffff60043516602435612d63565b348015610bfa57600080fd5b50d38015610c0757600080fd5b50d28015610c1457600080fd5b50610223600435612d96565b348015610c2c57600080fd5b50d38015610c3957600080fd5b50d28015610c4657600080fd5b50604080516020601f60643560048181013592830184900484028501840190955281845261022394600160a060020a038135811695602480359092169560443595369560849401918190840183828082843750949750612dc39650505050505050565b348015610cb557600080fd5b50d38015610cc257600080fd5b50d28015610ccf57600080fd5b506102b5600435612de5565b348015610ce757600080fd5b50d38015610cf457600080fd5b50d28015610d0157600080fd5b5061022360ff60043516612f9b565b348015610d1c57600080fd5b50d38015610d2957600080fd5b50d28015610d3657600080fd5b5061046c60ff600435166130a4565b348015610d5157600080fd5b50d38015610d5e57600080fd5b50d28015610d6b57600080fd5b5061022367ffffffffffffffff6004351660243560030b6132eb565b348015610d9357600080fd5b50d38015610da057600080fd5b50d28015610dad57600080fd5b506102b5600160a060020a03600435811690602435166134d3565b348015610dd457600080fd5b50d38015610de157600080fd5b50d28015610dee57600080fd5b5061022367ffffffffffffffff600435166fffffffffffffffffffffffffffffffff6024358116906044351663ffffffff60643516613501565b348015610e3457600080fd5b50d38015610e4157600080fd5b50d28015610e4e57600080fd5b50610223600160a060020a0360043516613764565b6001546040805160e060020a6312d9a6ad0281526000805160206145828339815191526004820181905233602483015291519192600160a060020a0316916312d9a6ad916044808201926020929091908290030181600087803b158015610ec957600080fd5b505af1158015610edd573d6000803e3d6000fd5b505050506040513d6020811015610ef357600080fd5b50511515610f39576040805160e560020a62461bcd02815260206004820152600d6024820152600080516020614522833981519152604482015290519081900360640190fd5b67ffffffffffffffff8316600081815260036020908152604091829020859055815192835290516000805160206145628339815191529281900390910190a1505050565b7bffffffffffffffffffffffffffffffffffffffffffffffffffffffff191660009081526005602052604090205460ff1690565b6001546040805160e060020a6312d9a6ad0281526000805160206145828339815191526004820181905233602483015291519192600160a060020a0316916312d9a6ad916044808201926020929091908290030181600087803b15801561101757600080fd5b505af115801561102b573d6000803e3d6000fd5b505050506040513d602081101561104157600080fd5b50511515611087576040805160e560020a62461bcd02815260206004820152600d6024820152600080516020614522833981519152604482015290519081900360640190fd5b67ffffffffffffffff8316600081815260036020908152604091829020600101805462ffffff191662ffffff8716179055815192835290516000805160206145628339815191529281900390910190a1505050565b60408051808201909152600b81527f45766572447261676f6e7300000000000000000000000000000000000000000060208201525b90565b600061111f826117cc565b92915050565b6000805460a060020a900460ff161561113d57600080fd5b611146826121ee565b9050600160a060020a0383811690821614156111ac576040805160e560020a62461bcd02815260206004820152601660248201527f646f6e277420617070726f766520796f757273656c6600000000000000000000604482015290519081900360640190fd5b6111b582612de5565b151561120b576040805160e560020a62461bcd02815260206004820152601b60248201527f647261676f6e2063616e2774206265207472616e736665727265640000000000604482015290519081900360640190fd5b33600160a060020a0382161480611227575061122781336134d3565b15156112a3576040805160e560020a62461bcd02815260206004820152602260248201527f6f6e6c79206f776e6572206f72206f70657261746f722063616e20617070726f60448201527f7665000000000000000000000000000000000000000000000000000000000000606482015290519081900360840190fd5b60006112ae836117cc565b600160a060020a03161415806112cc5750600160a060020a03831615155b15611329576000828152600760205260408082208054600160a060020a031916600160a060020a0387811691821790925591518593918516917f8c5be1e5ebec7d5bd14f71427d1e84f3dd0314c0f7b2291e5b200ac8c7c3b92591a45b505050565b60025490565b67ffffffffffffffff1660009081526003602052604090206001810154905462ffffff8216926301000000830463ffffffff908116936701000000000000008104909116926b01000000000000000000000090910461ffff1691565b6001546040805160e060020a6312d9a6ad0281526000805160206145828339815191526004820181905233602483015291519192600160a060020a0316916312d9a6ad916044808201926020929091908290030181600087803b1580156113f657600080fd5b505af115801561140a573d6000803e3d6000fd5b505050506040513d602081101561142057600080fd5b50511515611466576040805160e560020a62461bcd02815260206004820152600d6024820152600080516020614522833981519152604482015290519081900360640190fd5b67ffffffffffffffff831660008181526003602090815260409182902060010180546cffff000000000000000000000019166b01000000000000000000000061ffff881602179055815192835290516000805160206145628339815191529281900390910190a1505050565b60008060008060008060006114e561132e565b881061153b576040805160e560020a62461bcd02815260206004820152600f60248201527f696e64657820746f6f206c617267650000000000000000000000000000000000604482015290519081900360640190fd5b600280548990811061154957fe5b6000918252602080832060048304015460039283166008026101000a900467ffffffffffffffff1680845291905260409091206001810154905462ffffff82169b6301000000830463ffffffff9081169c506701000000000000008404169a506b01000000000000000000000090920461ffff169850965090945092505050565b60005460a060020a900460ff16156115e157600080fd5b600160a060020a0383161515611641576040805160e560020a62461bcd02815260206004820152601260248201527f66726f6d206d7573742062652076616c69640000000000000000000000000000604482015290519081900360640190fd5b600160a060020a03821615156116a1576040805160e560020a62461bcd02815260206004820152601060248201527f746f206d7573742062652076616c696400000000000000000000000000000000604482015290519081900360640190fd5b600160a060020a038216301415611702576040805160e560020a62461bcd02815260206004820152601b60248201527f646f6e2774207472616e736665727420746f20636f6e74726163740000000000604482015290519081900360640190fd5b61170b81612de5565b1515611761576040805160e560020a62461bcd02815260206004820152601b60248201527f647261676f6e2063616e2774206265207472616e736665727265640000000000604482015290519081900360640190fd5b61176b338261386f565b15156117c1576040805160e560020a62461bcd02815260206004820152601060248201527f6d75737420626520617070726f76656400000000000000000000000000000000604482015290519081900360640190fd5b6113298383836138ce565b60006117d7826121c1565b15156117e257600080fd5b50600090815260076020526040902054600160a060020a031690565b6001546040805160e060020a6312d9a6ad0281527f61646d696e0000000000000000000000000000000000000000000000000000006004820181905233602483015291519192600160a060020a0316916312d9a6ad916044808201926020929091908290030181600087803b15801561187657600080fd5b505af115801561188a573d6000803e3d6000fd5b505050506040513d60208110156118a057600080fd5b505115156118e6576040805160e560020a62461bcd02815260206004820152600d6024820152600080516020614522833981519152604482015290519081900360640190fd5b5067ffffffffffffffff166000908152600460205260409020805460ff19166001179055565b60006119178361256e565b821061192257600080fd5b600160a060020a038316600090815260086020526040902080548390811061194657fe5b9060005260206000200154905092915050565b6001546040805160e060020a6312d9a6ad0281526000805160206145a2833981519152600482018190523360248301529151600093600160a060020a0316916312d9a6ad91604480830192602092919082900301818887803b1580156119be57600080fd5b505af11580156119d2573d6000803e3d6000fd5b505050506040513d60208110156119e857600080fd5b50511515611a2e576040805160e560020a62461bcd02815260206004820152600d6024820152600080516020614522833981519152604482015290519081900360640190fd5b611a388484613932565b915067ffffffffffffffff82161515611a9b576040805160e560020a62461bcd02815260206004820152600e60248201527f6475706c69636174656420646e61000000000000000000000000000000000000604482015290519081900360640190fd5b611aaf858367ffffffffffffffff16613b36565b5050505050565b6001546040805160e060020a6312d9a6ad0281526000805160206145a28339815191526004820181905233602483015291519192600160a060020a0316916312d9a6ad916044808201926020929091908290030181600087803b158015611b1c57600080fd5b505af1158015611b30573d6000803e3d6000fd5b505050506040513d6020811015611b4657600080fd5b50511515611b8c576040805160e560020a62461bcd02815260206004820152600d6024820152600080516020614522833981519152604482015290519081900360640190fd5b67ffffffffffffffff891660009081526003602052604090206001015462ffffff1615611c03576040805160e560020a62461bcd02815260206004820152601260248201527f646e6120616c7265616479206578697374730000000000000000000000000000604482015290519081900360640190fd5b60a060405190810160405280856000191681526020018962ffffff1681526020018863ffffffff1681526020018763ffffffff1681526020018661ffff16815250600360008b67ffffffffffffffff1667ffffffffffffffff1681526020019081526020016000206000820151816000019060001916905560208201518160010160006101000a81548162ffffff021916908362ffffff16021790555060408201518160010160036101000a81548163ffffffff021916908363ffffffff16021790555060608201518160010160076101000a81548163ffffffff021916908363ffffffff160217905550608082015181600101600b6101000a81548161ffff021916908361ffff16021790555090505082600660008b67ffffffffffffffff16815260200190815260200160002060006101000a815481600160a060020a030219169083600160a060020a0316021790555081600760008b67ffffffffffffffff16815260200190815260200160002060006101000a815481600160a060020a030219169083600160a060020a031602179055506008600084600160a060020a0316600160a060020a03168152602001908152602001600020899080600181540180825580915050906001820390600052602060002001600090919267ffffffffffffffff1690919091505550600289908060018154018082558091505090600182039060005260206000209060049182820401919006600802909192909190916101000a81548167ffffffffffffffff021916908367ffffffffffffffff160217905550507f9363f3eb6a090bae53c5052f95c03f9cfdaf2d9a07c072dbdb805dc9a643ce8089604051808267ffffffffffffffff1667ffffffffffffffff16815260200191505060405180910390a1505050505050505050565b6001546040805160e060020a6312d9a6ad0281526000805160206145a28339815191526004820181905233602483015291519192600160a060020a0316916312d9a6ad916044808201926020929091908290030181600087803b158015611f0657600080fd5b505af1158015611f1a573d6000803e3d6000fd5b505050506040513d6020811015611f3057600080fd5b50511515611f76576040805160e560020a62461bcd02815260206004820152600d6024820152600080516020614522833981519152604482015290519081900360640190fd5b67ffffffffffffffff831660009081526003602052604090206001015462ffffff1615611fed576040805160e560020a62461bcd02815260206004820152601260248201527f646e6120616c7265616479206578697374730000000000000000000000000000604482015290519081900360640190fd5b67ffffffffffffffff831660009081526004602052604090205460ff161561205f576040805160e560020a62461bcd02815260206004820152600b60248201527f646e6120626c6f636b6564000000000000000000000000000000000000000000604482015290519081900360640190fd5b6120698383613bdc565b61207d848467ffffffffffffffff16613b36565b50505050565b600054600160a060020a031633146120d3576040805160e560020a62461bcd0281526020600482015260116024820152600080516020614542833981519152604482015290519081900360640190fd5b60005460a060020a900460ff1615156120eb57600080fd5b6000805474ff0000000000000000000000000000000000000000191681556040517f7805862f689e2f13df9f062ff482ad3ad112aca9e0847911ed832e158c525b339190a1565b67ffffffffffffffff821633612147826121ee565b600160a060020a031614610f39576040805160e560020a62461bcd02815260206004820152601560248201527f73656e646572206d757374206f776e20746f6b656e0000000000000000000000604482015290519081900360640190fd5b6113298383836020604051908101604052806000815250612dc3565b600090815260066020526040902054600160a060020a0316151590565b60005460a060020a900460ff1681565b600081815260066020526040812054600160a060020a031680151561111f576040805160e560020a62461bcd02815260206004820152600d60248201527f6e6f206f776e6572206164647200000000000000000000000000000000000000604482015290519081900360640190fd5b6001546040805160e060020a6312d9a6ad0281527f61646d696e0000000000000000000000000000000000000000000000000000006004820181905233602483015291519192600160a060020a0316916312d9a6ad916044808201926020929091908290030181600087803b1580156122d557600080fd5b505af11580156122e9573d6000803e3d6000fd5b505050506040513d60208110156122ff57600080fd5b50511515612345576040805160e560020a62461bcd02815260206004820152600d6024820152600080516020614522833981519152604482015290519081900360640190fd5b6001546040805160e060020a6321f8a7210281527f63757457616c6c6574000000000000000000000000000000000000000000000060048201529051600160a060020a03909216916321f8a721916024808201926020929091908290030181600087803b1580156123b557600080fd5b505af11580156123c9573d6000803e3d6000fd5b505050506040513d60208110156123df57600080fd5b5051604051600160a060020a0390911690303180156108fc02916000818181858888f19350505050158015612418573d6000803e3d6000fd5b5050565b6001546040805160e060020a6312d9a6ad0281527f61646d696e0000000000000000000000000000000000000000000000000000006004820181905233602483015291519192600160a060020a0316916312d9a6ad916044808201926020929091908290030181600087803b15801561249457600080fd5b505af11580156124a8573d6000803e3d6000fd5b505050506040513d60208110156124be57600080fd5b50511515612504576040805160e560020a62461bcd02815260206004820152600d6024820152600080516020614522833981519152604482015290519081900360640190fd5b50600b80546fffffffffffffffffffffffffffffffff19166fffffffffffffffffffffffffffffffff9485161784167001000000000000000000000000000000009390941692909202929092179055600c805463ffffffff191663ffffffff909216919091179055565b6000600160a060020a03821615156125d0576040805160e560020a62461bcd02815260206004820152600d60248201527f6e6f206f776e6572206164647200000000000000000000000000000000000000604482015290519081900360640190fd5b50600160a060020a031660009081526008602052604090205490565b600054600160a060020a0316331461263c576040805160e560020a62461bcd0281526020600482015260116024820152600080516020614542833981519152604482015290519081900360640190fd5b60008054604051600160a060020a03909116917ff8df31144d9c2f0f6b59d69b8b98abd5459d07f2742c4df920b25aae33c6482091a260008054600160a060020a0319169055565b6001546040805160e060020a6312d9a6ad0281526000805160206145a28339815191526004820181905233602483015291519192600160a060020a0316916312d9a6ad916044808201926020929091908290030181600087803b1580156126ea57600080fd5b505af11580156126fe573d6000803e3d6000fd5b505050506040513d602081101561271457600080fd5b5051151561275a576040805160e560020a62461bcd02815260206004820152600d6024820152600080516020614522833981519152604482015290519081900360640190fd5b6113298383613d95565b600054600160a060020a031633146127b4576040805160e560020a62461bcd0281526020600482015260116024820152600080516020614542833981519152604482015290519081900360640190fd5b60005460a060020a900460ff16156127cb57600080fd5b6000805474ff0000000000000000000000000000000000000000191660a060020a1781556040517f6985a02210a168e66602d3235cb6db0e70f92b3ba4d376a33c0f3d9434bff6259190a1565b600054600160a060020a031681565b60408051808201909152600281527f4544000000000000000000000000000000000000000000000000000000000000602082015290565b6001546040805160e060020a6312d9a6ad028152600080516020614582833981519152600482018190523360248301529151600093600160a060020a0316916312d9a6ad91604480830192602092919082900301818887803b1580156128c357600080fd5b505af11580156128d7573d6000803e3d6000fd5b505050506040513d60208110156128ed57600080fd5b50511515612933576040805160e560020a62461bcd02815260206004820152600d6024820152600080516020614522833981519152604482015290519081900360640190fd5b67ffffffffffffffff8416600090815260036020819052604082206001015463ffffffff670100000000000000909104169085900b019250600783900b12156129a95767ffffffffffffffff8416600090815260036020526040902060010180546affffffff00000000000000191690556129f5565b63ffffffff600783900b13156129f55767ffffffffffffffff8416600090815260036020526040902060010180546affffffff0000000000000019166affffffff000000000000001790555b67ffffffffffffffff841660008181526003602090815260409182902060010180546affffffff00000000000000191667010000000000000063ffffffff881602179055815192835290516000805160206145628339815191529281900390910190a150505050565b600160a060020a038216331415612a7457600080fd5b336000818152600a60209081526040808320600160a060020a03871680855290835292819020805460ff1916861515908117909155815190815290519293927f17307eab39ab6107e8899845ad3d59bd9653f200f220920489ca2b5937696c31929181900390910190a35050565b6001546040805160e060020a6312d9a6ad028152600080516020614582833981519152600482018190523360248301529151600093600160a060020a0316916312d9a6ad91604480830192602092919082900301818887803b158015612b4757600080fd5b505af1158015612b5b573d6000803e3d6000fd5b505050506040513d6020811015612b7157600080fd5b50511515612bb7576040805160e560020a62461bcd02815260206004820152600d6024820152600080516020614522833981519152604482015290519081900360640190fd5b67ffffffffffffffff8516600090815260036020818152604080842088855260020190915282205463ffffffff169085900b019250600783900b1215612c2e5767ffffffffffffffff851660009081526003602090815260408083208784526002019091529020805463ffffffff19169055612c77565b63ffffffff600783900b1315612c775767ffffffffffffffff851660009081526003602090815260408083208784526002019091529020805463ffffffff191663ffffffff1790555b67ffffffffffffffff85166000818152600360209081526040808320888452600201825291829020805463ffffffff191663ffffffff8716179055815192835290516000805160206145628339815191529281900390910190a15050505050565b8033612ce3826121ee565b600160a060020a031614612d41576040805160e560020a62461bcd02815260206004820152601560248201527f73656e646572206d757374206f776e20746f6b656e0000000000000000000000604482015290519081900360640190fd5b60005460a060020a900460ff1615612d5857600080fd5b6113293384846115ca565b67ffffffffffffffff91909116600090815260036020908152604080832093835260029093019052205463ffffffff1690565b60005460a060020a900460ff1615612dad57600080fd5b612dc0612db9826121ee565b33836115ca565b50565b612dce8484846115ca565b612dda84848484613ea2565b151561207d57600080fd5b67ffffffffffffffff8116600090815260036020526040812060018082015483916b010000000000000000000000909104161515612f8f57600154604080517faa327f1e00000000000000000000000000000000000000000000000000000000815260ff871660048201529051600160a060020a039092169163aa327f1e916024808201926020929091908290030181600087803b158015612e8657600080fd5b505af1158015612e9a573d6000803e3d6000fd5b505050506040513d6020811015612eb057600080fd5b50516001830154604080517f020aefb70000000000000000000000000000000000000000000000000000000081526bffffffffffffffffffffffff8816600482015262ffffff8316602482015263ffffffff6301000000840481166044830152670100000000000000909304909216606483015251919250600160a060020a0383169163020aefb7916084808201926020929091908290030181600087803b158015612f5b57600080fd5b505af1158015612f6f573d6000803e3d6000fd5b505050506040513d6020811015612f8557600080fd5b5051159250612f94565b600092505b5050919050565b6001546040805160e060020a6312d9a6ad0281526000805160206145a2833981519152600482018190523360248301529151600093849392600160a060020a03909116916312d9a6ad9160448082019260209290919082900301818887803b15801561300657600080fd5b505af115801561301a573d6000803e3d6000fd5b505050506040513d602081101561303057600080fd5b50511515613076576040805160e560020a62461bcd02815260206004820152600d6024820152600080516020614522833981519152604482015290519081900360640190fd5b61307f846130a4565b9250600091505b8282101561207d57613099846000613d95565b600190910190613086565b600154604080517faa327f1e00000000000000000000000000000000000000000000000000000000815260ff84166004820152905160009283928392600160a060020a039092169163aa327f1e9160248082019260209290919082900301818787803b15801561311357600080fd5b505af1158015613127573d6000803e3d6000fd5b505050506040513d602081101561313d57600080fd5b5051600154604080517f0c1ba17a0000000000000000000000000000000000000000000000000000000081529051929450600160a060020a03918216926321f8a72192861691630c1ba17a9160048083019260209291908290030181600087803b1580156131aa57600080fd5b505af11580156131be573d6000803e3d6000fd5b505050506040513d60208110156131d457600080fd5b5051604080517c010000000000000000000000000000000000000000000000000000000063ffffffff851602815260048101929092525160248083019260209291908290030181600087803b15801561322c57600080fd5b505af1158015613240573d6000803e3d6000fd5b505050506040513d602081101561325657600080fd5b5051604080517f4d19d5150000000000000000000000000000000000000000000000000000000081529051919250600160a060020a03831691634d19d515916004808201926020929091908290030181600087803b1580156132b757600080fd5b505af11580156132cb573d6000803e3d6000fd5b505050506040513d60208110156132e157600080fd5b5051949350505050565b6001546040805160e060020a6312d9a6ad028152600080516020614582833981519152600482018190523360248301529151600093600160a060020a0316916312d9a6ad91604480830192602092919082900301818887803b15801561335057600080fd5b505af1158015613364573d6000803e3d6000fd5b505050506040513d602081101561337a57600080fd5b505115156133c0576040805160e560020a62461bcd02815260206004820152600d6024820152600080516020614522833981519152604482015290519081900360640190fd5b67ffffffffffffffff8416600090815260036020819052604082206001015463ffffffff6301000000909104169085900b019250600783900b121561342e5767ffffffffffffffff84166000908152600360205260409020600101805466ffffffff00000019169055613472565b63ffffffff600783900b13156134725767ffffffffffffffff84166000908152600360205260409020600101805466ffffffff000000191666ffffffff0000001790555b67ffffffffffffffff8416600081815260036020908152604091829020600101805466ffffffff0000001916630100000063ffffffff881602179055815192835290516000805160206145628339815191529281900390910190a150505050565b600160a060020a039182166000908152600a6020908152604080832093909416825291909152205460ff1690565b600067ffffffffffffffff851633613518826121ee565b600160a060020a031614613576576040805160e560020a62461bcd02815260206004820152601560248201527f73656e646572206d757374206f776e20746f6b656e0000000000000000000000604482015290519081900360640190fd5b60005460a060020a900460ff161561358d57600080fd5b6135a08667ffffffffffffffff16612de5565b15156135f6576040805160e560020a62461bcd02815260206004820152601a60248201527f746f6b656e2063616e2774206265207472616e73666572726564000000000000604482015290519081900360640190fd5b6001546040805160e060020a6321f8a7210281527f5265766572736541756374696f6e00000000000000000000000000000000000060048201529051600160a060020a03909216916321f8a721916024808201926020929091908290030181600087803b15801561366657600080fd5b505af115801561367a573d6000803e3d6000fd5b505050506040513d602081101561369057600080fd5b505191506136a88267ffffffffffffffff8816611125565b604080517fe599026200000000000000000000000000000000000000000000000000000000815267ffffffffffffffff881660048201526fffffffffffffffffffffffffffffffff80881660248301528616604482015263ffffffff851660648201523360848201529051600160a060020a0384169163e59902629160a480830192600092919082900301818387803b15801561374457600080fd5b505af1158015613758573d6000803e3d6000fd5b50505050505050505050565b600054600160a060020a031633146137b4576040805160e560020a62461bcd0281526020600482015260116024820152600080516020614542833981519152604482015290519081900360640190fd5b600160a060020a0381161515613814576040805160e560020a62461bcd02815260206004820152601760248201527f6e6577206f776e6572206d7573742062652076616c6964000000000000000000604482015290519081900360640190fd5b60008054604051600160a060020a03808516939216917f8be0079c531659141344cd1fd0a4f28419497f9722a3daafe3b4186f6b6457e091a360008054600160a060020a031916600160a060020a0392909216919091179055565b60008061387b836121ee565b905080600160a060020a031684600160a060020a031614806138b6575083600160a060020a03166138ab846117cc565b600160a060020a0316145b806138c657506138c681856134d3565b949350505050565b6138d88382614024565b6138e28382614107565b6138ec82826142a2565b8082600160a060020a031684600160a060020a03167fddf252ad1be2c89b69c2b068fc378daa952ba7f163c4a11628f55a4df523b3ef60405160405180910390a4505050565b600154604080517faa327f1e00000000000000000000000000000000000000000000000000000000815260ff8516600482015290516000928392839283928392600160a060020a039091169163aa327f1e9160248082019260209290919082900301818787803b1580156139a557600080fd5b505af11580156139b9573d6000803e3d6000fd5b505050506040513d60208110156139cf57600080fd5b50519150600090505b600a811015613aea57604080517ff23c83d900000000000000000000000000000000000000000000000000000000815260ff88166004820152602481018390528151600160a060020a0385169263f23c83d992604480820193918290030181600087803b158015613a4857600080fd5b505af1158015613a5c573d6000803e3d6000fd5b505050506040513d6040811015613a7257600080fd5b50805160209182015167ffffffffffffffff82166000908152600390935260409092206001015490955090935062ffffff16158015613acb575067ffffffffffffffff841660009081526004602052604090205460ff16155b15613ae257613ada8484613bdc565b839450613b2c565b6001016139d8565b6040805167ffffffffffffffff8616815290517f4cc3702a2cbe4f4556dfb2a568f8bf639b552dff8458617d3259c68011ede5c09181900360200190a1600094505b5050505092915050565b600160a060020a0382161515613b96576040805160e560020a62461bcd02815260206004820152601660248201527f61646472206d757374206e6f7420626520656d70747900000000000000000000604482015290519081900360640190fd5b613ba082826142a2565b6040518190600160a060020a038416906000907fddf252ad1be2c89b69c2b068fc378daa952ba7f163c4a11628f55a4df523b3ef908290a45050565b67ffffffffffffffff82161515613c3d576040805160e560020a62461bcd02815260206004820152601460248201527f646e61206d7573742062652070726f7669646564000000000000000000000000604482015290519081900360640190fd5b6040805160a081018252600080825262ffffff8481166020808501918252848601848152606086018581526080870186815267ffffffffffffffff8b811680895260038087528b8a209a518b55965160019a8b01805496519551945162ffffff19909716919099161766ffffffff0000001916630100000063ffffffff95861602176affffffff0000000000000019166701000000000000009490931693909302919091176cffff000000000000000000000019166b01000000000000000000000061ffff90941693909302929092179094556002805496870181559094527f405787fa12a823e0f2b7631cc41b3ba8828b3321ca811111fa75cd3aa3bb5ace60048604018054959092166008026101000a9384021990941692820292909217909155825190815291517f9363f3eb6a090bae53c5052f95c03f9cfdaf2d9a07c072dbdb805dc9a643ce809281900390910190a15050565b6000613da18383613932565b905067ffffffffffffffff81161561132957613dc7308267ffffffffffffffff16613b36565b6001546040805160e060020a6321f8a7210281527f5265766572736541756374696f6e00000000000000000000000000000000000060048201529051600160a060020a03909216916321f8a721916024808201926020929091908290030181600087803b158015613e3757600080fd5b505af1158015613e4b573d6000803e3d6000fd5b505050506040513d6020811015613e6157600080fd5b505167ffffffffffffffff821660009081526007602052604090208054600160a060020a031916600160a060020a0390921691909117905561132981614369565b600080613eb785600160a060020a03166144dc565b1515613ec6576001915061401b565b6040517f150b7a020000000000000000000000000000000000000000000000000000000081523360048201818152600160a060020a03898116602485015260448401889052608060648501908152875160848601528751918a169463150b7a0294938c938b938b93909160a490910190602085019080838360005b83811015613f59578181015183820152602001613f41565b50505050905090810190601f168015613f865780820380516001836020036101000a031916815260200191505b5095505050505050602060405180830381600087803b158015613fa857600080fd5b505af1158015613fbc573d6000803e3d6000fd5b505050506040513d6020811015613fd257600080fd5b50517bffffffffffffffffffffffffffffffffffffffffffffffffffffffff1981167f150b7a020000000000000000000000000000000000000000000000000000000014925090505b50949350505050565b81600160a060020a0316614037826121ee565b600160a060020a031614614095576040805160e560020a62461bcd02815260206004820152601a60248201527f746f6b656e206d7573742062656c6f6e6720746f206f776e6572000000000000604482015290519081900360640190fd5b600081815260076020526040902054600160a060020a031615612418576000818152600760205260408082208054600160a060020a031916905551829190600160a060020a038516907f8c5be1e5ebec7d5bd14f71427d1e84f3dd0314c0f7b2291e5b200ac8c7c3b925908390a45050565b600080600084600160a060020a031661411f856121ee565b600160a060020a03161461417d576040805160e560020a62461bcd02815260206004820152601e60248201527f66726f6d2061646472206d75737420626520746f6b656e206f776e6465720000604482015290519081900360640190fd5b60008481526006602090815260408083208054600160a060020a03191690556009825280832054600160a060020a03891684526008909252822054909450116141c75760006141e5565b600160a060020a038516600090815260086020526040902054600019015b600160a060020a03861660009081526008602052604090208054919350908390811061420d57fe5b90600052602060002001549050806008600087600160a060020a0316600160a060020a031681526020019081526020016000208481548110151561424d57fe5b6000918252602080832090910192909255600160a060020a03871681526008909152604090208054906142849060001983016144e4565b50600093845260096020526040808520859055908452909220555050565b600081815260066020526040812054600160a060020a03161561430f576040805160e560020a62461bcd02815260206004820152601a60248201527f63757272656e742061646472206d75737420626520656d707479000000000000604482015290519081900360640190fd5b5060008181526006602090815260408083208054600160a060020a03909616600160a060020a0319909616861790559382526008815283822080546001810182559083528183208101849055928252600990529190912055565b6001546040805160e060020a6321f8a7210281527f5265766572736541756374696f6e00000000000000000000000000000000000060048201529051600092600160a060020a0316916321f8a72191602480830192602092919082900301818787803b1580156143d857600080fd5b505af11580156143ec573d6000803e3d6000fd5b505050506040513d602081101561440257600080fd5b5051600b54600c54604080517fe599026200000000000000000000000000000000000000000000000000000000815267ffffffffffffffff871660048201526fffffffffffffffffffffffffffffffff8085166024830152700100000000000000000000000000000000909404909316604484015263ffffffff909116606483015230608483015251919250600160a060020a0383169163e59902629160a48082019260009290919082900301818387803b1580156144c057600080fd5b505af11580156144d4573d6000803e3d6000fd5b505050505050565b6000903b1190565b8154818355818111156113295760008381526020902061132991810190830161111191905b8082111561451d5760008155600101614509565b509056006e6f74207065726d6974746564000000000000000000000000000000000000006e6565647320746f206265206f776e65720000000000000000000000000000008faa7279f7c80c2da062536be5be196f54f55cc25fd82bc194a43edc47e99cd56d6f6469666965720000000000000000000000000000000000000000000000006d696e7465720000000000000000000000000000000000000000000000000000a165627a7a723058207a5ce0075ce613f94c64d3778001426a9b38438825ced0ce8e8ba86d250bbc8e0029",
  "source": "pragma solidity ^0.4.0;\r\n\r\nimport \"./EverDragonsImport.sol\";\r\n\r\ncontract EverDragons is EverDragonsImport {\r\n    constructor(address registrarAddress) public HasRegistrar(registrarAddress) {}\r\n\r\n    function getDragon(uint64 dna)\r\n        public\r\n        view\r\n        returns (uint24 attributes, uint32 experience, uint32 prestige, uint16 state, bytes32 name)\r\n    {\r\n        Dragon storage dragon = dnaToDragon[dna];\r\n        return (dragon.attributes, dragon.experience, dragon.prestige, dragon.state, dragon.name);\r\n    }\r\n\r\n    function getDragonItem(uint64 dna, bytes32 item) public view returns (uint256) {\r\n        return dnaToDragon[dna].items[item];\r\n    }\r\n\r\n    function getDragonByIndex(uint256 index)\r\n        public\r\n        view\r\n        returns (uint24 attributes, uint32 experience, uint32 prestige, uint16 state, bytes32 name, uint64 dna)\r\n    {\r\n        require(index < totalSupply(), \"index too large\");\r\n        dna = DNAs[index];\r\n        Dragon storage dragon = dnaToDragon[dna];\r\n        return (dragon.attributes, dragon.experience, dragon.prestige, dragon.state, dragon.name, dna);\r\n    }\r\n\r\n    function changeDragonName(uint64 dna, bytes32 name) external onlyOwnerOf(dna) {\r\n        dnaToDragon[dna].name = name;\r\n        emit PropertiesChanged(dna);\r\n    }\r\n\r\n    function createDragonForUser(address receiver, uint64 dna, uint24 attributes) external hasRole(\"minter\") {\r\n        require(dnaToDragon[dna].attributes == 0, \"dna already exists\");\r\n        require(blockedDNA[dna] == false, \"dna blocked\");\r\n        createDragon(dna, attributes);\r\n        mint(receiver, uint256(dna));\r\n    }\r\n\r\n    function createRandomDragonForUser(address receiver, uint8 dragonType, uint8 version) external hasRole(\"minter\") {\r\n        uint64 dna = generateDragon(dragonType, version);\r\n        require(dna != 0, \"duplicated dna\");\r\n        mint(receiver, uint256(dna));\r\n    }\r\n\r\n    function createNSEDragon(uint8 dragonType, uint8 version) external hasRole(\"minter\") {\r\n        createNSE(dragonType, version);\r\n    }\r\n}\r\n",
  "sourcePath": "C:\\Projects\\everdragons\\everdragons-contract\\contracts\\EverDragons.sol",
  "compiler": {
    "name": "solc",
    "version": "0.4.25+commit.69a1e720.Emscripten.clang"
  },
  "schemaVersion": "2.0.1",
  "updatedAt": "2019-04-27T17:11:12.089Z"
}