{
  "contractName": "EverDragonsPlayer",
  "abi": [
    {
      "constant": false,
      "inputs": [
        {
          "name": "player",
          "type": "address"
        },
        {
          "name": "item",
          "type": "bytes32"
        },
        {
          "name": "value",
          "type": "uint32"
        }
      ],
      "name": "setItem",
      "outputs": [],
      "payable": false,
      "stateMutability": "nonpayable",
      "type": "function"
    },
    {
      "constant": false,
      "inputs": [
        {
          "name": "player",
          "type": "address"
        },
        {
          "name": "item",
          "type": "bytes32"
        },
        {
          "name": "value",
          "type": "int32"
        }
      ],
      "name": "modifyItem",
      "outputs": [],
      "payable": false,
      "stateMutability": "nonpayable",
      "type": "function"
    },
    {
      "constant": false,
      "inputs": [],
      "name": "payoutSurplus",
      "outputs": [],
      "payable": false,
      "stateMutability": "nonpayable",
      "type": "function"
    },
    {
      "constant": true,
      "inputs": [
        {
          "name": "player",
          "type": "address"
        },
        {
          "name": "item",
          "type": "bytes32"
        }
      ],
      "name": "getItemForUser",
      "outputs": [
        {
          "name": "",
          "type": "uint32"
        }
      ],
      "payable": false,
      "stateMutability": "view",
      "type": "function"
    },
    {
      "constant": false,
      "inputs": [
        {
          "name": "_goldPrice",
          "type": "uint256"
        }
      ],
      "name": "setGoldPrice",
      "outputs": [],
      "payable": false,
      "stateMutability": "nonpayable",
      "type": "function"
    },
    {
      "constant": false,
      "inputs": [],
      "name": "buyGold",
      "outputs": [],
      "payable": true,
      "stateMutability": "payable",
      "type": "function"
    },
    {
      "constant": false,
      "inputs": [],
      "name": "claimRewards",
      "outputs": [],
      "payable": false,
      "stateMutability": "nonpayable",
      "type": "function"
    },
    {
      "constant": false,
      "inputs": [],
      "name": "unpause",
      "outputs": [],
      "payable": false,
      "stateMutability": "nonpayable",
      "type": "function"
    },
    {
      "constant": true,
      "inputs": [
        {
          "name": "player",
          "type": "address"
        },
        {
          "name": "chain",
          "type": "bytes32"
        }
      ],
      "name": "getLinkedAccountForUser",
      "outputs": [
        {
          "name": "",
          "type": "address"
        }
      ],
      "payable": false,
      "stateMutability": "view",
      "type": "function"
    },
    {
      "constant": true,
      "inputs": [],
      "name": "goldPrice",
      "outputs": [
        {
          "name": "",
          "type": "uint256"
        }
      ],
      "payable": false,
      "stateMutability": "view",
      "type": "function"
    },
    {
      "constant": false,
      "inputs": [
        {
          "name": "chain",
          "type": "bytes32"
        },
        {
          "name": "account",
          "type": "address"
        }
      ],
      "name": "linkAccount",
      "outputs": [],
      "payable": false,
      "stateMutability": "nonpayable",
      "type": "function"
    },
    {
      "constant": true,
      "inputs": [],
      "name": "paused",
      "outputs": [
        {
          "name": "",
          "type": "bool"
        }
      ],
      "payable": false,
      "stateMutability": "view",
      "type": "function"
    },
    {
      "constant": false,
      "inputs": [
        {
          "name": "_ownersCut",
          "type": "uint256"
        },
        {
          "name": "_dividendCut",
          "type": "uint256"
        }
      ],
      "name": "setCutAndBonus",
      "outputs": [],
      "payable": false,
      "stateMutability": "nonpayable",
      "type": "function"
    },
    {
      "constant": false,
      "inputs": [],
      "name": "payout",
      "outputs": [],
      "payable": false,
      "stateMutability": "nonpayable",
      "type": "function"
    },
    {
      "constant": false,
      "inputs": [
        {
          "name": "player",
          "type": "address"
        },
        {
          "name": "chain",
          "type": "bytes32"
        },
        {
          "name": "account",
          "type": "address"
        }
      ],
      "name": "linkAccountForUser",
      "outputs": [],
      "payable": false,
      "stateMutability": "nonpayable",
      "type": "function"
    },
    {
      "constant": false,
      "inputs": [],
      "name": "renounceOwnership",
      "outputs": [],
      "payable": false,
      "stateMutability": "nonpayable",
      "type": "function"
    },
    {
      "constant": true,
      "inputs": [],
      "name": "getCut",
      "outputs": [
        {
          "name": "",
          "type": "uint256"
        }
      ],
      "payable": false,
      "stateMutability": "view",
      "type": "function"
    },
    {
      "constant": false,
      "inputs": [],
      "name": "pause",
      "outputs": [],
      "payable": false,
      "stateMutability": "nonpayable",
      "type": "function"
    },
    {
      "constant": false,
      "inputs": [
        {
          "name": "value",
          "type": "uint32"
        }
      ],
      "name": "sellGold",
      "outputs": [],
      "payable": false,
      "stateMutability": "nonpayable",
      "type": "function"
    },
    {
      "constant": true,
      "inputs": [],
      "name": "owner",
      "outputs": [
        {
          "name": "",
          "type": "address"
        }
      ],
      "payable": false,
      "stateMutability": "view",
      "type": "function"
    },
    {
      "constant": false,
      "inputs": [
        {
          "name": "value",
          "type": "uint32"
        },
        {
          "name": "player",
          "type": "address"
        }
      ],
      "name": "payGoldToContract",
      "outputs": [],
      "payable": false,
      "stateMutability": "nonpayable",
      "type": "function"
    },
    {
      "constant": true,
      "inputs": [
        {
          "name": "goldSpent",
          "type": "uint256"
        }
      ],
      "name": "getCutGoldValue",
      "outputs": [
        {
          "name": "",
          "type": "uint256"
        }
      ],
      "payable": false,
      "stateMutability": "view",
      "type": "function"
    },
    {
      "constant": true,
      "inputs": [],
      "name": "playersCount",
      "outputs": [
        {
          "name": "",
          "type": "uint256"
        }
      ],
      "payable": false,
      "stateMutability": "view",
      "type": "function"
    },
    {
      "constant": true,
      "inputs": [
        {
          "name": "item",
          "type": "bytes32"
        }
      ],
      "name": "getItem",
      "outputs": [
        {
          "name": "",
          "type": "uint32"
        }
      ],
      "payable": false,
      "stateMutability": "view",
      "type": "function"
    },
    {
      "constant": true,
      "inputs": [
        {
          "name": "chain",
          "type": "bytes32"
        }
      ],
      "name": "getLinkedAccount",
      "outputs": [
        {
          "name": "",
          "type": "address"
        }
      ],
      "payable": false,
      "stateMutability": "view",
      "type": "function"
    },
    {
      "constant": true,
      "inputs": [],
      "name": "totalValue",
      "outputs": [
        {
          "name": "value",
          "type": "uint256"
        }
      ],
      "payable": false,
      "stateMutability": "view",
      "type": "function"
    },
    {
      "constant": false,
      "inputs": [
        {
          "name": "goldSpent",
          "type": "uint256"
        }
      ],
      "name": "payoutCutAndBonus",
      "outputs": [],
      "payable": false,
      "stateMutability": "nonpayable",
      "type": "function"
    },
    {
      "constant": true,
      "inputs": [],
      "name": "dividendCut",
      "outputs": [
        {
          "name": "",
          "type": "uint256"
        }
      ],
      "payable": false,
      "stateMutability": "view",
      "type": "function"
    },
    {
      "constant": true,
      "inputs": [],
      "name": "ownersCut",
      "outputs": [
        {
          "name": "",
          "type": "uint256"
        }
      ],
      "payable": false,
      "stateMutability": "view",
      "type": "function"
    },
    {
      "constant": false,
      "inputs": [
        {
          "name": "newOwner",
          "type": "address"
        }
      ],
      "name": "transferOwnership",
      "outputs": [],
      "payable": false,
      "stateMutability": "nonpayable",
      "type": "function"
    },
    {
      "constant": true,
      "inputs": [
        {
          "name": "index",
          "type": "uint256"
        }
      ],
      "name": "getPlayerByIndex",
      "outputs": [
        {
          "name": "",
          "type": "address"
        }
      ],
      "payable": false,
      "stateMutability": "view",
      "type": "function"
    },
    {
      "inputs": [
        {
          "name": "registrarAddress",
          "type": "address"
        },
        {
          "name": "_goldPrice",
          "type": "uint256"
        }
      ],
      "payable": false,
      "stateMutability": "nonpayable",
      "type": "constructor"
    },
    {
      "payable": true,
      "stateMutability": "payable",
      "type": "fallback"
    },
    {
      "anonymous": false,
      "inputs": [
        {
          "indexed": false,
          "name": "player",
          "type": "address"
        },
        {
          "indexed": false,
          "name": "item",
          "type": "bytes32"
        },
        {
          "indexed": false,
          "name": "value",
          "type": "uint32"
        }
      ],
      "name": "ItemChanged",
      "type": "event"
    },
    {
      "anonymous": false,
      "inputs": [],
      "name": "Pause",
      "type": "event"
    },
    {
      "anonymous": false,
      "inputs": [],
      "name": "Unpause",
      "type": "event"
    },
    {
      "anonymous": false,
      "inputs": [
        {
          "indexed": true,
          "name": "previousOwner",
          "type": "address"
        }
      ],
      "name": "OwnershipRenounced",
      "type": "event"
    },
    {
      "anonymous": false,
      "inputs": [
        {
          "indexed": true,
          "name": "previousOwner",
          "type": "address"
        },
        {
          "indexed": true,
          "name": "newOwner",
          "type": "address"
        }
      ],
      "name": "OwnershipTransferred",
      "type": "event"
    },
    {
      "constant": false,
      "inputs": [
        {
          "name": "player",
          "type": "address"
        },
        {
          "name": "name",
          "type": "bytes32"
        }
      ],
      "name": "setNameForUser",
      "outputs": [],
      "payable": false,
      "stateMutability": "nonpayable",
      "type": "function"
    },
    {
      "constant": false,
      "inputs": [
        {
          "name": "name",
          "type": "bytes32"
        }
      ],
      "name": "setName",
      "outputs": [],
      "payable": false,
      "stateMutability": "nonpayable",
      "type": "function"
    },
    {
      "constant": true,
      "inputs": [
        {
          "name": "player",
          "type": "address"
        }
      ],
      "name": "getNameForUser",
      "outputs": [
        {
          "name": "",
          "type": "bytes32"
        }
      ],
      "payable": false,
      "stateMutability": "view",
      "type": "function"
    },
    {
      "constant": true,
      "inputs": [],
      "name": "getName",
      "outputs": [
        {
          "name": "",
          "type": "bytes32"
        }
      ],
      "payable": false,
      "stateMutability": "view",
      "type": "function"
    }
  ],
  "bytecode": "0x60806040526001805460a060020a60ff02191690556101f4600581905560065534801561002b57600080fd5b50d3801561003857600080fd5b50d2801561004557600080fd5b5060405160408061265683398101604052805160209091015160008054600160a060020a031916331790558082600160a060020a03811615156100e957604080517f08c379a000000000000000000000000000000000000000000000000000000000815260206004820152601f60248201527f7265676973747261722061646472657373206e6f7420617661696c61626c6500604482015290519081900360640190fd5b60018054600160a060020a031916600160a060020a03929092169190911790556000811161017857604080517f08c379a000000000000000000000000000000000000000000000000000000000815260206004820152601660248201527f676f6c64207072696365206d757374206265203e203000000000000000000000604482015290519081900360640190fd5b60045550506124ca8061018c6000396000f3006080604052600436106101b65763ffffffff7c01000000000000000000000000000000000000000000000000000000006000350416631511a37781146101b857806317d7de7c146101ff5780631fad7e071461024057806320cd6b0f1461028457806328f9933a146102b35780632d02a5b21461030a5780632f7b8af41461033c578063372500ab1461034457806339af4e56146103735780633f4ba83a146103b157806340463daa146103e0578063445014041461043a57806348579054146104695780634f980638146104a45780635ac801fe146104e25780635c975abb1461051457806361b3d07b1461055757806363bd1d4a1461058c57806369485b3d146105bb578063715018a61461060057806377f599661461062f5780638456cb591461065e57806386378d541461068d5780638da5cb5b146106c5578063941320ce146106f45780639de2380714610738578063a3f67d6d1461076a578063aa0372e714610799578063b91c2708146107cb578063d4c3eea0146107fd578063d732f7881461082c578063e3a896d31461085e578063e8fcf27a1461088d578063f2fde38b146108bc578063f48f0d8d146108f7575b005b3480156101c457600080fd5b50d380156101d157600080fd5b50d280156101de57600080fd5b506101b6600160a060020a036004351660243563ffffffff60443516610929565b34801561020b57600080fd5b50d3801561021857600080fd5b50d2801561022557600080fd5b5061022e610a99565b60408051918252519081900360200190f35b34801561024c57600080fd5b50d3801561025957600080fd5b50d2801561026657600080fd5b506101b6600160a060020a036004351660243560443560030b610aa9565b34801561029057600080fd5b50d3801561029d57600080fd5b50d280156102aa57600080fd5b506101b6610cce565b3480156102bf57600080fd5b50d380156102cc57600080fd5b50d280156102d957600080fd5b506102f1600160a060020a0360043516602435610e95565b6040805163ffffffff9092168252519081900360200190f35b34801561031657600080fd5b50d3801561032357600080fd5b50d2801561033057600080fd5b506101b6600435610ec3565b6101b6610f9c565b34801561035057600080fd5b50d3801561035d57600080fd5b50d2801561036a57600080fd5b506101b6611166565b34801561037f57600080fd5b50d3801561038c57600080fd5b50d2801561039957600080fd5b506101b6600160a060020a0360043516602435611269565b3480156103bd57600080fd5b50d380156103ca57600080fd5b50d280156103d757600080fd5b506101b66113ae565b3480156103ec57600080fd5b50d380156103f957600080fd5b50d2801561040657600080fd5b5061041e600160a060020a036004351660243561145f565b60408051600160a060020a039092168252519081900360200190f35b34801561044657600080fd5b50d3801561045357600080fd5b50d2801561046057600080fd5b5061022e61148b565b34801561047557600080fd5b50d3801561048257600080fd5b50d2801561048f57600080fd5b5061022e600160a060020a0360043516611491565b3480156104b057600080fd5b50d380156104bd57600080fd5b50d280156104ca57600080fd5b506101b6600435600160a060020a03602435166114b0565b3480156104ee57600080fd5b50d380156104fb57600080fd5b50d2801561050857600080fd5b506101b6600435611508565b34801561052057600080fd5b50d3801561052d57600080fd5b50d2801561053a57600080fd5b50610543611515565b604080519115158252519081900360200190f35b34801561056357600080fd5b50d3801561057057600080fd5b50d2801561057d57600080fd5b506101b6600435602435611525565b34801561059857600080fd5b50d380156105a557600080fd5b50d280156105b257600080fd5b506101b6611604565b3480156105c757600080fd5b50d380156105d457600080fd5b50d280156105e157600080fd5b506101b6600160a060020a0360043581169060243590604435166117ae565b34801561060c57600080fd5b50d3801561061957600080fd5b50d2801561062657600080fd5b506101b66118d7565b34801561063b57600080fd5b50d3801561064857600080fd5b50d2801561065557600080fd5b5061022e61197c565b34801561066a57600080fd5b50d3801561067757600080fd5b50d2801561068457600080fd5b506101b6611986565b34801561069957600080fd5b50d380156106a657600080fd5b50d280156106b357600080fd5b506101b663ffffffff60043516611a3c565b3480156106d157600080fd5b50d380156106de57600080fd5b50d280156106eb57600080fd5b5061041e611bef565b34801561070057600080fd5b50d3801561070d57600080fd5b50d2801561071a57600080fd5b506101b663ffffffff60043516600160a060020a0360243516611bfe565b34801561074457600080fd5b50d3801561075157600080fd5b50d2801561075e57600080fd5b5061022e600435611e31565b34801561077657600080fd5b50d3801561078357600080fd5b50d2801561079057600080fd5b5061022e611e44565b3480156107a557600080fd5b50d380156107b257600080fd5b50d280156107bf57600080fd5b506102f1600435611e4a565b3480156107d757600080fd5b50d380156107e457600080fd5b50d280156107f157600080fd5b5061041e600435611e5c565b34801561080957600080fd5b50d3801561081657600080fd5b50d2801561082357600080fd5b5061022e611e68565b34801561083857600080fd5b50d3801561084557600080fd5b50d2801561085257600080fd5b506101b6600435611f49565b34801561086a57600080fd5b50d3801561087757600080fd5b50d2801561088457600080fd5b5061022e6121f4565b34801561089957600080fd5b50d380156108a657600080fd5b50d280156108b357600080fd5b5061022e6121fa565b3480156108c857600080fd5b50d380156108d557600080fd5b50d280156108e257600080fd5b506101b6600160a060020a0360043516612200565b34801561090357600080fd5b50d3801561091057600080fd5b50d2801561091d57600080fd5b5061041e600435612318565b6001546040805160e060020a6312d9a6ad0281527f6d6f6469666965720000000000000000000000000000000000000000000000006004820181905233602483015291519192600160a060020a0316916312d9a6ad916044808201926020929091908290030181600087803b1580156109a157600080fd5b505af11580156109b5573d6000803e3d6000fd5b505050506040513d60208110156109cb57600080fd5b50511515610a11576040805160e560020a62461bcd02815260206004820152600d602482015260008051602061245f833981519152604482015290519081900360640190fd5b610a1a336123a1565b600160a060020a0384166000818152600260209081526040808320878452825291829020805463ffffffff191663ffffffff878116919091179182905583519485529184018790521682820152517f454f4982278417fab99ccac563fad94844041b1bcabae0e5fbf52870a18c4537916060908290030190a150505050565b6000610aa433611491565b905090565b6001546040805160e060020a6312d9a6ad0281527f6d6f646966696572000000000000000000000000000000000000000000000000600482018190523360248301529151600093600160a060020a0316916312d9a6ad91604480830192602092919082900301818887803b158015610b2057600080fd5b505af1158015610b34573d6000803e3d6000fd5b505050506040513d6020811015610b4a57600080fd5b50511515610b90576040805160e560020a62461bcd02815260206004820152600d602482015260008051602061245f833981519152604482015290519081900360640190fd5b610b99336123a1565b600160a060020a038516600090815260026020908152604080832087845290915281205463ffffffff16600385900b019250600783900b1215610c0957600160a060020a03851660009081526002602090815260408083208784529091529020805463ffffffff19169055610c4e565b63ffffffff600783900b1315610c4e57600160a060020a03851660009081526002602090815260408083208784529091529020805463ffffffff191663ffffffff1790555b600160a060020a0385166000818152600260209081526040808320888452825291829020805463ffffffff191663ffffffff878116919091179182905583519485529184018890521682820152517f454f4982278417fab99ccac563fad94844041b1bcabae0e5fbf52870a18c4537916060908290030190a15050505050565b6001546040805160e060020a6312d9a6ad02815260d960020a6430b236b4b702600482018190523360248301529151600093849392600160a060020a03909116916312d9a6ad9160448082019260209290919082900301818887803b158015610d3657600080fd5b505af1158015610d4a573d6000803e3d6000fd5b505050506040513d6020811015610d6057600080fd5b50511515610da6576040805160e560020a62461bcd02815260206004820152600d602482015260008051602061245f833981519152604482015290519081900360640190fd5b610dae611e68565b600480546001546040805160e060020a6321f8a7210281527f63757457616c6c6574000000000000000000000000000000000000000000000094810194909452519396509086023031039450600160a060020a0316916321f8a721916024808201926020929091908290030181600087803b158015610e2c57600080fd5b505af1158015610e40573d6000803e3d6000fd5b505050506040513d6020811015610e5657600080fd5b5051604051600160a060020a039091169083156108fc029084906000818181858888f19350505050158015610e8f573d6000803e3d6000fd5b50505050565b600160a060020a03919091166000908152600260209081526040808320938352929052205463ffffffff1690565b6001546040805160e060020a6312d9a6ad02815260d960020a6430b236b4b7026004820181905233602483015291519192600160a060020a0316916312d9a6ad916044808201926020929091908290030181600087803b158015610f2657600080fd5b505af1158015610f3a573d6000803e3d6000fd5b505050506040513d6020811015610f5057600080fd5b50511515610f96576040805160e560020a62461bcd02815260206004820152600d602482015260008051602061245f833981519152604482015290519081900360640190fd5b50600455565b600154600090819060a060020a900460ff1615610fb857600080fd5b33915060045434811515610fc857fe5b049050610fd4826123a1565b6000341161102c576040805160e560020a62461bcd02815260206004820152601360248201527f76616c75652068617320746f206265203e203000000000000000000000000000604482015290519081900360640190fd5b600063ffffffff82161161108a576040805160e560020a62461bcd02815260206004820152600d60248201527f76616c756520746f6f206c6f7700000000000000000000000000000000000000604482015290519081900360640190fd5b600160a060020a038216600090815260026020908152604080832060e260020a6319dbdb1902845290915290205463ffffffff9081168201811610611119576040805160e560020a62461bcd02815260206004820152601360248201527f676f6c642076616c756520746f6f206869676800000000000000000000000000604482015290519081900360640190fd5b600160a060020a0391909116600090815260026020908152604080832060e260020a6319dbdb190284529091529020805463ffffffff19811663ffffffff91821690930116919091179055565b60015460009060a060020a900460ff161561118057600080fd5b503360009081526002602090815260408083207f676f6c64546f436c61696d0000000000000000000000000000000000000000008452909152808220805460e260020a6319dbdb19028452828420805463ffffffff1980821663ffffffff94851692851692909201841691909117909155825481169092557f636f70706572546f436c61696d0000000000000000000000000000000000000080855283852080547f636f70706572000000000000000000000000000000000000000000000000000087529486208054808616968516908516019093169490941790915590925280549091169055565b33600160a060020a038316148061130957506001546040805160e060020a6312d9a6ad02815260d960020a6430b236b4b70260048201523360248201529051600160a060020a03909216916312d9a6ad916044808201926020929091908290030181600087803b1580156112dc57600080fd5b505af11580156112f0573d6000803e3d6000fd5b505050506040513d602081101561130657600080fd5b50515b1515611385576040805160e560020a62461bcd02815260206004820152602360248201527f6f6e6c79206d73672e73656e646572206f722061646d696e2063616e2070617960448201527f6f75740000000000000000000000000000000000000000000000000000000000606482015290519081900360840190fd5b61138e336123a1565b600160a060020a0390911660009081526002602081905260409091200155565b600054600160a060020a031633146113fe576040805160e560020a62461bcd028152602060048201526011602482015260008051602061247f833981519152604482015290519081900360640190fd5b60015460a060020a900460ff16151561141657600080fd5b6001805474ff0000000000000000000000000000000000000000191690556040517f7805862f689e2f13df9f062ff482ad3ad112aca9e0847911ed832e158c525b3390600090a1565b600160a060020a0391821660009081526002602090815260408083209383526001909301905220541690565b60045481565b600160a060020a03166000908152600260208190526040909120015490565b60006114bb336123a1565b503360009081526002602090815260408083209483526001909401905291909120805473ffffffffffffffffffffffffffffffffffffffff1916600160a060020a03909216919091179055565b6115123382611269565b50565b60015460a060020a900460ff1681565b6001546040805160e060020a6312d9a6ad02815260d960020a6430b236b4b7026004820181905233602483015291519192600160a060020a0316916312d9a6ad916044808201926020929091908290030181600087803b15801561158857600080fd5b505af115801561159c573d6000803e3d6000fd5b505050506040513d60208110156115b257600080fd5b505115156115f8576040805160e560020a62461bcd02815260206004820152600d602482015260008051602061245f833981519152604482015290519081900360640190fd5b50600591909155600655565b6001546040805160e060020a6312d9a6ad02815260d960020a6430b236b4b7026004820181905233602483015291519192600160a060020a0316916312d9a6ad916044808201926020929091908290030181600087803b15801561166757600080fd5b505af115801561167b573d6000803e3d6000fd5b505050506040513d602081101561169157600080fd5b505115156116d7576040805160e560020a62461bcd02815260206004820152600d602482015260008051602061245f833981519152604482015290519081900360640190fd5b6001546040805160e060020a6321f8a7210281527f63757457616c6c6574000000000000000000000000000000000000000000000060048201529051600160a060020a03909216916321f8a721916024808201926020929091908290030181600087803b15801561174757600080fd5b505af115801561175b573d6000803e3d6000fd5b505050506040513d602081101561177157600080fd5b5051604051600160a060020a0390911690303180156108fc02916000818181858888f193505050501580156117aa573d6000803e3d6000fd5b5050565b6001546040805160e060020a6312d9a6ad02815260d960020a6430b236b4b7026004820181905233602483015291519192600160a060020a0316916312d9a6ad916044808201926020929091908290030181600087803b15801561181157600080fd5b505af1158015611825573d6000803e3d6000fd5b505050506040513d602081101561183b57600080fd5b50511515611881576040805160e560020a62461bcd02815260206004820152600d602482015260008051602061245f833981519152604482015290519081900360640190fd5b61188a846123a1565b50600160a060020a0392831660009081526002602090815260408083209483526001909401905291909120805473ffffffffffffffffffffffffffffffffffffffff191691909216179055565b600054600160a060020a03163314611927576040805160e560020a62461bcd028152602060048201526011602482015260008051602061247f833981519152604482015290519081900360640190fd5b60008054604051600160a060020a03909116917ff8df31144d9c2f0f6b59d69b8b98abd5459d07f2742c4df920b25aae33c6482091a26000805473ffffffffffffffffffffffffffffffffffffffff19169055565b6006546005540190565b600054600160a060020a031633146119d6576040805160e560020a62461bcd028152602060048201526011602482015260008051602061247f833981519152604482015290519081900360640190fd5b60015460a060020a900460ff16156119ed57600080fd5b6001805474ff0000000000000000000000000000000000000000191660a060020a1790556040517f6985a02210a168e66602d3235cb6db0e70f92b3ba4d376a33c0f3d9434bff62590600090a1565b60015460009060a060020a900460ff1615611a5657600080fd5b5033600063ffffffff831611611ab6576040805160e560020a62461bcd02815260206004820152601360248201527f76616c75652068617320746f206265203e203000000000000000000000000000604482015290519081900360640190fd5b600160a060020a03811660009081526002602052604090206003015460ff168015611b175750600160a060020a038116600090815260026020908152604080832060e260020a6319dbdb1902845290915290205463ffffffff808416911610155b1515611b6d576040805160e560020a62461bcd02815260206004820152600f60248201527f6e6f7420656e6f75676820676f6c640000000000000000000000000000000000604482015290519081900360640190fd5b600160a060020a038116600090815260026020908152604080832060e260020a6319dbdb19028452909152808220805463ffffffff19811663ffffffff918216879003821617909155600454915133936108fc92871690930280159290920292818181858888f19350505050158015611bea573d6000803e3d6000fd5b505050565b600054600160a060020a031681565b60015460a060020a900460ff1615611c1557600080fd5b6001546040805160e060020a6312d9a6ad0281527f70617961626c65000000000000000000000000000000000000000000000000006004820181905233602483015291519192600160a060020a0316916312d9a6ad916044808201926020929091908290030181600087803b158015611c8d57600080fd5b505af1158015611ca1573d6000803e3d6000fd5b505050506040513d6020811015611cb757600080fd5b50511515611cfd576040805160e560020a62461bcd02815260206004820152600d602482015260008051602061245f833981519152604482015290519081900360640190fd5b600160a060020a03821660009081526002602052604090206003015460ff168015611d5e5750600160a060020a038216600090815260026020908152604080832060e260020a6319dbdb1902845290915290205463ffffffff808516911610155b1515611db4576040805160e560020a62461bcd02815260206004820152600f60248201527f6e6f7420656e6f75676820676f6c640000000000000000000000000000000000604482015290519081900360640190fd5b600160a060020a038216600090815260026020908152604080832060e260020a6319dbdb19028452909152808220805463ffffffff19811663ffffffff918216889003821617909155600454915133936108fc92881690930280159290920292818181858888f19350505050158015610e8f573d6000803e3d6000fd5b6006546005546127109101919091020490565b60035490565b6000611e563383610e95565b92915050565b6000611e56338361145f565b6000805b600354811015611f455760026000600383815481101515611e8957fe5b6000918252602080832090910154600160a060020a03168352828101939093526040918201812060e260020a6319dbdb190282529092528120546003805463ffffffff90921694909401936002929184908110611ee257fe5b6000918252602080832090910154600160a060020a0316835282810193909352604091820181207f676f6c64546f436c61696d000000000000000000000000000000000000000000825290925290205463ffffffff169190910190600101611e6c565b5090565b6001546040805160e060020a6312d9a6ad0281527f67616d65000000000000000000000000000000000000000000000000000000006004820181905233602483015291519192600160a060020a0316916312d9a6ad916044808201926020929091908290030181600087803b158015611fc157600080fd5b505af1158015611fd5573d6000803e3d6000fd5b505050506040513d6020811015611feb57600080fd5b50511515612031576040805160e560020a62461bcd02815260206004820152600d602482015260008051602061245f833981519152604482015290519081900360640190fd5b6001546040805160e060020a6321f8a7210281527f63757457616c6c6574000000000000000000000000000000000000000000000060048201529051600160a060020a03909216916321f8a721916024808201926020929091908290030181600087803b1580156120a157600080fd5b505af11580156120b5573d6000803e3d6000fd5b505050506040513d60208110156120cb57600080fd5b5051600454600554604051600160a060020a03909316926127109186029092020480156108fc02916000818181858888f19350505050158015612112573d6000803e3d6000fd5b506001546040805160e060020a6321f8a7210281527f626f6e757357616c6c657400000000000000000000000000000000000000000060048201529051600160a060020a03909216916321f8a721916024808201926020929091908290030181600087803b15801561218357600080fd5b505af1158015612197573d6000803e3d6000fd5b505050506040513d60208110156121ad57600080fd5b5051600454600654604051600160a060020a03909316926127109186029092020480156108fc02916000818181858888f19350505050158015611bea573d6000803e3d6000fd5b60065481565b60055481565b600054600160a060020a03163314612250576040805160e560020a62461bcd028152602060048201526011602482015260008051602061247f833981519152604482015290519081900360640190fd5b600160a060020a03811615156122b0576040805160e560020a62461bcd02815260206004820152601760248201527f6e6577206f776e6572206d7573742062652076616c6964000000000000000000604482015290519081900360640190fd5b60008054604051600160a060020a03808516939216917f8be0079c531659141344cd1fd0a4f28419497f9722a3daafe3b4186f6b6457e091a36000805473ffffffffffffffffffffffffffffffffffffffff1916600160a060020a0392909216919091179055565b6000612322611e44565b8210612378576040805160e560020a62461bcd02815260206004820152600f60248201527f696e64657820746f6f206c617267650000000000000000000000000000000000604482015290519081900360640190fd5b600380548390811061238657fe5b600091825260209091200154600160a060020a031692915050565b600160a060020a03811660009081526002602052604090206003015460ff16151561151257604080518082018252600080825260016020808401828152600160a060020a039690961680845260029182905294832093519084015593516003928301805460ff191691151591909117905581549384018255527fc2575a0e9e593c00f959f8c92f12db2869c3395a3b0502d05e2516446f71f85b909101805473ffffffffffffffffffffffffffffffffffffffff1916909117905556006e6f74207065726d6974746564000000000000000000000000000000000000006e6565647320746f206265206f776e6572000000000000000000000000000000a165627a7a72305820543bfae99a7926ea5cb400ac445b5d710ba6543353b82021a829f67fb7e22bfe0029",
  "source": "pragma solidity ^0.4.0;\r\n\r\nimport \"./EverDragonsPlayerPayment.sol\";\r\n\r\ncontract EverDragonsPlayer is EverDragonsPlayerPayment {\r\n    constructor(address registrarAddress, uint256 _goldPrice)\r\n        public\r\n        EverDragonsPlayerPayment(_goldPrice)\r\n        HasRegistrar(registrarAddress)\r\n    {}\r\n\r\n    function setNameForUser(address player, bytes32 name) public {\r\n        require(\r\n            msg.sender == player || registrar.checkRole(\"admin\", msg.sender),\r\n            \"only msg.sender or admin can payout\"\r\n        );\r\n        addPlayerIfNotExists(msg.sender);\r\n        players[player].name = name;\r\n    }\r\n\r\n    function setName(bytes32 name) external {\r\n        setNameForUser(msg.sender, name);\r\n    }\r\n\r\n    function getNameForUser(address player) public view returns (bytes32) {\r\n        return players[player].name;\r\n    }\r\n\r\n    function getName() public view returns (bytes32) {\r\n        return getNameForUser(msg.sender);\r\n    }\r\n}\r\n",
  "sourcePath": "C:\\Projects\\everdragons\\everdragons-contract\\contracts\\player\\EverDragonsPlayer.sol",
  "compiler": {
    "name": "solc",
    "version": "0.4.25+commit.69a1e720.Emscripten.clang"
  },
  "schemaVersion": "2.0.1",
  "updatedAt": "2019-04-27T17:11:10.676Z"
}