{
  "contractName": "EverDragonsVoucher",
  "abi": [
    {
      "constant": false,
      "inputs": [],
      "name": "unpause",
      "outputs": [],
      "payable": false,
      "stateMutability": "nonpayable",
      "type": "function"
    },
    {
      "constant": true,
      "inputs": [],
      "name": "paused",
      "outputs": [
        {
          "name": "",
          "type": "bool"
        }
      ],
      "payable": false,
      "stateMutability": "view",
      "type": "function"
    },
    {
      "constant": false,
      "inputs": [
        {
          "name": "newAdmin",
          "type": "address"
        }
      ],
      "name": "setAdmin",
      "outputs": [],
      "payable": false,
      "stateMutability": "nonpayable",
      "type": "function"
    },
    {
      "constant": false,
      "inputs": [],
      "name": "renounceOwnership",
      "outputs": [],
      "payable": false,
      "stateMutability": "nonpayable",
      "type": "function"
    },
    {
      "constant": false,
      "inputs": [],
      "name": "pause",
      "outputs": [],
      "payable": false,
      "stateMutability": "nonpayable",
      "type": "function"
    },
    {
      "constant": true,
      "inputs": [],
      "name": "owner",
      "outputs": [
        {
          "name": "",
          "type": "address"
        }
      ],
      "payable": false,
      "stateMutability": "view",
      "type": "function"
    },
    {
      "constant": false,
      "inputs": [
        {
          "name": "newOwner",
          "type": "address"
        }
      ],
      "name": "transferOwnership",
      "outputs": [],
      "payable": false,
      "stateMutability": "nonpayable",
      "type": "function"
    },
    {
      "constant": true,
      "inputs": [],
      "name": "admin",
      "outputs": [
        {
          "name": "",
          "type": "address"
        }
      ],
      "payable": false,
      "stateMutability": "view",
      "type": "function"
    },
    {
      "payable": true,
      "stateMutability": "payable",
      "type": "fallback",
      "name": "fallback"
    },
    {
      "anonymous": false,
      "inputs": [
        {
          "indexed": false,
          "name": "code",
          "type": "uint256"
        },
        {
          "indexed": false,
          "name": "user",
          "type": "address"
        }
      ],
      "name": "VoucherCreated",
      "type": "event"
    },
    {
      "anonymous": false,
      "inputs": [
        {
          "indexed": true,
          "name": "previousAdmin",
          "type": "address"
        },
        {
          "indexed": true,
          "name": "newAdmin",
          "type": "address"
        }
      ],
      "name": "AdminChanged",
      "type": "event"
    },
    {
      "anonymous": false,
      "inputs": [],
      "name": "Pause",
      "type": "event"
    },
    {
      "anonymous": false,
      "inputs": [],
      "name": "Unpause",
      "type": "event"
    },
    {
      "anonymous": false,
      "inputs": [
        {
          "indexed": true,
          "name": "previousOwner",
          "type": "address"
        }
      ],
      "name": "OwnershipRenounced",
      "type": "event"
    },
    {
      "anonymous": false,
      "inputs": [
        {
          "indexed": true,
          "name": "previousOwner",
          "type": "address"
        },
        {
          "indexed": true,
          "name": "newOwner",
          "type": "address"
        }
      ],
      "name": "OwnershipTransferred",
      "type": "event"
    },
    {
      "constant": false,
      "inputs": [
        {
          "name": "user",
          "type": "address"
        }
      ],
      "name": "createVoucherForUser",
      "outputs": [
        {
          "name": "",
          "type": "uint256"
        }
      ],
      "payable": false,
      "stateMutability": "nonpayable",
      "type": "function"
    },
    {
      "constant": false,
      "inputs": [
        {
          "name": "dragonItemsContract",
          "type": "address"
        }
      ],
      "name": "addDragonItemsContainer",
      "outputs": [],
      "payable": false,
      "stateMutability": "nonpayable",
      "type": "function"
    },
    {
      "constant": false,
      "inputs": [],
      "name": "payout",
      "outputs": [],
      "payable": false,
      "stateMutability": "nonpayable",
      "type": "function"
    },
    {
      "constant": false,
      "inputs": [],
      "name": "createVoucher",
      "outputs": [
        {
          "name": "",
          "type": "uint256"
        }
      ],
      "payable": false,
      "stateMutability": "nonpayable",
      "type": "function"
    },
    {
      "constant": true,
      "inputs": [],
      "name": "getNumVouchers",
      "outputs": [
        {
          "name": "",
          "type": "uint256"
        }
      ],
      "payable": false,
      "stateMutability": "view",
      "type": "function"
    },
    {
      "constant": true,
      "inputs": [
        {
          "name": "voucherCode",
          "type": "uint256"
        }
      ],
      "name": "getUserForVoucherCode",
      "outputs": [
        {
          "name": "",
          "type": "address"
        }
      ],
      "payable": false,
      "stateMutability": "view",
      "type": "function"
    },
    {
      "constant": true,
      "inputs": [
        {
          "name": "user",
          "type": "address"
        }
      ],
      "name": "getVoucherCodeForUser",
      "outputs": [
        {
          "name": "",
          "type": "uint256"
        }
      ],
      "payable": false,
      "stateMutability": "view",
      "type": "function"
    }
  ],
  "bytecode": "0x6080604052600080546003829055600160a860020a03191633179055610d558061002a6000396000f3006080604052600436106100da5763ffffffff7c01000000000000000000000000000000000000000000000000000000006000350416633f4ba83a81146100df5780635c975abb146101105780635cc15c951461015357806363bd1d4a146101a157806368286387146101d0578063704b6c021461021d578063715018a61461025857806381e3c8de146102875780638456cb59146102c25780638da5cb5b146102f1578063ac732d5f14610320578063d9b129be1461035b578063e377e5d41461038a578063f2fde38b146103b9578063f851a440146103f4575b600080fd5b3480156100eb57600080fd5b50d380156100f857600080fd5b50d2801561010557600080fd5b5061010e610423565b005b34801561011c57600080fd5b50d3801561012957600080fd5b50d2801561013657600080fd5b5061013f6104d2565b604080519115158252519081900360200190f35b34801561015f57600080fd5b50d3801561016c57600080fd5b50d2801561017957600080fd5b506101856004356104e2565b60408051600160a060020a039092168252519081900360200190f35b3480156101ad57600080fd5b50d380156101ba57600080fd5b50d280156101c757600080fd5b5061010e6104fd565b3480156101dc57600080fd5b50d380156101e957600080fd5b50d280156101f657600080fd5b5061020b600160a060020a03600435166105b4565b60408051918252519081900360200190f35b34801561022957600080fd5b50d3801561023657600080fd5b50d2801561024357600080fd5b5061010e600160a060020a03600435166105cf565b34801561026457600080fd5b50d3801561027157600080fd5b50d2801561027e57600080fd5b5061010e61069d565b34801561029357600080fd5b50d380156102a057600080fd5b50d280156102ad57600080fd5b5061020b600160a060020a0360043516610742565b3480156102ce57600080fd5b50d380156102db57600080fd5b50d280156102e857600080fd5b5061010e6107d9565b3480156102fd57600080fd5b50d3801561030a57600080fd5b50d2801561031757600080fd5b5061018561088d565b34801561032c57600080fd5b50d3801561033957600080fd5b50d2801561034657600080fd5b5061010e600160a060020a036004351661089c565b34801561036757600080fd5b50d3801561037457600080fd5b50d2801561038157600080fd5b5061020b61094b565b34801561039657600080fd5b50d380156103a357600080fd5b50d280156103b057600080fd5b5061020b610b23565b3480156103c557600080fd5b50d380156103d257600080fd5b50d280156103df57600080fd5b5061010e600160a060020a0360043516610b29565b34801561040057600080fd5b50d3801561040d57600080fd5b50d2801561041a57600080fd5b50610185610c41565b600054600160a060020a03163314610473576040805160e560020a62461bcd0281526020600482015260116024820152600080516020610d0a833981519152604482015290519081900360640190fd5b60005460a060020a900460ff16151561048b57600080fd5b6000805474ff0000000000000000000000000000000000000000191681556040517f7805862f689e2f13df9f062ff482ad3ad112aca9e0847911ed832e158c525b339190a1565b60005460a060020a900460ff1681565b600090815260046020526040902054600160a060020a031690565b600154600160a060020a03163314806105205750600054600160a060020a031633145b1515610576576040805160e560020a62461bcd02815260206004820152601a60248201527f6e6565647320746f2062652061646d696e206f72206f776e6572000000000000604482015290519081900360640190fd5b60008054604051600160a060020a0390911691303180156108fc02929091818181858888f193505050501580156105b1573d6000803e3d6000fd5b50565b600160a060020a031660009081526005602052604090205490565b600054600160a060020a0316331461061f576040805160e560020a62461bcd0281526020600482015260116024820152600080516020610d0a833981519152604482015290519081900360640190fd5b600160a060020a038116151561063457600080fd5b600154604051600160a060020a038084169216907f7e644d79422f17c01e4894b5f4f588d331ebfa28653d42ae832dc59e38c9798f90600090a36001805473ffffffffffffffffffffffffffffffffffffffff1916600160a060020a0392909216919091179055565b600054600160a060020a031633146106ed576040805160e560020a62461bcd0281526020600482015260116024820152600080516020610d0a833981519152604482015290519081900360640190fd5b60008054604051600160a060020a03909116917ff8df31144d9c2f0f6b59d69b8b98abd5459d07f2742c4df920b25aae33c6482091a26000805473ffffffffffffffffffffffffffffffffffffffff19169055565b600160a060020a03811660009081526005602052604081205482901561076757600080fd5b600154600160a060020a031633146107c9576040805160e560020a62461bcd02815260206004820152601160248201527f6e6565647320746f2062652061646d696e000000000000000000000000000000604482015290519081900360640190fd5b6107d283610c50565b9392505050565b600054600160a060020a03163314610829576040805160e560020a62461bcd0281526020600482015260116024820152600080516020610d0a833981519152604482015290519081900360640190fd5b60005460a060020a900460ff161561084057600080fd5b6000805474ff0000000000000000000000000000000000000000191660a060020a1781556040517f6985a02210a168e66602d3235cb6db0e70f92b3ba4d376a33c0f3d9434bff6259190a1565b600054600160a060020a031681565b600054600160a060020a031633146108ec576040805160e560020a62461bcd0281526020600482015260116024820152600080516020610d0a833981519152604482015290519081900360640190fd5b600280546001810182556000919091527f405787fa12a823e0f2b7631cc41b3ba8828b3321ca811111fa75cd3aa3bb5ace01805473ffffffffffffffffffffffffffffffffffffffff1916600160a060020a0392909216919091179055565b33600081815260056020526040812054909182911561096957600080fd5b60005460a060020a900460ff161561098057600080fd5b600091505b600254821015610b0457600280548390811061099d57fe5b9060005260206000200160009054906101000a9004600160a060020a0316600160a060020a03166322f3e2d46040518163ffffffff167c0100000000000000000000000000000000000000000000000000000000028152600401602060405180830381600087803b158015610a1157600080fd5b505af1158015610a25573d6000803e3d6000fd5b505050506040513d6020811015610a3b57600080fd5b50518015610aef57506002805483908110610a5257fe5b6000918252602080832090910154604080517f935071430000000000000000000000000000000000000000000000000000000081523360048201529051600160a060020a039092169363935071439360248084019491939192918390030190829087803b158015610ac257600080fd5b505af1158015610ad6573d6000803e3d6000fd5b505050506040513d6020811015610aec57600080fd5b50515b15610af957610b04565b600190910190610985565b600254821415610b1357600080fd5b610b1c33610c50565b9250505090565b60035490565b600054600160a060020a03163314610b79576040805160e560020a62461bcd0281526020600482015260116024820152600080516020610d0a833981519152604482015290519081900360640190fd5b600160a060020a0381161515610bd9576040805160e560020a62461bcd02815260206004820152601760248201527f6e6577206f776e6572206d7573742062652076616c6964000000000000000000604482015290519081900360640190fd5b60008054604051600160a060020a03808516939216917f8be0079c531659141344cd1fd0a4f28419497f9722a3daafe3b4186f6b6457e091a36000805473ffffffffffffffffffffffffffffffffffffffff1916600160a060020a0392909216919091179055565b600154600160a060020a031681565b600354600090610c6790600163ffffffff610cf616565b60038181556000918252600460209081526040808420805473ffffffffffffffffffffffffffffffffffffffff1916600160a060020a0388169081179091559254838552600583529381902084905580519384529083019190915280517f70dbc80d0f085812b6d667e629300543f7fff2be5a2294bc65acab2329286be99281900390910190a1505060035490565b81810182811015610d0357fe5b9291505056006e6565647320746f206265206f776e6572000000000000000000000000000000a165627a7a7230582027da6aaf2f1d2f1183dafc50214cb4ba7919c8c52533f1062ca88497795167a20029",
  "source": "pragma solidity ^0.4.0;\r\n\r\nimport \"../node_modules/everdragons-shared/solidity/libs/Pausable.sol\";\r\nimport \"../node_modules/everdragons-shared/solidity/libs/DragonItemsContainer.sol\";\r\nimport \"../node_modules/everdragons-shared/solidity/libs/SafeMath.sol\";\r\nimport \"../node_modules/everdragons-shared/solidity/libs/HasAdmin.sol\";\r\n\r\n/**\r\n * @title EverDragonsVoucher\r\n * @dev contract generates and stores voucher code to allow users to buy EverDraong items with\r\n * discount. Voucher can only be created if the user already bought an item like an egg or a dragon. If the voucher code\r\n * is used the owner of the voucher will get a reward. Ever user can only own one voucher code\r\n */\r\ncontract EverDragonsVoucher is Pausable, HasAdmin {\r\n\r\n    using SafeMath for uint256;\r\n\r\n    event VoucherCreated(uint code, address user);\r\n\r\n    DragonItemsContainer[] internal dragonItemsContracts;\r\n\r\n    uint256 numVouchers = 0;\r\n    mapping(uint256 => address) internal voucherCodeToUser;\r\n    mapping(address => uint256) internal userToVoucherCode;\r\n\r\n    modifier hasNoVoucher(address user) {\r\n        require(userToVoucherCode[user] == 0);\r\n        _;\r\n    }\r\n\r\n    function _storeNewVoucherCode(address user) private returns (uint) {\r\n        numVouchers = numVouchers.add(1);\r\n        voucherCodeToUser[numVouchers] = user;\r\n        userToVoucherCode[user] = numVouchers;\r\n        emit VoucherCreated(numVouchers, user);\r\n        return numVouchers;\r\n    }\r\n\r\n    /////////////////////////////////////////////////////////\r\n    // admin functions\r\n\r\n    /**\r\n     * @dev As an admin we can create voucher codes\r\n     */\r\n    function createVoucherForUser(address user) public hasNoVoucher(user) onlyAdmin returns (uint){\r\n        return _storeNewVoucherCode(user);\r\n    }\r\n\r\n    /////////////////////////////////////////////////////////\r\n    // owner functions\r\n\r\n    /**\r\n     * @dev DragonItemsContracts are contracts on which the user can buy EverDragon items like eggs or dragons.\r\n     */\r\n    function addDragonItemsContainer(address dragonItemsContract) public onlyOwner {\r\n        dragonItemsContracts.push(DragonItemsContainer(dragonItemsContract));\r\n    }\r\n\r\n    /**\r\n     * @dev payout ether to owner\r\n     */\r\n    function payout() public onlyAdminLevel {\r\n        owner.transfer(address(this).balance);\r\n    }\r\n\r\n    /////////////////////////////////////////////////////////\r\n    // public functions\r\n\r\n    /**\r\n     * @dev creates a new voucher code if the user already bought an Ever Dragons item.\r\n     * returns A new voucherCode. The lower byte of the code is a random number. The higher bytes are an increasing\r\n     * number to guarantee the uniqueness of the code.\r\n    */\r\n    function createVoucher() public hasNoVoucher(msg.sender) whenNotPaused returns (uint) {\r\n\r\n        // check if the user owns an item\r\n        uint idx = 0;\r\n        for(; idx < dragonItemsContracts.length; idx++ ) {\r\n            if(dragonItemsContracts[idx].isActive() && dragonItemsContracts[idx].hasItem(msg.sender) ) {\r\n                break;\r\n            }\r\n        }\r\n\r\n        require(idx != dragonItemsContracts.length);\r\n        return _storeNewVoucherCode(msg.sender);\r\n    }\r\n\r\n    /**\r\n     * @dev returns number of created vouchers\r\n     */\r\n    function getNumVouchers() public view returns(uint) {\r\n        return numVouchers;\r\n    }\r\n\r\n    /**\r\n     * @dev returns the owner of a voucher\r\n     */\r\n    function getUserForVoucherCode(uint voucherCode) public view returns (address) {\r\n        return voucherCodeToUser[voucherCode];\r\n    }\r\n\r\n    /**\r\n     * @dev returns the voucher code for a specific user\r\n     */\r\n    function getVoucherCodeForUser(address user) public view returns (uint) {\r\n        return userToVoucherCode[user];\r\n    }\r\n\r\n    /**\r\n     * @dev reject all payments on this contract\r\n     */\r\n    function() payable public {\r\n        revert();\r\n    }\r\n\r\n}\r\n",
  "sourcePath": "C:\\Projects\\everdragons\\everdragons-eggs\\contracts\\EverDragonsVoucher.sol",
  "compiler": {
    "name": "solc",
    "version": "0.4.25+commit.69a1e720.Emscripten.clang"
  },
  "schemaVersion": "2.0.1",
  "updatedAt": "2019-01-15T13:35:49.661Z"
}