{
  "contractName": "Goldmine",
  "abi": [
    {
      "constant": false,
      "inputs": [
        {
          "name": "contractAddress",
          "type": "address"
        }
      ],
      "name": "setDragonContract",
      "outputs": [],
      "payable": false,
      "stateMutability": "nonpayable",
      "type": "function"
    },
    {
      "constant": false,
      "inputs": [],
      "name": "unpause",
      "outputs": [],
      "payable": false,
      "stateMutability": "nonpayable",
      "type": "function"
    },
    {
      "constant": true,
      "inputs": [],
      "name": "paused",
      "outputs": [
        {
          "name": "",
          "type": "bool"
        }
      ],
      "payable": false,
      "stateMutability": "view",
      "type": "function"
    },
    {
      "constant": false,
      "inputs": [
        {
          "name": "newAdmin",
          "type": "address"
        }
      ],
      "name": "setAdmin",
      "outputs": [],
      "payable": false,
      "stateMutability": "nonpayable",
      "type": "function"
    },
    {
      "constant": false,
      "inputs": [],
      "name": "renounceOwnership",
      "outputs": [],
      "payable": false,
      "stateMutability": "nonpayable",
      "type": "function"
    },
    {
      "constant": true,
      "inputs": [
        {
          "name": "",
          "type": "address"
        }
      ],
      "name": "games",
      "outputs": [
        {
          "name": "hasStarted",
          "type": "bool"
        },
        {
          "name": "hasFinished",
          "type": "bool"
        },
        {
          "name": "totalGold",
          "type": "uint256"
        },
        {
          "name": "totalDiamonds",
          "type": "uint256"
        },
        {
          "name": "goldNuggetsPerSecond",
          "type": "uint256"
        },
        {
          "name": "goldNuggetsPerClick",
          "type": "uint256"
        },
        {
          "name": "startTime",
          "type": "uint256"
        },
        {
          "name": "endTime",
          "type": "uint256"
        },
        {
          "name": "lastUpdated",
          "type": "uint256"
        },
        {
          "name": "goldNuggetsBoost",
          "type": "uint256"
        },
        {
          "name": "tokenId",
          "type": "uint256"
        },
        {
          "name": "hasWon",
          "type": "bool"
        }
      ],
      "payable": false,
      "stateMutability": "view",
      "type": "function"
    },
    {
      "constant": true,
      "inputs": [],
      "name": "prizePot",
      "outputs": [
        {
          "name": "",
          "type": "uint256"
        }
      ],
      "payable": false,
      "stateMutability": "view",
      "type": "function"
    },
    {
      "constant": false,
      "inputs": [],
      "name": "destroy",
      "outputs": [],
      "payable": false,
      "stateMutability": "nonpayable",
      "type": "function"
    },
    {
      "constant": false,
      "inputs": [],
      "name": "pause",
      "outputs": [],
      "payable": false,
      "stateMutability": "nonpayable",
      "type": "function"
    },
    {
      "constant": true,
      "inputs": [],
      "name": "guardianDuration",
      "outputs": [
        {
          "name": "",
          "type": "uint256"
        }
      ],
      "payable": false,
      "stateMutability": "view",
      "type": "function"
    },
    {
      "constant": true,
      "inputs": [],
      "name": "owner",
      "outputs": [
        {
          "name": "",
          "type": "address"
        }
      ],
      "payable": false,
      "stateMutability": "view",
      "type": "function"
    },
    {
      "constant": false,
      "inputs": [
        {
          "name": "contractAddress",
          "type": "address"
        }
      ],
      "name": "setPlayerContract",
      "outputs": [],
      "payable": false,
      "stateMutability": "nonpayable",
      "type": "function"
    },
    {
      "constant": true,
      "inputs": [],
      "name": "gameID",
      "outputs": [
        {
          "name": "",
          "type": "uint32"
        }
      ],
      "payable": false,
      "stateMutability": "view",
      "type": "function"
    },
    {
      "constant": true,
      "inputs": [],
      "name": "currentGuardian",
      "outputs": [
        {
          "name": "",
          "type": "address"
        }
      ],
      "payable": false,
      "stateMutability": "view",
      "type": "function"
    },
    {
      "constant": true,
      "inputs": [],
      "name": "guardianSince",
      "outputs": [
        {
          "name": "",
          "type": "uint256"
        }
      ],
      "payable": false,
      "stateMutability": "view",
      "type": "function"
    },
    {
      "constant": true,
      "inputs": [],
      "name": "currentGuardianTokenId",
      "outputs": [
        {
          "name": "",
          "type": "uint256"
        }
      ],
      "payable": false,
      "stateMutability": "view",
      "type": "function"
    },
    {
      "constant": false,
      "inputs": [
        {
          "name": "newOwner",
          "type": "address"
        }
      ],
      "name": "transferOwnership",
      "outputs": [],
      "payable": false,
      "stateMutability": "nonpayable",
      "type": "function"
    },
    {
      "constant": false,
      "inputs": [
        {
          "name": "_recipient",
          "type": "address"
        }
      ],
      "name": "destroyAndSend",
      "outputs": [],
      "payable": false,
      "stateMutability": "nonpayable",
      "type": "function"
    },
    {
      "constant": true,
      "inputs": [],
      "name": "admin",
      "outputs": [
        {
          "name": "",
          "type": "address"
        }
      ],
      "payable": false,
      "stateMutability": "view",
      "type": "function"
    },
    {
      "anonymous": false,
      "inputs": [
        {
          "indexed": true,
          "name": "previousAdmin",
          "type": "address"
        },
        {
          "indexed": true,
          "name": "newAdmin",
          "type": "address"
        }
      ],
      "name": "AdminChanged",
      "type": "event"
    },
    {
      "anonymous": false,
      "inputs": [],
      "name": "Pause",
      "type": "event"
    },
    {
      "anonymous": false,
      "inputs": [],
      "name": "Unpause",
      "type": "event"
    },
    {
      "anonymous": false,
      "inputs": [
        {
          "indexed": true,
          "name": "previousOwner",
          "type": "address"
        }
      ],
      "name": "OwnershipRenounced",
      "type": "event"
    },
    {
      "anonymous": false,
      "inputs": [
        {
          "indexed": true,
          "name": "previousOwner",
          "type": "address"
        },
        {
          "indexed": true,
          "name": "newOwner",
          "type": "address"
        }
      ],
      "name": "OwnershipTransferred",
      "type": "event"
    },
    {
      "constant": false,
      "inputs": [
        {
          "name": "amount",
          "type": "uint256"
        }
      ],
      "name": "addToPrizePot",
      "outputs": [],
      "payable": false,
      "stateMutability": "nonpayable",
      "type": "function"
    },
    {
      "constant": false,
      "inputs": [
        {
          "name": "tokenId",
          "type": "uint256"
        }
      ],
      "name": "newGame",
      "outputs": [],
      "payable": false,
      "stateMutability": "nonpayable",
      "type": "function"
    },
    {
      "constant": true,
      "inputs": [],
      "name": "getMiners",
      "outputs": [
        {
          "name": "count",
          "type": "uint256[6]"
        },
        {
          "name": "currentCost",
          "type": "uint256[6]"
        },
        {
          "name": "nuggetsPerSecond",
          "type": "uint256[6]"
        }
      ],
      "payable": false,
      "stateMutability": "view",
      "type": "function"
    },
    {
      "constant": true,
      "inputs": [],
      "name": "getUpgrades",
      "outputs": [
        {
          "name": "standard",
          "type": "bool[7]"
        },
        {
          "name": "miner",
          "type": "bool[5]"
        },
        {
          "name": "diamond",
          "type": "bool[5]"
        }
      ],
      "payable": false,
      "stateMutability": "view",
      "type": "function"
    },
    {
      "constant": false,
      "inputs": [],
      "name": "clickMineCart",
      "outputs": [],
      "payable": false,
      "stateMutability": "nonpayable",
      "type": "function"
    },
    {
      "constant": false,
      "inputs": [],
      "name": "clickDiamond",
      "outputs": [],
      "payable": false,
      "stateMutability": "nonpayable",
      "type": "function"
    },
    {
      "constant": true,
      "inputs": [
        {
          "name": "lastUpdated",
          "type": "uint256"
        }
      ],
      "name": "getDurationSinceLastUpdate",
      "outputs": [
        {
          "name": "",
          "type": "uint256"
        }
      ],
      "payable": false,
      "stateMutability": "view",
      "type": "function"
    },
    {
      "constant": true,
      "inputs": [
        {
          "name": "startTime",
          "type": "uint256"
        }
      ],
      "name": "getTotalDuration",
      "outputs": [
        {
          "name": "",
          "type": "uint256"
        }
      ],
      "payable": false,
      "stateMutability": "view",
      "type": "function"
    },
    {
      "constant": true,
      "inputs": [],
      "name": "getTimeToBeat",
      "outputs": [
        {
          "name": "",
          "type": "uint256"
        }
      ],
      "payable": false,
      "stateMutability": "view",
      "type": "function"
    },
    {
      "constant": true,
      "inputs": [],
      "name": "getTotalNuggets",
      "outputs": [
        {
          "name": "",
          "type": "uint256"
        },
        {
          "name": "",
          "type": "uint64"
        }
      ],
      "payable": false,
      "stateMutability": "view",
      "type": "function"
    },
    {
      "constant": false,
      "inputs": [
        {
          "name": "minerType",
          "type": "uint8"
        }
      ],
      "name": "buyMiner",
      "outputs": [],
      "payable": false,
      "stateMutability": "nonpayable",
      "type": "function"
    },
    {
      "constant": false,
      "inputs": [],
      "name": "quit",
      "outputs": [],
      "payable": false,
      "stateMutability": "nonpayable",
      "type": "function"
    },
    {
      "constant": false,
      "inputs": [
        {
          "name": "minerType",
          "type": "uint8"
        }
      ],
      "name": "sellMiner",
      "outputs": [],
      "payable": false,
      "stateMutability": "nonpayable",
      "type": "function"
    },
    {
      "constant": false,
      "inputs": [
        {
          "name": "upgradeType",
          "type": "uint8"
        }
      ],
      "name": "buyStandardUpgrade",
      "outputs": [],
      "payable": false,
      "stateMutability": "nonpayable",
      "type": "function"
    },
    {
      "constant": false,
      "inputs": [
        {
          "name": "upgradeType",
          "type": "uint8"
        }
      ],
      "name": "buyMinerUpgrade",
      "outputs": [],
      "payable": false,
      "stateMutability": "nonpayable",
      "type": "function"
    },
    {
      "constant": false,
      "inputs": [
        {
          "name": "upgradeType",
          "type": "uint8"
        }
      ],
      "name": "buyDiamondUpgrade",
      "outputs": [],
      "payable": false,
      "stateMutability": "nonpayable",
      "type": "function"
    }
  ],
  "bytecode": "0x608060405260008054600160a860020a03191633179055614529806100256000396000f3006080604052600436106101b65763ffffffff7c0100000000000000000000000000000000000000000000000000000000600035041663039f14b081146101bb5780631633da6e146101de5780631a5aae03146102835780631e01ad29146102985780633cf5f6e3146102c25780633f4ba83a146102da5780634cb8b75f146102ef578063553ba87f1461030a5780635c975abb1461032557806361d39e641461034e5780636910531014610369578063695bd00c1461037e578063704b6c0214610400578063715018a61461042157806379131a19146104365780638090c0c9146104ba578063817cdce01461029857806383197ef0146104cf5780638456cb59146104e45780638a38d825146104f95780638da5cb5b1461050e57806391df6c701461053f578063a193889414610560578063b427fc1e14610597578063c7dd4b4f146105b2578063cab2a02c146105e0578063cde9ef78146105f5578063d6add3371461060d578063db11b8f314610628578063ea4ee77c1461063d578063f2fde38b14610652578063f4f917f814610673578063f5074f4114610688578063f851a440146106a9578063fc2b8cc3146106be575b600080fd5b3480156101c757600080fd5b506101dc600160a060020a03600435166106d3565b005b3480156101ea57600080fd5b506101f3610752565b604051808460c080838360005b83811015610218578181015183820152602001610200565b5050505090500183600660200280838360005b8381101561024357818101518382015260200161022b565b5050505090500182600660200280838360005b8381101561026e578181015183820152602001610256565b50505050905001935050505060405180910390f35b34801561028f57600080fd5b506101dc610852565b3480156102a457600080fd5b506102b0600435610a42565b60408051918252519081900360200190f35b3480156102ce57600080fd5b506101dc600435610a5a565b3480156102e657600080fd5b506101dc610ac7565b3480156102fb57600080fd5b506101dc60ff60043516610b87565b34801561031657600080fd5b506101dc60ff600435166112a4565b34801561033157600080fd5b5061033a61149e565b604080519115158252519081900360200190f35b34801561035a57600080fd5b506101dc60ff600435166114bf565b34801561037557600080fd5b506101dc61187e565b34801561038a57600080fd5b506103936119ca565b604051808460e080838360005b838110156103b85781810151838201526020016103a0565b5050505090500183600560200280838360005b838110156103e35781810151838201526020016103cb565b505086519290940191825250915083905060a08083836020610256565b34801561040c57600080fd5b506101dc600160a060020a0360043516611af8565b34801561042d57600080fd5b506101dc611bc6565b34801561044257600080fd5b50610457600160a060020a0360043516611c6b565b604080519c15158d529a151560208d01528b8b019990995260608b019790975260808a019590955260a089019390935260c088019190915260e0870152610100860152610120850152610140840152151561016083015251908190036101800190f35b3480156104c657600080fd5b506102b0611cc2565b3480156104db57600080fd5b506101dc611cc8565b3480156104f057600080fd5b506101dc611d26565b34801561050557600080fd5b506102b0611dfc565b34801561051a57600080fd5b50610523611e02565b60408051600160a060020a039092168252519081900360200190f35b34801561054b57600080fd5b506101dc600160a060020a0360043516611e11565b34801561056c57600080fd5b50610575611e90565b6040805192835267ffffffffffffffff90911660208301528051918290030190f35b3480156105a357600080fd5b506101dc60ff60043516611ee8565b3480156105be57600080fd5b506105c7612110565b6040805163ffffffff9092168252519081900360200190f35b3480156105ec57600080fd5b50610523612116565b34801561060157600080fd5b506101dc600435612125565b34801561061957600080fd5b506101dc60ff60043516612f99565b34801561063457600080fd5b506102b06131ed565b34801561064957600080fd5b506102b06131f3565b34801561065e57600080fd5b506101dc600160a060020a03600435166131f9565b34801561067f57600080fd5b506102b0613311565b34801561069457600080fd5b506101dc600160a060020a0360043516613327565b3480156106b557600080fd5b50610523613383565b3480156106ca57600080fd5b506101dc613392565b600054600160a060020a03163314610723576040805160e560020a62461bcd02815260206004820152601160248201526000805160206144be833981519152604482015290519081900360640190fd5b6001805473ffffffffffffffffffffffffffffffffffffffff1916600160a060020a0392909216919091179055565b61075a614390565b610762614390565b61076a614390565b60005b60068160ff16101561084c5733600090815260096020908152604080832060ff8516808552600b9091019092529091205461ffff16908590600681106107af57fe5b6020908102919091019190915233600090815260098252604080822060ff8516808452600b90910190935290205462010000900463ffffffff16908490600681106107f657fe5b6020908102919091019190915233600090815260098252604080822060ff8516808452600b9091019093529020546601000000000000900461ffff169083906006811061083f57fe5b602002015260010161076d565b50909192565b336000908152600960205260408120548190610100900460ff16156108af576040805160e560020a62461bcd028152602060048201526017602482015260008051602061449e833981519152604482015290519081900360640190fd5b3360009081526009602052604090205460ff161515610906576040805160e560020a62461bcd02815260206004820152601c60248201526000805160206144de833981519152604482015290519081900360640190fd5b5050336000908152600960205260409020600a810154606442069062010000900460ff161561098d57600f811115610988576040805160e560020a62461bcd02815260206004820152601760248201527f4e6f206c75636b79206469616d6f6e6420666f756e642e000000000000000000604482015290519081900360640190fd5b6109e6565b600a8111156109e6576040805160e560020a62461bcd02815260206004820152601760248201527f4e6f206c75636b79206469616d6f6e6420666f756e642e000000000000000000604482015290519081900360640190fd5b600a8201546301000000900460ff1615610a1a576002820154610a1090600a63ffffffff6134eb16565b6002830155610a35565b600282810154610a2f9163ffffffff6134eb16565b60028301555b610a3e826134f8565b5050565b6000610a54428363ffffffff6135ee16565b92915050565b600354600160a060020a03163314610abc576040805160e560020a62461bcd02815260206004820152601160248201527f6e6565647320746f2062652061646d696e000000000000000000000000000000604482015290519081900360640190fd5b600880549091019055565b600054600160a060020a03163314610b17576040805160e560020a62461bcd02815260206004820152601160248201526000805160206144be833981519152604482015290519081900360640190fd5b60005474010000000000000000000000000000000000000000900460ff161515610b4057600080fd5b6000805474ff0000000000000000000000000000000000000000191681556040517f7805862f689e2f13df9f062ff482ad3ad112aca9e0847911ed832e158c525b339190a1565b33600090815260096020526040812054610100900460ff1615610be2576040805160e560020a62461bcd028152602060048201526017602482015260008051602061449e833981519152604482015290519081900360640190fd5b3360009081526009602052604090205460ff161515610c39576040805160e560020a62461bcd02815260206004820152601c60248201526000805160206144de833981519152604482015290519081900360640190fd5b6004826004811115610c4757fe5b60ff161115610ca0576040805160e560020a62461bcd02815260206004820152601560248201527f496e76616c6964207570677261646520747970652e0000000000000000000000604482015290519081900360640190fd5b5033600090815260096020526040812090826004811115610cbd57fe5b1415610df8576000808052600b82016020526040902054600a61ffff90911610801590610d03575060016000908152600b82016020526040902054600761ffff90911610155b8015610d28575060026000908152600b82016020526040902054600461ffff90911610155b1515610da4576040805160e560020a62461bcd02815260206004820152602d60248201527f3130206d6f6c65732c2037206261646765727320616e642034207779726d732060448201527f6172652072657175697265642e00000000000000000000000000000000000000606482015290519081900360840190fd5b610dea826004811115610db357fe5b6040805160a08101825260028082526020820181905291810191909152600160608201819052608082015261271090600090613600565b610df3816138ea565b610a3e565b6001826004811115610e0657fe5b1415610f33576000808052600b82016020526040902054600f61ffff90911610801590610e4c575060016000908152600b82016020526040902054600c61ffff90911610155b8015610e71575060026000908152600b82016020526040902054600861ffff90911610155b1515610eed576040805160e560020a62461bcd02815260206004820152602e60248201527f3135206d6f6c65732c203132206261646765727320616e642038207779726d7360448201527f206172652072657175697265642e000000000000000000000000000000000000606482015290519081900360840190fd5b610dea826004811115610efc57fe5b6040805160a081018252600280825260208201819052918101919091526001606082018190526080820152614e2090600090613600565b6002826004811115610f4157fe5b141561106d576000808052600b82016020526040902054601461ffff90911610801590610f87575060016000908152600b82016020526040902054601061ffff90911610155b8015610fac575060026000908152600b82016020526040902054600c61ffff90911610155b1515611028576040805160e560020a62461bcd02815260206004820152602f60248201527f3230206d6f6c65732c203136206261646765727320616e64203132207779726d60448201527f73206172652072657175697265642e0000000000000000000000000000000000606482015290519081900360840190fd5b610dea82600481111561103757fe5b6040805160a081018252600280825260208201819052918101919091526001606082018190526080820181905261c35091613600565b600382600481111561107b57fe5b14156111825760036000908152600b82016020526040902054600a61ffff909116108015906110c3575060046000908152600b82016020526040902054600161ffff90911610155b151561113f576040805160e560020a62461bcd02815260206004820152602160248201527f313020676f626c696e7320616e642031206f726320697320726571756972656460448201527f2e00000000000000000000000000000000000000000000000000000000000000606482015290519081900360840190fd5b610dea82600481111561114e57fe5b6040805160a081018252600180825260208201819052918101829052600260608201819052608082015261c3509190613600565b600482600481111561119057fe5b1415610a3e5760036000908152600b82016020526040902054600a61ffff909116108015906111d8575060046000908152600b82016020526040902054600561ffff90911610155b1515611254576040805160e560020a62461bcd02815260206004820152602360248201527f313520676f626c696e7320616e642033206f726373206172652072657175697260448201527f65642e0000000000000000000000000000000000000000000000000000000000606482015290519081900360840190fd5b61129b82600481111561126357fe5b6040805160a081018252600180825260208201819052918101919091526002606082015260036080820152620186a090600590613600565b610a3e816138ea565b33600090815260096020526040902054610100900460ff16156112ff576040805160e560020a62461bcd028152602060048201526017602482015260008051602061449e833981519152604482015290519081900360640190fd5b3360009081526009602052604090205460ff161515611356576040805160e560020a62461bcd02815260206004820152601c60248201526000805160206144de833981519152604482015290519081900360640190fd5b600081600481111561136457fe5b141561138a5761138581600481111561137957fe5b6032600a600080613a2f565b61149b565b600181600481111561139857fe5b14156113b9576113858160048111156113ad57fe5b60c8600f600080613a2f565b60028160048111156113c757fe5b14156113e9576113858160048111156113dc57fe5b6102bc6019600080613a2f565b60038160048111156113f757fe5b141561141a5761138581600481111561140c57fe5b610fa0600060146005613a2f565b600481600481111561142857fe5b141561144b5761138581600481111561143d57fe5b61753060006019600a613a2f565b6040805160e560020a62461bcd02815260206004820152601560248201527f496e76616c6964207570677261646520747970652e0000000000000000000000604482015290519081900360640190fd5b50565b60005474010000000000000000000000000000000000000000900460ff1681565b33600090815260096020526040812054819081908190610100900460ff1615611520576040805160e560020a62461bcd028152602060048201526017602482015260008051602061449e833981519152604482015290519081900360640190fd5b3360009081526009602052604090205460ff161515611577576040805160e560020a62461bcd02815260206004820152601c60248201526000805160206144de833981519152604482015290519081900360640190fd5b3360009081526009602052604090209350611591846134f8565b600585600581111561159f57fe5b60ff1611156115f8576040805160e560020a62461bcd02815260206004820152601360248201527f496e76616c6964206d696e657220747970652e00000000000000000000000000604482015290519081900360640190fd5b83600b01600086600581111561160a57fe5b60ff16815260208101919091526040016000209250600585600581111561162d57fe5b141561176d575050805460ff600561ffff8316600101908102828116680100000000000000000268ff000000000000000019909416939093178455600a8501549092916401000000009091041615156116f6576040805160e560020a62461bcd02815260206004820152602760248201527f4e6565647320477561726469616e207570677261646520746f2062757920477560448201527f61726469616e2e00000000000000000000000000000000000000000000000000606482015290519081900360840190fd5b6002840154811115611752576040805160e560020a62461bcd02815260206004820152601460248201527f4e65656473206d6f7265206469616d6f6e64732e000000000000000000000000604482015290519081900360640190fd5b6002840154611767908263ffffffff6135ee16565b60028501555b825460018501546201000090910463ffffffff1611156117d7576040805160e560020a62461bcd02815260206004820152601f60248201527f506c617965722063616e2774206166666f72642074686973206d696e65722e00604482015290519081900360640190fd5b825460018581018054620100009384900463ffffffff9081169091039091558554600388018054660100000000000090920461ffff90811690920190558654606461ffff1982169183169094019091161783810482166073028216929092041690910265ffffffff0000199091161783556005858181111561185557fe5b14801561186a57508254600461ffff90911610155b1561187757611877613c9c565b5050505050565b336000908152600960205260408120548190610100900460ff16156118db576040805160e560020a62461bcd028152602060048201526017602482015260008051602061449e833981519152604482015290519081900360640190fd5b3360009081526009602052604090205460ff161515611932576040805160e560020a62461bcd02815260206004820152601c60248201526000805160206144de833981519152604482015290519081900360640190fd5b3360009081526009602052604090206004810154600182015491935061195e919063ffffffff6134eb16565b600183015561196d6064614061565b9050600a8111158061198f5750600a82015460ff16801561198f575060148111155b806119af5750600a820154610100900460ff1680156119af5750601e8111155b15610a35576002820154610a2f90600163ffffffff6134eb16565b6119d26143af565b6119da6143ce565b6119e26143ce565b336000908152600960208190526040808320815160e0810192839052600882019493820193600a90920192909185916007918390855b825461010083900a900460ff161515815260206001928301818104948501949093039092029101808411611a185750506040805160a08101918290529598508794506005935091508390506000855b825461010083900a900460ff161515815260206001928301818104948501949093039092029101808411611a675750506040805160a08101918290529597508694506005935091508390506000855b825461010083900a900460ff161515815260206001928301818104948501949093039092029101808411611ab657905050505050509050925092509250909192565b600054600160a060020a03163314611b48576040805160e560020a62461bcd02815260206004820152601160248201526000805160206144be833981519152604482015290519081900360640190fd5b600160a060020a0381161515611b5d57600080fd5b600354604051600160a060020a038084169216907f7e644d79422f17c01e4894b5f4f588d331ebfa28653d42ae832dc59e38c9798f90600090a36003805473ffffffffffffffffffffffffffffffffffffffff1916600160a060020a0392909216919091179055565b600054600160a060020a03163314611c16576040805160e560020a62461bcd02815260206004820152601160248201526000805160206144be833981519152604482015290519081900360640190fd5b60008054604051600160a060020a03909116917ff8df31144d9c2f0f6b59d69b8b98abd5459d07f2742c4df920b25aae33c6482091a26000805473ffffffffffffffffffffffffffffffffffffffff19169055565b600960205260009081526040902080546001820154600283015460038401546004850154600586015460068701546007880154600c890154600d8a0154600e909a015460ff808b169b610100909b0481169a91168c565b60085481565b600054600160a060020a03163314611d18576040805160e560020a62461bcd02815260206004820152601160248201526000805160206144be833981519152604482015290519081900360640190fd5b600054600160a060020a0316ff5b600054600160a060020a03163314611d76576040805160e560020a62461bcd02815260206004820152601160248201526000805160206144be833981519152604482015290519081900360640190fd5b60005474010000000000000000000000000000000000000000900460ff1615611d9e57600080fd5b6000805474ff00000000000000000000000000000000000000001916740100000000000000000000000000000000000000001781556040517f6985a02210a168e66602d3235cb6db0e70f92b3ba4d376a33c0f3d9434bff6259190a1565b60065481565b600054600160a060020a031681565b600054600160a060020a03163314611e61576040805160e560020a62461bcd02815260206004820152601160248201526000805160206144be833981519152604482015290519081900360640190fd5b6002805473ffffffffffffffffffffffffffffffffffffffff1916600160a060020a0392909216919091179055565b33600090815260096020526040812060078101548291908290600a90611eca90611eb990610a42565b60038501549063ffffffff6140f816565b811515611ed357fe5b04905080826001015401429350935050509091565b3360009081526009602052604081205481908190610100900460ff1615611f47576040805160e560020a62461bcd028152602060048201526017602482015260008051602061449e833981519152604482015290519081900360640190fd5b3360009081526009602052604090205460ff161515611f9e576040805160e560020a62461bcd02815260206004820152601c60248201526000805160206144de833981519152604482015290519081900360640190fd5b336000908152600960205260409020925060058481811115611fbc57fe5b60ff1610612014576040805160e560020a62461bcd02815260206004820152601360248201527f496e76616c6964206d696e657220747970652e00000000000000000000000000604482015290519081900360640190fd5b82600b01600085600581111561202657fe5b60ff16815260208101919091526040016000908120805490935061ffff1611612099576040805160e560020a62461bcd02815260206004820152601260248201527f4e6f206d696e65727320746f2073656c6c2e0000000000000000000000000000604482015290519081900360640190fd5b815460029062010000900463ffffffff160463ffffffff1690506120ca8184600101546134eb90919063ffffffff16565b6001840155815460038401805461ffff660100000000000090930483169003905582546000198183160190911661ffff1990911617825561210a836134f8565b50505050565b6107d181565b600454600160a060020a031681565b336000908152600960205260408120548190819060ff16158061215c575033600090815260096020526040902054610100900460ff165b15156121b2576040805160e560020a62461bcd02815260206004820152601b60248201527f706c6179657220616c726561647920737461727465642067616d650000000000604482015290519081900360640190fd5b600154604080517facf81286000000000000000000000000000000000000000000000000000000008152600481018790529051600160a060020a039092169163acf81286916024808201926020929091908290030181600087803b15801561221957600080fd5b505af115801561222d573d6000803e3d6000fd5b505050506040513d602081101561224357600080fd5b5051925063ffffffff8316156122a3576040805160e560020a62461bcd02815260206004820152601b60248201527f647261676f6e20697320616c726561647920696e20612067616d650000000000604482015290519081900360640190fd5b600154604080517f6352211e000000000000000000000000000000000000000000000000000000008152600481018790529051600160a060020a0390921691636352211e916024808201926020929091908290030181600087803b15801561230a57600080fd5b505af115801561231e573d6000803e3d6000fd5b505050506040513d602081101561233457600080fd5b5051915033600160a060020a03831614612398576040805160e560020a62461bcd02815260206004820152601260248201527f6e6f74206f776e6572206f6620746f6b656e0000000000000000000000000000604482015290519081900360640190fd5b600154604080517fe0bb933b000000000000000000000000000000000000000000000000000000008152600481018790529051600160a060020a039092169163e0bb933b9160248082019260009290919082900301818387803b1580156123fe57600080fd5b505af1158015612412573d6000803e3d6000fd5b505050506040513d6000823e601f3d908101601f1916820160405260c081101561243b57600080fd5b8151602083015160408401516060850151608086015160a0870180519597949693959294919382019264010000000081111561247657600080fd5b8201602081018481111561248957600080fd5b81516401000000008111828201871017156124a357600080fd5b509599505050601e61ffff89161015965061250f95505050505050576040805160e560020a62461bcd02815260206004820152601360248201527f6e6f7420656e6f7567682066756c6c6e65737300000000000000000000000000604482015290519081900360640190fd5b600154604080517fb654cb61000000000000000000000000000000000000000000000000000000008152600481018790526107d160248201529051600160a060020a039092169163b654cb619160448082019260009290919082900301818387803b15801561257d57600080fd5b505af1158015612591573d6000803e3d6000fd5b5050600154604080517fa071700b00000000000000000000000000000000000000000000000000000000815260048101899052601d1960248201526000604482018190529151600160a060020a03909316945063a071700b93506064808201939182900301818387803b15801561260757600080fd5b505af115801561261b573d6000803e3d6000fd5b50506008805460180190555050600454600160a060020a0316156126f85760025460048054604080517f8537cbf7000000000000000000000000000000000000000000000000000000008152600160a060020a03928316938101939093526003604484015260606024840152600b60648401527f676f6c64546f436c61696d000000000000000000000000000000000000000000608484015251921691638537cbf79160a48082019260009290919082900301818387803b1580156126df57600080fd5b505af11580156126f3573d6000803e3d6000fd5b505050505b6101e060405190810160405280600115158152602001600015158152602001600081526020016000815260200160008152602001600a81526020014281526020016000815260200142815260200160e060405190810160405280600015151515815260200160001515151581526020016000151515158152602001600015151515815260200160001515151581526020016000151515158152602001600015151515815250815260200160a0604051908101604052806000151515158152602001600015151515815260200160001515151581526020016000151515158152602001600015151515815250815260200160a0604051908101604052806000151515158152602001600015151515815260200160001515151581526020016000151515158152602001600015151515815250815260200160648152602001858152602001600015158152506009600033600160a060020a0316600160a060020a0316815260200190815260200160002060008201518160000160006101000a81548160ff02191690831515021790555060208201518160000160016101000a81548160ff02191690831515021790555060408201518160010155606082015181600201556080820151816003015560a0820151816004015560c0820151816005015560e082015181600601556101008201518160070155610120820151816008019060076129069291906143ed565b5061014082015161291d90600983019060056143ed565b5061016082015161293490600a83019060056143ed565b5061018082015181600c01556101a082015181600d01556101c082015181600e0160006101000a81548160ff021916908315150217905550905050608060405190810160405280600061ffff168152602001600f63ffffffff168152602001600161ffff168152602001600060ff168152506009600033600160a060020a0316600160a060020a03168152602001908152602001600020600b0160008060ff16815260200190815260200160002060008201518160000160006101000a81548161ffff021916908361ffff16021790555060208201518160000160026101000a81548163ffffffff021916908363ffffffff16021790555060408201518160000160066101000a81548161ffff021916908361ffff16021790555060608201518160000160086101000a81548160ff021916908360ff160217905550905050608060405190810160405280600061ffff168152602001606463ffffffff168152602001600561ffff168152602001600060ff168152506009600033600160a060020a0316600160a060020a03168152602001908152602001600020600b016000600160ff16815260200190815260200160002060008201518160000160006101000a81548161ffff021916908361ffff16021790555060208201518160000160026101000a81548163ffffffff021916908363ffffffff16021790555060408201518160000160066101000a81548161ffff021916908361ffff16021790555060608201518160000160086101000a81548160ff021916908360ff160217905550905050608060405190810160405280600061ffff1681526020016104e263ffffffff168152602001603261ffff168152602001600060ff168152506009600033600160a060020a0316600160a060020a03168152602001908152602001600020600b016000600260ff16815260200190815260200160002060008201518160000160006101000a81548161ffff021916908361ffff16021790555060208201518160000160026101000a81548163ffffffff021916908363ffffffff16021790555060408201518160000160066101000a81548161ffff021916908361ffff16021790555060608201518160000160086101000a81548160ff021916908360ff160217905550905050608060405190810160405280600061ffff16815260200161138863ffffffff16815260200160aa61ffff168152602001600060ff168152506009600033600160a060020a0316600160a060020a03168152602001908152602001600020600b016000600360ff16815260200190815260200160002060008201518160000160006101000a81548161ffff021916908361ffff16021790555060208201518160000160026101000a81548163ffffffff021916908363ffffffff16021790555060408201518160000160066101000a81548161ffff021916908361ffff16021790555060608201518160000160086101000a81548160ff021916908360ff160217905550905050608060405190810160405280600061ffff16815260200161753063ffffffff16815260200161020861ffff168152602001600060ff168152506009600033600160a060020a0316600160a060020a03168152602001908152602001600020600b016000600460ff16815260200190815260200160002060008201518160000160006101000a81548161ffff021916908361ffff16021790555060208201518160000160026101000a81548163ffffffff021916908363ffffffff16021790555060408201518160000160066101000a81548161ffff021916908361ffff16021790555060608201518160000160086101000a81548160ff021916908360ff160217905550905050608060405190810160405280600061ffff16815260200162030d4063ffffffff16815260200161138861ffff168152602001601960ff168152506009600033600160a060020a0316600160a060020a03168152602001908152602001600020600b016000600560ff16815260200190815260200160002060008201518160000160006101000a81548161ffff021916908361ffff16021790555060208201518160000160026101000a81548163ffffffff021916908363ffffffff16021790555060408201518160000160066101000a81548161ffff021916908361ffff16021790555060608201518160000160086101000a81548160ff021916908360ff16021790555090505050505050565b33600090815260096020526040812054610100900460ff1615612ff4576040805160e560020a62461bcd028152602060048201526017602482015260008051602061449e833981519152604482015290519081900360640190fd5b3360009081526009602052604090205460ff16151561304b576040805160e560020a62461bcd02815260206004820152601c60248201526000805160206144de833981519152604482015290519081900360640190fd5b503360009081526009602052604081209082600481111561306857fe5b141561308657610df382600481111561307d57fe5b60016000614121565b600182600481111561309457fe5b14156130b257610df38260048111156130a957fe5b60026000614121565b60028260048111156130c057fe5b14156130d557610df38260048111156130a957fe5b60048260048111156130e357fe5b14156131bf5760036000908152600b82016020526040902054600a61ffff9091161080159061312b575060046000908152600b82016020526040902054600361ffff90911610155b15156131a7576040805160e560020a62461bcd02815260206004820152602860248201527f5265717569726573206174206c6561737420313020676f626c696e7320616e6460448201527f2033206f7263732e000000000000000000000000000000000000000000000000606482015290519081900360840190fd5b610df38260048111156131b657fe5b60056000614121565b60038260048111156131cd57fe5b141561144b57610df38260048111156131e257fe5b6000620186a0614121565b60075481565b60055481565b600054600160a060020a03163314613249576040805160e560020a62461bcd02815260206004820152601160248201526000805160206144be833981519152604482015290519081900360640190fd5b600160a060020a03811615156132a9576040805160e560020a62461bcd02815260206004820152601760248201527f6e6577206f776e6572206d7573742062652076616c6964000000000000000000604482015290519081900360640190fd5b60008054604051600160a060020a03808516939216917f8be0079c531659141344cd1fd0a4f28419497f9722a3daafe3b4186f6b6457e091a36000805473ffffffffffffffffffffffffffffffffffffffff1916600160a060020a0392909216919091179055565b60075460009060f0904203046006540190505b90565b600054600160a060020a03163314613377576040805160e560020a62461bcd02815260206004820152601160248201526000805160206144be833981519152604482015290519081900360640190fd5b80600160a060020a0316ff5b600354600160a060020a031681565b33600090815260096020526040812054610100900460ff16156133ed576040805160e560020a62461bcd028152602060048201526017602482015260008051602061449e833981519152604482015290519081900360640190fd5b3360009081526009602052604090205460ff161515613444576040805160e560020a62461bcd02815260206004820152601c60248201526000805160206144de833981519152604482015290519081900360640190fd5b5033600090815260096020526040808220600154600d82015483517fb654cb6100000000000000000000000000000000000000000000000000000000815260048101919091526024810185905292519193600160a060020a039091169263b654cb61926044808301939282900301818387803b1580156134c357600080fd5b505af11580156134d7573d6000803e3d6000fd5b5050825461ff001916610100179092555050565b81810182811015610a5457fe5b33600090815260096020526040812054610100900460ff1615613553576040805160e560020a62461bcd028152602060048201526017602482015260008051602061449e833981519152604482015290519081900360640190fd5b3360009081526009602052604090205460ff1615156135aa576040805160e560020a62461bcd02815260206004820152601c60248201526000805160206144de833981519152604482015290519081900360640190fd5b600a6135bc611eb98460070154610a42565b8115156135c557fe5b0490506135df8183600101546134eb90919063ffffffff16565b60018301555042600790910155565b6000828211156135fa57fe5b50900390565b336000908152600960205260408120548190610100900460ff161561365d576040805160e560020a62461bcd028152602060048201526017602482015260008051602061449e833981519152604482015290519081900360640190fd5b3360009081526009602052604090205460ff1615156136b4576040805160e560020a62461bcd02815260206004820152601c60248201526000805160206144de833981519152604482015290519081900360640190fd5b33600090815260096020526040902091506136ce826134f8565b6009820160ff8716600581106136e057fe5b602081049091015460ff601f9092166101000a9004161561374b576040805160e560020a62461bcd02815260206004820152601660248201527f5570677261646520616c7265616479206f776e65642e00000000000000000000604482015290519081900360640190fd5b60018201548511156137a7576040805160e560020a62461bcd02815260206004820152601660248201527f4d6f726520676f6c642069732072657175697265642e00000000000000000000604482015290519081900360640190fd5b6002820154841115613803576040805160e560020a62461bcd02815260206004820152601b60248201527f4d6f7265206469616d6f6e6473206172652072657175697265642e0000000000604482015290519081900360640190fd5b5060005b600460ff82161161387b578260ff82166005811061382157fe5b6020908102919091015160ff8381166000908152600b86019093526040909220805467ffff0000000000001981169390921666010000000000009283900461ffff9081169190910216909102919091179055600101613807565b6001820154613890908663ffffffff6135ee16565b600183015560028201546138aa908563ffffffff6135ee16565b600283015560016009830160ff8816600581106138c357fe5b602091828204019190066101000a81548160ff021916908315150217905550505050505050565b3360009081526009602052604081205481908190610100900460ff1615613949576040805160e560020a62461bcd028152602060048201526017602482015260008051602061449e833981519152604482015290519081900360640190fd5b3360009081526009602052604090205460ff1615156139a0576040805160e560020a62461bcd02815260206004820152601c60248201526000805160206144de833981519152604482015290519081900360640190fd5b5060009150819050805b600560ff8216116139fe5760ff81166000908152600b850160205260409020546601000000000000810461ffff908116918116919091021692506139f4828463ffffffff6134eb16565b91506001016139aa565b6064613a1785600c0154846140f890919063ffffffff16565b811515613a2057fe5b04846003018190555050505050565b33600090815260096020526040812054610100900460ff1615613a8a576040805160e560020a62461bcd028152602060048201526017602482015260008051602061449e833981519152604482015290519081900360640190fd5b3360009081526009602052604090205460ff161515613ae1576040805160e560020a62461bcd02815260206004820152601c60248201526000805160206144de833981519152604482015290519081900360640190fd5b50336000908152600960205260409020613afa816134f8565b6008810160ff871660078110613b0c57fe5b602081049091015460ff601f9092166101000a90041615613b77576040805160e560020a62461bcd02815260206004820152601660248201527f5570677261646520616c7265616479206f776e65642e00000000000000000000604482015290519081900360640190fd5b6001810154851115613bd3576040805160e560020a62461bcd02815260206004820152601660248201527f4d6f726520676f6c642069732072657175697265642e00000000000000000000604482015290519081900360640190fd5b6004810154613be8908563ffffffff6134eb16565b60048201558215613c1b576004810154600a90613c0b908563ffffffff6140f816565b811515613c1457fe5b0460048201555b8115613c3c57600c810154613c36908363ffffffff6134eb16565b600c8201555b6001810154613c51908663ffffffff6135ee16565b6001808301919091556008820160ff881660078110613c6c57fe5b602091828204019190066101000a81548160ff021916908315150217905550613c94816138ea565b505050505050565b336000908152600960205260408120600581015490919081908190613cc090610a42565b9250613cca613311565b915081831015613f045760068390556004805473ffffffffffffffffffffffffffffffffffffffff191633179055600d84015460055542600755600e8401805460ff191660011790556008546002906008805492909104918290039055600254604080517f8537cbf7000000000000000000000000000000000000000000000000000000008152336004820152600384810b900b604482015260606024820152600b60648201527f676f6c64546f436c61696d00000000000000000000000000000000000000000060848201529051929350600160a060020a0390911691638537cbf79160a48082019260009290919082900301818387803b158015613dcf57600080fd5b505af1158015613de3573d6000803e3d6000fd5b505060018054600d880154604080517ffab76fe4000000000000000000000000000000000000000000000000000000008152600481019290925260248201939093529151600160a060020a03909116935063fab76fe49250604480830192600092919082900301818387803b158015613e5b57600080fd5b505af1158015613e6f573d6000803e3d6000fd5b505060018054600d880154604080517f78b71255000000000000000000000000000000000000000000000000000000008152600481019290925260248201939093529151600160a060020a0390911693506378b712559250604480830192600092919082900301818387803b158015613ee757600080fd5b505af1158015613efb573d6000803e3d6000fd5b50505050614053565b60088054600919019055600254604080517f8537cbf7000000000000000000000000000000000000000000000000000000008152336004820152600a604482015260606024820152600b60648201527f676f6c64546f436c61696d00000000000000000000000000000000000000000060848201529051600160a060020a0390921691638537cbf79160a48082019260009290919082900301818387803b158015613fae57600080fd5b505af1158015613fc2573d6000803e3d6000fd5b505060018054600d880154604080517f78b71255000000000000000000000000000000000000000000000000000000008152600481019290925260248201939093529151600160a060020a0390911693506378b712559250604480830192600092919082900301818387803b15801561403a57600080fd5b505af115801561404e573d6000803e3d6000fd5b505050505b42600685015561210a613392565b600081424460405160200180838152602001828152602001925050506040516020818303038152906040526040518082805190602001908083835b602083106140bb5780518252601f19909201916020918201910161409c565b5181516020939093036101000a60001901801990911692169190911790526040519201829003909120925050508115156140f157fe5b0692915050565b600082151561410957506000610a54565b5081810281838281151561411957fe5b0414610a5457fe5b33600090815260096020526040812054610100900460ff161561417c576040805160e560020a62461bcd028152602060048201526017602482015260008051602061449e833981519152604482015290519081900360640190fd5b3360009081526009602052604090205460ff1615156141d3576040805160e560020a62461bcd02815260206004820152601c60248201526000805160206144de833981519152604482015290519081900360640190fd5b503360009081526009602052604090206141ec816134f8565b600a810160ff8516600581106141fe57fe5b602081049091015460ff601f9092166101000a90041615614269576040805160e560020a62461bcd02815260206004820152601660248201527f5570677261646520616c7265616479206f776e65642e00000000000000000000604482015290519081900360640190fd5b60028101548311156142c5576040805160e560020a62461bcd02815260206004820152601b60248201527f4d6f7265206469616d6f6e6473206172652072657175697265642e0000000000604482015290519081900360640190fd5b6001810154821115614321576040805160e560020a62461bcd02815260206004820152601660248201527f4d6f726520676f6c642069732072657175697265642e00000000000000000000604482015290519081900360640190fd5b6001600a820160ff86166005811061433557fe5b602091828204019190066101000a81548160ff02191690831515021790555061436b8382600201546135ee90919063ffffffff16565b60028201556001810154614385908363ffffffff6135ee16565b600190910155505050565b60c0604051908101604052806006906020820280388339509192915050565b60e0604051908101604052806007906020820280388339509192915050565b60a0604051908101604052806005906020820280388339509192915050565b60018301918390821561446f5791602002820160005b8382111561444057835183826101000a81548160ff0219169083151502179055509260200192600101602081600001049283019260010302614403565b801561446d5782816101000a81549060ff0219169055600101602081600001049283019260010302614440565b505b5061447b92915061447f565b5090565b61332491905b8082111561447b57805460ff19168155600101614485560047616d652068617320616c726561647920656e6465642e0000000000000000006e6565647320746f206265206f776e65720000000000000000000000000000004e6f2067616d652065786973747320666f722074686973207573657200000000a165627a7a72305820f08e3ea76b9a3dd2f7e0cf82ef3cda1211b934477ba99ba23d6e349bdcdd02590029",
  "source": "pragma solidity >=0.4.0 <0.6.0;\r\n\r\nimport \"../node_modules/everdragons-shared/solidity/libs/HasRobot.sol\";\r\nimport \"../node_modules/everdragons-shared/solidity/libs/HasWallet.sol\";\r\nimport \"../node_modules/everdragons-shared/solidity/libs/HasPlayerContract.sol\";\r\nimport \"../node_modules/everdragons-shared/solidity/libs/HasDragonContract.sol\";\r\nimport \"../node_modules/everdragons-shared/solidity/libs/Destructible.sol\";\r\nimport \"../node_modules/everdragons-shared/solidity/libs/Pausable.sol\";\r\nimport \"../node_modules/everdragons-shared/solidity/libs/SafeMath.sol\";\r\n\r\n/// @title Clicker mine game contract\r\ncontract Goldmine is Pausable, Destructible, HasDragonContract, HasPlayerContract, HasAdmin {\r\n\r\n    using SafeMath for uint;\r\n    uint32 public constant gameID = 2001;\r\n\r\n    // State variables\r\n    address public currentGuardian;\r\n    uint public currentGuardianTokenId;\r\n    uint public guardianDuration;\r\n    uint public guardianSince;\r\n    uint public prizePot;\r\n\r\n    // Events\r\n    /*\r\n    event StartGame(address player, uint startTime);\r\n    event EndGame(address player, uint totalDuration);\r\n    event ClickMineCart(address player, uint gold, uint diamond);\r\n    event ClickDiamond(address player, uint gold, uint diamond);\r\n    event BuyMiner(address player, MinerType minerType, uint gold);\r\n    event SellMiner(address player, MinerType minerType, uint gold);\r\n    */\r\n    // Modifiers\r\n    modifier gameActive() {\r\n        //Guardian upgraded 4 times\r\n        require(!games[msg.sender].hasFinished, \"Game has already ended.\");\r\n        require(games[msg.sender].hasStarted, \"No game exists for this user\");\r\n        _;\r\n    }\r\n\r\n    // Enums\r\n    enum MinerType {\r\n        Mole,\r\n        Badger,\r\n        Wyrm,\r\n        Goblin,\r\n        Orc,\r\n        Guardian\r\n    }\r\n\r\n    enum StandardUpgradeType {\r\n        Teeth,\r\n        Smoke,\r\n        Fire,\r\n        Roar,\r\n        Fury\r\n    }\r\n\r\n    enum MinerUpgradeType {\r\n        Coffee,\r\n        Powerbar,\r\n        Nailfile,\r\n        Pickaxe,\r\n        Dynamite\r\n    }\r\n\r\n    enum DiamondUpgradeType {\r\n        Sense,\r\n        Touch,\r\n        Sight,\r\n        Luck,\r\n        Guardian\r\n    }\r\n\r\n    // Structs\r\n    struct Miner {\r\n        uint16 count;\r\n        uint32 currentCost;\r\n        uint16 nuggetsPerSecond;\r\n        uint8 currentDiamondsCost;\r\n    }\r\n\r\n    struct GameData {\r\n\r\n        bool hasStarted;\r\n        bool hasFinished;\r\n        uint totalGold;\r\n        uint totalDiamonds;\r\n        uint goldNuggetsPerSecond;\r\n        uint goldNuggetsPerClick;\r\n\r\n        // Timestamp variables\r\n        uint startTime;\r\n        uint endTime;\r\n        uint lastUpdated;\r\n\r\n        // Upgrade Arrays\r\n        bool[7] hasStandardUpgrade;\r\n        bool[5] hasMinerUpgrade;\r\n        bool[5] hasDiamondUpgrade;\r\n\r\n        // Mappings\r\n        mapping(uint8 => Miner) miners;\r\n\r\n        // More variables\r\n        uint goldNuggetsBoost;\r\n        uint tokenId;\r\n        bool hasWon;\r\n    }\r\n\r\n    mapping(address => GameData) public games;\r\n\r\n    function addToPrizePot(uint amount) public onlyAdmin {\r\n        prizePot += amount;\r\n    }\r\n\r\n    /// @dev Create a new game for the player\r\n    function newGame(uint tokenId) public {\r\n\r\n        require(!games[msg.sender].hasStarted || games[msg.sender].hasFinished, \"player already started game\");\r\n\r\n        uint32 state = dragonContract.getDragonState(tokenId);\r\n        require(state == 0, \"dragon is already in a game\");\r\n\r\n        address user = dragonContract.ownerOf(tokenId);\r\n        require(msg.sender == user, \"not owner of token\");\r\n\r\n        uint16 fullness;\r\n        (,,,fullness,,) = dragonContract.getDragon(tokenId);\r\n\r\n        require(fullness >= 30, \"not enough fullness\");\r\n        dragonContract.setDragonState(tokenId, gameID);\r\n        dragonContract.modifyFullness(tokenId, int16(- 30), 0);\r\n\r\n        prizePot += 24;\r\n        if(currentGuardian != address(0)) {\r\n            playerContract.modifyItem(currentGuardian, \"goldToClaim\", 3);\r\n        }\r\n\r\n        games[msg.sender] = GameData(\r\n            true, //hasStarted\r\n            false, //hasFinished\r\n            0, //totalGold\r\n            0, //totalDiamonds\r\n            0, //goldNuggetsPerSecond\r\n            10, //goldNuggetsPerClick\r\n            now, //startTime\r\n            0, //endTime\r\n            now, //lastUpdated\r\n            [false, false, false, false, false, false, false], //hasStandardUpgrade\r\n            [false, false, false, false, false], //hasMinerUpgrade\r\n            [false, false, false, false, false], //hasDiamondUpgrade\r\n            100, //goldNuggetsBoost\r\n            tokenId,\r\n            false\r\n        );\r\n\r\n        // Mole. A little mole.\r\n        // Produces 1 goldNugget every 10 seconds.\r\n        games[msg.sender].miners[0] = Miner(0, 15, 1, 0);\r\n        // Badger. A wild badger with sharp claws.\r\n        // Produces 1 goldNugget every 2 seconds.\r\n        games[msg.sender].miners[1] = Miner(0, 100, 5, 0);\r\n        // Wyrm. Rock wyrms love the mines.\r\n        // Produces 5 goldNuggets per second.\r\n        games[msg.sender].miners[2] = Miner(0, 1250, 50, 0);\r\n        // Goblin. Goblins are excellent mine workers.\r\n        // Produces 17 goldNuggets per second.\r\n        games[msg.sender].miners[3] = Miner(0, 5000, 170, 0);\r\n        // Orc. Orcs are strong and too dumb to steal diamonds when they find one.\r\n        // Produces 52 goldNuggets per second.\r\n        games[msg.sender].miners[4] = Miner(0, 30000, 520, 0);\r\n        // Guardian. Once completed you don't need to oversee it anymore.\r\n        // Produces 500 gold nuggets per second.\r\n        games[msg.sender].miners[5] = Miner(0, 200000, 5000, 25);\r\n\r\n        // emit StartGame(msg.sender, now);\r\n    }\r\n\r\n    function getMiners() public view returns (uint[6] count, uint[6] currentCost, uint[6] nuggetsPerSecond) {\r\n        for(uint8 i = 0; i < 6; i++) {\r\n            count[i] = games[msg.sender].miners[i].count;\r\n            currentCost[i] = games[msg.sender].miners[i].currentCost;\r\n            nuggetsPerSecond[i] = games[msg.sender].miners[i].nuggetsPerSecond;\r\n        }\r\n    }\r\n\r\n    function getUpgrades() public view returns (bool[7] standard, bool[5] miner, bool[5] diamond) {\r\n        return (games[msg.sender].hasStandardUpgrade, games[msg.sender].hasMinerUpgrade, games[msg.sender].hasDiamondUpgrade);\r\n    }\r\n\r\n    /// @dev Produces gold and diamond when clicking the mine cart\r\n    function clickMineCart() public gameActive {\r\n\r\n        GameData storage game = games[msg.sender];\r\n        game.totalGold = game.totalGold.add(game.goldNuggetsPerClick);\r\n\r\n        uint rnd = random(100);\r\n        //diamond demand\r\n        if (rnd <= 10 ||\r\n            (game.hasDiamondUpgrade[0] && rnd <= 20) ||\r\n            (game.hasDiamondUpgrade[1] && rnd <= 30)) {\r\n            game.totalDiamonds = game.totalDiamonds.add(1);\r\n        }\r\n\r\n        updateTotalGoldNuggets(game);\r\n        // emit ClickMineCart(msg.sender, game.goldNuggetsPerClick, diamonds);\r\n    }\r\n\r\n\r\n    /// @dev Logic related to clicking diamond\r\n    function clickDiamond() public gameActive{\r\n\r\n        GameData storage game = games[msg.sender];\r\n\r\n        uint luckyNumber = now %100;\r\n\r\n        // Has Sight\r\n        if (game.hasDiamondUpgrade[2]){\r\n            require(luckyNumber <= 15, \"No lucky diamond found.\");\r\n        }\r\n        else {\r\n            require(luckyNumber <= 10, \"No lucky diamond found.\");\r\n        }\r\n\r\n        // Has Luck\r\n        if (game.hasDiamondUpgrade[3]){\r\n            game.totalDiamonds = game.totalDiamonds.add(10);\r\n        } else {\r\n            game.totalDiamonds = game.totalDiamonds.add(2);\r\n        }\r\n\r\n        updateTotalGoldNuggets(game);\r\n        // emit ClickDiamond(msg.sender, goldAmount, diamondAmount);\r\n    }\r\n\r\n    /// @return Duration since last updated in seconds\r\n    function getDurationSinceLastUpdate(uint lastUpdated) public view returns (uint) {\r\n        return now.sub(lastUpdated);\r\n    }\r\n\r\n    /// @return Total duration of game in secords\r\n    function getTotalDuration(uint startTime) public view returns (uint) {\r\n        return now.sub(startTime);\r\n    }\r\n\r\n    ///@dev current guardian's time + 1 minute every 4 hours\r\n    function getTimeToBeat() public view returns (uint) {\r\n        return guardianDuration + ((now - guardianSince) / 240);\r\n    }\r\n\r\n    function getTotalNuggets() public view returns (uint, uint64) {\r\n        GameData storage game = games[msg.sender];\r\n        uint256 additionalNuggets = game.goldNuggetsPerSecond\r\n        .mul(getDurationSinceLastUpdate(game.lastUpdated)) / 10;\r\n\r\n        return (game.totalGold + additionalNuggets, uint64(now));\r\n    }\r\n    /// @dev Buys a miner for current cost\r\n    /// @param minerType one of the 6 miner types\r\n    function buyMiner(MinerType minerType) public gameActive {\r\n\r\n        GameData storage game = games[msg.sender];\r\n        updateTotalGoldNuggets(game);\r\n\r\n        require(uint8(minerType) <= 5, \"Invalid miner type.\");\r\n        Miner storage miner = game.miners[uint8(minerType)];\r\n\r\n        if (minerType == MinerType.Guardian) {\r\n\r\n            uint costOfDiamondsMultiplier = uint(miner.count) + 1;\r\n            uint costOfDiamonds = costOfDiamondsMultiplier * 5;\r\n            miner.currentDiamondsCost = uint8(costOfDiamonds);\r\n            require(game.hasDiamondUpgrade[4], \"Needs Guardian upgrade to buy Guardian.\");\r\n            require(game.totalDiamonds >= costOfDiamonds, \"Needs more diamonds.\");\r\n            game.totalDiamonds = game.totalDiamonds.sub(costOfDiamonds);\r\n        }\r\n\r\n        require(game.totalGold >= miner.currentCost,\r\n            \"Player can't afford this miner.\"\r\n        );\r\n\r\n        game.totalGold -= miner.currentCost;\r\n        game.goldNuggetsPerSecond += miner.nuggetsPerSecond;\r\n\r\n        miner.count++;\r\n        miner.currentCost = miner.currentCost * 115 / 100;\r\n\r\n        // emit BuyMiner(msg.sender, minerType, miner.currentCost);\r\n\r\n        if (minerType == MinerType.Guardian && miner.count >= 4) {\r\n\r\n            endGame();\r\n        }\r\n    }\r\n\r\n\r\n    /// @dev ends the game and replaces guardian if time is beaten\r\n    function endGame() private  {\r\n\r\n        GameData storage game = games[msg.sender];\r\n\r\n        uint totalDuration = getTotalDuration(game.startTime);\r\n        uint timeToBeat = getTimeToBeat();\r\n\r\n        if (totalDuration < timeToBeat) {\r\n            guardianDuration = totalDuration;\r\n            currentGuardian = msg.sender;\r\n            currentGuardianTokenId = game.tokenId;\r\n            guardianSince = now;\r\n            game.hasWon = true;\r\n            uint win = prizePot / 2;\r\n            prizePot -= win;\r\n            playerContract.modifyItem(msg.sender, \"goldToClaim\", int32(win));\r\n            dragonContract.modifyDragonPrestige(game.tokenId, 1);\r\n            dragonContract.modifyDragonExperience(game.tokenId, 1);\r\n        } else {\r\n            prizePot -= 10;\r\n            playerContract.modifyItem(msg.sender, \"goldToClaim\", 10);\r\n            dragonContract.modifyDragonExperience(game.tokenId, 1);\r\n        }\r\n\r\n        game.endTime = now;\r\n        quit();\r\n        // emit EndGame(msg.sender, totalDuration);\r\n    }\r\n\r\n    function quit() public gameActive {\r\n        GameData storage game = games[msg.sender];\r\n\r\n        dragonContract.setDragonState(game.tokenId, 0);\r\n        game.hasFinished = true;\r\n\r\n    }\r\n\r\n    /// @dev Sells a miner for 50% of current cost\r\n    /// @param minerType one of the 6 miner types\r\n    function sellMiner(MinerType minerType) public gameActive {\r\n\r\n        GameData storage game = games[msg.sender];\r\n\r\n        require(uint8(minerType) < 5, \"Invalid miner type.\");\r\n        Miner storage miner = game.miners[uint8(minerType)];\r\n        require(miner.count > 0, \"No miners to sell.\");\r\n\r\n        uint sellPrice = miner.currentCost / 2;\r\n        game.totalGold = game.totalGold.add(sellPrice);\r\n        game.goldNuggetsPerSecond -= miner.nuggetsPerSecond;\r\n\r\n        miner.count -= 1;\r\n        // emit SellMiner(msg.sender, minerType, sellPrice);\r\n\r\n        updateTotalGoldNuggets(game);\r\n    }\r\n\r\n\r\n    /// @dev Buys an upgrade to the clicker\r\n    /// @param upgradeType one of the 5 standard upgrade types\r\n    function buyStandardUpgrade(StandardUpgradeType upgradeType)\r\n    public\r\n    gameActive\r\n    {\r\n        // Teeth. Gets you +10 goldNugget/click\r\n        if (upgradeType == StandardUpgradeType.Teeth) {\r\n            upgradeStandard(uint8(upgradeType), 50, 10, 0, 0);\r\n        }\r\n        // Smoke. Gets you +15 goldNugget/click\r\n        else if (upgradeType == StandardUpgradeType.Smoke) {\r\n            upgradeStandard(uint8(upgradeType), 200, 15, 0, 0);\r\n        }\r\n        // Fire. Gets you.+25 goldNugget/click\r\n        else if (upgradeType == StandardUpgradeType.Fire) {\r\n            upgradeStandard(uint8(upgradeType), 700, 25, 0, 0);\r\n        }\r\n        // Roar. Gets you goldNugget/click x2. goldNugget production +5%\r\n        else if (upgradeType == StandardUpgradeType.Roar) {\r\n            upgradeStandard(uint8(upgradeType), 4000, 0, 20, 5);\r\n        }\r\n        // Fury. Gets you goldNugget/click x2.5. goldNugget production +10%\r\n        else if (upgradeType == StandardUpgradeType.Fury) {\r\n            upgradeStandard(uint8(upgradeType), 30000, 0, 25, 10);\r\n        }\r\n        else\r\n            revert(\"Invalid upgrade type.\");\r\n    }\r\n\r\n\r\n\r\n    /// @dev Buys an upgrade that is applied to miners\r\n    /// @param upgradeType one of the 5 miner upgrade types\r\n    function buyMinerUpgrade(MinerUpgradeType upgradeType)\r\n    public\r\n    gameActive\r\n    {\r\n        require(uint8(upgradeType) <= 4, \"Invalid upgrade type.\");\r\n        GameData storage game = games[msg.sender];\r\n        // Coffee can dig faster.\r\n        // mole gathering x2. badger gathering x2. rock wyrm gathering x2\r\n        if (upgradeType == MinerUpgradeType.Coffee) {\r\n            require(\r\n                game.miners[0].count >= 10 &&\r\n                game.miners[1].count >= 7 &&\r\n                game.miners[2].count >= 4,\r\n                \"10 moles, 7 badgers and 4 wyrms are required.\"\r\n            );\r\n            upgradeMiner(uint8(upgradeType), 10000, 0, [2, 2, 2, 1, 1]);\r\n            updateGoldNuggetsPerSecond(game);\r\n        }\r\n        // Everyone works better with a break!\r\n        // mole gathering x2. badger gathering x2. rock wyrm gathering x2\r\n        else if (upgradeType == MinerUpgradeType.Powerbar) {\r\n            require(\r\n                game.miners[0].count >= 15 &&\r\n                game.miners[1].count >= 12 &&\r\n                game.miners[2].count >= 8,\r\n                \"15 moles, 12 badgers and 8 wyrms are required.\"\r\n            );\r\n            upgradeMiner(uint8(upgradeType), 20000, 0, [2, 2, 2, 1, 1]);\r\n            updateGoldNuggetsPerSecond(game);\r\n        }\r\n        // Oh boy this stuff makes your fit!\r\n        // mole gathering x2. badger gathering x2. rock wyrm gathering x2\r\n        else if (upgradeType == MinerUpgradeType.Nailfile) {\r\n            require(\r\n                game.miners[0].count >= 20 &&\r\n                game.miners[1].count >= 16 &&\r\n                game.miners[2].count >= 12,\r\n                \"20 moles, 16 badgers and 12 wyrms are required.\"\r\n            );\r\n            upgradeMiner(uint8(upgradeType), 50000, 1, [2, 2, 2, 1, 1]);\r\n            updateGoldNuggetsPerSecond(game);\r\n        }\r\n        // Sharper, better, faster! goblin production x2. cave orc production x2\r\n        else if (upgradeType == MinerUpgradeType.Pickaxe) {\r\n            require(\r\n                game.miners[3].count >= 10 &&\r\n                game.miners[4].count >= 1,\r\n                \"10 goblins and 1 orc is required.\"\r\n            );\r\n            upgradeMiner(uint8(upgradeType), 50000, 1, [1, 1, 1, 2, 2]);\r\n            updateGoldNuggetsPerSecond(game);\r\n        }\r\n        // BOOM! goblin production x2. cave orc production x3\r\n        else if (upgradeType == MinerUpgradeType.Dynamite) {\r\n            require(\r\n                game.miners[3].count >= 10 &&\r\n                game.miners[4].count >= 5,\r\n                \"15 goblins and 3 orcs are required.\"\r\n            );\r\n            upgradeMiner(uint8(upgradeType), 100000, 5, [1, 1, 1, 2, 3]);\r\n            updateGoldNuggetsPerSecond(game);\r\n        }\r\n    }\r\n\r\n    /// @dev Buys an upgrade to diamond frequency (or Guardian)\r\n    /// @param upgradeType one of the 5 diamond upgrade types\r\n    function buyDiamondUpgrade(DiamondUpgradeType upgradeType)\r\n    public\r\n    gameActive\r\n    {\r\n        GameData storage game = games[msg.sender];\r\n\r\n        // 20% chance of gaining 1 diamond per goldNugget click\r\n        if (upgradeType == DiamondUpgradeType.Sense) {\r\n            upgradeDiamond(uint8(upgradeType), 1, 0);\r\n        }\r\n        // 30% chance of gaining 1 diamond per goldNugget click\r\n        else if (upgradeType == DiamondUpgradeType.Touch) {\r\n            upgradeDiamond(uint8(upgradeType), 2, 0);\r\n        }\r\n        // lucky diamonds appear 50% longer often\r\n        else if (upgradeType == DiamondUpgradeType.Sight) {\r\n            upgradeDiamond(uint8(upgradeType), 2, 0);\r\n        }\r\n        // This unlocks the Guardian option.\r\n        else if (upgradeType == DiamondUpgradeType.Guardian) {\r\n            require(\r\n                game.miners[3].count >= 10 &&\r\n                game.miners[4].count >= 3,\r\n                \"Requires at least 10 goblins and 3 orcs.\"\r\n            );\r\n            upgradeDiamond(uint8(upgradeType), 5, 0);\r\n        }\r\n        // Lucky diamond effects are 5 times more powerful\r\n        else if (upgradeType == DiamondUpgradeType.Luck) {\r\n            upgradeDiamond(uint8(upgradeType), 0, 100000);\r\n        }\r\n        else\r\n            revert(\"Invalid upgrade type.\");\r\n    }\r\n\r\n\r\n    /// @dev Applies upgrade to clicker and multipliers\r\n    /// @param upgradeIndex Index related to StandardUpgradeType enum\r\n    /// @param goldCost Cost of upgrade in gold nuggets\r\n    /// @param nuggetsPerClick Number of nuggets to add per click\r\n    /// @param nuggetsPerClickMultiplier Factor to multiply current nuggets per click\r\n    /// @param nuggetsPerSecondMultiplier Factor to multiple current nuggets per sec\r\n    function upgradeStandard(\r\n        uint8 upgradeIndex,\r\n        uint goldCost,\r\n        uint nuggetsPerClick,\r\n        uint nuggetsPerClickMultiplier,\r\n        uint nuggetsPerSecondMultiplier\r\n    )\r\n    private\r\n    gameActive\r\n    {\r\n\r\n        GameData storage game = games[msg.sender];\r\n        updateTotalGoldNuggets(game);\r\n\r\n        require(!game.hasStandardUpgrade[upgradeIndex], \"Upgrade already owned.\");\r\n        require(game.totalGold >= goldCost, \"More gold is required.\");\r\n\r\n        game.goldNuggetsPerClick = game.goldNuggetsPerClick.add(nuggetsPerClick);\r\n\r\n        if (nuggetsPerClickMultiplier != 0) {\r\n            game.goldNuggetsPerClick = game.goldNuggetsPerClick.mul(nuggetsPerClickMultiplier) / 10;\r\n        }\r\n        if (nuggetsPerSecondMultiplier != 0) {\r\n            game.goldNuggetsBoost = game.goldNuggetsBoost.add(nuggetsPerSecondMultiplier);\r\n        }\r\n\r\n        game.totalGold = game.totalGold.sub(goldCost);\r\n        game.hasStandardUpgrade[upgradeIndex] = true;\r\n\r\n        updateGoldNuggetsPerSecond(game);\r\n    }\r\n\r\n\r\n    /// @dev Applies upgrade to related miners\r\n    /// @param upgradeIndex Index related to MinerUpgradeType enum\r\n    /// @param goldCost Cost of upgrade in gold nuggets\r\n    /// @param diamondCost Cost of upgrade in diamonds\r\n    /// @param minerMultipliers multiplier factor for each miner\r\n    function upgradeMiner(\r\n        uint8 upgradeIndex,\r\n        uint goldCost,\r\n        uint diamondCost,\r\n        uint8[5] memory minerMultipliers\r\n    )\r\n    private\r\n    gameActive\r\n    {\r\n        GameData storage game = games[msg.sender];\r\n        updateTotalGoldNuggets(game);\r\n\r\n        require(!game.hasMinerUpgrade[upgradeIndex], \"Upgrade already owned.\");\r\n        require(game.totalGold >= goldCost, \"More gold is required.\");\r\n        require(game.totalDiamonds >= diamondCost, \"More diamonds are required.\");\r\n\r\n        for (uint8 i = 0; i <= 4; i++) {\r\n            game.miners[i].nuggetsPerSecond = game.miners[i].nuggetsPerSecond * minerMultipliers[i];\r\n        }\r\n\r\n        game.totalGold = game.totalGold.sub(goldCost);\r\n        game.totalDiamonds = game.totalDiamonds.sub(diamondCost);\r\n        game.hasMinerUpgrade[upgradeIndex] = true;\r\n    }\r\n\r\n\r\n    /// @dev diamond upgrade flags are used in mine and diamond click functions\r\n    /// @dev Applies upgrade to related miners\r\n    /// @param upgradeIndex Index related to DiamondUpgradeType enum\r\n    /// @param diamondCost Cost of upgrade in diamonds\r\n    /// @param goldCost Cost of upgrade in gold nuggets\r\n    function upgradeDiamond(\r\n        uint8 upgradeIndex,\r\n        uint diamondCost,\r\n        uint goldCost\r\n    )\r\n    private\r\n    gameActive\r\n    {\r\n        GameData storage game = games[msg.sender];\r\n        updateTotalGoldNuggets(game);\r\n\r\n        require(!game.hasDiamondUpgrade[upgradeIndex], \"Upgrade already owned.\");\r\n        require(game.totalDiamonds >= diamondCost, \"More diamonds are required.\");\r\n        require(game.totalGold >= goldCost, \"More gold is required.\");\r\n\r\n        game.hasDiamondUpgrade[upgradeIndex] = true;\r\n        game.totalDiamonds = game.totalDiamonds.sub(diamondCost);\r\n        game.totalGold = game.totalGold.sub(goldCost);\r\n    }\r\n\r\n\r\n    /// @dev adds mined nuggets since last update to total\r\n    function updateTotalGoldNuggets(GameData storage game) private gameActive\r\n    {\r\n        uint256 additionalNuggets = game.goldNuggetsPerSecond\r\n        .mul(getDurationSinceLastUpdate(game.lastUpdated)) / 10;\r\n\r\n        game.totalGold = game.totalGold.add(additionalNuggets);\r\n        game.lastUpdated = now;\r\n    }\r\n\r\n    /// @dev recalculates nuggets per second\r\n    function updateGoldNuggetsPerSecond(GameData storage game) private gameActive\r\n    {\r\n\r\n        uint256 nuggetsPerSecondThisOne = 0;\r\n        uint256 nuggetsPerSecondCounter = 0;\r\n\r\n        for (uint8 i = 0; i <= 5; i++)\r\n        {\r\n            nuggetsPerSecondThisOne = game.miners[i].nuggetsPerSecond * game.miners[i].count;\r\n            nuggetsPerSecondCounter = nuggetsPerSecondCounter.add(nuggetsPerSecondThisOne);\r\n        }\r\n        game.goldNuggetsPerSecond = nuggetsPerSecondCounter.mul(game.goldNuggetsBoost) / 100;\r\n    }\r\n\r\n    /// @return Random number less than specified value\r\n    function random(uint value) private view returns (uint) {\r\n        return uint(keccak256(abi.encodePacked(block.timestamp, block.difficulty))) % value;\r\n    }\r\n\r\n}\r\n",
  "sourcePath": "C:\\Projects\\everdragons\\everdragons-goldmine\\contracts\\Goldmine.sol",
  "compiler": {
    "name": "solc",
    "version": "0.4.24-develop.2018.8.28+commit.3ba0cdec.mod.Emscripten.clang"
  },
  "schemaVersion": "2.0.1",
  "updatedAt": "2019-01-04T02:19:43.108Z"
}