{
  "contractName": "Race",
  "abi": [
    {
      "constant": true,
      "inputs": [
        {
          "name": "",
          "type": "address"
        }
      ],
      "name": "playerToGameId",
      "outputs": [
        {
          "name": "",
          "type": "uint256"
        }
      ],
      "payable": false,
      "stateMutability": "view",
      "type": "function"
    },
    {
      "constant": true,
      "inputs": [
        {
          "name": "gameId",
          "type": "uint256"
        }
      ],
      "name": "hasFinished",
      "outputs": [
        {
          "name": "",
          "type": "bool"
        }
      ],
      "payable": false,
      "stateMutability": "view",
      "type": "function"
    },
    {
      "constant": false,
      "inputs": [
        {
          "name": "gameId",
          "type": "uint256"
        },
        {
          "name": "dragonDNA",
          "type": "uint64"
        }
      ],
      "name": "joinGame",
      "outputs": [],
      "payable": false,
      "stateMutability": "nonpayable",
      "type": "function"
    },
    {
      "constant": true,
      "inputs": [
        {
          "name": "gameId",
          "type": "uint256"
        }
      ],
      "name": "isInProgress",
      "outputs": [
        {
          "name": "",
          "type": "bool"
        }
      ],
      "payable": false,
      "stateMutability": "view",
      "type": "function"
    },
    {
      "constant": false,
      "inputs": [
        {
          "name": "price",
          "type": "uint32"
        },
        {
          "name": "dragonDNA",
          "type": "uint64"
        },
        {
          "name": "numPlayers",
          "type": "uint8"
        }
      ],
      "name": "hostGame",
      "outputs": [],
      "payable": false,
      "stateMutability": "nonpayable",
      "type": "function"
    },
    {
      "constant": true,
      "inputs": [
        {
          "name": "gameId",
          "type": "uint256"
        }
      ],
      "name": "finishesAt",
      "outputs": [
        {
          "name": "",
          "type": "uint32"
        }
      ],
      "payable": false,
      "stateMutability": "view",
      "type": "function"
    },
    {
      "constant": true,
      "inputs": [],
      "name": "currentVendorGame",
      "outputs": [
        {
          "name": "",
          "type": "uint256"
        }
      ],
      "payable": false,
      "stateMutability": "view",
      "type": "function"
    },
    {
      "constant": true,
      "inputs": [],
      "name": "finishedUntil",
      "outputs": [
        {
          "name": "",
          "type": "uint256"
        }
      ],
      "payable": false,
      "stateMutability": "view",
      "type": "function"
    },
    {
      "constant": true,
      "inputs": [
        {
          "name": "gameId",
          "type": "uint256"
        }
      ],
      "name": "startedAt",
      "outputs": [
        {
          "name": "",
          "type": "uint32"
        }
      ],
      "payable": false,
      "stateMutability": "view",
      "type": "function"
    },
    {
      "constant": false,
      "inputs": [],
      "name": "unpause",
      "outputs": [],
      "payable": false,
      "stateMutability": "nonpayable",
      "type": "function"
    },
    {
      "constant": true,
      "inputs": [
        {
          "name": "offset",
          "type": "uint256"
        }
      ],
      "name": "getActiveGames",
      "outputs": [
        {
          "name": "gameIds",
          "type": "uint256[10]"
        }
      ],
      "payable": false,
      "stateMutability": "view",
      "type": "function"
    },
    {
      "constant": true,
      "inputs": [
        {
          "name": "gameId",
          "type": "uint256"
        }
      ],
      "name": "hasStarted",
      "outputs": [
        {
          "name": "",
          "type": "bool"
        }
      ],
      "payable": false,
      "stateMutability": "view",
      "type": "function"
    },
    {
      "constant": true,
      "inputs": [],
      "name": "paused",
      "outputs": [
        {
          "name": "",
          "type": "bool"
        }
      ],
      "payable": false,
      "stateMutability": "view",
      "type": "function"
    },
    {
      "constant": false,
      "inputs": [
        {
          "name": "startValues",
          "type": "uint32[]"
        },
        {
          "name": "timeDiffs",
          "type": "uint32[]"
        }
      ],
      "name": "_callback",
      "outputs": [],
      "payable": false,
      "stateMutability": "nonpayable",
      "type": "function"
    },
    {
      "constant": true,
      "inputs": [
        {
          "name": "gameId",
          "type": "uint256"
        }
      ],
      "name": "getWinners",
      "outputs": [
        {
          "name": "",
          "type": "uint64[]"
        }
      ],
      "payable": false,
      "stateMutability": "view",
      "type": "function"
    },
    {
      "constant": true,
      "inputs": [
        {
          "name": "player",
          "type": "address"
        },
        {
          "name": "offset",
          "type": "uint256"
        }
      ],
      "name": "getGamesForPlayer",
      "outputs": [
        {
          "name": "gameIds",
          "type": "uint256[5]"
        }
      ],
      "payable": false,
      "stateMutability": "view",
      "type": "function"
    },
    {
      "constant": false,
      "inputs": [],
      "name": "renounceOwnership",
      "outputs": [],
      "payable": false,
      "stateMutability": "nonpayable",
      "type": "function"
    },
    {
      "constant": true,
      "inputs": [],
      "name": "gameUID",
      "outputs": [
        {
          "name": "",
          "type": "uint16"
        }
      ],
      "payable": false,
      "stateMutability": "view",
      "type": "function"
    },
    {
      "constant": false,
      "inputs": [],
      "name": "pause",
      "outputs": [],
      "payable": false,
      "stateMutability": "nonpayable",
      "type": "function"
    },
    {
      "constant": true,
      "inputs": [],
      "name": "owner",
      "outputs": [
        {
          "name": "",
          "type": "address"
        }
      ],
      "payable": false,
      "stateMutability": "view",
      "type": "function"
    },
    {
      "constant": true,
      "inputs": [
        {
          "name": "offset",
          "type": "uint256"
        }
      ],
      "name": "getOpenGames",
      "outputs": [
        {
          "name": "gameIds",
          "type": "uint256[10]"
        }
      ],
      "payable": false,
      "stateMutability": "view",
      "type": "function"
    },
    {
      "constant": true,
      "inputs": [
        {
          "name": "gameId",
          "type": "uint256"
        }
      ],
      "name": "getGame",
      "outputs": [
        {
          "name": "price",
          "type": "uint32"
        },
        {
          "name": "maxPlayers",
          "type": "uint16"
        },
        {
          "name": "dragons",
          "type": "uint64[]"
        },
        {
          "name": "winners",
          "type": "uint64[]"
        },
        {
          "name": "status",
          "type": "uint8"
        }
      ],
      "payable": false,
      "stateMutability": "view",
      "type": "function"
    },
    {
      "constant": false,
      "inputs": [],
      "name": "checkForFinishedGames",
      "outputs": [],
      "payable": false,
      "stateMutability": "nonpayable",
      "type": "function"
    },
    {
      "constant": true,
      "inputs": [
        {
          "name": "gameId",
          "type": "uint256"
        }
      ],
      "name": "getPrizePot",
      "outputs": [
        {
          "name": "prizePot",
          "type": "uint256"
        }
      ],
      "payable": false,
      "stateMutability": "view",
      "type": "function"
    },
    {
      "constant": false,
      "inputs": [
        {
          "name": "newOwner",
          "type": "address"
        }
      ],
      "name": "transferOwnership",
      "outputs": [],
      "payable": false,
      "stateMutability": "nonpayable",
      "type": "function"
    },
    {
      "constant": true,
      "inputs": [],
      "name": "gamesCount",
      "outputs": [
        {
          "name": "",
          "type": "uint256"
        }
      ],
      "payable": false,
      "stateMutability": "view",
      "type": "function"
    },
    {
      "inputs": [
        {
          "name": "registrarAddress",
          "type": "address"
        }
      ],
      "payable": false,
      "stateMutability": "nonpayable",
      "type": "constructor"
    },
    {
      "anonymous": false,
      "inputs": [
        {
          "indexed": true,
          "name": "gameId",
          "type": "uint256"
        }
      ],
      "name": "NewGame",
      "type": "event"
    },
    {
      "anonymous": false,
      "inputs": [
        {
          "indexed": true,
          "name": "gameId",
          "type": "uint256"
        },
        {
          "indexed": false,
          "name": "player",
          "type": "address"
        },
        {
          "indexed": false,
          "name": "dna",
          "type": "uint64"
        }
      ],
      "name": "Joined",
      "type": "event"
    },
    {
      "anonymous": false,
      "inputs": [
        {
          "indexed": true,
          "name": "gameId",
          "type": "uint256"
        }
      ],
      "name": "Started",
      "type": "event"
    },
    {
      "anonymous": false,
      "inputs": [
        {
          "indexed": true,
          "name": "gameId",
          "type": "uint256"
        },
        {
          "indexed": false,
          "name": "winners",
          "type": "uint64[]"
        }
      ],
      "name": "Finished",
      "type": "event"
    },
    {
      "anonymous": false,
      "inputs": [],
      "name": "Pause",
      "type": "event"
    },
    {
      "anonymous": false,
      "inputs": [],
      "name": "Unpause",
      "type": "event"
    },
    {
      "anonymous": false,
      "inputs": [
        {
          "indexed": true,
          "name": "previousOwner",
          "type": "address"
        }
      ],
      "name": "OwnershipRenounced",
      "type": "event"
    },
    {
      "anonymous": false,
      "inputs": [
        {
          "indexed": true,
          "name": "previousOwner",
          "type": "address"
        },
        {
          "indexed": true,
          "name": "newOwner",
          "type": "address"
        }
      ],
      "name": "OwnershipTransferred",
      "type": "event"
    },
    {
      "constant": true,
      "inputs": [],
      "name": "getGameId",
      "outputs": [
        {
          "name": "gameId",
          "type": "uint256"
        }
      ],
      "payable": false,
      "stateMutability": "view",
      "type": "function"
    },
    {
      "constant": true,
      "inputs": [],
      "name": "getGameForUser",
      "outputs": [
        {
          "name": "gameId",
          "type": "uint256"
        },
        {
          "name": "price",
          "type": "uint32"
        },
        {
          "name": "maxPlayers",
          "type": "uint16"
        },
        {
          "name": "dragons",
          "type": "uint64[]"
        },
        {
          "name": "winners",
          "type": "uint64[]"
        },
        {
          "name": "status",
          "type": "uint8"
        }
      ],
      "payable": false,
      "stateMutability": "view",
      "type": "function"
    },
    {
      "constant": true,
      "inputs": [],
      "name": "getVendorGame",
      "outputs": [
        {
          "name": "gameId",
          "type": "uint256"
        },
        {
          "name": "price",
          "type": "uint32"
        },
        {
          "name": "maxPlayers",
          "type": "uint16"
        },
        {
          "name": "dragons",
          "type": "uint64[]"
        },
        {
          "name": "winners",
          "type": "uint64[]"
        },
        {
          "name": "status",
          "type": "uint8"
        }
      ],
      "payable": false,
      "stateMutability": "view",
      "type": "function"
    }
  ],
  "bytecode": "0x60806040526000805460a060020a60ff0219168155600255600160035534801561002857600080fd5b50d3801561003557600080fd5b50d2801561004257600080fd5b50604051602080620026db833981016040525160008054600160a060020a031916331790556107d181600160a060020a03811615156100e257604080517f08c379a000000000000000000000000000000000000000000000000000000000815260206004820152601f60248201527f7265676973747261722061646472657373206e6f7420617661696c61626c6500604482015290519081900360640190fd5b60018054600160a060020a031916600160a060020a0392909216919091179055600061ffff82161161017557604080517f08c379a000000000000000000000000000000000000000000000000000000000815260206004820152601360248201527f67616d6555494420697320726571756972656400000000000000000000000000604482015290519081900360640190fd5b6001805461ffff909216740100000000000000000000000000000000000000000260a060020a61ffff02199092169190911790555061252180620001ba6000396000f30060806040526004361061015b5763ffffffff60e060020a600035041663038c20268114610160578063126f648c146101ad5780631469bf7d146101f35780631728fad11461023457806320176cb11461026657806323df2d4e146102b15780632bee0825146102fc5780632fe76c9c1461032b57806330047a3a146104295780633906d594146104585780633f4ba83a1461048a5780634fd0fb9e146104b957806351f41c09146105245780635c975abb146105565780636001ba87146105855780636b1426a41461062d5780636f67f88e146106af578063715018a6146107025780638375f2e7146107315780638456cb59146107775780638da5cb5b146107a65780639d4c94da146107f1578063a2f77bcc14610823578063bf9d24ee1461091d578063c0bd83511461094c578063c75dce621461097b578063d8bb3ed21461032b578063f2fde38b146109ad578063fb632b7c146109e8575b600080fd5b34801561016c57600080fd5b50d3801561017957600080fd5b50d2801561018657600080fd5b5061019b600160a060020a0360043516610a17565b60408051918252519081900360200190f35b3480156101b957600080fd5b50d380156101c657600080fd5b50d280156101d357600080fd5b506101df600435610a29565b604080519115158252519081900360200190f35b3480156101ff57600080fd5b50d3801561020c57600080fd5b50d2801561021957600080fd5b5061023260043567ffffffffffffffff60243516610a50565b005b34801561024057600080fd5b50d3801561024d57600080fd5b50d2801561025a57600080fd5b506101df600435610b17565b34801561027257600080fd5b50d3801561027f57600080fd5b50d2801561028c57600080fd5b5061023263ffffffff6004351667ffffffffffffffff6024351660ff60443516610b32565b3480156102bd57600080fd5b50d380156102ca57600080fd5b50d280156102d757600080fd5b506102e3600435610bbe565b6040805163ffffffff9092168252519081900360200190f35b34801561030857600080fd5b50d3801561031557600080fd5b50d2801561032257600080fd5b5061019b610c8a565b34801561033757600080fd5b50d3801561034457600080fd5b50d2801561035157600080fd5b5061035a610c90565b604051808781526020018663ffffffff1663ffffffff1681526020018561ffff1661ffff16815260200180602001806020018460ff1660ff168152602001838103835286818151815260200191508051906020019060200280838360005b838110156103d05781810151838201526020016103b8565b50505050905001838103825285818151815260200191508051906020019060200280838360005b8381101561040f5781810151838201526020016103f7565b505050509050019850505050505050505060405180910390f35b34801561043557600080fd5b50d3801561044257600080fd5b50d2801561044f57600080fd5b5061019b610cc1565b34801561046457600080fd5b50d3801561047157600080fd5b50d2801561047e57600080fd5b506102e3600435610cc7565b34801561049657600080fd5b50d380156104a357600080fd5b50d280156104b057600080fd5b50610232610d96565b3480156104c557600080fd5b50d380156104d257600080fd5b50d280156104df57600080fd5b506104eb600435610e45565b604051808261014080838360005b838110156105115781810151838201526020016104f9565b5050505090500191505060405180910390f35b34801561053057600080fd5b50d3801561053d57600080fd5b50d2801561054a57600080fd5b506101df600435610eb9565b34801561056257600080fd5b50d3801561056f57600080fd5b50d2801561057c57600080fd5b506101df610ece565b34801561059157600080fd5b50d3801561059e57600080fd5b50d280156105ab57600080fd5b506040805160206004803580820135838102808601850190965280855261023295369593946024949385019291829185019084908082843750506040805187358901803560208181028481018201909552818452989b9a998901989297509082019550935083925085019084908082843750949750610ede9650505050505050565b34801561063957600080fd5b50d3801561064657600080fd5b50d2801561065357600080fd5b5061065f600435610fee565b60408051602080825283518183015283519192839290830191858101910280838360005b8381101561069b578181015183820152602001610683565b505050509050019250505060405180910390f35b3480156106bb57600080fd5b50d380156106c857600080fd5b50d280156106d557600080fd5b506106ed600160a060020a03600435166024356110f0565b60405181518152808260a080838360206104f9565b34801561070e57600080fd5b50d3801561071b57600080fd5b50d2801561072857600080fd5b506102326112f7565b34801561073d57600080fd5b50d3801561074a57600080fd5b50d2801561075757600080fd5b5061076061139c565b6040805161ffff9092168252519081900360200190f35b34801561078357600080fd5b50d3801561079057600080fd5b50d2801561079d57600080fd5b506102326113ad565b3480156107b257600080fd5b50d380156107bf57600080fd5b50d280156107cc57600080fd5b506107d5611461565b60408051600160a060020a039092168252519081900360200190f35b3480156107fd57600080fd5b50d3801561080a57600080fd5b50d2801561081757600080fd5b506104eb600435611470565b34801561082f57600080fd5b50d3801561083c57600080fd5b50d2801561084957600080fd5b506108556004356114dc565b604051808663ffffffff1663ffffffff1681526020018561ffff1661ffff16815260200180602001806020018460ff1660ff168152602001838103835286818151815260200191508051906020019060200280838360005b838110156108c55781810151838201526020016108ad565b50505050905001838103825285818151815260200191508051906020019060200280838360005b838110156109045781810151838201526020016108ec565b5050505090500197505050505050505060405180910390f35b34801561092957600080fd5b50d3801561093657600080fd5b50d2801561094357600080fd5b5061023261163d565b34801561095857600080fd5b50d3801561096557600080fd5b50d2801561097257600080fd5b5061019b61167c565b34801561098757600080fd5b50d3801561099457600080fd5b50d280156109a157600080fd5b5061019b60043561168f565b3480156109b957600080fd5b50d380156109c657600080fd5b50d280156109d357600080fd5b50610232600160a060020a036004351661180c565b3480156109f457600080fd5b50d38015610a0157600080fd5b50d28015610a0e57600080fd5b5061019b611924565b60066020526000908152604090205481565b600081815260046020526040812060035b600382015460ff91821691161015915050919050565b33600090815260066020526040812054819015610ab7576040805160e560020a62461bcd02815260206004820152601e60248201527f706c617965722063616e206f6e6c7920626520696e206f6e652067616d650000604482015290519081900360640190fd5b610ac1848461192a565b505060008281526005602090815260408083206004909252909120610ae584611a2e565b8054600182015464010000000090910461ffff16148015610b04575060015b15610b1157610b11611aea565b50505050565b60009081526004602052604090206003015460ff1660021490565b60028160ff1610158015610b4a5750600a8160ff1611155b1515610ba0576040805160e560020a62461bcd02815260206004820152601c60248201527f6d617820706c6179657273206265747765656e203020616e6420313000000000604482015290519081900360640190fd5b610bae838260ff1684611afd565b610bb9600254611a2e565b505050565b6000818152600460209081526040808320600590925282206003820154600260ff9091161015610c38576040805160e560020a62461bcd02815260206004820152601060248201527f67616d65206e6f74207374617274656400000000000000000000000000000000604482015290519081900360640190fd5b81546001820180549091640100000000900461ffff16908110610c5757fe5b90600052602060002090600891828204019190066004029054906101000a900463ffffffff16610e100192505050919050565b60075481565b33600090815260066020526040812054908060608082610caf866114dc565b999a9399929850909650945092509050565b60035481565b6000818152600460209081526040808320600590925282206003820154600260ff9091161015610d41576040805160e560020a62461bcd02815260206004820152601060248201527f67616d65206e6f74207374617274656400000000000000000000000000000000604482015290519081900360640190fd5b8154600182018054909160001961ffff64010000000090920482160116908110610d6757fe5b90600052602060002090600891828204019190066004029054906101000a900463ffffffff1692505050919050565b600054600160a060020a03163314610de6576040805160e560020a62461bcd02815260206004820152601160248201526000805160206124d6833981519152604482015290519081900360640190fd5b60005460a060020a900460ff161515610dfe57600080fd5b6000805474ff0000000000000000000000000000000000000000191681556040517f7805862f689e2f13df9f062ff482ad3ad112aca9e0847911ed832e158c525b339190a1565b610e4d612496565b6003546000908301815b6002548211158015610e695750600a83105b15610eb157506000818152600460205260409020600381015460ff1660021415610ea657600183019282908590600a8110610ea057fe5b60200201525b600190910190610e57565b505050919050565b60008181526004602052604081206002610a3a565b60005460a060020a900460ff1681565b600154604080517f12d9a6ad0000000000000000000000000000000000000000000000000000000081527f67616d65734150490000000000000000000000000000000000000000000000006004820181905233602483015291519192600160a060020a0316916312d9a6ad916044808201926020929091908290030181600087803b158015610f6c57600080fd5b505af1158015610f80573d6000803e3d6000fd5b505050506040513d6020811015610f9657600080fd5b50511515610bb9576040805160e560020a62461bcd02815260206004820152600d60248201527f6e6f74207065726d697474656400000000000000000000000000000000000000604482015290519081900360640190fd5b60008181526004602052604090206003808201546060929160ff9091161015611061576040805160e560020a62461bcd02815260206004820152601760248201527f67616d652068617320746f2062652066696e6973686564000000000000000000604482015290519081900360640190fd5b806002018054806020026020016040519081016040528092919081815260200182805480156110e357602002820191906000526020600020906000905b82829054906101000a900467ffffffffffffffff1667ffffffffffffffff168152602001906008019060208260070104928301926001038202915080841161109e5790505b5050505050915050919050565b6110f86124b6565b6000806000806000600160009054906101000a9004600160a060020a0316600160a060020a03166321f8a7216040518163ffffffff1660e060020a02815260040180807f45766572447261676f6e730000000000000000000000000000000000000000008152506020019050602060405180830381600087803b15801561117e57600080fd5b505af1158015611192573d6000803e3d6000fd5b505050506040513d60208110156111a857600080fd5b50516002549095506000945087900392505b6000831180156111ca5750600584105b156112ec5750506000818152600460205260408120905b60018201548110156112e05787600160a060020a031685600160a060020a0316636352211e846001018481548110151561121757fe5b90600052602060002090600491828204019190066008029054906101000a900467ffffffffffffffff166040518263ffffffff1660e060020a028152600401808267ffffffffffffffff168152602001915050602060405180830381600087803b15801561128457600080fd5b505af1158015611298573d6000803e3d6000fd5b505050506040513d60208110156112ae57600080fd5b5051600160a060020a031614156112d857600184019383908790600581106112d257fe5b60200201525b6001016111e1565b600019909201916111ba565b505050505092915050565b600054600160a060020a03163314611347576040805160e560020a62461bcd02815260206004820152601160248201526000805160206124d6833981519152604482015290519081900360640190fd5b60008054604051600160a060020a03909116917ff8df31144d9c2f0f6b59d69b8b98abd5459d07f2742c4df920b25aae33c6482091a26000805473ffffffffffffffffffffffffffffffffffffffff19169055565b60015460a060020a900461ffff1681565b600054600160a060020a031633146113fd576040805160e560020a62461bcd02815260206004820152601160248201526000805160206124d6833981519152604482015290519081900360640190fd5b60005460a060020a900460ff161561141457600080fd5b6000805474ff0000000000000000000000000000000000000000191660a060020a1781556040517f6985a02210a168e66602d3235cb6db0e70f92b3ba4d376a33c0f3d9434bff6259190a1565b600054600160a060020a031681565b611478612496565b6003546000908301815b60025482111580156114945750600a83105b15610eb157506000818152600460205260409020600381015460ff16600114156114d157600183019282908590600a81106114cb57fe5b60200201525b600190910190611482565b600081815260046020908152604080832080546003820154600183018054855181880281018801909652808652879660609687968996909563ffffffff82169564010000000090920461ffff16949193600288019360ff90921692859183018282801561159c57602002820191906000526020600020906000905b82829054906101000a900467ffffffffffffffff1667ffffffffffffffff16815260200190600801906020826007010492830192600103820291508084116115575790505b505050505092508180548060200260200160405190810160405280929190818152602001828054801561162257602002820191906000526020600020906000905b82829054906101000a900467ffffffffffffffff1667ffffffffffffffff16815260200190600801906020826007010492830192600103820291508084116115dd5790505b50505050509150955095509550955095505091939590929450565b6003545b600254811161167957600081815260046020526040902060039081015460ff161015611671576003819055611679565b600101611641565b50565b3360009081526006602052604090205490565b600154604080517f21f8a7210000000000000000000000000000000000000000000000000000000081527f506c6179657200000000000000000000000000000000000000000000000000006004820152905160009283928392600160a060020a03909216916321f8a7219160248082019260209290919082900301818787803b15801561171b57600080fd5b505af115801561172f573d6000803e3d6000fd5b505050506040513d602081101561174557600080fd5b50516000858152600460208181526040808420805482517f9de2380700000000000000000000000000000000000000000000000000000000815261ffff64010000000083041663ffffffff928316029091169481018590529151939850949650939450600160a060020a03861693639de2380793602480830194928390030190829087803b1580156117d657600080fd5b505af11580156117ea573d6000803e3d6000fd5b505050506040513d602081101561180057600080fd5b50519092039392505050565b600054600160a060020a0316331461185c576040805160e560020a62461bcd02815260206004820152601160248201526000805160206124d6833981519152604482015290519081900360640190fd5b600160a060020a03811615156118bc576040805160e560020a62461bcd02815260206004820152601760248201527f6e6577206f776e6572206d7573742062652076616c6964000000000000000000604482015290519081900360640190fd5b60008054604051600160a060020a03808516939216917f8be0079c531659141344cd1fd0a4f28419497f9722a3daafe3b4186f6b6457e091a36000805473ffffffffffffffffffffffffffffffffffffffff1916600160a060020a0392909216919091179055565b60025481565b600082815260046020526040902061194183611b6b565b50805461195790839063ffffffff166000611dd9565b5060018082018054918201815560009081526020908190206004830401805467ffffffffffffffff80871660086003909616959095026101000a8581029102199091161790556040805133815291820192909252815185927fdcb8a487aa5e9590f9d0d2ad499ca491e193c04429caecbaf4b02355cb504c1a928290030190a260018101548154640100000000900461ffff161415610bb95760038101805460ff1916600217905560405183907e6e0c97de781a7389d44ba8fd35d1467cabb17ed04d038d166d34ab819213f390600090a2505050565b3360009081526006602052604081205415611a93576040805160e560020a62461bcd02815260206004820152601d60248201527f706c617965722063616e206f6e6c7920686f7374206f6e652067616d65000000604482015290519081900360640190fd5b50600081815260056020908152604080832080546001810182559084528284206008820401805460079092166004026101000a63ffffffff8181021990931642909316029190911790553383526006909152902055565b611af5600a806123a4565b600254600755565b611b0981846001611dd9565b50611b1483836123a4565b600254600090815260046020818152604083206001908101805491820181558452922090820401805460039092166008026101000a67ffffffffffffffff8181021990931693909216919091029190911790555050565b600154604080517f21f8a7210000000000000000000000000000000000000000000000000000000081527f45766572447261676f6e7300000000000000000000000000000000000000000060048201529051600092839283928392600160a060020a0316916321f8a72191602480830192602092919082900301818787803b158015611bf657600080fd5b505af1158015611c0a573d6000803e3d6000fd5b505050506040513d6020811015611c2057600080fd5b505160008681526004602052604090206001810154815492955090935064010000000090910461ffff1611611c9f576040805160e560020a62461bcd02815260206004820152601b60248201527f6d617820706c6179657220666f722067616d6520726561636865640000000000604482015290519081900360640190fd5b5060005b6001820154811015610eb15733600160a060020a031683600160a060020a0316636352211e8460010184815481101515611cd957fe5b90600052602060002090600491828204019190066008029054906101000a900467ffffffffffffffff166040518263ffffffff1660e060020a028152600401808267ffffffffffffffff168152602001915050602060405180830381600087803b158015611d4657600080fd5b505af1158015611d5a573d6000803e3d6000fd5b505050506040513d6020811015611d7057600080fd5b5051600160a060020a03161415611dd1576040805160e560020a62461bcd02815260206004820152601960248201527f706c617965722063616e206f6e6c79206a6f696e206f6e636500000000000000604482015290519081900360640190fd5b600101611ca3565b600080600080600080600160009054906101000a9004600160a060020a0316600160a060020a03166321f8a7216040518163ffffffff1660e060020a02815260040180807f45766572447261676f6e730000000000000000000000000000000000000000008152506020019050602060405180830381600087803b158015611e6057600080fd5b505af1158015611e74573d6000803e3d6000fd5b505050506040513d6020811015611e8a57600080fd5b5051600154604080517f21f8a7210000000000000000000000000000000000000000000000000000000081527f506c61796572000000000000000000000000000000000000000000000000000060048201529051929750600160a060020a03909116916321f8a721916024808201926020929091908290030181600087803b158015611f1557600080fd5b505af1158015611f29573d6000803e3d6000fd5b505050506040513d6020811015611f3f57600080fd5b5051604080517f6352211e00000000000000000000000000000000000000000000000000000000815267ffffffffffffffff8c16600482015290519195503391600160a060020a03881691636352211e9160248083019260209291908290030181600087803b158015611fb157600080fd5b505af1158015611fc5573d6000803e3d6000fd5b505050506040513d6020811015611fdb57600080fd5b5051600160a060020a03161461203b576040805160e560020a62461bcd02815260206004820152601660248201527f706c61796572206d757374206f776e20647261676f6e00000000000000000000604482015290519081900360640190fd5b604080517f1960253700000000000000000000000000000000000000000000000000000000815267ffffffffffffffff8b1660048201529051600160a060020a0387169163196025379160248083019260a09291908290030181600087803b1580156120a657600080fd5b505af11580156120ba573d6000803e3d6000fd5b505050506040513d60a08110156120d057600080fd5b50604081015160609091015190935091506120ec878985612407565b1515612142576040805160e560020a62461bcd02815260206004820152601460248201527f6e6f7420656e676f756768207072657374696765000000000000000000000000604482015290519081900360640190fd5b604080517f28f9933a0000000000000000000000000000000000000000000000000000000081523360048201527f676f6c640000000000000000000000000000000000000000000000000000000060248201529051600160a060020a038616916328f9933a9160448083019260209291908290030181600087803b1580156121c957600080fd5b505af11580156121dd573d6000803e3d6000fd5b505050506040513d60208110156121f357600080fd5b5051905063ffffffff8089169082161015612258576040805160e560020a62461bcd02815260206004820152601160248201527f6e6f7420656e676f75676820636f696e73000000000000000000000000000000604482015290519081900360640190fd5b604080517f1fad7e070000000000000000000000000000000000000000000000000000000081523360048201527f676f6c6400000000000000000000000000000000000000000000000000000000602482015260008a8103600390810b900b60448301529151600160a060020a03871692631fad7e07926064808201939182900301818387803b1580156122eb57600080fd5b505af11580156122ff573d6000803e3d6000fd5b5050600154604080517f1bf956f500000000000000000000000000000000000000000000000000000000815267ffffffffffffffff8e16600482015260a060020a90920461ffff16602483015251600160a060020a0389169350631bf956f59250604480830192600092919082900301818387803b15801561238057600080fd5b505af1158015612394573d6000803e3d6000fd5b5050505050505050509392505050565b60006123ae612458565b50506002546000908152600460205260409020805463ffffffff191663ffffffff84161765ffff00000000191664010000000061ffff8416021781556001600391909101805460ff191660ff9092169190911790555050565b600083158061245057508263ffffffff16600a1480612435575081600a0263ffffffff168363ffffffff1611155b80156124505750600a63ffffffff84160663ffffffff166000145b949350505050565b6002805460010190819055604051600091907fa0b7f6f22bb4f69adc52dd16ffe2a964ab8b577be274247fa9a1547b03ce3e55908390a25060025490565b61014060405190810160405280600a906020820280388339509192915050565b60a060405190810160405280600590602082028038833950919291505056006e6565647320746f206265206f776e6572000000000000000000000000000000a165627a7a72305820f183528d06eaff118bf494c56a8f24e1726ac74bc73467ad981b5387eca254f40029",
  "source": "pragma solidity ^0.4.0;\r\n\r\nimport \"./RaceBetting.sol\";\r\n\r\ncontract Race is RaceBetting {\r\n\r\n    constructor(address registrarAddress) public EDGBase(2001) HasRegistrar(registrarAddress) {}\r\n\r\n    function getGameId() public view returns (uint gameId) {\r\n        return playerToGameId[msg.sender];\r\n    }\r\n\r\n    function getGameForUser()\r\n    public\r\n    view\r\n    returns (uint gameId, uint32 price, uint16 maxPlayers, uint64[] dragons, uint64[] winners, uint8 status)\r\n    {\r\n        gameId = playerToGameId[msg.sender];\r\n        (price, maxPlayers, dragons, winners, status) = getGame(gameId);\r\n    }\r\n\r\n    function getVendorGame()\r\n    public\r\n    view\r\n    returns (uint gameId, uint32 price, uint16 maxPlayers, uint64[] dragons, uint64[] winners, uint8 status)\r\n    {\r\n        gameId = playerToGameId[msg.sender];\r\n        (price, maxPlayers, dragons, winners, status) = getGame(gameId);\r\n    }\r\n}\r\n",
  "sourcePath": "C:\\Projects\\everdragons\\everdragons-race\\contracts\\Race.sol",
  "compiler": {
    "name": "solc",
    "version": "0.4.25+commit.69a1e720.Emscripten.clang"
  },
  "schemaVersion": "2.0.1",
  "updatedAt": "2019-04-15T13:28:23.203Z"
}