{
  "contractName": "Registrar",
  "abi": [
    {
      "constant": false,
      "inputs": [],
      "name": "renounceOwnership",
      "outputs": [],
      "payable": false,
      "stateMutability": "nonpayable",
      "type": "function"
    },
    {
      "constant": true,
      "inputs": [],
      "name": "owner",
      "outputs": [
        {
          "name": "",
          "type": "address"
        }
      ],
      "payable": false,
      "stateMutability": "view",
      "type": "function"
    },
    {
      "constant": false,
      "inputs": [
        {
          "name": "newOwner",
          "type": "address"
        }
      ],
      "name": "transferOwnership",
      "outputs": [],
      "payable": false,
      "stateMutability": "nonpayable",
      "type": "function"
    },
    {
      "anonymous": false,
      "inputs": [
        {
          "indexed": true,
          "name": "previousOwner",
          "type": "address"
        }
      ],
      "name": "OwnershipRenounced",
      "type": "event"
    },
    {
      "anonymous": false,
      "inputs": [
        {
          "indexed": true,
          "name": "previousOwner",
          "type": "address"
        },
        {
          "indexed": true,
          "name": "newOwner",
          "type": "address"
        }
      ],
      "name": "OwnershipTransferred",
      "type": "event"
    },
    {
      "constant": false,
      "inputs": [
        {
          "name": "name",
          "type": "bytes32"
        },
        {
          "name": "_address",
          "type": "address"
        }
      ],
      "name": "registerAddress",
      "outputs": [],
      "payable": false,
      "stateMutability": "nonpayable",
      "type": "function"
    },
    {
      "constant": false,
      "inputs": [
        {
          "name": "name",
          "type": "bytes32"
        }
      ],
      "name": "removeAddress",
      "outputs": [],
      "payable": false,
      "stateMutability": "nonpayable",
      "type": "function"
    },
    {
      "constant": true,
      "inputs": [
        {
          "name": "name",
          "type": "bytes32"
        }
      ],
      "name": "getAddress",
      "outputs": [
        {
          "name": "",
          "type": "address"
        }
      ],
      "payable": false,
      "stateMutability": "view",
      "type": "function"
    },
    {
      "constant": false,
      "inputs": [
        {
          "name": "role",
          "type": "bytes32"
        },
        {
          "name": "account",
          "type": "address"
        }
      ],
      "name": "addRole",
      "outputs": [],
      "payable": false,
      "stateMutability": "nonpayable",
      "type": "function"
    },
    {
      "constant": false,
      "inputs": [
        {
          "name": "role",
          "type": "bytes32"
        },
        {
          "name": "account",
          "type": "address"
        }
      ],
      "name": "removeRole",
      "outputs": [],
      "payable": false,
      "stateMutability": "nonpayable",
      "type": "function"
    },
    {
      "constant": true,
      "inputs": [
        {
          "name": "role",
          "type": "bytes32"
        },
        {
          "name": "account",
          "type": "address"
        }
      ],
      "name": "checkRole",
      "outputs": [
        {
          "name": "",
          "type": "bool"
        }
      ],
      "payable": false,
      "stateMutability": "view",
      "type": "function"
    },
    {
      "constant": false,
      "inputs": [
        {
          "name": "index",
          "type": "uint8"
        },
        {
          "name": "generator",
          "type": "address"
        }
      ],
      "name": "setGenerator",
      "outputs": [],
      "payable": false,
      "stateMutability": "nonpayable",
      "type": "function"
    },
    {
      "constant": true,
      "inputs": [
        {
          "name": "index",
          "type": "uint8"
        }
      ],
      "name": "getGenerator",
      "outputs": [
        {
          "name": "",
          "type": "address"
        }
      ],
      "payable": false,
      "stateMutability": "view",
      "type": "function"
    }
  ],
  "bytecode": "0x608060405260008054600160a060020a031916331790556108ce806100256000396000f3006080604052600436106100ae5763ffffffff7c010000000000000000000000000000000000000000000000000000000060003504166312d9a6ad81146100b3578063144d71781461010557806321f8a72114610148578063662de37914610196578063715018a6146101d45780638da5cb5b146102035780639faf6fb614610232578063aa327f1e14610264578063e959b38a14610299578063f2fde38b146102d7578063f6ba000714610312575b600080fd5b3480156100bf57600080fd5b50d380156100cc57600080fd5b50d280156100d957600080fd5b506100f1600435600160a060020a0360243516610350565b604080519115158252519081900360200190f35b34801561011157600080fd5b50d3801561011e57600080fd5b50d2801561012b57600080fd5b5061014660ff60043516600160a060020a036024351661037b565b005b34801561015457600080fd5b50d3801561016157600080fd5b50d2801561016e57600080fd5b5061017a60043561040b565b60408051600160a060020a039092168252519081900360200190f35b3480156101a257600080fd5b50d380156101af57600080fd5b50d280156101bc57600080fd5b50610146600435600160a060020a0360243516610495565b3480156101e057600080fd5b50d380156101ed57600080fd5b50d280156101fa57600080fd5b50610146610520565b34801561020f57600080fd5b50d3801561021c57600080fd5b50d2801561022957600080fd5b5061017a6105c5565b34801561023e57600080fd5b50d3801561024b57600080fd5b50d2801561025857600080fd5b506101466004356105d4565b34801561027057600080fd5b50d3801561027d57600080fd5b50d2801561028a57600080fd5b5061017a60ff6004351661064f565b3480156102a557600080fd5b50d380156102b257600080fd5b50d280156102bf57600080fd5b50610146600435600160a060020a036024351661066d565b3480156102e357600080fd5b50d380156102f057600080fd5b50d280156102fd57600080fd5b50610146600160a060020a03600435166106ed565b34801561031e57600080fd5b50d3801561032b57600080fd5b50d2801561033857600080fd5b50610146600435600160a060020a0360243516610805565b6000918252600360209081526040808420600160a060020a0393909316845291905290205460ff1690565b600054600160a060020a031633146103cb576040805160e560020a62461bcd0281526020600482015260116024820152600080516020610883833981519152604482015290519081900360640190fd5b60ff919091166000908152600160205260409020805473ffffffffffffffffffffffffffffffffffffffff1916600160a060020a03909216919091179055565b600081815260026020526040812054600160a060020a03161515610479576040805160e560020a62461bcd02815260206004820152601160248201527f61646472657373206e6f7420666f756e64000000000000000000000000000000604482015290519081900360640190fd5b50600090815260026020526040902054600160a060020a031690565b600054600160a060020a031633146104e5576040805160e560020a62461bcd0281526020600482015260116024820152600080516020610883833981519152604482015290519081900360640190fd5b600091825260026020526040909120805473ffffffffffffffffffffffffffffffffffffffff1916600160a060020a03909216919091179055565b600054600160a060020a03163314610570576040805160e560020a62461bcd0281526020600482015260116024820152600080516020610883833981519152604482015290519081900360640190fd5b60008054604051600160a060020a03909116917ff8df31144d9c2f0f6b59d69b8b98abd5459d07f2742c4df920b25aae33c6482091a26000805473ffffffffffffffffffffffffffffffffffffffff19169055565b600054600160a060020a031681565b600054600160a060020a03163314610624576040805160e560020a62461bcd0281526020600482015260116024820152600080516020610883833981519152604482015290519081900360640190fd5b6000908152600260205260409020805473ffffffffffffffffffffffffffffffffffffffff19169055565b60ff16600090815260016020526040902054600160a060020a031690565b600054600160a060020a031633146106bd576040805160e560020a62461bcd0281526020600482015260116024820152600080516020610883833981519152604482015290519081900360640190fd5b6000918252600360209081526040808420600160a060020a0390931684529190529020805460ff19166001179055565b600054600160a060020a0316331461073d576040805160e560020a62461bcd0281526020600482015260116024820152600080516020610883833981519152604482015290519081900360640190fd5b600160a060020a038116151561079d576040805160e560020a62461bcd02815260206004820152601760248201527f6e6577206f776e6572206d7573742062652076616c6964000000000000000000604482015290519081900360640190fd5b60008054604051600160a060020a03808516939216917f8be0079c531659141344cd1fd0a4f28419497f9722a3daafe3b4186f6b6457e091a36000805473ffffffffffffffffffffffffffffffffffffffff1916600160a060020a0392909216919091179055565b600054600160a060020a03163314610855576040805160e560020a62461bcd0281526020600482015260116024820152600080516020610883833981519152604482015290519081900360640190fd5b6000918252600360209081526040808420600160a060020a0390931684529190529020805460ff1916905556006e6565647320746f206265206f776e6572000000000000000000000000000000a165627a7a72305820d4f8893a302652b6d9f1fdccfb80e2754def193d7f818908e2e7fb1953f719e00029",
  "source": "pragma solidity ^0.4.0;\r\n\r\nimport \"../../node_modules/everdragons-shared/solidity/libs/Ownable.sol\";\r\nimport \"../../node_modules/everdragons-shared/solidity/interfaces/IRegistrar.sol\";\r\n\r\ncontract Registrar is IRegistrar, Ownable {\r\n    mapping(uint8 => address) private generators;\r\n    mapping(bytes32 => address) private addresses;\r\n    mapping(bytes32 => mapping(address => bool)) private roles;\r\n\r\n    function registerAddress(bytes32 name, address _address) external onlyOwner {\r\n        addresses[name] = _address;\r\n    }\r\n\r\n    function removeAddress(bytes32 name) external onlyOwner {\r\n        addresses[name] = address(0);\r\n    }\r\n\r\n    function getAddress(bytes32 name) external view returns (address) {\r\n        require(addresses[name] != address(0), \"address not found\");\r\n        return addresses[name];\r\n    }\r\n\r\n    function addRole(bytes32 role, address account) external onlyOwner {\r\n        roles[role][account] = true;\r\n    }\r\n\r\n    function removeRole(bytes32 role, address account) external onlyOwner {\r\n        roles[role][account] = false;\r\n    }\r\n\r\n    function checkRole(bytes32 role, address account) external view returns (bool) {\r\n        return roles[role][account];\r\n    }\r\n\r\n    function setGenerator(uint8 index, address generator) external onlyOwner {\r\n        generators[index] = generator;\r\n    }\r\n\r\n    function getGenerator(uint8 index) external view returns (address) {\r\n        return generators[index];\r\n    }\r\n}\r\n",
  "sourcePath": "C:\\Projects\\everdragons\\everdragons-contract\\contracts\\registrar\\Registrar.sol",
  "compiler": {
    "name": "solc",
    "version": "0.4.25+commit.69a1e720.Emscripten.clang"
  },
  "schemaVersion": "2.0.1",
  "updatedAt": "2019-04-27T17:11:10.674Z"
}