{
  "contractName": "ReverseAuction",
  "abi": [
    {
      "constant": false,
      "inputs": [
        {
          "name": "tokenId",
          "type": "uint64"
        }
      ],
      "name": "cancelAuction",
      "outputs": [],
      "payable": false,
      "stateMutability": "nonpayable",
      "type": "function"
    },
    {
      "constant": true,
      "inputs": [
        {
          "name": "copper",
          "type": "uint256"
        },
        {
          "name": "regularPrice",
          "type": "uint256"
        }
      ],
      "name": "getCopperDiscount",
      "outputs": [
        {
          "name": "",
          "type": "uint256"
        }
      ],
      "payable": false,
      "stateMutability": "pure",
      "type": "function"
    },
    {
      "constant": false,
      "inputs": [
        {
          "name": "tokenId",
          "type": "uint64"
        },
        {
          "name": "voucherCode",
          "type": "uint256"
        },
        {
          "name": "gold",
          "type": "uint256"
        },
        {
          "name": "copper",
          "type": "uint256"
        }
      ],
      "name": "bid",
      "outputs": [],
      "payable": true,
      "stateMutability": "payable",
      "type": "function"
    },
    {
      "constant": false,
      "inputs": [
        {
          "name": "minStart",
          "type": "uint256"
        },
        {
          "name": "maxStart",
          "type": "uint256"
        },
        {
          "name": "minEnd",
          "type": "uint256"
        },
        {
          "name": "maxEnd",
          "type": "uint256"
        },
        {
          "name": "_minDuration",
          "type": "uint256"
        },
        {
          "name": "_maxDuration",
          "type": "uint256"
        }
      ],
      "name": "setMinandMaxPrice",
      "outputs": [],
      "payable": false,
      "stateMutability": "nonpayable",
      "type": "function"
    },
    {
      "constant": true,
      "inputs": [
        {
          "name": "voucherCode",
          "type": "uint256"
        },
        {
          "name": "regularPrice",
          "type": "uint256"
        }
      ],
      "name": "getVoucherDiscount",
      "outputs": [
        {
          "name": "price",
          "type": "uint256"
        }
      ],
      "payable": false,
      "stateMutability": "view",
      "type": "function"
    },
    {
      "constant": false,
      "inputs": [],
      "name": "unpause",
      "outputs": [],
      "payable": false,
      "stateMutability": "nonpayable",
      "type": "function"
    },
    {
      "constant": true,
      "inputs": [],
      "name": "paused",
      "outputs": [
        {
          "name": "",
          "type": "bool"
        }
      ],
      "payable": false,
      "stateMutability": "view",
      "type": "function"
    },
    {
      "constant": false,
      "inputs": [],
      "name": "payout",
      "outputs": [],
      "payable": false,
      "stateMutability": "nonpayable",
      "type": "function"
    },
    {
      "constant": false,
      "inputs": [],
      "name": "renounceOwnership",
      "outputs": [],
      "payable": false,
      "stateMutability": "nonpayable",
      "type": "function"
    },
    {
      "constant": false,
      "inputs": [
        {
          "name": "cut",
          "type": "uint256"
        }
      ],
      "name": "setOwnerCut",
      "outputs": [],
      "payable": false,
      "stateMutability": "nonpayable",
      "type": "function"
    },
    {
      "constant": false,
      "inputs": [],
      "name": "pause",
      "outputs": [],
      "payable": false,
      "stateMutability": "nonpayable",
      "type": "function"
    },
    {
      "constant": false,
      "inputs": [
        {
          "name": "seller",
          "type": "address"
        },
        {
          "name": "tokenId",
          "type": "uint64"
        },
        {
          "name": "startingPrice",
          "type": "uint128"
        },
        {
          "name": "endingPrice",
          "type": "uint128"
        },
        {
          "name": "duration",
          "type": "uint32"
        },
        {
          "name": "startedAt",
          "type": "uint32"
        }
      ],
      "name": "impAuction",
      "outputs": [],
      "payable": false,
      "stateMutability": "nonpayable",
      "type": "function"
    },
    {
      "constant": true,
      "inputs": [],
      "name": "owner",
      "outputs": [
        {
          "name": "",
          "type": "address"
        }
      ],
      "payable": false,
      "stateMutability": "view",
      "type": "function"
    },
    {
      "constant": true,
      "inputs": [
        {
          "name": "gold",
          "type": "uint256"
        }
      ],
      "name": "getGoldDiscount",
      "outputs": [
        {
          "name": "",
          "type": "uint256"
        }
      ],
      "payable": false,
      "stateMutability": "view",
      "type": "function"
    },
    {
      "constant": false,
      "inputs": [
        {
          "name": "enabled",
          "type": "bool"
        }
      ],
      "name": "setReveresOnly",
      "outputs": [],
      "payable": false,
      "stateMutability": "nonpayable",
      "type": "function"
    },
    {
      "constant": false,
      "inputs": [
        {
          "name": "newOwner",
          "type": "address"
        }
      ],
      "name": "transferOwnership",
      "outputs": [],
      "payable": false,
      "stateMutability": "nonpayable",
      "type": "function"
    },
    {
      "inputs": [
        {
          "name": "registrarAddress",
          "type": "address"
        }
      ],
      "payable": false,
      "stateMutability": "nonpayable",
      "type": "constructor"
    },
    {
      "payable": true,
      "stateMutability": "payable",
      "type": "fallback",
      "name": "fallback"
    },
    {
      "anonymous": false,
      "inputs": [
        {
          "indexed": false,
          "name": "tokenId",
          "type": "uint64"
        },
        {
          "indexed": false,
          "name": "startingPrice",
          "type": "uint128"
        },
        {
          "indexed": false,
          "name": "endingPrice",
          "type": "uint128"
        },
        {
          "indexed": false,
          "name": "duration",
          "type": "uint32"
        }
      ],
      "name": "AuctionCreated",
      "type": "event"
    },
    {
      "anonymous": false,
      "inputs": [
        {
          "indexed": false,
          "name": "tokenId",
          "type": "uint64"
        },
        {
          "indexed": false,
          "name": "totalPrice",
          "type": "uint128"
        },
        {
          "indexed": false,
          "name": "winner",
          "type": "address"
        },
        {
          "indexed": false,
          "name": "voucher",
          "type": "uint256"
        }
      ],
      "name": "AuctionSuccessful",
      "type": "event"
    },
    {
      "anonymous": false,
      "inputs": [
        {
          "indexed": false,
          "name": "tokenId",
          "type": "uint64"
        }
      ],
      "name": "AuctionCancelled",
      "type": "event"
    },
    {
      "anonymous": false,
      "inputs": [],
      "name": "Pause",
      "type": "event"
    },
    {
      "anonymous": false,
      "inputs": [],
      "name": "Unpause",
      "type": "event"
    },
    {
      "anonymous": false,
      "inputs": [
        {
          "indexed": true,
          "name": "previousOwner",
          "type": "address"
        }
      ],
      "name": "OwnershipRenounced",
      "type": "event"
    },
    {
      "anonymous": false,
      "inputs": [
        {
          "indexed": true,
          "name": "previousOwner",
          "type": "address"
        },
        {
          "indexed": true,
          "name": "newOwner",
          "type": "address"
        }
      ],
      "name": "OwnershipTransferred",
      "type": "event"
    },
    {
      "constant": false,
      "inputs": [
        {
          "name": "tokenId",
          "type": "uint64"
        },
        {
          "name": "startingPrice",
          "type": "uint128"
        },
        {
          "name": "endingPrice",
          "type": "uint128"
        },
        {
          "name": "duration",
          "type": "uint32"
        },
        {
          "name": "seller",
          "type": "address"
        }
      ],
      "name": "createAuction",
      "outputs": [],
      "payable": false,
      "stateMutability": "nonpayable",
      "type": "function"
    },
    {
      "constant": true,
      "inputs": [
        {
          "name": "auctionId",
          "type": "uint256"
        }
      ],
      "name": "getAuction",
      "outputs": [
        {
          "name": "seller",
          "type": "address"
        },
        {
          "name": "tokenId",
          "type": "uint64"
        },
        {
          "name": "startingPrice",
          "type": "uint128"
        },
        {
          "name": "endingPrice",
          "type": "uint128"
        },
        {
          "name": "duration",
          "type": "uint32"
        },
        {
          "name": "startedAt",
          "type": "uint32"
        }
      ],
      "payable": false,
      "stateMutability": "view",
      "type": "function"
    },
    {
      "constant": true,
      "inputs": [
        {
          "name": "auctionId",
          "type": "uint256"
        }
      ],
      "name": "isAuctionFinished",
      "outputs": [
        {
          "name": "",
          "type": "bool"
        }
      ],
      "payable": false,
      "stateMutability": "view",
      "type": "function"
    },
    {
      "constant": true,
      "inputs": [],
      "name": "getAuctionCount",
      "outputs": [
        {
          "name": "",
          "type": "uint256"
        }
      ],
      "payable": false,
      "stateMutability": "view",
      "type": "function"
    },
    {
      "constant": true,
      "inputs": [
        {
          "name": "_tokenId",
          "type": "uint64"
        }
      ],
      "name": "getAuctionByTokenId",
      "outputs": [
        {
          "name": "seller",
          "type": "address"
        },
        {
          "name": "tokenId",
          "type": "uint64"
        },
        {
          "name": "startingPrice",
          "type": "uint128"
        },
        {
          "name": "endingPrice",
          "type": "uint128"
        },
        {
          "name": "duration",
          "type": "uint32"
        },
        {
          "name": "startedAt",
          "type": "uint32"
        }
      ],
      "payable": false,
      "stateMutability": "view",
      "type": "function"
    },
    {
      "constant": true,
      "inputs": [
        {
          "name": "tokenId",
          "type": "uint64"
        }
      ],
      "name": "getAuctionIdByTokenId",
      "outputs": [
        {
          "name": "",
          "type": "uint256"
        }
      ],
      "payable": false,
      "stateMutability": "view",
      "type": "function"
    },
    {
      "constant": true,
      "inputs": [
        {
          "name": "user",
          "type": "address"
        }
      ],
      "name": "getAuctionCountForSeller",
      "outputs": [
        {
          "name": "",
          "type": "uint256"
        }
      ],
      "payable": false,
      "stateMutability": "view",
      "type": "function"
    },
    {
      "constant": true,
      "inputs": [
        {
          "name": "user",
          "type": "address"
        },
        {
          "name": "idx",
          "type": "uint256"
        }
      ],
      "name": "getAuctionIdForSeller",
      "outputs": [
        {
          "name": "",
          "type": "uint256"
        }
      ],
      "payable": false,
      "stateMutability": "view",
      "type": "function"
    },
    {
      "constant": true,
      "inputs": [
        {
          "name": "seller",
          "type": "address"
        }
      ],
      "name": "getAuctionIdsForSeller",
      "outputs": [
        {
          "name": "",
          "type": "uint256[]"
        }
      ],
      "payable": false,
      "stateMutability": "view",
      "type": "function"
    },
    {
      "constant": true,
      "inputs": [
        {
          "name": "user",
          "type": "address"
        },
        {
          "name": "idx",
          "type": "uint256"
        }
      ],
      "name": "getAuctionForSeller",
      "outputs": [
        {
          "name": "seller",
          "type": "address"
        },
        {
          "name": "tokenId",
          "type": "uint64"
        },
        {
          "name": "startingPrice",
          "type": "uint128"
        },
        {
          "name": "endingPrice",
          "type": "uint128"
        },
        {
          "name": "duration",
          "type": "uint32"
        },
        {
          "name": "startedAt",
          "type": "uint32"
        }
      ],
      "payable": false,
      "stateMutability": "view",
      "type": "function"
    },
    {
      "constant": true,
      "inputs": [
        {
          "name": "tokenId",
          "type": "uint64"
        },
        {
          "name": "voucherCode",
          "type": "uint256"
        },
        {
          "name": "gold",
          "type": "uint256"
        },
        {
          "name": "copper",
          "type": "uint256"
        }
      ],
      "name": "getCurrentPriceByTokenId",
      "outputs": [
        {
          "name": "price",
          "type": "uint256"
        },
        {
          "name": "regularPrice",
          "type": "uint256"
        },
        {
          "name": "goldDiscount",
          "type": "uint256"
        },
        {
          "name": "copperDiscount",
          "type": "uint256"
        },
        {
          "name": "voucherDiscount",
          "type": "uint256"
        },
        {
          "name": "secondsRemaining",
          "type": "uint256"
        }
      ],
      "payable": false,
      "stateMutability": "view",
      "type": "function"
    },
    {
      "constant": true,
      "inputs": [
        {
          "name": "auctionId",
          "type": "uint256"
        },
        {
          "name": "voucherCode",
          "type": "uint256"
        },
        {
          "name": "gold",
          "type": "uint256"
        },
        {
          "name": "copper",
          "type": "uint256"
        }
      ],
      "name": "getCurrentPrice",
      "outputs": [
        {
          "name": "price",
          "type": "uint256"
        },
        {
          "name": "regularPrice",
          "type": "uint256"
        },
        {
          "name": "goldDiscount",
          "type": "uint256"
        },
        {
          "name": "copperDiscount",
          "type": "uint256"
        },
        {
          "name": "voucherDiscount",
          "type": "uint256"
        },
        {
          "name": "secondsRemaining",
          "type": "uint256"
        }
      ],
      "payable": false,
      "stateMutability": "view",
      "type": "function"
    }
  ],
  "bytecode": "0x60806040526000805460a060020a60ff02191681556006819055683635c9adc5dea000006007819055600891909155600955603c600a5562093a80600b55600c805460ff191660011790553480156200005757600080fd5b50d380156200006557600080fd5b50d280156200007357600080fd5b50604051602080620041ec833981016040525160008054600160a060020a0319163317905580600160a060020a03811615156200011157604080517f08c379a000000000000000000000000000000000000000000000000000000000815260206004820152601f60248201527f7265676973747261722061646472657373206e6f7420617661696c61626c6500604482015290519081900360640190fd5b60018054600160a060020a031916600160a060020a0392909216919091179055506140aa80620001426000396000f3006080604052600436106101505763ffffffff60e060020a600035041663097b557f81146101525780630dc822861461018e5780630e0dfd9a146101d55780631c0c78bc146101f35780631e5c4d731461023157806337db8429146102725780633d9a232d146102a75780633f4ba83a1461033b5780634279604b1461036a57806350f1ba09146103a65780635c975abb1461041e57806363bd1d4a14610461578063715018a614610490578063757de573146104bf57806378bd7935146104f15780637ce98eff146105235780638456cb591461056157806387ccf960146105905780638da5cb5b146105f9578063974c28b214610644578063b5074f5814610676578063bbd23f3c14610701578063c44e664014610733578063d1b2a67c14610762578063d4176d751461079d578063e5990262146107d1578063f2fde38b14610834578063f5366a6f1461086f575b005b34801561015e57600080fd5b50d3801561016b57600080fd5b50d2801561017857600080fd5b5061015067ffffffffffffffff600435166108aa565b34801561019a57600080fd5b50d380156101a757600080fd5b50d280156101b457600080fd5b506101c3600435602435610c23565b60408051918252519081900360200190f35b61015067ffffffffffffffff60043516602435604435606435610c89565b3480156101ff57600080fd5b50d3801561020c57600080fd5b50d2801561021957600080fd5b506101c3600160a060020a0360043516602435611443565b34801561023d57600080fd5b50d3801561024a57600080fd5b50d2801561025757600080fd5b5061015060043560243560443560643560843560a43561147a565b34801561027e57600080fd5b50d3801561028b57600080fd5b50d2801561029857600080fd5b506101c360043560243561156b565b3480156102b357600080fd5b50d380156102c057600080fd5b50d280156102cd57600080fd5b506102e367ffffffffffffffff600435166116af565b60408051600160a060020a03909716875267ffffffffffffffff90951660208701526001608060020a039384168686015291909216606085015263ffffffff91821660808501521660a0830152519081900360c00190f35b34801561034757600080fd5b50d3801561035457600080fd5b50d2801561036157600080fd5b506101506116fc565b34801561037657600080fd5b50d3801561038357600080fd5b50d2801561039057600080fd5b506101c367ffffffffffffffff600435166117ab565b3480156103b257600080fd5b50d380156103bf57600080fd5b50d280156103cc57600080fd5b506103eb67ffffffffffffffff600435166024356044356064356117c7565b604080519687526020870195909552858501939093526060850191909152608084015260a0830152519081900360c00190f35b34801561042a57600080fd5b50d3801561043757600080fd5b50d2801561044457600080fd5b5061044d61185a565b604080519115158252519081900360200190f35b34801561046d57600080fd5b50d3801561047a57600080fd5b50d2801561048757600080fd5b5061015061186a565b34801561049c57600080fd5b50d380156104a957600080fd5b50d280156104b657600080fd5b50610150611a14565b3480156104cb57600080fd5b50d380156104d857600080fd5b50d280156104e557600080fd5b50610150600435611ab9565b3480156104fd57600080fd5b50d3801561050a57600080fd5b50d2801561051757600080fd5b506102e3600435611c45565b34801561052f57600080fd5b50d3801561053c57600080fd5b50d2801561054957600080fd5b506102e3600160a060020a0360043516602435611cd3565b34801561056d57600080fd5b50d3801561057a57600080fd5b50d2801561058757600080fd5b50610150611d2a565b34801561059c57600080fd5b50d380156105a957600080fd5b50d280156105b657600080fd5b50610150600160a060020a036004351667ffffffffffffffff602435166001608060020a036044358116906064351663ffffffff60843581169060a43516611dde565b34801561060557600080fd5b50d3801561061257600080fd5b50d2801561061f57600080fd5b50610628612047565b60408051600160a060020a039092168252519081900360200190f35b34801561065057600080fd5b50d3801561065d57600080fd5b50d2801561066a57600080fd5b5061044d600435612056565b34801561068257600080fd5b50d3801561068f57600080fd5b50d2801561069c57600080fd5b506106b1600160a060020a0360043516612132565b60408051602080825283518183015283519192839290830191858101910280838360005b838110156106ed5781810151838201526020016106d5565b505050509050019250505060405180910390f35b34801561070d57600080fd5b50d3801561071a57600080fd5b50d2801561072757600080fd5b506101c360043561219e565b34801561073f57600080fd5b50d3801561074c57600080fd5b50d2801561075957600080fd5b506101c36122d3565b34801561076e57600080fd5b50d3801561077b57600080fd5b50d2801561078857600080fd5b506103eb6004356024356044356064356122da565b3480156107a957600080fd5b50d380156107b657600080fd5b50d280156107c357600080fd5b50610150600435151561275c565b3480156107dd57600080fd5b50d380156107ea57600080fd5b50d280156107f757600080fd5b5061015067ffffffffffffffff600435166001608060020a036024358116906044351663ffffffff60643516600160a060020a0360843516612843565b34801561084057600080fd5b50d3801561084d57600080fd5b50d2801561085a57600080fd5b50610150600160a060020a0360043516612e54565b34801561087b57600080fd5b50d3801561088857600080fd5b50d2801561089557600080fd5b506101c3600160a060020a0360043516612f6c565b67ffffffffffffffff81166000908152600260205260408120546004805491929182918291859081106108d957fe5b60009182526020918290206003919091020180546040805160c081018252600160a060020a03831680825260a060020a90930467ffffffffffffffff169481019490945260018301546001608060020a0380821692860192909252608060020a9004166060840152600282015463ffffffff80821660808601526401000000009091041660a0840152909450925061097090612f87565b15156109c6576040805160e560020a62461bcd02815260206004820152601260248201527f6d757374206265206f6e2061756374696f6e0000000000000000000000000000604482015290519081900360640190fd5b33600160a060020a0383161480610a6657506001546040805160e060020a6312d9a6ad02815260d960020a6430b236b4b70260048201523360248201529051600160a060020a03909216916312d9a6ad916044808201926020929091908290030181600087803b158015610a3957600080fd5b505af1158015610a4d573d6000803e3d6000fd5b505050506040513d6020811015610a6357600080fd5b50515b1515610abc576040805160e560020a62461bcd02815260206004820152601560248201527f73656e646572206d7573742062652073656c6c65720000000000000000000000604482015290519081900360640190fd5b610ac584612f99565b6001546040805160e060020a6321f8a72102815260008051602061405f83398151915260048201529051600160a060020a03909216916321f8a721916024808201926020929091908290030181600087803b158015610b2357600080fd5b505af1158015610b37573d6000803e3d6000fd5b505050506040513d6020811015610b4d57600080fd5b5051604080517fa9059cbb000000000000000000000000000000000000000000000000000000008152600160a060020a03858116600483015267ffffffffffffffff8916602483015291519293509083169163a9059cbb9160448082019260009290919082900301818387803b158015610bc657600080fd5b505af1158015610bda573d6000803e3d6000fd5b50506040805167ffffffffffffffff8916815290517fb22ef3173aa03c7e38b3d30f001ce4642d15d2e499629218cfe407df7604768f9350908190036020019150a15050505050565b6000610bb8831115610c7f576040805160e560020a62461bcd02815260206004820152600f60248201527f6d6178203330303020636f707065720000000000000000000000000000000000604482015290519081900360640190fd5b5061271091020490565b600080600080600080600080600060149054906101000a900460ff16151515610cb157600080fd5b67ffffffffffffffff8c16600090815260026020526040902054600480549199509089908110610cdd57fe5b60009182526020918290206040805160c08101825260039093029091018054600160a060020a038116845267ffffffffffffffff60a060020a909104169383019390935260018301546001608060020a0380821692840192909252608060020a9004166060820152600282015463ffffffff80821660808401526401000000009091041660a0820152909750610d7290612f87565b1515610dc8576040805160e560020a62461bcd02815260206004820152601260248201527f6d757374206265206f6e2061756374696f6e0000000000000000000000000000604482015290519081900360640190fd5b6040805160c0810182528854600160a060020a038116825260a060020a900467ffffffffffffffff16602082015260018901546001608060020a0380821693830193909352608060020a90049091166060820152600288015463ffffffff80821660808401526401000000009091041660a0820152610e46906132a3565b955085945060008a11610e5a576000610e63565b610e638a61334c565b6040805160c0810182528954600160a060020a038116825260a060020a900467ffffffffffffffff16602082015260018a01546001608060020a0380821693830193909352608060020a90049091166060820152600289015463ffffffff80821660808401526401000000009091041660a0820152909450610ee4906134b2565b156110475760008b1115610eff57610efc8b87613552565b94505b6000891115610f1557610f1289876137c5565b94505b348401851115610f6f576040805160e560020a62461bcd02815260206004820152601460248201527f62697420616d6f756e7420746f6f20736d616c6c000000000000000000000000604482015290519081900360640190fd5b6001546040805160e060020a6321f8a7210281527f63757457616c6c6574000000000000000000000000000000000000000000000060048201529051600160a060020a03909216916321f8a721916024808201926020929091908290030181600087803b158015610fdf57600080fd5b505af1158015610ff3573d6000803e3d6000fd5b505050506040513d602081101561100957600080fd5b5051604051600160a060020a03909116903480156108fc02916000818181858888f19350505050158015611041573d6000803e3d6000fd5b50611224565b8815801561105357508a155b15156110a9576040805160e560020a62461bcd02815260206004820152601e60248201527f646973636f756e74206f6e6c7920706f737369626c6520666f72204e53450000604482015290519081900360640190fd5b348401851115611103576040805160e560020a62461bcd02815260206004820152601460248201527f62697420616d6f756e7420746f6f20736d616c6c000000000000000000000000604482015290519081900360640190fd5b60055461271090860288546040519290910494508487039350600160a060020a03169083156108fc029084906000818181858888f1935050505015801561114e573d6000803e3d6000fd5b506001546040805160e060020a6321f8a7210281527f63757457616c6c6574000000000000000000000000000000000000000000000060048201529051600160a060020a03909216916321f8a721916024808201926020929091908290030181600087803b1580156111bf57600080fd5b505af11580156111d3573d6000803e3d6000fd5b505050506040513d60208110156111e957600080fd5b5051604051600160a060020a039091169084156108fc029085906000818181858888f19350505050158015611222573d6000803e3d6000fd5b505b61122d88612f99565b6001546040805160e060020a6321f8a72102815260008051602061405f83398151915260048201529051600160a060020a03909216916321f8a721916024808201926020929091908290030181600087803b15801561128b57600080fd5b505af115801561129f573d6000803e3d6000fd5b505050506040513d60208110156112b557600080fd5b5051604080517fa9059cbb00000000000000000000000000000000000000000000000000000000815233600482015267ffffffffffffffff8f1660248201529051919250600160a060020a0383169163a9059cbb9160448082019260009290919082900301818387803b15801561132b57600080fd5b505af115801561133f573d6000803e3d6000fd5b5050505080600160a060020a031663d67cab5a8d60ff166040518263ffffffff1660e060020a028152600401808260ff1660ff168152602001915050600060405180830381600087803b15801561139557600080fd5b505af11580156113a9573d6000803e3d6000fd5b505050507fb85189fcc144a6bd1d2a98ec38cb0f67d44d44387e073161726650cdbf2387038c86338e604051808567ffffffffffffffff1667ffffffffffffffff1681526020018467ffffffffffffffff166001608060020a0316815260200183600160a060020a0316600160a060020a0316815260200182815260200194505050505060405180910390a1505050505050505050505050565b600160a060020a038216600090815260036020526040812080548390811061146757fe5b9060005260206000200154905092915050565b6001546040805160e060020a6312d9a6ad02815260d960020a6430b236b4b7026004820181905233602483015291519192600160a060020a0316916312d9a6ad916044808201926020929091908290030181600087803b1580156114dd57600080fd5b505af11580156114f1573d6000803e3d6000fd5b505050506040513d602081101561150757600080fd5b5051151561154d576040805160e560020a62461bcd02815260206004820152600d602482015260008051602061401f833981519152604482015290519081900360640190fd5b50600695909555600793909355600891909155600955600a55600b55565b6001546040805160e060020a6321f8a7210281527f566f75636865720000000000000000000000000000000000000000000000000060048201529051600092839283928392600160a060020a0316916321f8a72191602480830192602092919082900301818787803b1580156115e057600080fd5b505af11580156115f4573d6000803e3d6000fd5b505050506040513d602081101561160a57600080fd5b5051604080517f310be93900000000000000000000000000000000000000000000000000000000815260048101889052602481018990529051919250600160a060020a0383169163310be939916044808201926060929091908290030181600087803b15801561167957600080fd5b505af115801561168d573d6000803e3d6000fd5b505050506040513d60608110156116a357600080fd5b50519695505050505050565b6000806000806000806116e8600260008967ffffffffffffffff1667ffffffffffffffff16815260200190815260200160002054611c45565b949c939b5091995097509550909350915050565b600054600160a060020a0316331461174c576040805160e560020a62461bcd028152602060048201526011602482015260008051602061403f833981519152604482015290519081900360640190fd5b60005460a060020a900460ff16151561176457600080fd5b6000805474ff0000000000000000000000000000000000000000191681556040517f7805862f689e2f13df9f062ff482ad3ad112aca9e0847911ed832e158c525b339190a1565b67ffffffffffffffff1660009081526002602052604090205490565b60008060008060008060006117db8b6117ab565b9050801515611834576040805160e560020a62461bcd02815260206004820152600f60248201527f746f6b656e206e6f7420666f756e640000000000000000000000000000000000604482015290519081900360640190fd5b611840818b8b8b6122da565b965096509650965096509650509499939850945094509450565b60005460a060020a900460ff1681565b6001546040805160e060020a6312d9a6ad02815260d960020a6430b236b4b7026004820181905233602483015291519192600160a060020a0316916312d9a6ad916044808201926020929091908290030181600087803b1580156118cd57600080fd5b505af11580156118e1573d6000803e3d6000fd5b505050506040513d60208110156118f757600080fd5b5051151561193d576040805160e560020a62461bcd02815260206004820152600d602482015260008051602061401f833981519152604482015290519081900360640190fd5b6001546040805160e060020a6321f8a7210281527f63757457616c6c6574000000000000000000000000000000000000000000000060048201529051600160a060020a03909216916321f8a721916024808201926020929091908290030181600087803b1580156119ad57600080fd5b505af11580156119c1573d6000803e3d6000fd5b505050506040513d60208110156119d757600080fd5b5051604051600160a060020a0390911690303180156108fc02916000818181858888f19350505050158015611a10573d6000803e3d6000fd5b5050565b600054600160a060020a03163314611a64576040805160e560020a62461bcd028152602060048201526011602482015260008051602061403f833981519152604482015290519081900360640190fd5b60008054604051600160a060020a03909116917ff8df31144d9c2f0f6b59d69b8b98abd5459d07f2742c4df920b25aae33c6482091a26000805473ffffffffffffffffffffffffffffffffffffffff19169055565b6001546040805160e060020a6312d9a6ad02815260d960020a6430b236b4b7026004820181905233602483015291519192600160a060020a0316916312d9a6ad916044808201926020929091908290030181600087803b158015611b1c57600080fd5b505af1158015611b30573d6000803e3d6000fd5b505050506040513d6020811015611b4657600080fd5b50511515611b8c576040805160e560020a62461bcd02815260206004820152600d602482015260008051602061401f833981519152604482015290519081900360640190fd5b612710821115611be6576040805160e560020a62461bcd02815260206004820152600d60248201527f63757420746f6f206c6172676500000000000000000000000000000000000000604482015290519081900360640190fd5b6000821015611c3f576040805160e560020a62461bcd02815260206004820152600d60248201527f63757420746f6f20736d616c6c00000000000000000000000000000000000000604482015290519081900360640190fd5b50600555565b6000806000806000806000600488815481101515611c5f57fe5b6000918252602090912060039091020180546001820154600290920154600160a060020a0382169b60a060020a90920467ffffffffffffffff169a506001608060020a038084169a50608060020a909304909216975063ffffffff8083169750640100000000909204909116945092505050565b600160a060020a0382166000908152600360205260408120805482918291829182918291611d159189908110611d0557fe5b9060005260206000200154611c45565b949d939c50919a509850965090945092505050565b600054600160a060020a03163314611d7a576040805160e560020a62461bcd028152602060048201526011602482015260008051602061403f833981519152604482015290519081900360640190fd5b60005460a060020a900460ff1615611d9157600080fd5b6000805474ff0000000000000000000000000000000000000000191660a060020a1781556040517f6985a02210a168e66602d3235cb6db0e70f92b3ba4d376a33c0f3d9434bff6259190a1565b60008054600160a060020a03163314611e2f576040805160e560020a62461bcd028152602060048201526011602482015260008051602061403f833981519152604482015290519081900360640190fd5b600460c06040519081016040528089600160a060020a031681526020018867ffffffffffffffff168152602001876001608060020a03168152602001866001608060020a031681526020018563ffffffff1681526020018463ffffffff168152509080600181540180825580915050906001820390600052602060002090600302016000909192909190915060008201518160000160006101000a815481600160a060020a030219169083600160a060020a0316021790555060208201518160000160146101000a81548167ffffffffffffffff021916908367ffffffffffffffff16021790555060408201518160010160006101000a8154816001608060020a0302191690836001608060020a0316021790555060608201518160010160106101000a8154816001608060020a0302191690836001608060020a0316021790555060808201518160020160006101000a81548163ffffffff021916908363ffffffff16021790555060a08201518160020160046101000a81548163ffffffff021916908363ffffffff1602179055505050905080600260008867ffffffffffffffff1667ffffffffffffffff168152602001908152602001600020819055506003600088600160a060020a0316600160a060020a0316815260200190815260200160002081908060018154018082558091505090600182039060005260206000200160009091929091909150555050505050505050565b600054600160a060020a031681565b60008060048381548110151561206857fe5b6000918252602090912060039091020160020154640100000000900463ffffffff161180156120c5575060048054839081106120a057fe5b6000918252602090912060039091020160020154640100000000900463ffffffff1642115b801561212c575060048054839081106120da57fe5b60009182526020909120600260039092020101546004805463ffffffff909216918490811061210557fe5b6000918252602090912060039091020160020154640100000000900463ffffffff16420310155b92915050565b600160a060020a03811660009081526003602090815260409182902080548351818402810184019094528084526060939283018282801561219257602002820191906000526020600020905b81548152602001906001019080831161217e575b50505050509050919050565b6001546040805160e060020a6321f8a7210281527f506c617965720000000000000000000000000000000000000000000000000000600482015290516000928392600160a060020a03909116916321f8a7219160248082019260209290919082900301818787803b15801561221257600080fd5b505af1158015612226573d6000803e3d6000fd5b505050506040513d602081101561223c57600080fd5b5051604080517f445014040000000000000000000000000000000000000000000000000000000081529051919250600160a060020a038316916344501404916004808201926020929091908290030181600087803b15801561229d57600080fd5b505af11580156122b1573d6000803e3d6000fd5b505050506040513d60208110156122c757600080fd5b50518302915050919050565b6004545b90565b60008060008060008060008060048c8154811015156122f557fe5b60009182526020918290206040805160c08101825260039093029091018054600160a060020a038116845267ffffffffffffffff60a060020a909104169383019390935260018301546001608060020a0380821692840192909252608060020a9004166060820152600282015463ffffffff80821660808401526401000000009091041660a082015290925061238a90612f87565b15156123e0576040805160e560020a62461bcd02815260206004820152601260248201527f6d757374206265206f6e2061756374696f6e0000000000000000000000000000604482015290519081900360640190fd5b6040805160c0810182528354600160a060020a038116825260a060020a900467ffffffffffffffff16602082015260018401546001608060020a0380821693830193909352608060020a90049091166060820152600283015463ffffffff80821660808401526401000000009091041660a082015261245e906132a3565b6040805160c0810182528454600160a060020a038116825260a060020a900467ffffffffffffffff16602082015260018501546001608060020a0380821693830193909352608060020a90049091166060820152600284015463ffffffff80821660808401526401000000009091041660a08201529098508897506124e290613a8f565b925060008a11156124fe576124f68a61219e565b955085880397505b60008b1115612732576001546040805160e060020a6321f8a72102815260008051602061405f83398151915260048201529051600160a060020a03909216916321f8a721916024808201926020929091908290030181600087803b15801561256557600080fd5b505af1158015612579573d6000803e3d6000fd5b505050506040513d602081101561258f57600080fd5b50518254600160a060020a039081169116146125f5576040805160e560020a62461bcd02815260206004820181905260248201527f73656c6c65722068617320746f20626520647261676f6e20636f6e7472616374604482015290519081900360640190fd5b6001546040805160e060020a6321f8a7210281527f566f75636865720000000000000000000000000000000000000000000000000060048201529051600160a060020a03909216916321f8a721916024808201926020929091908290030181600087803b15801561266557600080fd5b505af1158015612679573d6000803e3d6000fd5b505050506040513d602081101561268f57600080fd5b5051604080517f310be939000000000000000000000000000000000000000000000000000000008152600481018a9052602481018e90529051919250600160a060020a0383169163310be939916044808201926060929091908290030181600087803b1580156126fe57600080fd5b505af1158015612712573d6000803e3d6000fd5b505050506040513d606081101561272857600080fd5b5051978890039793505b600089111561274d576127458988610c23565b945084880397505b50509499939850945094509450565b6001546040805160e060020a6312d9a6ad02815260d960020a6430b236b4b7026004820181905233602483015291519192600160a060020a0316916312d9a6ad916044808201926020929091908290030181600087803b1580156127bf57600080fd5b505af11580156127d3573d6000803e3d6000fd5b505050506040513d60208110156127e957600080fd5b5051151561282f576040805160e560020a62461bcd02815260206004820152600d602482015260008051602061401f833981519152604482015290519081900360640190fd5b50600c805460ff1916911515919091179055565b60008061284e613f23565b60005460a060020a900460ff161561286557600080fd5b600654876001608060020a03161015801561288b5750600754876001608060020a031611155b15156128e1576040805160e560020a62461bcd02815260206004820152601660248201527f696e76616c6964207374617274696e6720707269636500000000000000000000604482015290519081900360640190fd5b600854866001608060020a0316101580156129075750600954866001608060020a031611155b151561295d576040805160e560020a62461bcd02815260206004820152601460248201527f696e76616c696420656e64696e67207072696365000000000000000000000000604482015290519081900360640190fd5b600a548563ffffffff161015801561297d5750600b548563ffffffff1611155b15156129d3576040805160e560020a62461bcd02815260206004820152601060248201527f696e76616c6964206475726174696f6e00000000000000000000000000000000604482015290519081900360640190fd5b600c5460ff1615806129f75750856001608060020a0316876001608060020a031610155b1515612a4d576040805160e560020a62461bcd02815260206004820152601d60248201527f6f6e6c7920726576657273652061756374696f6e7320616c6c6f776564000000604482015290519081900360640190fd5b6001546040805160e060020a6321f8a72102815260008051602061405f83398151915260048201529051600160a060020a03909216916321f8a721916024808201926020929091908290030181600087803b158015612aab57600080fd5b505af1158015612abf573d6000803e3d6000fd5b505050506040513d6020811015612ad557600080fd5b5051604080517fc89999d000000000000000000000000000000000000000000000000000000000815267ffffffffffffffff8b1660048201529051919450600160a060020a0385169163c89999d0916024808201926020929091908290030181600087803b158015612b4657600080fd5b505af1158015612b5a573d6000803e3d6000fd5b505050506040513d6020811015612b7057600080fd5b50511515612bc8576040805160e560020a62461bcd02815260206004820152601960248201527f6974656d2063616e2774206265207472616e7366657272656400000000000000604482015290519081900360640190fd5b600154604080517faa327f1e00000000000000000000000000000000000000000000000000000000815260ff8b1660048201529051600160a060020a039092169163aa327f1e916024808201926020929091908290030181600087803b158015612c3157600080fd5b505af1158015612c45573d6000803e3d6000fd5b505050506040513d6020811015612c5b57600080fd5b5051604080517f3c92e32c00000000000000000000000000000000000000000000000000000000815267ffffffffffffffff8b1660048201529051919350600160a060020a03841691633c92e32c916024808201926020929091908290030181600087803b158015612ccc57600080fd5b505af1158015612ce0573d6000803e3d6000fd5b505050506040513d6020811015612cf657600080fd5b50511515612d4e576040805160e560020a62461bcd02815260206004820152601760248201527f6974656d20747970652063616e277420626520736f6c64000000000000000000604482015290519081900360640190fd5b604080517f23b872dd000000000000000000000000000000000000000000000000000000008152600160a060020a03868116600483015230602483015267ffffffffffffffff8b1660448301529151918516916323b872dd9160648082019260009290919082900301818387803b158015612dc857600080fd5b505af1158015612ddc573d6000803e3d6000fd5b5050505060c06040519081016040528085600160a060020a031681526020018967ffffffffffffffff168152602001886001608060020a03168152602001876001608060020a031681526020018663ffffffff1681526020014263ffffffff168152509050612e4a81613aea565b5050505050505050565b600054600160a060020a03163314612ea4576040805160e560020a62461bcd028152602060048201526011602482015260008051602061403f833981519152604482015290519081900360640190fd5b600160a060020a0381161515612f04576040805160e560020a62461bcd02815260206004820152601760248201527f6e6577206f776e6572206d7573742062652076616c6964000000000000000000604482015290519081900360640190fd5b60008054604051600160a060020a03808516939216917f8be0079c531659141344cd1fd0a4f28419497f9722a3daafe3b4186f6b6457e091a36000805473ffffffffffffffffffffffffffffffffffffffff1916600160a060020a0392909216919091179055565b600160a060020a031660009081526003602052604090205490565b60a00151600063ffffffff9091161190565b6000806000806000600486815481101515612fb057fe5b600091825260208083206003909202909101805467ffffffffffffffff60a060020a90910416835260029091526040822091909155805460048054929750600160a060020a03909116955087945090600019810190811061300d57fe5b6000918252602090912060039091020154600454600160a060020a0390911692506000190190508581141561309f5760048054600019810190811061304e57fe5b60009182526020822060039091020180547bffffffffffffffffffffffffffffffffffffffffffffffffffffffff191681556001810191909155600201805467ffffffffffffffff19169055613272565b6004805460001981019081106130b157fe5b90600052602060002090600302016004878154811015156130ce57fe5b600091825260209091208254600390920201805473ffffffffffffffffffffffffffffffffffffffff1916600160a060020a0390921691909117808255825467ffffffffffffffff60a060020a9182900416027fffffffff0000000000000000ffffffffffffffffffffffffffffffffffffffff9091161781556001808301805491830180546fffffffffffffffffffffffffffffffff19166001608060020a03938416178082559154608060020a90819004841602919092161790556002918201805492909101805463ffffffff191663ffffffff9384161780825591546401000000009081900490931690920267ffffffff00000000199091161790556004805460001981019081106131df57fe5b60009182526020822060039091020180547bffffffffffffffffffffffffffffffffffffffffffffffffffffffff19168155600181018290556002908101805467ffffffffffffffff1916905560048054899391908490811061323e57fe5b6000918252602080832060039092029091015467ffffffffffffffff60a060020a9091041683528201929092526040019020555b61327d828483613d4f565b6132878484613df1565b600480549061329a906000198301613f58565b50505050505050565b6000806000808460a0015163ffffffff1642116132c15760006132cf565b8460a0015163ffffffff1642035b608086015190935063ffffffff1683106132f85784606001516001608060020a03169350613344565b84604001516001608060020a031685606001516001608060020a0316039150846080015163ffffffff1683830281151561332e57fe5b0590508085604001516001608060020a03160193505b505050919050565b6001546040805160e060020a6321f8a7210281527f506c617965720000000000000000000000000000000000000000000000000000600482015290516000928392600160a060020a03909116916321f8a7219160248082019260209290919082900301818787803b1580156133c057600080fd5b505af11580156133d4573d6000803e3d6000fd5b505050506040513d60208110156133ea57600080fd5b5051604080517f941320ce00000000000000000000000000000000000000000000000000000000815263ffffffff861660048201523360248201529051919250600160a060020a0383169163941320ce9160448082019260009290919082900301818387803b15801561345c57600080fd5b505af1158015613470573d6000803e3d6000fd5b5050505080600160a060020a031663445014046040518163ffffffff1660e060020a028152600401602060405180830381600087803b15801561229d57600080fd5b6001546040805160e060020a6321f8a72102815260008051602061405f83398151915260048201529051600092600160a060020a0316916321f8a72191602480830192602092919082900301818787803b15801561350f57600080fd5b505af1158015613523573d6000803e3d6000fd5b505050506040513d602081101561353957600080fd5b50518251600160a060020a039081169116149050919050565b6001546040805160e060020a6321f8a7210281527f566f75636865720000000000000000000000000000000000000000000000000060048201529051600092839283928392600160a060020a0316916321f8a72191602480830192602092919082900301818787803b1580156135c757600080fd5b505af11580156135db573d6000803e3d6000fd5b505050506040513d60208110156135f157600080fd5b5051604080517f310be93900000000000000000000000000000000000000000000000000000000815260048101889052602481018990529051919250600160a060020a0383169163310be939916044808201926060929091908290030181600087803b15801561366057600080fd5b505af1158015613674573d6000803e3d6000fd5b505050506040513d606081101561368a57600080fd5b508051602082015160409092015190955093509150600160a060020a03831615156136ff576040805160e560020a62461bcd02815260206004820152601e60248201527f766f7563686572206f776e6572206d757374206e6f7420626520307830300000604482015290519081900360640190fd5b600160a060020a038316331415613785576040805160e560020a62461bcd028152602060048201526024808201527f766f7563686572206f776e6572206d757374206e6f74206265206d73672e736560448201527f6e64657200000000000000000000000000000000000000000000000000000000606482015290519081900360840190fd5b604051600160a060020a0384169083156108fc029084906000818181858888f193505050501580156137bb573d6000803e3d6000fd5b5050505092915050565b600080610bb8841115613822576040805160e560020a62461bcd02815260206004820152600f60248201527f6d6178203330303020636f707065720000000000000000000000000000000000604482015290519081900360640190fd5b6001546040805160e060020a6321f8a7210281527f506c61796572000000000000000000000000000000000000000000000000000060048201529051600160a060020a03909216916321f8a721916024808201926020929091908290030181600087803b15801561389257600080fd5b505af11580156138a6573d6000803e3d6000fd5b505050506040513d60208110156138bc57600080fd5b5051604080517f28f9933a0000000000000000000000000000000000000000000000000000000081523360048201527f636f707065720000000000000000000000000000000000000000000000000000602482015290519192508591600160a060020a038416916328f9933a9160448083019260209291908290030181600087803b15801561394a57600080fd5b505af115801561395e573d6000803e3d6000fd5b505050506040513d602081101561397457600080fd5b505163ffffffff1610156139d2576040805160e560020a62461bcd02815260206004820152601160248201527f6e6f7420656e6f75676820636f70706572000000000000000000000000000000604482015290519081900360640190fd5b604080517f1fad7e070000000000000000000000000000000000000000000000000000000081523360048201527f636f70706572000000000000000000000000000000000000000000000000000060248201526000868103600390810b900b60448301529151600160a060020a03841692631fad7e07926064808201939182900301818387803b158015613a6557600080fd5b505af1158015613a79573d6000803e3d6000fd5b5061271092505050838502049092039392505050565b60008060008360a0015163ffffffff164211613aac576000613aba565b8360a0015163ffffffff1642035b9150836080015163ffffffff168210613ad4576000613ae2565b81846080015163ffffffff16035b949350505050565b600060016004839080600181540180825580915050906001820390600052602060002090600302016000909192909190915060008201518160000160006101000a815481600160a060020a030219169083600160a060020a0316021790555060208201518160000160146101000a81548167ffffffffffffffff021916908367ffffffffffffffff16021790555060408201518160010160006101000a8154816001608060020a0302191690836001608060020a0316021790555060608201518160010160106101000a8154816001608060020a0302191690836001608060020a0316021790555060808201518160020160006101000a81548163ffffffff021916908363ffffffff16021790555060a08201518160020160046101000a81548163ffffffff021916908363ffffffff16021790555050500390508060026000846020015167ffffffffffffffff1667ffffffffffffffff16815260200190815260200160002081905550600360008360000151600160a060020a0316600160a060020a031681526020019081526020016000208190806001815401808255809150509060018203906000526020600020016000909192909190915055507fe1cce2d27f595ef69d584007de9f685b3bad42e02acb853109cf01e40538cc2e8260200151836040015184606001518560800151604051808567ffffffffffffffff1667ffffffffffffffff168152602001846001608060020a03166001608060020a03168152602001836001608060020a03166001608060020a031681526020018263ffffffff1663ffffffff16815260200194505050505060405180910390a15050565b600160a060020a038316600090815260036020526040812054905b81811015613dea57600160a060020a0385166000908152600360205260409020805484919083908110613d9957fe5b90600052602060002001541415613de257600160a060020a0385166000908152600360205260409020805485919083908110613dd157fe5b600091825260209091200155613dea565b600101613d6a565b5050505050565b600160a060020a038216600090815260036020526040812054905b81811015613f1d57600160a060020a0384166000908152600360205260409020805484919083908110613e3b57fe5b90600052602060002001541415613f1557600160a060020a038416600090815260036020526040902080546000198401908110613e7457fe5b6000918252602080832090910154600160a060020a038716835260039091526040909120805483908110613ea457fe5b6000918252602080832090910192909255600160a060020a038616815260039091526040902080546000198401908110613eda57fe5b60009182526020808320909101829055600160a060020a03861682526003905260409020805490613f0f906000198301613f89565b50613f1d565b600101613e0c565b50505050565b6040805160c081018252600080825260208201819052918101829052606081018290526080810182905260a081019190915290565b815481835581811115613f8457600302816003028360005260206000209182019101613f849190613fad565b505050565b815481835581811115613f8457600083815260209020613f84918101908301614004565b6122d791905b808211156140005780547bffffffffffffffffffffffffffffffffffffffffffffffffffffffff191681556000600182015560028101805467ffffffffffffffff19169055600301613fb3565b5090565b6122d791905b80821115614000576000815560010161400a56006e6f74207065726d6974746564000000000000000000000000000000000000006e6565647320746f206265206f776e657200000000000000000000000000000045766572447261676f6e73000000000000000000000000000000000000000000a165627a7a7230582038a52f3666946a546a57d9242fffa3ccf7e2a97199f74b2340149934cd6fb03e0029",
  "source": "pragma solidity ^0.4.0;\r\n\r\nimport \"./AuctionAdmin.sol\";\r\nimport \"../voucher/IVoucher.sol\";\r\nimport \"../generators/IGenerator.sol\";\r\n\r\ncontract ReverseAuction is AuctionAdmin {\r\n    constructor(address registrarAddress) public HasRegistrar(registrarAddress) {}\r\n\r\n    function createAuction(uint64 tokenId, uint128 startingPrice, uint128 endingPrice, uint32 duration, address seller)\r\n        external\r\n        whenNotPaused\r\n    {\r\n        require(startingPrice >= startPriceMin && startingPrice <= startPriceMax, \"invalid starting price\");\r\n        require(endingPrice >= endPriceMin && endingPrice <= endPriceMax, \"invalid ending price\");\r\n        require(duration >= minDuration && duration <= maxDuration, \"invalid duration\");\r\n        require(!reveresOnly || startingPrice >= endingPrice, \"only reverse auctions allowed\");\r\n\r\n        IEverDragons dragonsContract = IEverDragons(registrar.getAddress(\"EverDragons\"));\r\n        require(dragonsContract.canBeTransferred(tokenId), \"item can't be transferred\");\r\n\r\n        IGenerator generator = IGenerator(registrar.getGenerator(uint8(tokenId & 0xFF)));\r\n        require(generator.canBeSold(tokenId), \"item type can't be sold\");\r\n\r\n        dragonsContract.transferFrom(seller, this, tokenId);\r\n        Auction memory auction = Auction(seller, tokenId, startingPrice, endingPrice, duration, uint32(now));\r\n        addAuction(auction);\r\n    }\r\n\r\n    function getAuction(uint256 auctionId)\r\n        public\r\n        view\r\n        returns (\r\n        address seller,\r\n        uint64 tokenId,\r\n        uint128 startingPrice,\r\n        uint128 endingPrice,\r\n        uint32 duration,\r\n        uint32 startedAt\r\n    )\r\n    {\r\n        Auction storage auction = auctions[auctionId];\r\n        return (auction.seller, auction.tokenId, auction.startingPrice, auction.endingPrice, auction.duration, auction.startedAt);\r\n    }\r\n\r\n    function isAuctionFinished(uint256 auctionId) external view returns (bool) {\r\n        return auctions[auctionId].startedAt > 0 && now > auctions[auctionId].startedAt && now - auctions[auctionId].startedAt >= auctions[auctionId].duration;\r\n    }\r\n\r\n    function getAuctionCount() external view returns (uint256) {\r\n        return auctions.length;\r\n    }\r\n\r\n    function getAuctionByTokenId(uint64 _tokenId)\r\n        external\r\n        view\r\n        returns (\r\n        address seller,\r\n        uint64 tokenId,\r\n        uint128 startingPrice,\r\n        uint128 endingPrice,\r\n        uint32 duration,\r\n        uint32 startedAt\r\n    )\r\n    {\r\n        return getAuction(tokenIdToAuction[_tokenId]);\r\n    }\r\n\r\n    function getAuctionIdByTokenId(uint64 tokenId) public view returns (uint256) {\r\n        return tokenIdToAuction[tokenId];\r\n    }\r\n\r\n    function getAuctionCountForSeller(address user) external view returns (uint256) {\r\n        return sellerToAuctions[user].length;\r\n    }\r\n\r\n    function getAuctionIdForSeller(address user, uint256 idx) external view returns (uint256) {\r\n        return sellerToAuctions[user][idx];\r\n    }\r\n\r\n    function getAuctionIdsForSeller(address seller) external view returns (uint256[]) {\r\n        return sellerToAuctions[seller];\r\n    }\r\n\r\n    function getAuctionForSeller(address user, uint256 idx)\r\n        external\r\n        view\r\n        returns (\r\n        address seller,\r\n        uint64 tokenId,\r\n        uint128 startingPrice,\r\n        uint128 endingPrice,\r\n        uint32 duration,\r\n        uint32 startedAt\r\n    )\r\n    {\r\n        return getAuction(sellerToAuctions[user][idx]);\r\n    }\r\n\r\n    function getCurrentPriceByTokenId(uint64 tokenId, uint256 voucherCode, uint256 gold, uint256 copper)\r\n        external\r\n        view\r\n        returns (\r\n        uint256 price,\r\n        uint256 regularPrice,\r\n        uint256 goldDiscount,\r\n        uint256 copperDiscount,\r\n        uint256 voucherDiscount,\r\n        uint256 secondsRemaining\r\n    )\r\n    {\r\n        uint256 auctionId = getAuctionIdByTokenId(tokenId);\r\n        require(auctionId != 0, \"token not found\");\r\n        return getCurrentPrice(auctionId, voucherCode, gold, copper);\r\n    }\r\n\r\n    function getCurrentPrice(uint256 auctionId, uint256 voucherCode, uint256 gold, uint256 copper)\r\n        public\r\n        view\r\n        returns (\r\n        uint256 price,\r\n        uint256 regularPrice,\r\n        uint256 goldDiscount,\r\n        uint256 copperDiscount,\r\n        uint256 voucherDiscount,\r\n        uint256 secondsRemaining\r\n    )\r\n    {\r\n        Auction storage auction = auctions[auctionId];\r\n        require(isOnAuction(auction), \"must be on auction\");\r\n\r\n        regularPrice = price = calcRegularAuctionPrice(auction);\r\n        secondsRemaining = calcSecondsRemaining(auction);\r\n\r\n        if (gold > 0) {\r\n            goldDiscount = getGoldDiscount(gold);\r\n            price -= goldDiscount;\r\n        }\r\n\r\n        if (voucherCode > 0) {\r\n            require(auction.seller == registrar.getAddress(\"EverDragons\"), \"seller has to be dragon contract\");\r\n            IVoucher voucherContract = IVoucher(registrar.getAddress(\"Voucher\"));\r\n            (voucherDiscount, , ) = voucherContract.getDiscountedPrice(regularPrice, voucherCode);\r\n            price -= voucherDiscount;\r\n        }\r\n\r\n        if (copper > 0) {\r\n            copperDiscount = getCopperDiscount(copper, regularPrice);\r\n            price -= copperDiscount;\r\n        }\r\n    }\r\n}\r\n",
  "sourcePath": "C:\\Projects\\everdragons\\everdragons-contract\\contracts\\auction\\ReverseAuction.sol",
  "compiler": {
    "name": "solc",
    "version": "0.4.25+commit.69a1e720.Emscripten.clang"
  },
  "schemaVersion": "2.0.1",
  "updatedAt": "2019-04-27T17:11:12.094Z"
}