{
  "contractName": "TicTacToe",
  "abi": [
    {
      "constant": true,
      "inputs": [
        {
          "name": "",
          "type": "address"
        }
      ],
      "name": "playerToGameId",
      "outputs": [
        {
          "name": "",
          "type": "uint256"
        }
      ],
      "payable": false,
      "stateMutability": "view",
      "type": "function"
    },
    {
      "constant": false,
      "inputs": [
        {
          "name": "price",
          "type": "uint32"
        },
        {
          "name": "dragonDNA",
          "type": "uint64"
        },
        {
          "name": "opponent",
          "type": "address"
        }
      ],
      "name": "hostGame",
      "outputs": [],
      "payable": false,
      "stateMutability": "nonpayable",
      "type": "function"
    },
    {
      "constant": false,
      "inputs": [
        {
          "name": "gameId",
          "type": "uint256"
        }
      ],
      "name": "reportInactiveOpponent",
      "outputs": [],
      "payable": false,
      "stateMutability": "nonpayable",
      "type": "function"
    },
    {
      "constant": true,
      "inputs": [
        {
          "name": "gameId",
          "type": "uint256"
        }
      ],
      "name": "hasFinished",
      "outputs": [
        {
          "name": "",
          "type": "bool"
        }
      ],
      "payable": false,
      "stateMutability": "view",
      "type": "function"
    },
    {
      "constant": false,
      "inputs": [
        {
          "name": "gameId",
          "type": "uint256"
        },
        {
          "name": "dragonDNA",
          "type": "uint64"
        }
      ],
      "name": "joinGame",
      "outputs": [],
      "payable": false,
      "stateMutability": "nonpayable",
      "type": "function"
    },
    {
      "constant": true,
      "inputs": [
        {
          "name": "gameId",
          "type": "uint256"
        }
      ],
      "name": "isInProgress",
      "outputs": [
        {
          "name": "",
          "type": "bool"
        }
      ],
      "payable": false,
      "stateMutability": "view",
      "type": "function"
    },
    {
      "constant": true,
      "inputs": [],
      "name": "finishedUntil",
      "outputs": [
        {
          "name": "",
          "type": "uint256"
        }
      ],
      "payable": false,
      "stateMutability": "view",
      "type": "function"
    },
    {
      "constant": false,
      "inputs": [
        {
          "name": "gameId",
          "type": "uint256"
        }
      ],
      "name": "quit",
      "outputs": [],
      "payable": false,
      "stateMutability": "nonpayable",
      "type": "function"
    },
    {
      "constant": false,
      "inputs": [
        {
          "name": "timeInSecs",
          "type": "uint32"
        }
      ],
      "name": "setPlayerMoveTime",
      "outputs": [],
      "payable": false,
      "stateMutability": "nonpayable",
      "type": "function"
    },
    {
      "constant": false,
      "inputs": [],
      "name": "unpause",
      "outputs": [],
      "payable": false,
      "stateMutability": "nonpayable",
      "type": "function"
    },
    {
      "constant": true,
      "inputs": [
        {
          "name": "gameId",
          "type": "uint256"
        }
      ],
      "name": "getGameInfo",
      "outputs": [
        {
          "name": "playerTurn",
          "type": "uint8"
        },
        {
          "name": "lastMove",
          "type": "uint32"
        },
        {
          "name": "options",
          "type": "uint8"
        },
        {
          "name": "status",
          "type": "uint8"
        },
        {
          "name": "host",
          "type": "address"
        },
        {
          "name": "opponent",
          "type": "address"
        }
      ],
      "payable": false,
      "stateMutability": "view",
      "type": "function"
    },
    {
      "constant": true,
      "inputs": [
        {
          "name": "offset",
          "type": "uint256"
        }
      ],
      "name": "getActiveGames",
      "outputs": [
        {
          "name": "gameIds",
          "type": "uint256[10]"
        }
      ],
      "payable": false,
      "stateMutability": "view",
      "type": "function"
    },
    {
      "constant": true,
      "inputs": [
        {
          "name": "gameId",
          "type": "uint256"
        }
      ],
      "name": "hasStarted",
      "outputs": [
        {
          "name": "",
          "type": "bool"
        }
      ],
      "payable": false,
      "stateMutability": "view",
      "type": "function"
    },
    {
      "constant": true,
      "inputs": [],
      "name": "paused",
      "outputs": [
        {
          "name": "",
          "type": "bool"
        }
      ],
      "payable": false,
      "stateMutability": "view",
      "type": "function"
    },
    {
      "constant": false,
      "inputs": [
        {
          "name": "gameId",
          "type": "uint256"
        },
        {
          "name": "move1Row",
          "type": "uint8"
        },
        {
          "name": "move1Col",
          "type": "uint8"
        },
        {
          "name": "move2Row",
          "type": "uint8"
        },
        {
          "name": "move2Col",
          "type": "uint8"
        }
      ],
      "name": "makeMove",
      "outputs": [],
      "payable": false,
      "stateMutability": "nonpayable",
      "type": "function"
    },
    {
      "constant": true,
      "inputs": [
        {
          "name": "gameId",
          "type": "uint256"
        }
      ],
      "name": "getWinners",
      "outputs": [
        {
          "name": "",
          "type": "uint64[]"
        }
      ],
      "payable": false,
      "stateMutability": "view",
      "type": "function"
    },
    {
      "constant": true,
      "inputs": [
        {
          "name": "player",
          "type": "address"
        },
        {
          "name": "offset",
          "type": "uint256"
        }
      ],
      "name": "getGamesForPlayer",
      "outputs": [
        {
          "name": "gameIds",
          "type": "uint256[5]"
        }
      ],
      "payable": false,
      "stateMutability": "view",
      "type": "function"
    },
    {
      "constant": false,
      "inputs": [],
      "name": "renounceOwnership",
      "outputs": [],
      "payable": false,
      "stateMutability": "nonpayable",
      "type": "function"
    },
    {
      "constant": true,
      "inputs": [],
      "name": "gameUID",
      "outputs": [
        {
          "name": "",
          "type": "uint16"
        }
      ],
      "payable": false,
      "stateMutability": "view",
      "type": "function"
    },
    {
      "constant": false,
      "inputs": [],
      "name": "pause",
      "outputs": [],
      "payable": false,
      "stateMutability": "nonpayable",
      "type": "function"
    },
    {
      "constant": true,
      "inputs": [],
      "name": "owner",
      "outputs": [
        {
          "name": "",
          "type": "address"
        }
      ],
      "payable": false,
      "stateMutability": "view",
      "type": "function"
    },
    {
      "constant": true,
      "inputs": [
        {
          "name": "offset",
          "type": "uint256"
        }
      ],
      "name": "getOpenGames",
      "outputs": [
        {
          "name": "gameIds",
          "type": "uint256[10]"
        }
      ],
      "payable": false,
      "stateMutability": "view",
      "type": "function"
    },
    {
      "constant": true,
      "inputs": [
        {
          "name": "gameId",
          "type": "uint256"
        }
      ],
      "name": "getGame",
      "outputs": [
        {
          "name": "price",
          "type": "uint32"
        },
        {
          "name": "maxPlayers",
          "type": "uint16"
        },
        {
          "name": "dragons",
          "type": "uint64[]"
        },
        {
          "name": "winners",
          "type": "uint64[]"
        },
        {
          "name": "status",
          "type": "uint8"
        }
      ],
      "payable": false,
      "stateMutability": "view",
      "type": "function"
    },
    {
      "constant": false,
      "inputs": [],
      "name": "checkForFinishedGames",
      "outputs": [],
      "payable": false,
      "stateMutability": "nonpayable",
      "type": "function"
    },
    {
      "constant": true,
      "inputs": [
        {
          "name": "gameId",
          "type": "uint256"
        }
      ],
      "name": "getPrizePot",
      "outputs": [
        {
          "name": "prizePot",
          "type": "uint256"
        }
      ],
      "payable": false,
      "stateMutability": "view",
      "type": "function"
    },
    {
      "constant": false,
      "inputs": [
        {
          "name": "newOwner",
          "type": "address"
        }
      ],
      "name": "transferOwnership",
      "outputs": [],
      "payable": false,
      "stateMutability": "nonpayable",
      "type": "function"
    },
    {
      "constant": true,
      "inputs": [],
      "name": "gamesCount",
      "outputs": [
        {
          "name": "",
          "type": "uint256"
        }
      ],
      "payable": false,
      "stateMutability": "view",
      "type": "function"
    },
    {
      "constant": false,
      "inputs": [
        {
          "name": "gameId",
          "type": "uint256"
        }
      ],
      "name": "surrender",
      "outputs": [],
      "payable": false,
      "stateMutability": "nonpayable",
      "type": "function"
    },
    {
      "inputs": [
        {
          "name": "registrarAddress",
          "type": "address"
        }
      ],
      "payable": false,
      "stateMutability": "nonpayable",
      "type": "constructor"
    },
    {
      "anonymous": false,
      "inputs": [
        {
          "indexed": false,
          "name": "playerAddress",
          "type": "address"
        },
        {
          "indexed": false,
          "name": "gameId",
          "type": "uint256"
        }
      ],
      "name": "PlayerMadeMove",
      "type": "event"
    },
    {
      "anonymous": false,
      "inputs": [
        {
          "indexed": true,
          "name": "gameId",
          "type": "uint256"
        }
      ],
      "name": "NewGame",
      "type": "event"
    },
    {
      "anonymous": false,
      "inputs": [
        {
          "indexed": true,
          "name": "gameId",
          "type": "uint256"
        },
        {
          "indexed": false,
          "name": "player",
          "type": "address"
        },
        {
          "indexed": false,
          "name": "dna",
          "type": "uint64"
        }
      ],
      "name": "Joined",
      "type": "event"
    },
    {
      "anonymous": false,
      "inputs": [
        {
          "indexed": true,
          "name": "gameId",
          "type": "uint256"
        }
      ],
      "name": "Started",
      "type": "event"
    },
    {
      "anonymous": false,
      "inputs": [
        {
          "indexed": true,
          "name": "gameId",
          "type": "uint256"
        },
        {
          "indexed": false,
          "name": "winners",
          "type": "uint64[]"
        }
      ],
      "name": "Finished",
      "type": "event"
    },
    {
      "anonymous": false,
      "inputs": [],
      "name": "Pause",
      "type": "event"
    },
    {
      "anonymous": false,
      "inputs": [],
      "name": "Unpause",
      "type": "event"
    },
    {
      "anonymous": false,
      "inputs": [
        {
          "indexed": true,
          "name": "previousOwner",
          "type": "address"
        }
      ],
      "name": "OwnershipRenounced",
      "type": "event"
    },
    {
      "anonymous": false,
      "inputs": [
        {
          "indexed": true,
          "name": "previousOwner",
          "type": "address"
        },
        {
          "indexed": true,
          "name": "newOwner",
          "type": "address"
        }
      ],
      "name": "OwnershipTransferred",
      "type": "event"
    },
    {
      "constant": true,
      "inputs": [],
      "name": "getGameId",
      "outputs": [
        {
          "name": "gameId",
          "type": "uint256"
        }
      ],
      "payable": false,
      "stateMutability": "view",
      "type": "function"
    },
    {
      "constant": true,
      "inputs": [],
      "name": "getGameForUser",
      "outputs": [
        {
          "name": "gameId",
          "type": "uint256"
        },
        {
          "name": "price",
          "type": "uint32"
        },
        {
          "name": "maxPlayers",
          "type": "uint16"
        },
        {
          "name": "dragons",
          "type": "uint64[]"
        },
        {
          "name": "winners",
          "type": "uint64[]"
        },
        {
          "name": "status",
          "type": "uint8"
        }
      ],
      "payable": false,
      "stateMutability": "view",
      "type": "function"
    },
    {
      "constant": true,
      "inputs": [
        {
          "name": "_gameId",
          "type": "uint256"
        },
        {
          "name": "row",
          "type": "uint8"
        },
        {
          "name": "col",
          "type": "uint8"
        }
      ],
      "name": "getCellValue",
      "outputs": [
        {
          "name": "",
          "type": "uint8"
        }
      ],
      "payable": false,
      "stateMutability": "view",
      "type": "function"
    },
    {
      "constant": true,
      "inputs": [
        {
          "name": "_gameId",
          "type": "uint256"
        }
      ],
      "name": "getPlayingField",
      "outputs": [
        {
          "name": "",
          "type": "uint8[6][6]"
        }
      ],
      "payable": false,
      "stateMutability": "view",
      "type": "function"
    }
  ],
  "bytecode": "0x60806040526000805460a060020a60ff021916815560025560016003556005805463ffffffff191660b41790553480156200003957600080fd5b50d380156200004757600080fd5b50d280156200005557600080fd5b5060405160208062005063833981016040525160008054600160a060020a031916331790556103e981600160a060020a0381161515620000f657604080517f08c379a000000000000000000000000000000000000000000000000000000000815260206004820152601f60248201527f7265676973747261722061646472657373206e6f7420617661696c61626c6500604482015290519081900360640190fd5b60018054600160a060020a031916600160a060020a0392909216919091179055600061ffff8216116200018a57604080517f08c379a000000000000000000000000000000000000000000000000000000000815260206004820152601360248201527f67616d6555494420697320726571756972656400000000000000000000000000604482015290519081900360640190fd5b6001805461ffff909216740100000000000000000000000000000000000000000260a060020a61ffff021990921691909117905550614e9480620001cf6000396000f30060806040526004361061017c5763ffffffff60e060020a600035041663038c202681146101815780630813be38146101ce5780630de2f28514610221578063126f648c146102535780631469bf7d146102995780631728fad1146102d85780632fe76c9c1461030a57806330047a3a14610408578063344cbc681461043757806339880dca146104695780633f4ba83a146104a157806347e1d550146104d05780634fd0fb9e1461058457806351f41c09146105ef5780635c975abb14610621578063601d4129146106505780636b1426a41461069a5780636f67f88e1461071c578063715018a61461076f5780638375f2e71461079e5780638456cb59146107e45780638da5cb5b146108135780639d4c94da1461085e578063a2f77bcc14610890578063bbe51d811461098a578063bf9d24ee146109de578063c0bd835114610a0d578063c75dce6214610a3c578063f2fde38b14610a6e578063f8ec2d2d14610aa9578063fb632b7c14610b35578063fd61d10b14610b64575b600080fd5b34801561018d57600080fd5b50d3801561019a57600080fd5b50d280156101a757600080fd5b506101bc600160a060020a0360043516610b96565b60408051918252519081900360200190f35b3480156101da57600080fd5b50d380156101e757600080fd5b50d280156101f457600080fd5b5061021f63ffffffff6004351667ffffffffffffffff60243516600160a060020a0360443516610ba8565b005b34801561022d57600080fd5b50d3801561023a57600080fd5b50d2801561024757600080fd5b5061021f600435610ca6565b34801561025f57600080fd5b50d3801561026c57600080fd5b50d2801561027957600080fd5b50610285600435610fba565b604080519115158252519081900360200190f35b3480156102a557600080fd5b50d380156102b257600080fd5b50d280156102bf57600080fd5b5061021f60043567ffffffffffffffff60243516610fe1565b3480156102e457600080fd5b50d380156102f157600080fd5b50d280156102fe57600080fd5b50610285600435611446565b34801561031657600080fd5b50d3801561032357600080fd5b50d2801561033057600080fd5b50610339611462565b604051808781526020018663ffffffff1663ffffffff1681526020018561ffff1661ffff16815260200180602001806020018460ff1660ff168152602001838103835286818151815260200191508051906020019060200280838360005b838110156103af578181015183820152602001610397565b50505050905001838103825285818151815260200191508051906020019060200280838360005b838110156103ee5781810151838201526020016103d6565b505050509050019850505050505050505060405180910390f35b34801561041457600080fd5b50d3801561042157600080fd5b50d2801561042e57600080fd5b506101bc611493565b34801561044357600080fd5b50d3801561045057600080fd5b50d2801561045d57600080fd5b5061021f600435611499565b34801561047557600080fd5b50d3801561048257600080fd5b50d2801561048f57600080fd5b5061021f63ffffffff60043516611584565b3480156104ad57600080fd5b50d380156104ba57600080fd5b50d280156104c757600080fd5b5061021f6116b1565b3480156104dc57600080fd5b50d380156104e957600080fd5b50d280156104f657600080fd5b50610502600435611760565b6040805160ff8816815263ffffffff8716602082015290810185600681111561052757fe5b60ff16815260200184600781111561053b57fe5b60ff16815260200183600160a060020a0316600160a060020a0316815260200182600160a060020a0316600160a060020a03168152602001965050505050505060405180910390f35b34801561059057600080fd5b50d3801561059d57600080fd5b50d280156105aa57600080fd5b506105b6600435611b7b565b604051808261014080838360005b838110156105dc5781810151838201526020016105c4565b5050505090500191505060405180910390f35b3480156105fb57600080fd5b50d3801561060857600080fd5b50d2801561061557600080fd5b50610285600435611bf1565b34801561062d57600080fd5b50d3801561063a57600080fd5b50d2801561064757600080fd5b50610285611c06565b34801561065c57600080fd5b50d3801561066957600080fd5b50d2801561067657600080fd5b5061021f60043560ff60243581169060443581169060643581169060843516611c16565b3480156106a657600080fd5b50d380156106b357600080fd5b50d280156106c057600080fd5b506106cc6004356124e5565b60408051602080825283518183015283519192839290830191858101910280838360005b838110156107085781810151838201526020016106f0565b505050509050019250505060405180910390f35b34801561072857600080fd5b50d3801561073557600080fd5b50d2801561074257600080fd5b5061075a600160a060020a03600435166024356125e9565b60405181518152808260a080838360206105c4565b34801561077b57600080fd5b50d3801561078857600080fd5b50d2801561079557600080fd5b5061021f6127de565b3480156107aa57600080fd5b50d380156107b757600080fd5b50d280156107c457600080fd5b506107cd612883565b6040805161ffff9092168252519081900360200190f35b3480156107f057600080fd5b50d380156107fd57600080fd5b50d2801561080a57600080fd5b5061021f612894565b34801561081f57600080fd5b50d3801561082c57600080fd5b50d2801561083957600080fd5b50610842612948565b60408051600160a060020a039092168252519081900360200190f35b34801561086a57600080fd5b50d3801561087757600080fd5b50d2801561088457600080fd5b506105b6600435612957565b34801561089c57600080fd5b50d380156108a957600080fd5b50d280156108b657600080fd5b506108c26004356129c5565b604051808663ffffffff1663ffffffff1681526020018561ffff1661ffff16815260200180602001806020018460ff1660ff168152602001838103835286818151815260200191508051906020019060200280838360005b8381101561093257818101518382015260200161091a565b50505050905001838103825285818151815260200191508051906020019060200280838360005b83811015610971578181015183820152602001610959565b5050505090500197505050505050505060405180910390f35b34801561099657600080fd5b50d380156109a357600080fd5b50d280156109b057600080fd5b506109c860043560ff60243581169060443516612b24565b6040805160ff9092168252519081900360200190f35b3480156109ea57600080fd5b50d380156109f757600080fd5b50d28015610a0457600080fd5b5061021f612b70565b348015610a1957600080fd5b50d38015610a2657600080fd5b50d28015610a3357600080fd5b506101bc612bb2565b348015610a4857600080fd5b50d38015610a5557600080fd5b50d28015610a6257600080fd5b506101bc600435612bc5565b348015610a7a57600080fd5b50d38015610a8757600080fd5b50d28015610a9457600080fd5b5061021f600160a060020a0360043516612d1a565b348015610ab557600080fd5b50d38015610ac257600080fd5b50d28015610acf57600080fd5b50610adb600435612e32565b6040516000826006835b81841015610b25576020840283015160c080838360005b83811015610b14578181015183820152602001610afc565b505050509050019260010192610ae5565b9250505091505060405180910390f35b348015610b4157600080fd5b50d38015610b4e57600080fd5b50d28015610b5b57600080fd5b506101bc612ec9565b348015610b7057600080fd5b50d38015610b7d57600080fd5b50d28015610b8a57600080fd5b5061021f600435612ecf565b60076020526000908152604090205481565b3360009081526007602052604081205415610c0d576040805160e560020a62461bcd02815260206004820152601d60248201527f706c617965722063616e206f6e6c7920686f7374206f6e652067616d65000000604482015290519081900360640190fd5b610c19846002856130ea565b506002805460009081526006602081815260408084206007808201805473ffffffffffffffffffffffffffffffffffffffff1916600160a060020a039990991698909817909755909201805479ffffffffffffffffffffffffffffffffffffffff000000000000191633660100000000000081029190911790915593549383529390935291909120555050565b6000806000610cb484611446565b1515610d30576040805160e560020a62461bcd02815260206004820152602c60248201527f47616d65207761736e2774207374617274656420796574206f722066696e697360448201527f68656420616c72656164792e0000000000000000000000000000000000000000606482015290519081900360840190fd5b610d3984611760565b5050506000878152600460209081526040808320600692839052922090810154929750909550935066010000000000009004600160a060020a03163314159150610e5c9050576002836006811115610d8d57fe5b14610de2576040805160e560020a62461bcd02815260206004820152600c60248201527f43616e2774207265706f72740000000000000000000000000000000000000000604482015290519081900360640190fd5b81600301826002016000815481101515610df857fe5b6000918252602080832060048084049091015485546001810187559585529190932092840490920180546003948516600890810261010090810a67ffffffffffffffff9790951691909102900a909304841682029190930219909116179055610f60565b6007810154600160a060020a0316331415610eea576002836006811115610e7f57fe5b14610ed4576040805160e560020a62461bcd02815260206004820152600c60248201527f43616e2774207265706f72740000000000000000000000000000000000000000604482015290519081900360640190fd5b81600301826002016001815481101515610df857fe5b6040805160e560020a62461bcd02815260206004820152602260248201527f596f7520617265206e6f74206120706c6179657220696e20746869732067616d60448201527f652e000000000000000000000000000000000000000000000000000000000000606482015290519081900360840190fd5b60048201805460ff19166005179055610f7a84600061319d565b600781810154600160a060020a03908116600090815260209290925260408083208390556006909301546601000000000000900416815290812055505050565b600081815260046020526040812060035b600482015460ff91821691161015915050919050565b336000908152600760205260408120548190819081901561104c576040805160e560020a62461bcd02815260206004820152601e60248201527f706c617965722063616e206f6e6c7920626520696e206f6e652067616d650000604482015290519081900360640190fd5b6110568686613940565b60008681526006602052604090206007810154909450600160a060020a031615611121576007840154600160a060020a031615806110a057506007840154600160a060020a031633145b151561111c576040805160e560020a62461bcd02815260206004820152602660248201527f6f6e6c79206368616c6c656e67656420706c6179657220616c6c6f776564207460448201527f6f206a6f696e0000000000000000000000000000000000000000000000000000606482015290519081900360840190fd5b611143565b60078401805473ffffffffffffffffffffffffffffffffffffffff1916331790555b6001546040805160e060020a6321f8a721028152600080516020614e2983398151915260048201529051600160a060020a03909216916321f8a721916024808201926020929091908290030181600087803b1580156111a157600080fd5b505af11580156111b5573d6000803e3d6000fd5b505050506040513d60208110156111cb57600080fd5b5051604080517f1960253700000000000000000000000000000000000000000000000000000000815267ffffffffffffffff881660048201529051919450600160a060020a0385169163196025379160248082019260a0929091908290030181600087803b15801561123c57600080fd5b505af1158015611250573d6000803e3d6000fd5b505050506040513d60a081101561126657600080fd5b505160008781526004602052604081206002018054929450600160a060020a0386169263196025379290811061129857fe5b90600052602060002090600491828204019190066008029054906101000a900467ffffffffffffffff166040518263ffffffff1660e060020a028152600401808267ffffffffffffffff1667ffffffffffffffff16815260200191505060a060405180830381600087803b15801561130f57600080fd5b505af1158015611323573d6000803e3d6000fd5b505050506040513d60a081101561133957600080fd5b5051905061080062ffffff8381168290046003908116918416929092049190911614156113d6576040805160e560020a62461bcd02815260206004820152602560248201527f647261676f6e732068617320746f206861766520646966666572656e7420646f60448201527f6d61696e73000000000000000000000000000000000000000000000000000000606482015290519081900360840190fd5b6113e06003613a46565b15156114025760068401805464ff00000000191664020000000017905561141a565b60068401805464ff0000000019166401000000001790555b505050600601805463ffffffff19164263ffffffff161790555033600090815260076020526040902055565b6000908152600460208190526040909120015460ff1660021490565b33600090815260076020526040812054908060608082611481866129c5565b999a9399929850909650945092509050565b60035481565b60008181526006602090815260408083206004909252822090916114bc84611760565b50919450600193506114cd92505050565b8160068111156114d957fe5b1461152e576040805160e560020a62461bcd02815260206004820152601260248201527f63616e2774207175697420616e796d6f72650000000000000000000000000000604482015290519081900360640190fd5b61153784613add565b50600401805460ff19166003179055600781810154600160a060020a0390811660009081526020929092526040808320839055600690930154660100000000000090041681529081205550565b600154604080517f12d9a6ad0000000000000000000000000000000000000000000000000000000081527f61646d696e0000000000000000000000000000000000000000000000000000006004820181905233602483015291519192600160a060020a0316916312d9a6ad916044808201926020929091908290030181600087803b15801561161257600080fd5b505af1158015611626573d6000803e3d6000fd5b505050506040513d602081101561163c57600080fd5b50511515611694576040805160e560020a62461bcd02815260206004820152600d60248201527f6e6f74207065726d697474656400000000000000000000000000000000000000604482015290519081900360640190fd5b506005805463ffffffff191663ffffffff92909216919091179055565b600054600160a060020a03163314611701576040805160e560020a62461bcd0281526020600482015260116024820152600080516020614e09833981519152604482015290519081900360640190fd5b60005460a060020a900460ff16151561171957600080fd5b6000805474ff0000000000000000000000000000000000000000191681556040517f7805862f689e2f13df9f062ff482ad3ad112aca9e0847911ed832e158c525b339190a1565b60008181526004602081815260408084206006909252832091810154839283928392839283929183908190819060ff16600781111561179b57fe5b6006850154600786015460ff6401000000008304169d5063ffffffff82169c50919950600160a060020a0366010000000000009091048116985016955060008a116117e75760006117f5565b600684015463ffffffff1642035b600685015490935066010000000000009004600160a060020a03163314801561182d57506006840154640100000000900460ff166001145b8061185e57506007840154600160a060020a03163314801561185e57506006840154640100000000900460ff166002145b600685015490925066010000000000009004600160a060020a03163314905080158161189757506007840154600160a060020a03163314155b156118a55760069850611b6d565b60038860078111156118b357fe5b14156118c25760049850611b6d565b60068860078111156118d057fe5b14806118e7575060048860078111156118e557fe5b145b806118fd575060058860078111156118fb57fe5b145b15611ad05780801561198b5750600285018054600090811061191b57fe5b90600052602060002090600491828204019190066008029054906101000a900467ffffffffffffffff1667ffffffffffffffff1685600301600081548110151561196157fe5b6000918252602090912060048204015460039091166008026101000a900467ffffffffffffffff16145b156119995760049850611acb565b80158015611ab8575060028501805460019081106119b357fe5b90600052602060002090600491828204019190066008029054906101000a900467ffffffffffffffff1667ffffffffffffffff168560030160008154811015156119f957fe5b6000918252602090912060048204015460039091166008026101000a900467ffffffffffffffff161480611ab8575060038501546002148015611ab857506002850180546001908110611a4857fe5b90600052602060002090600491828204019190066008029054906101000a900467ffffffffffffffff1667ffffffffffffffff16856003016001815481101515611a8e57fe5b6000918252602090912060048204015460039091166008026101000a900467ffffffffffffffff16145b15611ac65760049850611acb565b600098505b611b6d565b600684015466010000000000009004600160a060020a031633148015611b0157506001886007811115611aff57fe5b145b80611b335750600684015460026501000000000090910460ff16108015611b3357506002886007811115611b3157fe5b145b15611b415760019850611b6d565b81158015611b5a575060055463ffffffff908116908416115b15611b685760029850611b6d565b600398505b505050505091939550919395565b611b83614d7b565b6003546000908301815b6002548211158015611b9f5750600a83105b15611be9575060008181526004602081905260409091209081015460ff1660021415611bde57600183019282908590600a8110611bd857fe5b60200201525b600190910190611b8d565b505050919050565b60008181526004602052604081206002610fcb565b60005460a060020a900460ff1681565b60008060008060008860ff1610158015611c345750600560ff891611155b8015611c44575060008760ff1610155b8015611c545750600560ff881611155b1515611cd0576040805160e560020a62461bcd02815260206004820152602160248201527f436f6f7264696e6174657320666f72206d6f76652031206172652077726f6e6760448201527f2e00000000000000000000000000000000000000000000000000000000000000606482015290519081900360840190fd5b60008660ff1610158015611ce85750600560ff871611155b8015611cf8575060008560ff1610155b8015611d085750600560ff861611155b1515611d84576040805160e560020a62461bcd02815260206004820152602160248201527f436f6f7264696e6174657320666f72206d6f76652032206172652077726f6e6760448201527f2e00000000000000000000000000000000000000000000000000000000000000606482015290519081900360840190fd5b8760ff168660ff16141580611d9f57508660ff168560ff1614155b1515611e1b576040805160e560020a62461bcd02815260206004820152602960248201527f43616e2774206d616b652032206d6f76657320776974682073616d6520736f6f60448201527f7264696e617465732e0000000000000000000000000000000000000000000000606482015290519081900360840190fd5b600089815260066020908152604080832060049092529091209094509250611e4289611446565b1515611e98576040805160e560020a62461bcd02815260206004820152601560248201527f47616d65206e6f7420696e2070726f67726573732e0000000000000000000000604482015290519081900360640190fd5b8360ff881660068110611ea757fe5b0160ff891660068110611eb657fe5b602081049091015460ff601f9092166101000a90041615611f47576040805160e560020a62461bcd02815260206004820152603060248201527f4d6f76652031206973206e6f7420706f737369626c65202d2063656c6c20697360448201527f2066696c6c656420616c72656164792e00000000000000000000000000000000606482015290519081900360840190fd5b8360ff861660068110611f5657fe5b0160ff871660068110611f6557fe5b602081049091015460ff601f9092166101000a90041615611ff6576040805160e560020a62461bcd02815260206004820152603060248201527f4d6f76652032206973206e6f7420706f737369626c65202d2063656c6c20697360448201527f2066696c6c656420616c72656164792e00000000000000000000000000000000606482015290519081900360840190fd5b600684015466010000000000009004600160a060020a0316331415612085576006840154640100000000900460ff1660011461207c576040805160e560020a62461bcd02815260206004820152601960248201527f5761697420666f7220706c617965722032277320737465702e00000000000000604482015290519081900360640190fd5b60019150612106565b6007840154600160a060020a0316331415610eea576006840154640100000000900460ff16600214612101576040805160e560020a62461bcd02815260206004820152601960248201527f5761697420666f7220706c617965722031277320737465702e00000000000000604482015290519081900360640190fd5b600291505b6006848101805463ffffffff19164263ffffffff161790558290859060ff8a1690811061212f57fe5b0160ff8a166006811061213e57fe5b602091828204019190066101000a81548160ff021916908360ff16021790555081846000018660ff1660068110151561217357fe5b0160ff88166006811061218257fe5b60208104909101805460ff938416601f9093166101000a928302928402191691909117905560068501805465010000000000808204841660020184160265ff0000000000199091161790819055640100000000900416600114156121fc5760068401805464ff000000001916640200000000179055612214565b60068401805464ff0000000019166401000000001790555b600684015465010000000000900460ff166024141561249e576040805160c081019091526122af908560066000835b828210156122a6576040805160c08101918290529085840190600690826000855b825461010083900a900460ff16815260206001928301818104948501949093039092029101808411612264579050505050505081526020019060010190612243565b50505050613efd565b90508060ff166001141561233757826003018360020160008154811015156122d357fe5b6000918252602080832060048084049091015485546001810187559585529190932092840490920180546003948516600890810261010090810a67ffffffffffffffff9790951691909102900a909304841682029190930219909116179055612443565b8060ff166002141561235957826003018360020160018154811015156122d357fe5b8260030183600201600081548110151561236f57fe5b60009182526020808320600480840490910154855460018181018855968652929094209082040180546003928316600890810261010090810a67ffffffffffffffff96861692909202900a90950484168502949093021990921692909217905560028501805491860192909181106123e357fe5b6000918252602080832060048084049091015485546001810187559585529190932092840490920180546003948516600890810261010090810a67ffffffffffffffff9790951691909102900a9093048416820291909302199091161790555b60048301805460ff19166006908117909155600785810154600160a060020a039081166000908152602092909252604080832083905592870154660100000000000090041681529081205561249989600161319d565b6124da565b60408051338152602081018b905281517fe066d72546d2fb75850c2a623de25c39ce74b4b6e8b23dd1deb015415da5517b929181900390910190a15b505050505050505050565b60008181526004602052604090206060906003600482015460ff9182169116101561255a576040805160e560020a62461bcd02815260206004820152601760248201527f67616d652068617320746f2062652066696e6973686564000000000000000000604482015290519081900360640190fd5b806003018054806020026020016040519081016040528092919081815260200182805480156125dc57602002820191906000526020600020906000905b82829054906101000a900467ffffffffffffffff1667ffffffffffffffff16815260200190600801906020826007010492830192600103820291508084116125975790505b5050505050915050919050565b6125f1614d9b565b6000806000806000600160009054906101000a9004600160a060020a0316600160a060020a03166321f8a7216040518163ffffffff1660e060020a0281526004018080600080516020614e298339815191528152506020019050602060405180830381600087803b15801561266557600080fd5b505af1158015612679573d6000803e3d6000fd5b505050506040513d602081101561268f57600080fd5b50516002549095506000945087900392505b6000831180156126b15750600584105b156127d35750506000818152600460205260408120905b60028201548110156127c75787600160a060020a031685600160a060020a0316636352211e84600201848154811015156126fe57fe5b90600052602060002090600491828204019190066008029054906101000a900467ffffffffffffffff166040518263ffffffff1660e060020a028152600401808267ffffffffffffffff168152602001915050602060405180830381600087803b15801561276b57600080fd5b505af115801561277f573d6000803e3d6000fd5b505050506040513d602081101561279557600080fd5b5051600160a060020a031614156127bf57600184019383908790600581106127b957fe5b60200201525b6001016126c8565b600019909201916126a1565b505050505092915050565b600054600160a060020a0316331461282e576040805160e560020a62461bcd0281526020600482015260116024820152600080516020614e09833981519152604482015290519081900360640190fd5b60008054604051600160a060020a03909116917ff8df31144d9c2f0f6b59d69b8b98abd5459d07f2742c4df920b25aae33c6482091a26000805473ffffffffffffffffffffffffffffffffffffffff19169055565b60015460a060020a900461ffff1681565b600054600160a060020a031633146128e4576040805160e560020a62461bcd0281526020600482015260116024820152600080516020614e09833981519152604482015290519081900360640190fd5b60005460a060020a900460ff16156128fb57600080fd5b6000805474ff0000000000000000000000000000000000000000191660a060020a1781556040517f6985a02210a168e66602d3235cb6db0e70f92b3ba4d376a33c0f3d9434bff6259190a1565b600054600160a060020a031681565b61295f614d7b565b6003546000908301815b600254821115801561297b5750600a83105b15611be9575060008181526004602081905260409091209081015460ff16600114156129ba57600183019282908590600a81106129b457fe5b60200201525b600190910190612969565b60008181526004602081815260408084208054938101546002820180548451818702810187019095528085528796606096879689969563ffffffff84169564010000000090940461ffff1694600388019360ff9092169291859190830182828015612a8357602002820191906000526020600020906000905b82829054906101000a900467ffffffffffffffff1667ffffffffffffffff1681526020019060080190602082600701049283019260010382029150808411612a3e5790505b5050505050925081805480602002602001604051908101604052809291908181526020018280548015612b0957602002820191906000526020600020906000905b82829054906101000a900467ffffffffffffffff1667ffffffffffffffff1681526020019060080190602082600701049283019260010382029150808411612ac45790505b50505050509150955095509550955095505091939590929450565b600083815260066020819052604082209060ff8416908110612b4257fe5b0160ff841660068110612b5157fe5b602081049091015460ff601f9092166101000a90041690509392505050565b6003545b6002548111612baf5760008181526004602081905260409091200154600360ff9091161015612ba7576003819055612baf565b600101612b74565b50565b3360009081526007602052604090205490565b6001546040805160e060020a6321f8a721028152600080516020614e498339815191526004820152905160009283928392600160a060020a03909216916321f8a7219160248082019260209290919082900301818787803b158015612c2957600080fd5b505af1158015612c3d573d6000803e3d6000fd5b505050506040513d6020811015612c5357600080fd5b50516000858152600460208181526040808420805482517f9de2380700000000000000000000000000000000000000000000000000000000815261ffff64010000000083041663ffffffff928316029091169481018590529151939850949650939450600160a060020a03861693639de2380793602480830194928390030190829087803b158015612ce457600080fd5b505af1158015612cf8573d6000803e3d6000fd5b505050506040513d6020811015612d0e57600080fd5b50519092039392505050565b600054600160a060020a03163314612d6a576040805160e560020a62461bcd0281526020600482015260116024820152600080516020614e09833981519152604482015290519081900360640190fd5b600160a060020a0381161515612dca576040805160e560020a62461bcd02815260206004820152601760248201527f6e6577206f776e6572206d7573742062652076616c6964000000000000000000604482015290519081900360640190fd5b60008054604051600160a060020a03808516939216917f8be0079c531659141344cd1fd0a4f28419497f9722a3daafe3b4186f6b6457e091a36000805473ffffffffffffffffffffffffffffffffffffffff1916600160a060020a0392909216919091179055565b612e3a614dba565b6000828152600660208190526040808320815160c081019092529092909190835b82821015612ebe576040805160c08101918290529085840190600690826000855b825461010083900a900460ff16815260206001928301818104948501949093039092029101808411612e7c579050505050505081526020019060010190612e5b565b505050509050919050565b60025481565b6000806000612edd84611446565b1515612f33576040805160e560020a62461bcd02815260206004820152601560248201527f47616d65206e6f7420696e2070726f67726573732e0000000000000000000000604482015290519081900360640190fd5b612f3c84611760565b5091965060039350612f4d92505050565b836006811115612f5957fe5b14612fae576040805160e560020a62461bcd02815260206004820152600f60248201527f63616e27742073757272656e6465720000000000000000000000000000000000604482015290519081900360640190fd5b5050600082815260046020908152604080832060069283905292209081015466010000000000009004600160a060020a03163314156130615781600301826002016001815481101515612ffd57fe5b6000918252602080832060048084049091015485546001810187559585529190932092840490920180546003948516600890810261010090810a67ffffffffffffffff9790951691909102900a90930484168202919093021990911617905561308c565b6007810154600160a060020a0316331415610eea5781600301826002016000815481101515612ffd57fe5b6004828101805460ff19169091179055600781810154600160a060020a0390811660009081526020929092526040808320839055600684015466010000000000009004909116825281208190556130e490859061319d565b50505050565b60006130f882856001614515565b50613101614aa6565b50506002805460009081526004602081815260408320805463ffffffff191663ffffffff89161765ffff00000000191664010000000061ffff89160217815593840180546001818101835591855291909320918104909101805460039092166008026101000a67ffffffffffffffff8181021990931692861602919091179055600491909101805460ff191660ff909216919091179055505050565b6000806000806000600160009054906101000a9004600160a060020a0316600160a060020a03166321f8a7216040518163ffffffff1660e060020a0281526004018080600080516020614e298339815191528152506020019050602060405180830381600087803b15801561321157600080fd5b505af1158015613225573d6000803e3d6000fd5b505050506040513d602081101561323b57600080fd5b50516001546040805160e060020a6321f8a721028152600080516020614e4983398151915260048201529051929750600160a060020a03909116916321f8a721916024808201926020929091908290030181600087803b15801561329e57600080fd5b505af11580156132b2573d6000803e3d6000fd5b505050506040513d60208110156132c857600080fd5b50516000888152600460208190526040808320805482517fd732f78800000000000000000000000000000000000000000000000000000000815261ffff64010000000083041663ffffffff9283160290911693810184905291519498509650909450600160a060020a0387169263d732f7889260248084019391929182900301818387803b15801561335957600080fd5b505af115801561336d573d6000803e3d6000fd5b5050505083600160a060020a0316639de23807836040518263ffffffff1660e060020a02815260040180828152602001915050602060405180830381600087803b1580156133ba57600080fd5b505af11580156133ce573d6000803e3d6000fd5b505050506040513d60208110156133e457600080fd5b50516003840154920391828115156133f857fe5b049150600090505b60038301548110156136e85784600160a060020a031663968efc3c846003018381548110151561342c57fe5b90600052602060002090600491828204019190066008029054906101000a900467ffffffffffffffff1660016040518363ffffffff1660e060020a028152600401808367ffffffffffffffff1667ffffffffffffffff1681526020018260030b815260200192505050600060405180830381600087803b1580156134af57600080fd5b505af11580156134c3573d6000803e3d6000fd5b5050505083600160a060020a0316631fad7e0786600160a060020a0316636352211e86600301858154811015156134f657fe5b90600052602060002090600491828204019190066008029054906101000a900467ffffffffffffffff166040518263ffffffff1660e060020a028152600401808267ffffffffffffffff168152602001915050602060405180830381600087803b15801561356357600080fd5b505af1158015613577573d6000803e3d6000fd5b505050506040513d602081101561358d57600080fd5b50516040805160e060020a63ffffffff8516028152600160a060020a0390921660048301527f676f6c64546f436c61696d0000000000000000000000000000000000000000006024830152600386810b900b604483015251606480830192600092919082900301818387803b15801561360557600080fd5b505af1158015613619573d6000803e3d6000fd5b505050508515156136e05784600160a060020a031663dfc02d90846003018381548110151561364457fe5b90600052602060002090600491828204019190066008029054906101000a900467ffffffffffffffff1660016040518363ffffffff1660e060020a028152600401808367ffffffffffffffff1667ffffffffffffffff1681526020018260030b815260200192505050600060405180830381600087803b1580156136c757600080fd5b505af11580156136db573d6000803e3d6000fd5b505050505b600101613400565b5060005b60028301548110156138825785156137ba5784600160a060020a031663dfc02d90846002018381548110151561371e57fe5b90600052602060002090600491828204019190066008029054906101000a900467ffffffffffffffff1660016040518363ffffffff1660e060020a028152600401808367ffffffffffffffff1667ffffffffffffffff1681526020018260030b815260200192505050600060405180830381600087803b1580156137a157600080fd5b505af11580156137b5573d6000803e3d6000fd5b505050505b84600160a060020a0316631bf956f584600201838154811015156137da57fe5b90600052602060002090600491828204019190066008029054906101000a900467ffffffffffffffff1660006040518363ffffffff1660e060020a028152600401808367ffffffffffffffff1667ffffffffffffffff1681526020018261ffff16815260200192505050600060405180830381600087803b15801561385e57600080fd5b505af1158015613872573d6000803e3d6000fd5b5050600190920191506136ec9050565b61388a612b70565b867fd19d858b3c30a099891a9b539c42846d6b876ba9d63626ffe187d6afa9d75d08846003016040518080602001828103825283818154815260200191508054801561392957602002820191906000526020600020906000905b82829054906101000a900467ffffffffffffffff1667ffffffffffffffff16815260200190600801906020826007010492830192600103820291508084116138e45790505b50509250505060405180910390a250505050505050565b600082815260046020526040902061395783614ae4565b50805461396d90839063ffffffff166000614515565b5060028101805460018101825560009182526020918290206004820401805467ffffffffffffffff80871660086003909516949094026101000a8481029102199091161790556040805133815292830191909152805185927fdcb8a487aa5e9590f9d0d2ad499ca491e193c04429caecbaf4b02355cb504c1a92908290030190a260028101548154640100000000900461ffff161415613a415760048101805460ff1916600217905560405183907e6e0c97de781a7389d44ba8fd35d1467cabb17ed04d038d166d34ab819213f390600090a25b505050565b600081424460405160200180838152602001828152602001925050506040516020818303038152906040526040518082805190602001908083835b60208310613aa05780518252601f199092019160209182019101613a81565b5181516020939093036101000a6000190180199091169216919091179052604051920182900390912092505050811515613ad657fe5b0692915050565b6001546040805160e060020a6321f8a721028152600080516020614e4983398151915260048201529051600092839283928392600160a060020a0316916321f8a72191602480830192602092919082900301818787803b158015613b4057600080fd5b505af1158015613b54573d6000803e3d6000fd5b505050506040513d6020811015613b6a57600080fd5b50516001546040805160e060020a6321f8a721028152600080516020614e2983398151915260048201529051929650600160a060020a03909116916321f8a721916024808201926020929091908290030181600087803b158015613bcd57600080fd5b505af1158015613be1573d6000803e3d6000fd5b505050506040513d6020811015613bf757600080fd5b5051600086815260046020526040812091945090925090505b6002820154811015613e415783600160a060020a0316631fad7e0784600160a060020a0316636352211e8560020185815481101515613c4b57fe5b90600052602060002090600491828204019190066008029054906101000a900467ffffffffffffffff166040518263ffffffff1660e060020a028152600401808267ffffffffffffffff168152602001915050602060405180830381600087803b158015613cb857600080fd5b505af1158015613ccc573d6000803e3d6000fd5b505050506040513d6020811015613ce257600080fd5b505184546040805163ffffffff85811660e060020a028252600160a060020a0390941660048201527f676f6c6400000000000000000000000000000000000000000000000000000000602482015292909116600390810b900b604483015251606480830192600092919082900301818387803b158015613d6157600080fd5b505af1158015613d75573d6000803e3d6000fd5b5050505082600160a060020a0316631bf956f58360020183815481101515613d9957fe5b90600052602060002090600491828204019190066008029054906101000a900467ffffffffffffffff1660006040518363ffffffff1660e060020a028152600401808367ffffffffffffffff1667ffffffffffffffff1681526020018261ffff16815260200192505050600060405180830381600087803b158015613e1d57600080fd5b505af1158015613e31573d6000803e3d6000fd5b505060019092019150613c109050565b613e49612b70565b847fd19d858b3c30a099891a9b539c42846d6b876ba9d63626ffe187d6afa9d75d088360030160405180806020018281038252838181548152602001915080548015613ee857602002820191906000526020600020906000905b82829054906101000a900467ffffffffffffffff1667ffffffffffffffff1681526020019060080190602082600701049283019260010382029150808411613ea35790505b50509250505060405180910390a25050505050565b600080808080808080808080808080805b600560ff8716116140355760009b5060009a506000995060009850600094505b600560ff861611613ffd578f60ff861660068110613f4857fe5b602002015160ff871660068110613f5b57fe5b602002015160ff1660011415613f9857891515613f795760018c019b505b600460ff8c161015613f8e5760009a50613f93565b600198505b613ff2565b8f60ff861660068110613fa757fe5b602002015160ff871660068110613fba57fe5b602002015160ff1660021415613ff257881515613fd85760018b019a505b600460ff8d161015613fed5760009b50613ff2565b600199505b600190940193613f2e565b600219808d0198508b019650600088810b1315614019579c87019c5b60008760000b131561402a579b86019b5b600190950194613f0e565b60009550600094505b600560ff8616116141655760009b5060009a506000995060009850600095505b600560ff87161161412d578f60ff86166006811061407857fe5b602002015160ff87166006811061408b57fe5b602002015160ff16600114156140c8578915156140a95760018c019b505b600460ff8c1610156140be5760009a506140c3565b600198505b614122565b8f60ff8616600681106140d757fe5b602002015160ff8716600681106140ea57fe5b602002015160ff1660021415614122578815156141085760018b019a505b600460ff8d16101561411d5760009b50614122565b600199505b60019095019461405e565b600219808d0198508b019650600088810b1315614149579c87019c5b60008760000b131561415a579b86019b5b60019094019361403e565b600093505b600460ff851611614315576000925082915060ff841615156141935760029250600091506141f3565b8360ff16600114156141ac5760019250600091506141f3565b8360ff16600214156141c55760009250600091506141f3565b8360ff16600314156141de5760009250600191506141f3565b8360ff16600414156141f35760009250600291505b5060009a508a9950899850889750875b600583900382900360ff8216116142dd578f60ff821684016006811061422557fe5b602002015160ff821683016006811061423a57fe5b602002015160ff1660011415614277578915156142585760018c019b505b600460ff8c16101561426d5760009a50614272565b600198505b6142d5565b8f60ff821684016006811061428857fe5b602002015160ff821683016006811061429d57fe5b602002015160ff16600214156142d5578815156142bb5760018b019a505b600460ff8d1610156142d05760009b506142d5565b600199505b600101614203565b600219808d0198508b019650600088810b13156142f9579c87019c5b60008760000b131561430a579b86019b5b60019093019261416a565b600093505b600460ff8516116144cf576000925082915060ff841615156143435760029250600091506143a3565b8360ff166001141561435c5760019250600091506143a3565b8360ff16600214156143755760009250600091506143a3565b8360ff166003141561438e5760009250600191506143a3565b8360ff16600414156143a35760009250600291505b5060009a508a9950899850889750875b600583900382900360ff821611614497578f838260050360ff16036006811015156143da57fe5b602002015160ff82168301600681106143ef57fe5b602002015160ff166001141561442c5789151561440d5760018c019b505b600460ff8c1610156144225760009a50614427565b600198505b61448f565b8f838260050360ff160360068110151561444257fe5b602002015160ff821683016006811061445757fe5b602002015160ff166002141561448f578815156144755760018b019a505b600460ff8d16101561448a5760009b5061448f565b600199505b6001016143b3565b600219808d0198508b019650600088810b13156144b3579c87019c5b60008760000b13156144c4579b86019b5b60019093019261431a565b8c60ff168e60ff1611156144e65760019e50614502565b8d60ff168d60ff1611156144fd5760029e50614502565b60009e505b5050505050505050505050505050919050565b600080600080600080600160009054906101000a9004600160a060020a0316600160a060020a03166321f8a7216040518163ffffffff1660e060020a0281526004018080600080516020614e298339815191528152506020019050602060405180830381600087803b15801561458a57600080fd5b505af115801561459e573d6000803e3d6000fd5b505050506040513d60208110156145b457600080fd5b50516001546040805160e060020a6321f8a721028152600080516020614e4983398151915260048201529051929750600160a060020a03909116916321f8a721916024808201926020929091908290030181600087803b15801561461757600080fd5b505af115801561462b573d6000803e3d6000fd5b505050506040513d602081101561464157600080fd5b5051604080517f6352211e00000000000000000000000000000000000000000000000000000000815267ffffffffffffffff8c16600482015290519195503391600160a060020a03881691636352211e9160248083019260209291908290030181600087803b1580156146b357600080fd5b505af11580156146c7573d6000803e3d6000fd5b505050506040513d60208110156146dd57600080fd5b5051600160a060020a03161461473d576040805160e560020a62461bcd02815260206004820152601660248201527f706c61796572206d757374206f776e20647261676f6e00000000000000000000604482015290519081900360640190fd5b604080517f1960253700000000000000000000000000000000000000000000000000000000815267ffffffffffffffff8b1660048201529051600160a060020a0387169163196025379160248083019260a09291908290030181600087803b1580156147a857600080fd5b505af11580156147bc573d6000803e3d6000fd5b505050506040513d60a08110156147d257600080fd5b50604081015160609091015190935091506147ee878985614d2a565b1515614844576040805160e560020a62461bcd02815260206004820152601460248201527f6e6f7420656e676f756768207072657374696765000000000000000000000000604482015290519081900360640190fd5b604080517f28f9933a0000000000000000000000000000000000000000000000000000000081523360048201527f676f6c640000000000000000000000000000000000000000000000000000000060248201529051600160a060020a038616916328f9933a9160448083019260209291908290030181600087803b1580156148cb57600080fd5b505af11580156148df573d6000803e3d6000fd5b505050506040513d60208110156148f557600080fd5b5051905063ffffffff808916908216101561495a576040805160e560020a62461bcd02815260206004820152601160248201527f6e6f7420656e676f75676820636f696e73000000000000000000000000000000604482015290519081900360640190fd5b604080517f1fad7e070000000000000000000000000000000000000000000000000000000081523360048201527f676f6c6400000000000000000000000000000000000000000000000000000000602482015260008a8103600390810b900b60448301529151600160a060020a03871692631fad7e07926064808201939182900301818387803b1580156149ed57600080fd5b505af1158015614a01573d6000803e3d6000fd5b5050600154604080517f1bf956f500000000000000000000000000000000000000000000000000000000815267ffffffffffffffff8e16600482015260a060020a90920461ffff16602483015251600160a060020a0389169350631bf956f59250604480830192600092919082900301818387803b158015614a8257600080fd5b505af1158015614a96573d6000803e3d6000fd5b5050505050505050509392505050565b6002805460010190819055604051600091907fa0b7f6f22bb4f69adc52dd16ffe2a964ab8b577be274247fa9a1547b03ce3e55908390a25060025490565b6001546040805160e060020a6321f8a721028152600080516020614e2983398151915260048201529051600092839283928392600160a060020a0316916321f8a72191602480830192602092919082900301818787803b158015614b4757600080fd5b505af1158015614b5b573d6000803e3d6000fd5b505050506040513d6020811015614b7157600080fd5b505160008681526004602052604090206002810154815492955090935064010000000090910461ffff1611614bf0576040805160e560020a62461bcd02815260206004820152601b60248201527f6d617820706c6179657220666f722067616d6520726561636865640000000000604482015290519081900360640190fd5b5060005b6002820154811015611be95733600160a060020a031683600160a060020a0316636352211e8460020184815481101515614c2a57fe5b90600052602060002090600491828204019190066008029054906101000a900467ffffffffffffffff166040518263ffffffff1660e060020a028152600401808267ffffffffffffffff168152602001915050602060405180830381600087803b158015614c9757600080fd5b505af1158015614cab573d6000803e3d6000fd5b505050506040513d6020811015614cc157600080fd5b5051600160a060020a03161415614d22576040805160e560020a62461bcd02815260206004820152601960248201527f706c617965722063616e206f6e6c79206a6f696e206f6e636500000000000000604482015290519081900360640190fd5b600101614bf4565b6000831580614d7357508263ffffffff16600a1480614d58575081600a0263ffffffff168363ffffffff1611155b8015614d735750600a63ffffffff84160663ffffffff166000145b949350505050565b61014060405190810160405280600a906020820280388339509192915050565b60a0604051908101604052806005906020820280388339509192915050565b610480604051908101604052806006905b614dd3614de9565b815260200190600190039081614dcb5790505090565b60c060405190810160405280600690602082028038833950919291505056006e6565647320746f206265206f776e657200000000000000000000000000000045766572447261676f6e73000000000000000000000000000000000000000000506c617965720000000000000000000000000000000000000000000000000000a165627a7a723058202461ce2567feff6442116cfe4d9fae7a22b49f2f5ce006eeeb0006ef9962d4c60029",
  "source": "pragma solidity ^0.4.0;\r\n\r\nimport \"./TicTacToeLogic.sol\";\r\n\r\ncontract TicTacToe is TicTacToeLogic {\r\n  constructor(address registrarAddress) public EDGBase(1001) HasRegistrar(registrarAddress) {}\r\n\r\n  function getGameId() public view returns (uint gameId) {\r\n    return playerToGameId[msg.sender];\r\n  }\r\n\r\n  function getGameForUser()\r\n    public\r\n    view\r\n    returns (uint gameId, uint32 price, uint16 maxPlayers, uint64[] dragons, uint64[] winners, uint8 status)\r\n  {\r\n    gameId = playerToGameId[msg.sender];\r\n    (price, maxPlayers, dragons, winners, status) = getGame(gameId);\r\n  }\r\n\r\n  function getCellValue(uint256 _gameId, uint8 row, uint8 col) public view returns (uint8) {\r\n    return gameInfos[_gameId].cells[col][row];\r\n  }\r\n\r\n  function getPlayingField(uint256 _gameId) public view returns (uint8[SIZE][SIZE]) {\r\n    return gameInfos[_gameId].cells;\r\n  }\r\n}\r\n",
  "sourcePath": "C:\\Projects\\everdragons\\everdragons-tictactoe\\contracts\\TicTacToe.sol",
  "compiler": {
    "name": "solc",
    "version": "0.4.25+commit.69a1e720.Emscripten.clang"
  },
  "schemaVersion": "2.0.1",
  "updatedAt": "2019-03-24T16:46:35.518Z"
}